{
  "_format": "hh-sol-artifact-1",
  "contractName": "FlappyBird",
  "sourceName": "games/FlappyBird.sol",
  "abi": [
    {
      "anonymous": false,
      "inputs": [
        {
          "indexed": false,
          "internalType": "uint256",
          "name": "score",
          "type": "uint256"
        },
        {
          "indexed": false,
          "internalType": "bool",
          "name": "isValid",
          "type": "bool"
        }
      ],
      "name": "ScoreValidated",
      "type": "event"
    },
    {
      "inputs": [],
      "name": "GAME_NAME",
      "outputs": [
        {
          "internalType": "string",
          "name": "",
          "type": "string"
        }
      ],
      "stateMutability": "view",
      "type": "function"
    },
    {
      "inputs": [],
      "name": "GAME_VERSION",
      "outputs": [
        {
          "internalType": "string",
          "name": "",
          "type": "string"
        }
      ],
      "stateMutability": "view",
      "type": "function"
    },
    {
      "inputs": [],
      "name": "MAX_PIPES",
      "outputs": [
        {
          "internalType": "uint256",
          "name": "",
          "type": "uint256"
        }
      ],
      "stateMutability": "view",
      "type": "function"
    },
    {
      "inputs": [],
      "name": "MIN_SCORE",
      "outputs": [
        {
          "internalType": "uint256",
          "name": "",
          "type": "uint256"
        }
      ],
      "stateMutability": "view",
      "type": "function"
    },
    {
      "inputs": [
        {
          "internalType": "uint256",
          "name": "score",
          "type": "uint256"
        }
      ],
      "name": "checkScore",
      "outputs": [
        {
          "internalType": "bool",
          "name": "isValid",
          "type": "bool"
        },
        {
          "internalType": "string",
          "name": "reason",
          "type": "string"
        }
      ],
      "stateMutability": "pure",
      "type": "function"
    },
    {
      "inputs": [
        {
          "internalType": "uint256",
          "name": "score",
          "type": "uint256"
        }
      ],
      "name": "getDifficultyRating",
      "outputs": [
        {
          "internalType": "uint256",
          "name": "difficulty",
          "type": "uint256"
        }
      ],
      "stateMutability": "pure",
      "type": "function"
    },
    {
      "inputs": [],
      "name": "getGameMetadata",
      "outputs": [
        {
          "internalType": "string",
          "name": "name",
          "type": "string"
        },
        {
          "internalType": "string",
          "name": "version",
          "type": "string"
        },
        {
          "internalType": "uint256",
          "name": "maxScore",
          "type": "uint256"
        }
      ],
      "stateMutability": "pure",
      "type": "function"
    },
    {
      "inputs": [],
      "name": "getMaxScore",
      "outputs": [
        {
          "internalType": "uint256",
          "name": "",
          "type": "uint256"
        }
      ],
      "stateMutability": "pure",
      "type": "function"
    },
    {
      "inputs": [
        {
          "internalType": "uint256",
          "name": "score",
          "type": "uint256"
        }
      ],
      "name": "validateScore",
      "outputs": [
        {
          "internalType": "bool",
          "name": "isValid",
          "type": "bool"
        }
      ],
      "stateMutability": "pure",
      "type": "function"
    }
  ],
  "bytecode": "0x60808060405234610016576103ed908161001c8239f35b600080fdfe604060808152600436101561001357600080fd5b600090813560e01c8063086bdbb1146102095780630f68a03c146100ae578063105427d2146101ca5780633bcd5c82146101a35780634021f3c61461012c57806340b89270146101125780635aed7802146100ca578063dc248b99146100ae5763e865bc251461008257600080fd5b346100aa5760203660031901126100aa576020906100a16004356102e5565b90519015158152f35b5080fd5b50346100aa57816003193601126100aa57602090516101f48152f35b50346100aa57816003193601126100aa5761010e906100e7610281565b906a119b185c1c1e48109a5c9960aa1b6020830152519182916020835260208301906102a5565b0390f35b50346100aa57816003193601126100aa5751908152602090f35b50346100aa57816003193601126100aa5761018d90610149610281565b906a119b185c1c1e48109a5c9960aa1b60208301526101f461019b61016c610247565b640312e302e360dc1b602082015283519586956060875260608701906102a5565b9085820360208701526102a5565b918301520390f35b50346100aa5760203660031901126100aa576020906101c360043561036e565b9051908152f35b509034610206576020366003190112610206575061010e6101ec6004356102f7565b8392919251938493151584528060208501528301906102a5565b80fd5b50346100aa57816003193601126100aa5761010e90610226610247565b90640312e302e360dc1b6020830152519182916020835260208301906102a5565b604051906040820182811067ffffffffffffffff82111761026b5760405260058252565b634e487b7160e01b600052604160045260246000fd5b604051906040820182811067ffffffffffffffff82111761026b57604052600b8252565b919082519283825260005b8481106102d1575050826000602080949584010152601f8019910116010190565b6020818301810151848301820152016102b0565b6101f4106102f257600190565b600090565b6101f4106103215760019061030a610281565b6a56616c69642073636f726560a81b602082015290565b6000906040516040810181811067ffffffffffffffff82111761026b57604052601b81527f53636f72652065786365656473206d6178696d756d2070697065730000000000602082015290565b600a81106103b157601981106103ab57603281106103a5576064811061039f5760fa1161039a57606490565b605a90565b50604b90565b50603290565b50601990565b50600a9056fea2646970667358221220ccad2d795f64465edeeb2f16aa4acd4549403517364826b1804df67a3868319164736f6c63430008140033",
  "linkReferences": {},
  "deployedLinkReferences": {}
}