{"tokens/GameNFT.sol":{"GameNFT":{"abi":[{"inputs":[],"stateMutability":"nonpayable","type":"constructor"},{"inputs":[{"internalType":"address","name":"sender","type":"address"},{"internalType":"uint256","name":"tokenId","type":"uint256"},{"internalType":"address","name":"owner","type":"address"}],"name":"ERC721IncorrectOwner","type":"error"},{"inputs":[{"internalType":"address","name":"operator","type":"address"},{"internalType":"uint256","name":"tokenId","type":"uint256"}],"name":"ERC721InsufficientApproval","type":"error"},{"inputs":[{"internalType":"address","name":"approver","type":"address"}],"name":"ERC721InvalidApprover","type":"error"},{"inputs":[{"internalType":"address","name":"operator","type":"address"}],"name":"ERC721InvalidOperator","type":"error"},{"inputs":[{"internalType":"address","name":"owner","type":"address"}],"name":"ERC721InvalidOwner","type":"error"},{"inputs":[{"internalType":"address","name":"receiver","type":"address"}],"name":"ERC721InvalidReceiver","type":"error"},{"inputs":[{"internalType":"address","name":"sender","type":"address"}],"name":"ERC721InvalidSender","type":"error"},{"inputs":[{"internalType":"uint256","name":"tokenId","type":"uint256"}],"name":"ERC721NonexistentToken","type":"error"},{"inputs":[{"internalType":"address","name":"owner","type":"address"}],"name":"OwnableInvalidOwner","type":"error"},{"inputs":[{"internalType":"address","name":"account","type":"address"}],"name":"OwnableUnauthorizedAccount","type":"error"},{"anonymous":false,"inputs":[{"indexed":true,"internalType":"address","name":"owner","type":"address"},{"indexed":true,"internalType":"address","name":"approved","type":"address"},{"indexed":true,"internalType":"uint256","name":"tokenId","type":"uint256"}],"name":"Approval","type":"event"},{"anonymous":false,"inputs":[{"indexed":true,"internalType":"address","name":"owner","type":"address"},{"indexed":true,"internalType":"address","name":"operator","type":"address"},{"indexed":false,"internalType":"bool","name":"approved","type":"bool"}],"name":"ApprovalForAll","type":"event"},{"anonymous":false,"inputs":[{"indexed":false,"internalType":"uint256","name":"_fromTokenId","type":"uint256"},{"indexed":false,"internalType":"uint256","name":"_toTokenId","type":"uint256"}],"name":"BatchMetadataUpdate","type":"event"},{"anonymous":false,"inputs":[{"indexed":false,"internalType":"uint256","name":"_tokenId","type":"uint256"}],"name":"MetadataUpdate","type":"event"},{"anonymous":false,"inputs":[{"indexed":true,"internalType":"address","name":"minter","type":"address"},{"indexed":false,"internalType":"bool","name":"status","type":"bool"}],"name":"MinterAuthorized","type":"event"},{"anonymous":false,"inputs":[{"indexed":true,"internalType":"address","name":"to","type":"address"},{"indexed":true,"internalType":"uint256","name":"tokenId","type":"uint256"},{"indexed":false,"internalType":"uint256","name":"achievementType","type":"uint256"},{"indexed":false,"internalType":"uint256","name":"gameId","type":"uint256"},{"indexed":false,"internalType":"uint256","name":"value","type":"uint256"}],"name":"NFTMinted","type":"event"},{"anonymous":false,"inputs":[{"indexed":true,"internalType":"address","name":"previousOwner","type":"address"},{"indexed":true,"internalType":"address","name":"newOwner","type":"address"}],"name":"OwnershipTransferred","type":"event"},{"anonymous":false,"inputs":[{"indexed":true,"internalType":"address","name":"from","type":"address"},{"indexed":true,"internalType":"address","name":"to","type":"address"},{"indexed":true,"internalType":"uint256","name":"tokenId","type":"uint256"}],"name":"Transfer","type":"event"},{"inputs":[{"internalType":"address","name":"to","type":"address"},{"internalType":"uint256","name":"tokenId","type":"uint256"}],"name":"approve","outputs":[],"stateMutability":"nonpayable","type":"function"},{"inputs":[{"internalType":"address","name":"","type":"address"}],"name":"authorizedMinters","outputs":[{"internalType":"bool","name":"","type":"bool"}],"stateMutability":"view","type":"function"},{"inputs":[{"internalType":"address","name":"owner","type":"address"}],"name":"balanceOf","outputs":[{"internalType":"uint256","name":"","type":"uint256"}],"stateMutability":"view","type":"function"},{"inputs":[{"internalType":"uint256","name":"tokenId","type":"uint256"}],"name":"getApproved","outputs":[{"internalType":"address","name":"","type":"address"}],"stateMutability":"view","type":"function"},{"inputs":[{"internalType":"uint256","name":"tokenId","type":"uint256"}],"name":"getNFTMetadata","outputs":[{"components":[{"internalType":"uint256","name":"achievementType","type":"uint256"},{"internalType":"uint256","name":"gameId","type":"uint256"},{"internalType":"uint256","name":"value","type":"uint256"},{"internalType":"uint256","name":"mintedAt","type":"uint256"}],"internalType":"struct GameNFT.NFTMetadata","name":"","type":"tuple"}],"stateMutability":"view","type":"function"},{"inputs":[{"internalType":"address","name":"owner","type":"address"}],"name":"getOwnedTokens","outputs":[{"internalType":"uint256[]","name":"","type":"uint256[]"}],"stateMutability":"view","type":"function"},{"inputs":[{"internalType":"address","name":"owner","type":"address"},{"internalType":"address","name":"operator","type":"address"}],"name":"isApprovedForAll","outputs":[{"internalType":"bool","name":"","type":"bool"}],"stateMutability":"view","type":"function"},{"inputs":[{"internalType":"address","name":"to","type":"address"},{"internalType":"uint256","name":"achievementType","type":"uint256"},{"internalType":"uint256","name":"gameId","type":"uint256"},{"internalType":"uint256","name":"value","type":"uint256"},{"internalType":"string","name":"tokenURI","type":"string"}],"name":"mintAchievement","outputs":[{"internalType":"uint256","name":"","type":"uint256"}],"stateMutability":"nonpayable","type":"function"},{"inputs":[],"name":"name","outputs":[{"internalType":"string","name":"","type":"string"}],"stateMutability":"view","type":"function"},{"inputs":[{"internalType":"uint256","name":"","type":"uint256"}],"name":"nftMetadata","outputs":[{"internalType":"uint256","name":"achievementType","type":"uint256"},{"internalType":"uint256","name":"gameId","type":"uint256"},{"internalType":"uint256","name":"value","type":"uint256"},{"internalType":"uint256","name":"mintedAt","type":"uint256"}],"stateMutability":"view","type":"function"},{"inputs":[],"name":"owner","outputs":[{"internalType":"address","name":"","type":"address"}],"stateMutability":"view","type":"function"},{"inputs":[{"internalType":"uint256","name":"tokenId","type":"uint256"}],"name":"ownerOf","outputs":[{"internalType":"address","name":"","type":"address"}],"stateMutability":"view","type":"function"},{"inputs":[],"name":"renounceOwnership","outputs":[],"stateMutability":"nonpayable","type":"function"},{"inputs":[{"internalType":"address","name":"from","type":"address"},{"internalType":"address","name":"to","type":"address"},{"internalType":"uint256","name":"tokenId","type":"uint256"}],"name":"safeTransferFrom","outputs":[],"stateMutability":"nonpayable","type":"function"},{"inputs":[{"internalType":"address","name":"from","type":"address"},{"internalType":"address","name":"to","type":"address"},{"internalType":"uint256","name":"tokenId","type":"uint256"},{"internalType":"bytes","name":"data","type":"bytes"}],"name":"safeTransferFrom","outputs":[],"stateMutability":"nonpayable","type":"function"},{"inputs":[{"internalType":"address","name":"operator","type":"address"},{"internalType":"bool","name":"approved","type":"bool"}],"name":"setApprovalForAll","outputs":[],"stateMutability":"nonpayable","type":"function"},{"inputs":[{"internalType":"address","name":"minter","type":"address"},{"internalType":"bool","name":"status","type":"bool"}],"name":"setAuthorizedMinter","outputs":[],"stateMutability":"nonpayable","type":"function"},{"inputs":[{"internalType":"bytes4","name":"interfaceId","type":"bytes4"}],"name":"supportsInterface","outputs":[{"internalType":"bool","name":"","type":"bool"}],"stateMutability":"view","type":"function"},{"inputs":[],"name":"symbol","outputs":[{"internalType":"string","name":"","type":"string"}],"stateMutability":"view","type":"function"},{"inputs":[{"internalType":"uint256","name":"tokenId","type":"uint256"}],"name":"tokenURI","outputs":[{"internalType":"string","name":"","type":"string"}],"stateMutability":"view","type":"function"},{"inputs":[],"name":"totalMinted","outputs":[{"internalType":"uint256","name":"","type":"uint256"}],"stateMutability":"view","type":"function"},{"inputs":[{"internalType":"address","name":"from","type":"address"},{"internalType":"address","name":"to","type":"address"},{"internalType":"uint256","name":"tokenId","type":"uint256"}],"name":"transferFrom","outputs":[],"stateMutability":"nonpayable","type":"function"},{"inputs":[{"internalType":"address","name":"newOwner","type":"address"}],"name":"transferOwnership","outputs":[],"stateMutability":"nonpayable","type":"function"}],"evm":{"bytecode":{"linkReferences":{},"object":"608034620003b6576001600160401b0390604081810183811183821017620003a0578152601782526020927f576562332041726361646520416368696576656d656e740000000000000000008484015281519082820182811082821117620003a0578352600490818352635733414160e01b8684015284518181116200038b576000938454916001978884811c9416801562000380575b8a8510146200036d578190601f948581116200031a575b508a90858311600114620002b5578892620002a9575b5050600019600383901b1c191690881b1785555b8051928311620002965786548781811c911680156200028b575b8982101462000278579081838594931162000223575b5088918311600114620001bf578592620001b3575b5050600019600383901b1c191690851b1784555b33156200019e575060078054336001600160a01b03198216811790925583519560099290916001600160a01b03167f8be0079c531659141344cd1fd0a4f28419497f9722a3daafe3b4186f6b6457e08580a333835252209060ff1982541617905561161d9081620003bc8239f35b9151631e4fbdf760e01b815291820152602490fd5b0151905038806200011c565b8786528886208894509190601f198416875b8b8282106200020c5750508411620001f2575b505050811b01845562000130565b015160001960f88460031b161c19169055388080620001e4565b8385015186558b97909501949384019301620001d1565b909192508786528886208380860160051c8201928b87106200026e575b9186958b929594930160051c01915b8281106200025f57505062000107565b8881558695508a91016200024f565b9250819262000240565b634e487b7160e01b865260228552602486fd5b90607f1690620000f1565b634e487b7160e01b855260418452602485fd5b015190503880620000c3565b8880528b89208b94509190601f1984168a8e5b828210620003025750508411620002e8575b505050811b018555620000d7565b015160001960f88460031b161c19169055388080620002da565b8385015186558e979095019493840193018e620002c8565b9091508780528a88208580850160051c8201928d861062000363575b918c91869594930160051c01915b82811062000354575050620000ad565b8a81558594508c910162000344565b9250819262000336565b634e487b7160e01b875260228652602487fd5b93607f169362000096565b604183634e487b7160e01b6000525260246000fd5b634e487b7160e01b600052604160045260246000fd5b600080fdfe6080604081815260048036101561001557600080fd5b600092833560e01c90816301ffc9a714610fc55750806306fdde0314610f1d578063081812fc14610ee2578063095ea7b314610e0657806323b872dd14610dee57806342842e0e14610dbf5780634954101514610d765780636352211e14610d455780636be9a6f114610c6257806370a0823114610c35578063715018a614610bd85780638da5cb5b14610baf57806395d89b4114610acc578063a22cb46514610a39578063a2309ff814610a1a578063aa2fe91b146109dc578063b58c43ac146104f5578063b88d4fde14610482578063c87b56dd1461038d578063d9d616551461026d578063e985e9c51461021f578063ed58bad8146101b25763f2fde38b1461012057600080fd5b346101ae5760203660031901126101ae5761013961108b565b906101426111e3565b6001600160a01b03918216928315610198575050600754826bffffffffffffffffffffffff60a01b821617600755167f8be0079c531659141344cd1fd0a4f28419497f9722a3daafe3b4186f6b6457e08380a380f35b51631e4fbdf760e01b8152908101849052602490fd5b8280fd5b50503461021b577f9041c22ed79d1c19c69cc22fd9e38c93da4f2dd8cd32580594e232a8a18541cb60206101e5366110f1565b906101ee6111e3565b6001600160a01b031680865260098352848620805460ff191660ff8415151617905593519015158152a280f35b5080fd5b50503461021b578060031936011261021b5760ff8160209361023f61108b565b6102476110a6565b6001600160a01b0391821683526005875283832091168252855220549151911615158152f35b5091903461021b576020806003193601126101ae5761028a61108b565b6102938161120f565b9361029d856115cf565b916102aa8551938461116e565b8583526102b6866115cf565b8385019190601f190136833760085496929586936001600160a01b039283169390855b8a811080610384575b1561034457808752600289528585858920541614610309575b610304906115aa565b6102d9565b98875181101561033157610329818b8b6103049460051b8c0101526115aa565b9990506102fb565b634e487b7160e01b875260328c52602487fd5b505081518781528651818901819052909283929083019189885b82811061036d57505050500390f35b83518552869550938101939281019260010161035e565b50818a106102e2565b5090346101ae576020918260031936011261047e57356103ac81611421565b508352600682528083209281518094829080546103c881611248565b91828552600191888382169182600014610457575050600114610419575b5050506104159392916103fa91038661116e565b815161040581611152565b525192828493845283019061104b565b0390f35b8552868520879350859291905b82841061043f57505050820101816103fa6104156103e6565b8054848b018601528995508894909301928101610426565b60ff19168782015293151560051b860190930193508492506103fa915061041590506103e6565b8380fd5b83823461021b57608036600319011261021b5761049d61108b565b6104a56110a6565b6044359060643567ffffffffffffffff81116104f157366023820112156104f1576104ee948160246104dc933693013591016111ac565b926104e8838383611282565b3361145c565b80f35b8580fd5b5082346109d95760a03660031901126109d95761051061108b565b926084359367ffffffffffffffff928386116109d957366023870112156109d9576105456024963690888189013591016111ac565b953382526020956009875260ff8584205416156109a15760085495610569876115aa565b6008558551986105788a611152565b848a526001600160a01b0399868b1696871561098b57868a898b8e9f839f859d9e9f6002928188528383528488205416938415159788610958575b8681526003845220805460019081019091559d52528d8c2080546001600160a01b031916831790557fddf252ad1be2c89b69c2b068fc378daa952ba7f163c4a11628f55a4df523b3ef8c80a4610942573b61081d575b5088865260068a5287862092815192831161080b57509189939189979695936106328354611248565b601f81116107ad575b508590601f83116001146107225791808896949260609896947f877890defa05b14f86d9eb216d69148da70a2de2bb0205b4156fcd4f60bd76d89a92610717575b5050600019600383901b1c191690841b1790555b7ff8e1a15aba9398e019f0b49df1a4fde98ee17ae345cb5f6b5e2c27f5033e8ce7838a518a8152a16003888a51926106c784611120565b359586845285840194604435958681528d80870193600a6064359a8b87528d8a0197428952835252209551865551908501555160028401555191015587519283528983015286820152a351908152f35b015190508e8061067c565b8388528688209190601f198416895b81811061079557509287959392859260609a98967f877890defa05b14f86d9eb216d69148da70a2de2bb0205b4156fcd4f60bd76d89c9a951061077c575b505050811b019055610690565b015160001960f88460031b161c191690558e808061076f565b8284015185558e9c5093880193928901928901610731565b919395509186819597989950528a8720601f840160051c8101918c8510610801575b918b999897959391601f8e9896940160051c01905b8181106107f1575061063b565b8881558c9a508d975086016107e4565b90915081906107cf565b634e487b7160e01b8752604190528386fd5b926108628b869c97958a8a80869f9a8f9e9f5196879586948593630a85bd0160e11b9b8c865233908601528401528d604484015260806064840152608483019061104b565b03925af18891816108fe575b506108ca575050505050503d6000146108c1573d61088b81611190565b906108988551928361116e565b81528092823d92013e5b815191826108be575050505191633250574960e11b8352820152fd5b01fd5b606091506108a2565b959a949997989793956001600160e01b031916036108e8578a610609565b50508551633250574960e11b8152908101859052fd5b9091508781813d831161093b575b610916818361116e565b8101031261093757516001600160e01b03198116810361093757908d61086e565b8880fd5b503d61090c565b89516339e3563760e11b81528086018990528690fd5b600083815260046020526040902080546001600160a01b03191690558581526003845281812080546000190190556105b3565b8851633250574960e11b81528086018890528690fd5b60156064928887519362461bcd60e51b8552840152820152742737ba1030baba3437b934bd32b21036b4b73a32b960591b6044820152fd5b80fd5b50503461021b57602036600319011261021b5760209160ff9082906001600160a01b03610a0761108b565b1681526009855220541690519015158152f35b50503461021b578160031936011261021b576020906008549051908152f35b5090346101ae57610a49366110f1565b6001600160a01b03909116929091908315610ab757503384526005602052808420838552602052610a88828286209060ff801983541691151516179055565b5190151581527f17307eab39ab6107e8899845ad3d59bd9653f200f220920489ca2b5937696c3160203392a380f35b836024925191630b61174360e31b8352820152fd5b50503461021b578160031936011261021b57805190826001805491610af083611248565b80865292828116908115610b875750600114610b2b575b505050610b198261041594038361116e565b5191829160208352602083019061104b565b94508085527fb10e2d527612073b26eecdfd717e6a320cf44b4afac2b0732d9fcbe2b7fa0cf65b828610610b6f57505050610b198260206104159582010194610b07565b80546020878701810191909152909501948101610b52565b610415975086935060209250610b1994915060ff191682840152151560051b82010194610b07565b50503461021b578160031936011261021b5760075490516001600160a01b039091168152602090f35b83346109d957806003193601126109d957610bf16111e3565b600780546001600160a01b0319811690915581906001600160a01b03167f8be0079c531659141344cd1fd0a4f28419497f9722a3daafe3b4186f6b6457e08280a380f35b50503461021b57602036600319011261021b57602090610c5b610c5661108b565b61120f565b9051908152f35b5082346109d9576020918260031936011261021b578035908260608651610c8881611120565b828152868101839052878101839052015281835260028452848320546001600160a01b031615610d0b57508152600a825282902082516080939091610ccc83611120565b80549384845260018201548185019081526060600360028501549486880195865201549501948552835195865251908501525190830152516060820152f35b845162461bcd60e51b81529081018490526014602482015273151bdad95b88191bd95cc81b9bdd08195e1a5cdd60621b6044820152606490fd5b5091346109d95760203660031901126109d95750610d6560209235611421565b90516001600160a01b039091168152f35b50346101ae5760203660031901126101ae576080928291358152600a60205220908154916001810154916003600283015492015492815194855260208501528301526060820152f35b50503461021b576104ee90610dd3366110bc565b91925192610de084611152565b8584526104e8838383611282565b83346109d9576104ee610e00366110bc565b91611282565b5090346101ae57806003193601126101ae57610e2061108b565b91602435610e2d81611421565b33151580610ecf575b80610ea6575b610e90576001600160a01b039485169482918691167f8c5be1e5ebec7d5bd14f71427d1e84f3dd0314c0f7b2291e5b200ac8c7c3b9258880a48452602052822080546001600160a01b031916909117905580f35b835163a9fbf51f60e01b81523381850152602490fd5b506001600160a01b03811686526005602090815284872033885290528386205460ff1615610e3c565b506001600160a01b038116331415610e36565b50346101ae5760203660031901126101ae57918260209335610f0381611421565b50825283528190205490516001600160a01b039091168152f35b50503461021b578160031936011261021b57805190828054610f3e81611248565b80855291600191808316908115610b875750600114610f6957505050610b198261041594038361116e565b80809650527f290decd9548b62a8d60345a988386fc84ba6bc95484008f6362f93160ef3e5635b828610610fad57505050610b198260206104159582010194610b07565b80546020878701810191909152909501948101610f90565b925050346101ae5760203660031901126101ae573563ffffffff60e01b81168091036101ae5760209250632483248360e11b8114908115611008575b5015158152f35b6380ac58cd60e01b81149150811561103a575b8115611029575b5038611001565b6301ffc9a760e01b14905038611022565b635b5e139f60e01b8114915061101b565b919082519283825260005b848110611077575050826000602080949584010152601f8019910116010190565b602081830181015184830182015201611056565b600435906001600160a01b03821682036110a157565b600080fd5b602435906001600160a01b03821682036110a157565b60609060031901126110a1576001600160a01b039060043582811681036110a1579160243590811681036110a1579060443590565b60409060031901126110a1576004356001600160a01b03811681036110a1579060243580151581036110a15790565b6080810190811067ffffffffffffffff82111761113c57604052565b634e487b7160e01b600052604160045260246000fd5b6020810190811067ffffffffffffffff82111761113c57604052565b90601f8019910116810190811067ffffffffffffffff82111761113c57604052565b67ffffffffffffffff811161113c57601f01601f191660200190565b9291926111b882611190565b916111c6604051938461116e565b8294818452818301116110a1578281602093846000960137010152565b6007546001600160a01b031633036111f757565b60405163118cdaa760e01b8152336004820152602490fd5b6001600160a01b0316801561122f57600052600360205260406000205490565b6040516322718ad960e21b815260006004820152602490fd5b90600182811c92168015611278575b602083101461126257565b634e487b7160e01b600052602260045260246000fd5b91607f1691611257565b6001600160a01b03918216929091831561140857600092828452826020956002875260409684888820541696879133151580611372575b509060027fddf252ad1be2c89b69c2b068fc378daa952ba7f163c4a11628f55a4df523b3ef928461133f575b858352600381528b8320805460010190558683525289812080546001600160a01b0319168517905580a4169283830361131e5750505050565b6064945051926364283d7b60e01b8452600484015260248301526044820152fd5b600087815260046020526040902080546001600160a01b0319169055848352600381528b832080546000190190556112e5565b919394509150806113c7575b1561138e578592918791386112b9565b8786886113ab576024915190637e27328960e01b82526004820152fd5b604491519063177e802f60e01b82523360048301526024820152fd5b5033871480156113ec575b8061137e575085825260048152338589842054161461137e565b5086825260058152878220338352815260ff88832054166113d2565b604051633250574960e11b815260006004820152602490fd5b6000818152600260205260409020546001600160a01b0316908115611444575090565b60249060405190637e27328960e01b82526004820152fd5b90939192833b61146e575b5050505050565b604051630a85bd0160e11b8082526001600160a01b0393841660048301529583166024820152604481019190915260806064820152949216926020929185906114bb90608483019061104b565b039483816000978189895af1869181611566575b50611530575050503d600014611527573d6114e981611190565b906114f7604051928361116e565b81528093823d92013e5b8251928361152257604051633250574960e11b815260048101849052602490fd5b019050fd5b60609250611501565b919450915063ffffffff60e01b160361154e57503880808080611467565b60249060405190633250574960e11b82526004820152fd5b9091508481813d83116115a3575b61157e818361116e565b8101031261159f57516001600160e01b03198116810361159f5790386114cf565b8680fd5b503d611574565b60001981146115b95760010190565b634e487b7160e01b600052601160045260246000fd5b67ffffffffffffffff811161113c5760051b6020019056fea2646970667358221220d628c5f0dee466a589ec3968bc4fca038ba61e69f2c4171cf29f368fa902844c64736f6c63430008140033","opcodes":"PUSH1 0x80 CALLVALUE PUSH3 0x3B6 JUMPI PUSH1 0x1 PUSH1 0x1 PUSH1 0x40 SHL SUB SWAP1 PUSH1 0x40 DUP2 DUP2 ADD DUP4 DUP2 GT DUP4 DUP3 LT OR PUSH3 0x3A0 JUMPI DUP2 MSTORE PUSH1 0x17 DUP3 MSTORE PUSH1 0x20 SWAP3 PUSH32 0x576562332041726361646520416368696576656D656E74000000000000000000 DUP5 DUP5 ADD MSTORE DUP2 MLOAD SWAP1 DUP3 DUP3 ADD DUP3 DUP2 LT DUP3 DUP3 GT OR PUSH3 0x3A0 JUMPI DUP4 MSTORE PUSH1 0x4 SWAP1 DUP2 DUP4 MSTORE PUSH4 0x57334141 PUSH1 0xE0 SHL DUP7 DUP5 ADD MSTORE DUP5 MLOAD DUP2 DUP2 GT PUSH3 0x38B JUMPI PUSH1 0x0 SWAP4 DUP5 SLOAD SWAP2 PUSH1 0x1 SWAP8 DUP9 DUP5 DUP2 SHR SWAP5 AND DUP1 ISZERO PUSH3 0x380 JUMPI JUMPDEST DUP11 DUP6 LT EQ PUSH3 0x36D JUMPI DUP2 SWAP1 PUSH1 0x1F SWAP5 DUP6 DUP2 GT PUSH3 0x31A JUMPI JUMPDEST POP DUP11 SWAP1 DUP6 DUP4 GT PUSH1 0x1 EQ PUSH3 0x2B5 JUMPI DUP9 SWAP3 PUSH3 0x2A9 JUMPI JUMPDEST POP POP PUSH1 0x0 NOT PUSH1 0x3 DUP4 SWAP1 SHL SHR NOT AND SWAP1 DUP9 SHL OR DUP6 SSTORE JUMPDEST DUP1 MLOAD SWAP3 DUP4 GT PUSH3 0x296 JUMPI DUP7 SLOAD DUP8 DUP2 DUP2 SHR SWAP2 AND DUP1 ISZERO PUSH3 0x28B JUMPI JUMPDEST DUP10 DUP3 LT EQ PUSH3 0x278 JUMPI SWAP1 DUP2 DUP4 DUP6 SWAP5 SWAP4 GT PUSH3 0x223 JUMPI JUMPDEST POP DUP9 SWAP2 DUP4 GT PUSH1 0x1 EQ PUSH3 0x1BF JUMPI DUP6 SWAP3 PUSH3 0x1B3 JUMPI JUMPDEST POP POP PUSH1 0x0 NOT PUSH1 0x3 DUP4 SWAP1 SHL SHR NOT AND SWAP1 DUP6 SHL OR DUP5 SSTORE JUMPDEST CALLER ISZERO PUSH3 0x19E JUMPI POP PUSH1 0x7 DUP1 SLOAD CALLER PUSH1 0x1 PUSH1 0x1 PUSH1 0xA0 SHL SUB NOT DUP3 AND DUP2 OR SWAP1 SWAP3 SSTORE DUP4 MLOAD SWAP6 PUSH1 0x9 SWAP3 SWAP1 SWAP2 PUSH1 0x1 PUSH1 0x1 PUSH1 0xA0 SHL SUB AND PUSH32 0x8BE0079C531659141344CD1FD0A4F28419497F9722A3DAAFE3B4186F6B6457E0 DUP6 DUP1 LOG3 CALLER DUP4 MSTORE MSTORE KECCAK256 SWAP1 PUSH1 0xFF NOT DUP3 SLOAD AND OR SWAP1 SSTORE PUSH2 0x161D SWAP1 DUP2 PUSH3 0x3BC DUP3 CODECOPY RETURN JUMPDEST SWAP2 MLOAD PUSH4 0x1E4FBDF7 PUSH1 0xE0 SHL DUP2 MSTORE SWAP2 DUP3 ADD MSTORE PUSH1 0x24 SWAP1 REVERT JUMPDEST ADD MLOAD SWAP1 POP CODESIZE DUP1 PUSH3 0x11C JUMP JUMPDEST DUP8 DUP7 MSTORE DUP9 DUP7 KECCAK256 DUP9 SWAP5 POP SWAP2 SWAP1 PUSH1 0x1F NOT DUP5 AND DUP8 JUMPDEST DUP12 DUP3 DUP3 LT PUSH3 0x20C JUMPI POP POP DUP5 GT PUSH3 0x1F2 JUMPI JUMPDEST POP POP POP DUP2 SHL ADD DUP5 SSTORE PUSH3 0x130 JUMP JUMPDEST ADD MLOAD PUSH1 0x0 NOT PUSH1 0xF8 DUP5 PUSH1 0x3 SHL AND SHR NOT AND SWAP1 SSTORE CODESIZE DUP1 DUP1 PUSH3 0x1E4 JUMP JUMPDEST DUP4 DUP6 ADD MLOAD DUP7 SSTORE DUP12 SWAP8 SWAP1 SWAP6 ADD SWAP5 SWAP4 DUP5 ADD SWAP4 ADD PUSH3 0x1D1 JUMP JUMPDEST SWAP1 SWAP2 SWAP3 POP DUP8 DUP7 MSTORE DUP9 DUP7 KECCAK256 DUP4 DUP1 DUP7 ADD PUSH1 0x5 SHR DUP3 ADD SWAP3 DUP12 DUP8 LT PUSH3 0x26E JUMPI JUMPDEST SWAP2 DUP7 SWAP6 DUP12 SWAP3 SWAP6 SWAP5 SWAP4 ADD PUSH1 0x5 SHR ADD SWAP2 JUMPDEST DUP3 DUP2 LT PUSH3 0x25F JUMPI POP POP PUSH3 0x107 JUMP JUMPDEST DUP9 DUP2 SSTORE DUP7 SWAP6 POP DUP11 SWAP2 ADD PUSH3 0x24F JUMP JUMPDEST SWAP3 POP DUP2 SWAP3 PUSH3 0x240 JUMP JUMPDEST PUSH4 0x4E487B71 PUSH1 0xE0 SHL DUP7 MSTORE PUSH1 0x22 DUP6 MSTORE PUSH1 0x24 DUP7 REVERT JUMPDEST SWAP1 PUSH1 0x7F AND SWAP1 PUSH3 0xF1 JUMP JUMPDEST PUSH4 0x4E487B71 PUSH1 0xE0 SHL DUP6 MSTORE PUSH1 0x41 DUP5 MSTORE PUSH1 0x24 DUP6 REVERT JUMPDEST ADD MLOAD SWAP1 POP CODESIZE DUP1 PUSH3 0xC3 JUMP JUMPDEST DUP9 DUP1 MSTORE DUP12 DUP10 KECCAK256 DUP12 SWAP5 POP SWAP2 SWAP1 PUSH1 0x1F NOT DUP5 AND DUP11 DUP15 JUMPDEST DUP3 DUP3 LT PUSH3 0x302 JUMPI POP POP DUP5 GT PUSH3 0x2E8 JUMPI JUMPDEST POP POP POP DUP2 SHL ADD DUP6 SSTORE PUSH3 0xD7 JUMP JUMPDEST ADD MLOAD PUSH1 0x0 NOT PUSH1 0xF8 DUP5 PUSH1 0x3 SHL AND SHR NOT AND SWAP1 SSTORE CODESIZE DUP1 DUP1 PUSH3 0x2DA JUMP JUMPDEST DUP4 DUP6 ADD MLOAD DUP7 SSTORE DUP15 SWAP8 SWAP1 SWAP6 ADD SWAP5 SWAP4 DUP5 ADD SWAP4 ADD DUP15 PUSH3 0x2C8 JUMP JUMPDEST SWAP1 SWAP2 POP DUP8 DUP1 MSTORE DUP11 DUP9 KECCAK256 DUP6 DUP1 DUP6 ADD PUSH1 0x5 SHR DUP3 ADD SWAP3 DUP14 DUP7 LT PUSH3 0x363 JUMPI JUMPDEST SWAP2 DUP13 SWAP2 DUP7 SWAP6 SWAP5 SWAP4 ADD PUSH1 0x5 SHR ADD SWAP2 JUMPDEST DUP3 DUP2 LT PUSH3 0x354 JUMPI POP POP PUSH3 0xAD JUMP JUMPDEST DUP11 DUP2 SSTORE DUP6 SWAP5 POP DUP13 SWAP2 ADD PUSH3 0x344 JUMP JUMPDEST SWAP3 POP DUP2 SWAP3 PUSH3 0x336 JUMP JUMPDEST PUSH4 0x4E487B71 PUSH1 0xE0 SHL DUP8 MSTORE PUSH1 0x22 DUP7 MSTORE PUSH1 0x24 DUP8 REVERT JUMPDEST SWAP4 PUSH1 0x7F AND SWAP4 PUSH3 0x96 JUMP JUMPDEST PUSH1 0x41 DUP4 PUSH4 0x4E487B71 PUSH1 0xE0 SHL PUSH1 0x0 MSTORE MSTORE PUSH1 0x24 PUSH1 0x0 REVERT JUMPDEST PUSH4 0x4E487B71 PUSH1 0xE0 SHL PUSH1 0x0 MSTORE PUSH1 0x41 PUSH1 0x4 MSTORE PUSH1 0x24 PUSH1 0x0 REVERT JUMPDEST PUSH1 0x0 DUP1 REVERT INVALID PUSH1 0x80 PUSH1 0x40 DUP2 DUP2 MSTORE PUSH1 0x4 DUP1 CALLDATASIZE LT ISZERO PUSH2 0x15 JUMPI PUSH1 0x0 DUP1 REVERT JUMPDEST PUSH1 0x0 SWAP3 DUP4 CALLDATALOAD PUSH1 0xE0 SHR SWAP1 DUP2 PUSH4 0x1FFC9A7 EQ PUSH2 0xFC5 JUMPI POP DUP1 PUSH4 0x6FDDE03 EQ PUSH2 0xF1D JUMPI DUP1 PUSH4 0x81812FC EQ PUSH2 0xEE2 JUMPI DUP1 PUSH4 0x95EA7B3 EQ PUSH2 0xE06 JUMPI DUP1 PUSH4 0x23B872DD EQ PUSH2 0xDEE JUMPI DUP1 PUSH4 0x42842E0E EQ PUSH2 0xDBF JUMPI DUP1 PUSH4 0x49541015 EQ PUSH2 0xD76 JUMPI DUP1 PUSH4 0x6352211E EQ PUSH2 0xD45 JUMPI DUP1 PUSH4 0x6BE9A6F1 EQ PUSH2 0xC62 JUMPI DUP1 PUSH4 0x70A08231 EQ PUSH2 0xC35 JUMPI DUP1 PUSH4 0x715018A6 EQ PUSH2 0xBD8 JUMPI DUP1 PUSH4 0x8DA5CB5B EQ PUSH2 0xBAF JUMPI DUP1 PUSH4 0x95D89B41 EQ PUSH2 0xACC JUMPI DUP1 PUSH4 0xA22CB465 EQ PUSH2 0xA39 JUMPI DUP1 PUSH4 0xA2309FF8 EQ PUSH2 0xA1A JUMPI DUP1 PUSH4 0xAA2FE91B EQ PUSH2 0x9DC JUMPI DUP1 PUSH4 0xB58C43AC EQ PUSH2 0x4F5 JUMPI DUP1 PUSH4 0xB88D4FDE EQ PUSH2 0x482 JUMPI DUP1 PUSH4 0xC87B56DD EQ PUSH2 0x38D JUMPI DUP1 PUSH4 0xD9D61655 EQ PUSH2 0x26D JUMPI DUP1 PUSH4 0xE985E9C5 EQ PUSH2 0x21F JUMPI DUP1 PUSH4 0xED58BAD8 EQ PUSH2 0x1B2 JUMPI PUSH4 0xF2FDE38B EQ PUSH2 0x120 JUMPI PUSH1 0x0 DUP1 REVERT JUMPDEST CALLVALUE PUSH2 0x1AE JUMPI PUSH1 0x20 CALLDATASIZE PUSH1 0x3 NOT ADD SLT PUSH2 0x1AE JUMPI PUSH2 0x139 PUSH2 0x108B JUMP JUMPDEST SWAP1 PUSH2 0x142 PUSH2 0x11E3 JUMP JUMPDEST PUSH1 0x1 PUSH1 0x1 PUSH1 0xA0 SHL SUB SWAP2 DUP3 AND SWAP3 DUP4 ISZERO PUSH2 0x198 JUMPI POP POP PUSH1 0x7 SLOAD DUP3 PUSH12 0xFFFFFFFFFFFFFFFFFFFFFFFF PUSH1 0xA0 SHL DUP3 AND OR PUSH1 0x7 SSTORE AND PUSH32 0x8BE0079C531659141344CD1FD0A4F28419497F9722A3DAAFE3B4186F6B6457E0 DUP4 DUP1 LOG3 DUP1 RETURN JUMPDEST MLOAD PUSH4 0x1E4FBDF7 PUSH1 0xE0 SHL DUP2 MSTORE SWAP1 DUP2 ADD DUP5 SWAP1 MSTORE PUSH1 0x24 SWAP1 REVERT JUMPDEST DUP3 DUP1 REVERT JUMPDEST POP POP CALLVALUE PUSH2 0x21B JUMPI PUSH32 0x9041C22ED79D1C19C69CC22FD9E38C93DA4F2DD8CD32580594E232A8A18541CB PUSH1 0x20 PUSH2 0x1E5 CALLDATASIZE PUSH2 0x10F1 JUMP JUMPDEST SWAP1 PUSH2 0x1EE PUSH2 0x11E3 JUMP JUMPDEST PUSH1 0x1 PUSH1 0x1 PUSH1 0xA0 SHL SUB AND DUP1 DUP7 MSTORE PUSH1 0x9 DUP4 MSTORE DUP5 DUP7 KECCAK256 DUP1 SLOAD PUSH1 0xFF NOT AND PUSH1 0xFF DUP5 ISZERO ISZERO AND OR SWAP1 SSTORE SWAP4 MLOAD SWAP1 ISZERO ISZERO DUP2 MSTORE LOG2 DUP1 RETURN JUMPDEST POP DUP1 REVERT JUMPDEST POP POP CALLVALUE PUSH2 0x21B JUMPI DUP1 PUSH1 0x3 NOT CALLDATASIZE ADD SLT PUSH2 0x21B JUMPI PUSH1 0xFF DUP2 PUSH1 0x20 SWAP4 PUSH2 0x23F PUSH2 0x108B JUMP JUMPDEST PUSH2 0x247 PUSH2 0x10A6 JUMP JUMPDEST PUSH1 0x1 PUSH1 0x1 PUSH1 0xA0 SHL SUB SWAP2 DUP3 AND DUP4 MSTORE PUSH1 0x5 DUP8 MSTORE DUP4 DUP4 KECCAK256 SWAP2 AND DUP3 MSTORE DUP6 MSTORE KECCAK256 SLOAD SWAP2 MLOAD SWAP2 AND ISZERO ISZERO DUP2 MSTORE RETURN JUMPDEST POP SWAP2 SWAP1 CALLVALUE PUSH2 0x21B JUMPI PUSH1 0x20 DUP1 PUSH1 0x3 NOT CALLDATASIZE ADD SLT PUSH2 0x1AE JUMPI PUSH2 0x28A PUSH2 0x108B JUMP JUMPDEST PUSH2 0x293 DUP2 PUSH2 0x120F JUMP JUMPDEST SWAP4 PUSH2 0x29D DUP6 PUSH2 0x15CF JUMP JUMPDEST SWAP2 PUSH2 0x2AA DUP6 MLOAD SWAP4 DUP5 PUSH2 0x116E JUMP JUMPDEST DUP6 DUP4 MSTORE PUSH2 0x2B6 DUP7 PUSH2 0x15CF JUMP JUMPDEST DUP4 DUP6 ADD SWAP2 SWAP1 PUSH1 0x1F NOT ADD CALLDATASIZE DUP4 CALLDATACOPY PUSH1 0x8 SLOAD SWAP7 SWAP3 SWAP6 DUP7 SWAP4 PUSH1 0x1 PUSH1 0x1 PUSH1 0xA0 SHL SUB SWAP3 DUP4 AND SWAP4 SWAP1 DUP6 JUMPDEST DUP11 DUP2 LT DUP1 PUSH2 0x384 JUMPI JUMPDEST ISZERO PUSH2 0x344 JUMPI DUP1 DUP8 MSTORE PUSH1 0x2 DUP10 MSTORE DUP6 DUP6 DUP6 DUP10 KECCAK256 SLOAD AND EQ PUSH2 0x309 JUMPI JUMPDEST PUSH2 0x304 SWAP1 PUSH2 0x15AA JUMP JUMPDEST PUSH2 0x2D9 JUMP JUMPDEST SWAP9 DUP8 MLOAD DUP2 LT ISZERO PUSH2 0x331 JUMPI PUSH2 0x329 DUP2 DUP12 DUP12 PUSH2 0x304 SWAP5 PUSH1 0x5 SHL DUP13 ADD ADD MSTORE PUSH2 0x15AA JUMP JUMPDEST SWAP10 SWAP1 POP PUSH2 0x2FB JUMP JUMPDEST PUSH4 0x4E487B71 PUSH1 0xE0 SHL DUP8 MSTORE PUSH1 0x32 DUP13 MSTORE PUSH1 0x24 DUP8 REVERT JUMPDEST POP POP DUP2 MLOAD DUP8 DUP2 MSTORE DUP7 MLOAD DUP2 DUP10 ADD DUP2 SWAP1 MSTORE SWAP1 SWAP3 DUP4 SWAP3 SWAP1 DUP4 ADD SWAP2 DUP10 DUP9 JUMPDEST DUP3 DUP2 LT PUSH2 0x36D JUMPI POP POP POP POP SUB SWAP1 RETURN JUMPDEST DUP4 MLOAD DUP6 MSTORE DUP7 SWAP6 POP SWAP4 DUP2 ADD SWAP4 SWAP3 DUP2 ADD SWAP3 PUSH1 0x1 ADD PUSH2 0x35E JUMP JUMPDEST POP DUP2 DUP11 LT PUSH2 0x2E2 JUMP JUMPDEST POP SWAP1 CALLVALUE PUSH2 0x1AE JUMPI PUSH1 0x20 SWAP2 DUP3 PUSH1 0x3 NOT CALLDATASIZE ADD SLT PUSH2 0x47E JUMPI CALLDATALOAD PUSH2 0x3AC DUP2 PUSH2 0x1421 JUMP JUMPDEST POP DUP4 MSTORE PUSH1 0x6 DUP3 MSTORE DUP1 DUP4 KECCAK256 SWAP3 DUP2 MLOAD DUP1 SWAP5 DUP3 SWAP1 DUP1 SLOAD PUSH2 0x3C8 DUP2 PUSH2 0x1248 JUMP JUMPDEST SWAP2 DUP3 DUP6 MSTORE PUSH1 0x1 SWAP2 DUP9 DUP4 DUP3 AND SWAP2 DUP3 PUSH1 0x0 EQ PUSH2 0x457 JUMPI POP POP PUSH1 0x1 EQ PUSH2 0x419 JUMPI JUMPDEST POP POP POP PUSH2 0x415 SWAP4 SWAP3 SWAP2 PUSH2 0x3FA SWAP2 SUB DUP7 PUSH2 0x116E JUMP JUMPDEST DUP2 MLOAD PUSH2 0x405 DUP2 PUSH2 0x1152 JUMP JUMPDEST MSTORE MLOAD SWAP3 DUP3 DUP5 SWAP4 DUP5 MSTORE DUP4 ADD SWAP1 PUSH2 0x104B JUMP JUMPDEST SUB SWAP1 RETURN JUMPDEST DUP6 MSTORE DUP7 DUP6 KECCAK256 DUP8 SWAP4 POP DUP6 SWAP3 SWAP2 SWAP1 JUMPDEST DUP3 DUP5 LT PUSH2 0x43F JUMPI POP POP POP DUP3 ADD ADD DUP2 PUSH2 0x3FA PUSH2 0x415 PUSH2 0x3E6 JUMP JUMPDEST DUP1 SLOAD DUP5 DUP12 ADD DUP7 ADD MSTORE DUP10 SWAP6 POP DUP9 SWAP5 SWAP1 SWAP4 ADD SWAP3 DUP2 ADD PUSH2 0x426 JUMP JUMPDEST PUSH1 0xFF NOT AND DUP8 DUP3 ADD MSTORE SWAP4 ISZERO ISZERO PUSH1 0x5 SHL DUP7 ADD SWAP1 SWAP4 ADD SWAP4 POP DUP5 SWAP3 POP PUSH2 0x3FA SWAP2 POP PUSH2 0x415 SWAP1 POP PUSH2 0x3E6 JUMP JUMPDEST DUP4 DUP1 REVERT JUMPDEST DUP4 DUP3 CALLVALUE PUSH2 0x21B JUMPI PUSH1 0x80 CALLDATASIZE PUSH1 0x3 NOT ADD SLT PUSH2 0x21B JUMPI PUSH2 0x49D PUSH2 0x108B JUMP JUMPDEST PUSH2 0x4A5 PUSH2 0x10A6 JUMP JUMPDEST PUSH1 0x44 CALLDATALOAD SWAP1 PUSH1 0x64 CALLDATALOAD PUSH8 0xFFFFFFFFFFFFFFFF DUP2 GT PUSH2 0x4F1 JUMPI CALLDATASIZE PUSH1 0x23 DUP3 ADD SLT ISZERO PUSH2 0x4F1 JUMPI PUSH2 0x4EE SWAP5 DUP2 PUSH1 0x24 PUSH2 0x4DC SWAP4 CALLDATASIZE SWAP4 ADD CALLDATALOAD SWAP2 ADD PUSH2 0x11AC JUMP JUMPDEST SWAP3 PUSH2 0x4E8 DUP4 DUP4 DUP4 PUSH2 0x1282 JUMP JUMPDEST CALLER PUSH2 0x145C JUMP JUMPDEST DUP1 RETURN JUMPDEST DUP6 DUP1 REVERT JUMPDEST POP DUP3 CALLVALUE PUSH2 0x9D9 JUMPI PUSH1 0xA0 CALLDATASIZE PUSH1 0x3 NOT ADD SLT PUSH2 0x9D9 JUMPI PUSH2 0x510 PUSH2 0x108B JUMP JUMPDEST SWAP3 PUSH1 0x84 CALLDATALOAD SWAP4 PUSH8 0xFFFFFFFFFFFFFFFF SWAP3 DUP4 DUP7 GT PUSH2 0x9D9 JUMPI CALLDATASIZE PUSH1 0x23 DUP8 ADD SLT ISZERO PUSH2 0x9D9 JUMPI PUSH2 0x545 PUSH1 0x24 SWAP7 CALLDATASIZE SWAP1 DUP9 DUP2 DUP10 ADD CALLDATALOAD SWAP2 ADD PUSH2 0x11AC JUMP JUMPDEST SWAP6 CALLER DUP3 MSTORE PUSH1 0x20 SWAP6 PUSH1 0x9 DUP8 MSTORE PUSH1 0xFF DUP6 DUP5 KECCAK256 SLOAD AND ISZERO PUSH2 0x9A1 JUMPI PUSH1 0x8 SLOAD SWAP6 PUSH2 0x569 DUP8 PUSH2 0x15AA JUMP JUMPDEST PUSH1 0x8 SSTORE DUP6 MLOAD SWAP9 PUSH2 0x578 DUP11 PUSH2 0x1152 JUMP JUMPDEST DUP5 DUP11 MSTORE PUSH1 0x1 PUSH1 0x1 PUSH1 0xA0 SHL SUB SWAP10 DUP7 DUP12 AND SWAP7 DUP8 ISZERO PUSH2 0x98B JUMPI DUP7 DUP11 DUP10 DUP12 DUP15 SWAP16 DUP4 SWAP16 DUP6 SWAP14 SWAP15 SWAP16 PUSH1 0x2 SWAP3 DUP2 DUP9 MSTORE DUP4 DUP4 MSTORE DUP5 DUP9 KECCAK256 SLOAD AND SWAP4 DUP5 ISZERO ISZERO SWAP8 DUP9 PUSH2 0x958 JUMPI JUMPDEST DUP7 DUP2 MSTORE PUSH1 0x3 DUP5 MSTORE KECCAK256 DUP1 SLOAD PUSH1 0x1 SWAP1 DUP2 ADD SWAP1 SWAP2 SSTORE SWAP14 MSTORE MSTORE DUP14 DUP13 KECCAK256 DUP1 SLOAD PUSH1 0x1 PUSH1 0x1 PUSH1 0xA0 SHL SUB NOT AND DUP4 OR SWAP1 SSTORE PUSH32 0xDDF252AD1BE2C89B69C2B068FC378DAA952BA7F163C4A11628F55A4DF523B3EF DUP13 DUP1 LOG4 PUSH2 0x942 JUMPI EXTCODESIZE PUSH2 0x81D JUMPI JUMPDEST POP DUP9 DUP7 MSTORE PUSH1 0x6 DUP11 MSTORE DUP8 DUP7 KECCAK256 SWAP3 DUP2 MLOAD SWAP3 DUP4 GT PUSH2 0x80B JUMPI POP SWAP2 DUP10 SWAP4 SWAP2 DUP10 SWAP8 SWAP7 SWAP6 SWAP4 PUSH2 0x632 DUP4 SLOAD PUSH2 0x1248 JUMP JUMPDEST PUSH1 0x1F DUP2 GT PUSH2 0x7AD JUMPI JUMPDEST POP DUP6 SWAP1 PUSH1 0x1F DUP4 GT PUSH1 0x1 EQ PUSH2 0x722 JUMPI SWAP2 DUP1 DUP9 SWAP7 SWAP5 SWAP3 PUSH1 0x60 SWAP9 SWAP7 SWAP5 PUSH32 0x877890DEFA05B14F86D9EB216D69148DA70A2DE2BB0205B4156FCD4F60BD76D8 SWAP11 SWAP3 PUSH2 0x717 JUMPI JUMPDEST POP POP PUSH1 0x0 NOT PUSH1 0x3 DUP4 SWAP1 SHL SHR NOT AND SWAP1 DUP5 SHL OR SWAP1 SSTORE JUMPDEST PUSH32 0xF8E1A15ABA9398E019F0B49DF1A4FDE98EE17AE345CB5F6B5E2C27F5033E8CE7 DUP4 DUP11 MLOAD DUP11 DUP2 MSTORE LOG1 PUSH1 0x3 DUP9 DUP11 MLOAD SWAP3 PUSH2 0x6C7 DUP5 PUSH2 0x1120 JUMP JUMPDEST CALLDATALOAD SWAP6 DUP7 DUP5 MSTORE DUP6 DUP5 ADD SWAP5 PUSH1 0x44 CALLDATALOAD SWAP6 DUP7 DUP2 MSTORE DUP14 DUP1 DUP8 ADD SWAP4 PUSH1 0xA PUSH1 0x64 CALLDATALOAD SWAP11 DUP12 DUP8 MSTORE DUP14 DUP11 ADD SWAP8 TIMESTAMP DUP10 MSTORE DUP4 MSTORE MSTORE KECCAK256 SWAP6 MLOAD DUP7 SSTORE MLOAD SWAP1 DUP6 ADD SSTORE MLOAD PUSH1 0x2 DUP5 ADD SSTORE MLOAD SWAP2 ADD SSTORE DUP8 MLOAD SWAP3 DUP4 MSTORE DUP10 DUP4 ADD MSTORE DUP7 DUP3 ADD MSTORE LOG3 MLOAD SWAP1 DUP2 MSTORE RETURN JUMPDEST ADD MLOAD SWAP1 POP DUP15 DUP1 PUSH2 0x67C JUMP JUMPDEST DUP4 DUP9 MSTORE DUP7 DUP9 KECCAK256 SWAP2 SWAP1 PUSH1 0x1F NOT DUP5 AND DUP10 JUMPDEST DUP2 DUP2 LT PUSH2 0x795 JUMPI POP SWAP3 DUP8 SWAP6 SWAP4 SWAP3 DUP6 SWAP3 PUSH1 0x60 SWAP11 SWAP9 SWAP7 PUSH32 0x877890DEFA05B14F86D9EB216D69148DA70A2DE2BB0205B4156FCD4F60BD76D8 SWAP13 SWAP11 SWAP6 LT PUSH2 0x77C JUMPI JUMPDEST POP POP POP DUP2 SHL ADD SWAP1 SSTORE PUSH2 0x690 JUMP JUMPDEST ADD MLOAD PUSH1 0x0 NOT PUSH1 0xF8 DUP5 PUSH1 0x3 SHL AND SHR NOT AND SWAP1 SSTORE DUP15 DUP1 DUP1 PUSH2 0x76F JUMP JUMPDEST DUP3 DUP5 ADD MLOAD DUP6 SSTORE DUP15 SWAP13 POP SWAP4 DUP9 ADD SWAP4 SWAP3 DUP10 ADD SWAP3 DUP10 ADD PUSH2 0x731 JUMP JUMPDEST SWAP2 SWAP4 SWAP6 POP SWAP2 DUP7 DUP2 SWAP6 SWAP8 SWAP9 SWAP10 POP MSTORE DUP11 DUP8 KECCAK256 PUSH1 0x1F DUP5 ADD PUSH1 0x5 SHR DUP2 ADD SWAP2 DUP13 DUP6 LT PUSH2 0x801 JUMPI JUMPDEST SWAP2 DUP12 SWAP10 SWAP9 SWAP8 SWAP6 SWAP4 SWAP2 PUSH1 0x1F DUP15 SWAP9 SWAP7 SWAP5 ADD PUSH1 0x5 SHR ADD SWAP1 JUMPDEST DUP2 DUP2 LT PUSH2 0x7F1 JUMPI POP PUSH2 0x63B JUMP JUMPDEST DUP9 DUP2 SSTORE DUP13 SWAP11 POP DUP14 SWAP8 POP DUP7 ADD PUSH2 0x7E4 JUMP JUMPDEST SWAP1 SWAP2 POP DUP2 SWAP1 PUSH2 0x7CF JUMP JUMPDEST PUSH4 0x4E487B71 PUSH1 0xE0 SHL DUP8 MSTORE PUSH1 0x41 SWAP1 MSTORE DUP4 DUP7 REVERT JUMPDEST SWAP3 PUSH2 0x862 DUP12 DUP7 SWAP13 SWAP8 SWAP6 DUP11 DUP11 DUP1 DUP7 SWAP16 SWAP11 DUP16 SWAP15 SWAP16 MLOAD SWAP7 DUP8 SWAP6 DUP7 SWAP5 DUP6 SWAP4 PUSH4 0xA85BD01 PUSH1 0xE1 SHL SWAP12 DUP13 DUP7 MSTORE CALLER SWAP1 DUP7 ADD MSTORE DUP5 ADD MSTORE DUP14 PUSH1 0x44 DUP5 ADD MSTORE PUSH1 0x80 PUSH1 0x64 DUP5 ADD MSTORE PUSH1 0x84 DUP4 ADD SWAP1 PUSH2 0x104B JUMP JUMPDEST SUB SWAP3 GAS CALL DUP9 SWAP2 DUP2 PUSH2 0x8FE JUMPI JUMPDEST POP PUSH2 0x8CA JUMPI POP POP POP POP POP POP RETURNDATASIZE PUSH1 0x0 EQ PUSH2 0x8C1 JUMPI RETURNDATASIZE PUSH2 0x88B DUP2 PUSH2 0x1190 JUMP JUMPDEST SWAP1 PUSH2 0x898 DUP6 MLOAD SWAP3 DUP4 PUSH2 0x116E JUMP JUMPDEST DUP2 MSTORE DUP1 SWAP3 DUP3 RETURNDATASIZE SWAP3 ADD RETURNDATACOPY JUMPDEST DUP2 MLOAD SWAP2 DUP3 PUSH2 0x8BE JUMPI POP POP POP MLOAD SWAP2 PUSH4 0x32505749 PUSH1 0xE1 SHL DUP4 MSTORE DUP3 ADD MSTORE REVERT JUMPDEST ADD REVERT JUMPDEST PUSH1 0x60 SWAP2 POP PUSH2 0x8A2 JUMP JUMPDEST SWAP6 SWAP11 SWAP5 SWAP10 SWAP8 SWAP9 SWAP8 SWAP4 SWAP6 PUSH1 0x1 PUSH1 0x1 PUSH1 0xE0 SHL SUB NOT AND SUB PUSH2 0x8E8 JUMPI DUP11 PUSH2 0x609 JUMP JUMPDEST POP POP DUP6 MLOAD PUSH4 0x32505749 PUSH1 0xE1 SHL DUP2 MSTORE SWAP1 DUP2 ADD DUP6 SWAP1 MSTORE REVERT JUMPDEST SWAP1 SWAP2 POP DUP8 DUP2 DUP2 RETURNDATASIZE DUP4 GT PUSH2 0x93B JUMPI JUMPDEST PUSH2 0x916 DUP2 DUP4 PUSH2 0x116E JUMP JUMPDEST DUP2 ADD SUB SLT PUSH2 0x937 JUMPI MLOAD PUSH1 0x1 PUSH1 0x1 PUSH1 0xE0 SHL SUB NOT DUP2 AND DUP2 SUB PUSH2 0x937 JUMPI SWAP1 DUP14 PUSH2 0x86E JUMP JUMPDEST DUP9 DUP1 REVERT JUMPDEST POP RETURNDATASIZE PUSH2 0x90C JUMP JUMPDEST DUP10 MLOAD PUSH4 0x39E35637 PUSH1 0xE1 SHL DUP2 MSTORE DUP1 DUP7 ADD DUP10 SWAP1 MSTORE DUP7 SWAP1 REVERT JUMPDEST PUSH1 0x0 DUP4 DUP2 MSTORE PUSH1 0x4 PUSH1 0x20 MSTORE PUSH1 0x40 SWAP1 KECCAK256 DUP1 SLOAD PUSH1 0x1 PUSH1 0x1 PUSH1 0xA0 SHL SUB NOT AND SWAP1 SSTORE DUP6 DUP2 MSTORE PUSH1 0x3 DUP5 MSTORE DUP2 DUP2 KECCAK256 DUP1 SLOAD PUSH1 0x0 NOT ADD SWAP1 SSTORE PUSH2 0x5B3 JUMP JUMPDEST DUP9 MLOAD PUSH4 0x32505749 PUSH1 0xE1 SHL DUP2 MSTORE DUP1 DUP7 ADD DUP9 SWAP1 MSTORE DUP7 SWAP1 REVERT JUMPDEST PUSH1 0x15 PUSH1 0x64 SWAP3 DUP9 DUP8 MLOAD SWAP4 PUSH3 0x461BCD PUSH1 0xE5 SHL DUP6 MSTORE DUP5 ADD MSTORE DUP3 ADD MSTORE PUSH21 0x2737BA1030BABA3437B934BD32B21036B4B73A32B9 PUSH1 0x59 SHL PUSH1 0x44 DUP3 ADD MSTORE REVERT JUMPDEST DUP1 REVERT JUMPDEST POP POP CALLVALUE PUSH2 0x21B JUMPI PUSH1 0x20 CALLDATASIZE PUSH1 0x3 NOT ADD SLT PUSH2 0x21B JUMPI PUSH1 0x20 SWAP2 PUSH1 0xFF SWAP1 DUP3 SWAP1 PUSH1 0x1 PUSH1 0x1 PUSH1 0xA0 SHL SUB PUSH2 0xA07 PUSH2 0x108B JUMP JUMPDEST AND DUP2 MSTORE PUSH1 0x9 DUP6 MSTORE KECCAK256 SLOAD AND SWAP1 MLOAD SWAP1 ISZERO ISZERO DUP2 MSTORE RETURN JUMPDEST POP POP CALLVALUE PUSH2 0x21B JUMPI DUP2 PUSH1 0x3 NOT CALLDATASIZE ADD SLT PUSH2 0x21B JUMPI PUSH1 0x20 SWAP1 PUSH1 0x8 SLOAD SWAP1 MLOAD SWAP1 DUP2 MSTORE RETURN JUMPDEST POP SWAP1 CALLVALUE PUSH2 0x1AE JUMPI PUSH2 0xA49 CALLDATASIZE PUSH2 0x10F1 JUMP JUMPDEST PUSH1 0x1 PUSH1 0x1 PUSH1 0xA0 SHL SUB SWAP1 SWAP2 AND SWAP3 SWAP1 SWAP2 SWAP1 DUP4 ISZERO PUSH2 0xAB7 JUMPI POP CALLER DUP5 MSTORE PUSH1 0x5 PUSH1 0x20 MSTORE DUP1 DUP5 KECCAK256 DUP4 DUP6 MSTORE PUSH1 0x20 MSTORE PUSH2 0xA88 DUP3 DUP3 DUP7 KECCAK256 SWAP1 PUSH1 0xFF DUP1 NOT DUP4 SLOAD AND SWAP2 ISZERO ISZERO AND OR SWAP1 SSTORE JUMP JUMPDEST MLOAD SWAP1 ISZERO ISZERO DUP2 MSTORE PUSH32 0x17307EAB39AB6107E8899845AD3D59BD9653F200F220920489CA2B5937696C31 PUSH1 0x20 CALLER SWAP3 LOG3 DUP1 RETURN JUMPDEST DUP4 PUSH1 0x24 SWAP3 MLOAD SWAP2 PUSH4 0xB611743 PUSH1 0xE3 SHL DUP4 MSTORE DUP3 ADD MSTORE REVERT JUMPDEST POP POP CALLVALUE PUSH2 0x21B JUMPI DUP2 PUSH1 0x3 NOT CALLDATASIZE ADD SLT PUSH2 0x21B JUMPI DUP1 MLOAD SWAP1 DUP3 PUSH1 0x1 DUP1 SLOAD SWAP2 PUSH2 0xAF0 DUP4 PUSH2 0x1248 JUMP JUMPDEST DUP1 DUP7 MSTORE SWAP3 DUP3 DUP2 AND SWAP1 DUP2 ISZERO PUSH2 0xB87 JUMPI POP PUSH1 0x1 EQ PUSH2 0xB2B JUMPI JUMPDEST POP POP POP PUSH2 0xB19 DUP3 PUSH2 0x415 SWAP5 SUB DUP4 PUSH2 0x116E JUMP JUMPDEST MLOAD SWAP2 DUP3 SWAP2 PUSH1 0x20 DUP4 MSTORE PUSH1 0x20 DUP4 ADD SWAP1 PUSH2 0x104B JUMP JUMPDEST SWAP5 POP DUP1 DUP6 MSTORE PUSH32 0xB10E2D527612073B26EECDFD717E6A320CF44B4AFAC2B0732D9FCBE2B7FA0CF6 JUMPDEST DUP3 DUP7 LT PUSH2 0xB6F JUMPI POP POP POP PUSH2 0xB19 DUP3 PUSH1 0x20 PUSH2 0x415 SWAP6 DUP3 ADD ADD SWAP5 PUSH2 0xB07 JUMP JUMPDEST DUP1 SLOAD PUSH1 0x20 DUP8 DUP8 ADD DUP2 ADD SWAP2 SWAP1 SWAP2 MSTORE SWAP1 SWAP6 ADD SWAP5 DUP2 ADD PUSH2 0xB52 JUMP JUMPDEST PUSH2 0x415 SWAP8 POP DUP7 SWAP4 POP PUSH1 0x20 SWAP3 POP PUSH2 0xB19 SWAP5 SWAP2 POP PUSH1 0xFF NOT AND DUP3 DUP5 ADD MSTORE ISZERO ISZERO PUSH1 0x5 SHL DUP3 ADD ADD SWAP5 PUSH2 0xB07 JUMP JUMPDEST POP POP CALLVALUE PUSH2 0x21B JUMPI DUP2 PUSH1 0x3 NOT CALLDATASIZE ADD SLT PUSH2 0x21B JUMPI PUSH1 0x7 SLOAD SWAP1 MLOAD PUSH1 0x1 PUSH1 0x1 PUSH1 0xA0 SHL SUB SWAP1 SWAP2 AND DUP2 MSTORE PUSH1 0x20 SWAP1 RETURN JUMPDEST DUP4 CALLVALUE PUSH2 0x9D9 JUMPI DUP1 PUSH1 0x3 NOT CALLDATASIZE ADD SLT PUSH2 0x9D9 JUMPI PUSH2 0xBF1 PUSH2 0x11E3 JUMP JUMPDEST PUSH1 0x7 DUP1 SLOAD PUSH1 0x1 PUSH1 0x1 PUSH1 0xA0 SHL SUB NOT DUP2 AND SWAP1 SWAP2 SSTORE DUP2 SWAP1 PUSH1 0x1 PUSH1 0x1 PUSH1 0xA0 SHL SUB AND PUSH32 0x8BE0079C531659141344CD1FD0A4F28419497F9722A3DAAFE3B4186F6B6457E0 DUP3 DUP1 LOG3 DUP1 RETURN JUMPDEST POP POP CALLVALUE PUSH2 0x21B JUMPI PUSH1 0x20 CALLDATASIZE PUSH1 0x3 NOT ADD SLT PUSH2 0x21B JUMPI PUSH1 0x20 SWAP1 PUSH2 0xC5B PUSH2 0xC56 PUSH2 0x108B JUMP JUMPDEST PUSH2 0x120F JUMP JUMPDEST SWAP1 MLOAD SWAP1 DUP2 MSTORE RETURN JUMPDEST POP DUP3 CALLVALUE PUSH2 0x9D9 JUMPI PUSH1 0x20 SWAP2 DUP3 PUSH1 0x3 NOT CALLDATASIZE ADD SLT PUSH2 0x21B JUMPI DUP1 CALLDATALOAD SWAP1 DUP3 PUSH1 0x60 DUP7 MLOAD PUSH2 0xC88 DUP2 PUSH2 0x1120 JUMP JUMPDEST DUP3 DUP2 MSTORE DUP7 DUP2 ADD DUP4 SWAP1 MSTORE DUP8 DUP2 ADD DUP4 SWAP1 MSTORE ADD MSTORE DUP2 DUP4 MSTORE PUSH1 0x2 DUP5 MSTORE DUP5 DUP4 KECCAK256 SLOAD PUSH1 0x1 PUSH1 0x1 PUSH1 0xA0 SHL SUB AND ISZERO PUSH2 0xD0B JUMPI POP DUP2 MSTORE PUSH1 0xA DUP3 MSTORE DUP3 SWAP1 KECCAK256 DUP3 MLOAD PUSH1 0x80 SWAP4 SWAP1 SWAP2 PUSH2 0xCCC DUP4 PUSH2 0x1120 JUMP JUMPDEST DUP1 SLOAD SWAP4 DUP5 DUP5 MSTORE PUSH1 0x1 DUP3 ADD SLOAD DUP2 DUP6 ADD SWAP1 DUP2 MSTORE PUSH1 0x60 PUSH1 0x3 PUSH1 0x2 DUP6 ADD SLOAD SWAP5 DUP7 DUP9 ADD SWAP6 DUP7 MSTORE ADD SLOAD SWAP6 ADD SWAP5 DUP6 MSTORE DUP4 MLOAD SWAP6 DUP7 MSTORE MLOAD SWAP1 DUP6 ADD MSTORE MLOAD SWAP1 DUP4 ADD MSTORE MLOAD PUSH1 0x60 DUP3 ADD MSTORE RETURN JUMPDEST DUP5 MLOAD PUSH3 0x461BCD PUSH1 0xE5 SHL DUP2 MSTORE SWAP1 DUP2 ADD DUP5 SWAP1 MSTORE PUSH1 0x14 PUSH1 0x24 DUP3 ADD MSTORE PUSH20 0x151BDAD95B88191BD95CC81B9BDD08195E1A5CDD PUSH1 0x62 SHL PUSH1 0x44 DUP3 ADD MSTORE PUSH1 0x64 SWAP1 REVERT JUMPDEST POP SWAP2 CALLVALUE PUSH2 0x9D9 JUMPI PUSH1 0x20 CALLDATASIZE PUSH1 0x3 NOT ADD SLT PUSH2 0x9D9 JUMPI POP PUSH2 0xD65 PUSH1 0x20 SWAP3 CALLDATALOAD PUSH2 0x1421 JUMP JUMPDEST SWAP1 MLOAD PUSH1 0x1 PUSH1 0x1 PUSH1 0xA0 SHL SUB SWAP1 SWAP2 AND DUP2 MSTORE RETURN JUMPDEST POP CALLVALUE PUSH2 0x1AE JUMPI PUSH1 0x20 CALLDATASIZE PUSH1 0x3 NOT ADD SLT PUSH2 0x1AE JUMPI PUSH1 0x80 SWAP3 DUP3 SWAP2 CALLDATALOAD DUP2 MSTORE PUSH1 0xA PUSH1 0x20 MSTORE KECCAK256 SWAP1 DUP2 SLOAD SWAP2 PUSH1 0x1 DUP2 ADD SLOAD SWAP2 PUSH1 0x3 PUSH1 0x2 DUP4 ADD SLOAD SWAP3 ADD SLOAD SWAP3 DUP2 MLOAD SWAP5 DUP6 MSTORE PUSH1 0x20 DUP6 ADD MSTORE DUP4 ADD MSTORE PUSH1 0x60 DUP3 ADD MSTORE RETURN JUMPDEST POP POP CALLVALUE PUSH2 0x21B JUMPI PUSH2 0x4EE SWAP1 PUSH2 0xDD3 CALLDATASIZE PUSH2 0x10BC JUMP JUMPDEST SWAP2 SWAP3 MLOAD SWAP3 PUSH2 0xDE0 DUP5 PUSH2 0x1152 JUMP JUMPDEST DUP6 DUP5 MSTORE PUSH2 0x4E8 DUP4 DUP4 DUP4 PUSH2 0x1282 JUMP JUMPDEST DUP4 CALLVALUE PUSH2 0x9D9 JUMPI PUSH2 0x4EE PUSH2 0xE00 CALLDATASIZE PUSH2 0x10BC JUMP JUMPDEST SWAP2 PUSH2 0x1282 JUMP JUMPDEST POP SWAP1 CALLVALUE PUSH2 0x1AE JUMPI DUP1 PUSH1 0x3 NOT CALLDATASIZE ADD SLT PUSH2 0x1AE JUMPI PUSH2 0xE20 PUSH2 0x108B JUMP JUMPDEST SWAP2 PUSH1 0x24 CALLDATALOAD PUSH2 0xE2D DUP2 PUSH2 0x1421 JUMP JUMPDEST CALLER ISZERO ISZERO DUP1 PUSH2 0xECF JUMPI JUMPDEST DUP1 PUSH2 0xEA6 JUMPI JUMPDEST PUSH2 0xE90 JUMPI PUSH1 0x1 PUSH1 0x1 PUSH1 0xA0 SHL SUB SWAP5 DUP6 AND SWAP5 DUP3 SWAP2 DUP7 SWAP2 AND PUSH32 0x8C5BE1E5EBEC7D5BD14F71427D1E84F3DD0314C0F7B2291E5B200AC8C7C3B925 DUP9 DUP1 LOG4 DUP5 MSTORE PUSH1 0x20 MSTORE DUP3 KECCAK256 DUP1 SLOAD PUSH1 0x1 PUSH1 0x1 PUSH1 0xA0 SHL SUB NOT AND SWAP1 SWAP2 OR SWAP1 SSTORE DUP1 RETURN JUMPDEST DUP4 MLOAD PUSH4 0xA9FBF51F PUSH1 0xE0 SHL DUP2 MSTORE CALLER DUP2 DUP6 ADD MSTORE PUSH1 0x24 SWAP1 REVERT JUMPDEST POP PUSH1 0x1 PUSH1 0x1 PUSH1 0xA0 SHL SUB DUP2 AND DUP7 MSTORE PUSH1 0x5 PUSH1 0x20 SWAP1 DUP2 MSTORE DUP5 DUP8 KECCAK256 CALLER DUP9 MSTORE SWAP1 MSTORE DUP4 DUP7 KECCAK256 SLOAD PUSH1 0xFF AND ISZERO PUSH2 0xE3C JUMP JUMPDEST POP PUSH1 0x1 PUSH1 0x1 PUSH1 0xA0 SHL SUB DUP2 AND CALLER EQ ISZERO PUSH2 0xE36 JUMP JUMPDEST POP CALLVALUE PUSH2 0x1AE JUMPI PUSH1 0x20 CALLDATASIZE PUSH1 0x3 NOT ADD SLT PUSH2 0x1AE JUMPI SWAP2 DUP3 PUSH1 0x20 SWAP4 CALLDATALOAD PUSH2 0xF03 DUP2 PUSH2 0x1421 JUMP JUMPDEST POP DUP3 MSTORE DUP4 MSTORE DUP2 SWAP1 KECCAK256 SLOAD SWAP1 MLOAD PUSH1 0x1 PUSH1 0x1 PUSH1 0xA0 SHL SUB SWAP1 SWAP2 AND DUP2 MSTORE RETURN JUMPDEST POP POP CALLVALUE PUSH2 0x21B JUMPI DUP2 PUSH1 0x3 NOT CALLDATASIZE ADD SLT PUSH2 0x21B JUMPI DUP1 MLOAD SWAP1 DUP3 DUP1 SLOAD PUSH2 0xF3E DUP2 PUSH2 0x1248 JUMP JUMPDEST DUP1 DUP6 MSTORE SWAP2 PUSH1 0x1 SWAP2 DUP1 DUP4 AND SWAP1 DUP2 ISZERO PUSH2 0xB87 JUMPI POP PUSH1 0x1 EQ PUSH2 0xF69 JUMPI POP POP POP PUSH2 0xB19 DUP3 PUSH2 0x415 SWAP5 SUB DUP4 PUSH2 0x116E JUMP JUMPDEST DUP1 DUP1 SWAP7 POP MSTORE PUSH32 0x290DECD9548B62A8D60345A988386FC84BA6BC95484008F6362F93160EF3E563 JUMPDEST DUP3 DUP7 LT PUSH2 0xFAD JUMPI POP POP POP PUSH2 0xB19 DUP3 PUSH1 0x20 PUSH2 0x415 SWAP6 DUP3 ADD ADD SWAP5 PUSH2 0xB07 JUMP JUMPDEST DUP1 SLOAD PUSH1 0x20 DUP8 DUP8 ADD DUP2 ADD SWAP2 SWAP1 SWAP2 MSTORE SWAP1 SWAP6 ADD SWAP5 DUP2 ADD PUSH2 0xF90 JUMP JUMPDEST SWAP3 POP POP CALLVALUE PUSH2 0x1AE JUMPI PUSH1 0x20 CALLDATASIZE PUSH1 0x3 NOT ADD SLT PUSH2 0x1AE JUMPI CALLDATALOAD PUSH4 0xFFFFFFFF PUSH1 0xE0 SHL DUP2 AND DUP1 SWAP2 SUB PUSH2 0x1AE JUMPI PUSH1 0x20 SWAP3 POP PUSH4 0x24832483 PUSH1 0xE1 SHL DUP2 EQ SWAP1 DUP2 ISZERO PUSH2 0x1008 JUMPI JUMPDEST POP ISZERO ISZERO DUP2 MSTORE RETURN JUMPDEST PUSH4 0x80AC58CD PUSH1 0xE0 SHL DUP2 EQ SWAP2 POP DUP2 ISZERO PUSH2 0x103A JUMPI JUMPDEST DUP2 ISZERO PUSH2 0x1029 JUMPI JUMPDEST POP CODESIZE PUSH2 0x1001 JUMP JUMPDEST PUSH4 0x1FFC9A7 PUSH1 0xE0 SHL EQ SWAP1 POP CODESIZE PUSH2 0x1022 JUMP JUMPDEST PUSH4 0x5B5E139F PUSH1 0xE0 SHL DUP2 EQ SWAP2 POP PUSH2 0x101B JUMP JUMPDEST SWAP2 SWAP1 DUP3 MLOAD SWAP3 DUP4 DUP3 MSTORE PUSH1 0x0 JUMPDEST DUP5 DUP2 LT PUSH2 0x1077 JUMPI POP POP DUP3 PUSH1 0x0 PUSH1 0x20 DUP1 SWAP5 SWAP6 DUP5 ADD ADD MSTORE PUSH1 0x1F DUP1 NOT SWAP2 ADD AND ADD ADD SWAP1 JUMP JUMPDEST PUSH1 0x20 DUP2 DUP4 ADD DUP2 ADD MLOAD DUP5 DUP4 ADD DUP3 ADD MSTORE ADD PUSH2 0x1056 JUMP JUMPDEST PUSH1 0x4 CALLDATALOAD SWAP1 PUSH1 0x1 PUSH1 0x1 PUSH1 0xA0 SHL SUB DUP3 AND DUP3 SUB PUSH2 0x10A1 JUMPI JUMP JUMPDEST PUSH1 0x0 DUP1 REVERT JUMPDEST PUSH1 0x24 CALLDATALOAD SWAP1 PUSH1 0x1 PUSH1 0x1 PUSH1 0xA0 SHL SUB DUP3 AND DUP3 SUB PUSH2 0x10A1 JUMPI JUMP JUMPDEST PUSH1 0x60 SWAP1 PUSH1 0x3 NOT ADD SLT PUSH2 0x10A1 JUMPI PUSH1 0x1 PUSH1 0x1 PUSH1 0xA0 SHL SUB SWAP1 PUSH1 0x4 CALLDATALOAD DUP3 DUP2 AND DUP2 SUB PUSH2 0x10A1 JUMPI SWAP2 PUSH1 0x24 CALLDATALOAD SWAP1 DUP2 AND DUP2 SUB PUSH2 0x10A1 JUMPI SWAP1 PUSH1 0x44 CALLDATALOAD SWAP1 JUMP JUMPDEST PUSH1 0x40 SWAP1 PUSH1 0x3 NOT ADD SLT PUSH2 0x10A1 JUMPI PUSH1 0x4 CALLDATALOAD PUSH1 0x1 PUSH1 0x1 PUSH1 0xA0 SHL SUB DUP2 AND DUP2 SUB PUSH2 0x10A1 JUMPI SWAP1 PUSH1 0x24 CALLDATALOAD DUP1 ISZERO ISZERO DUP2 SUB PUSH2 0x10A1 JUMPI SWAP1 JUMP JUMPDEST PUSH1 0x80 DUP2 ADD SWAP1 DUP2 LT PUSH8 0xFFFFFFFFFFFFFFFF DUP3 GT OR PUSH2 0x113C JUMPI PUSH1 0x40 MSTORE JUMP JUMPDEST PUSH4 0x4E487B71 PUSH1 0xE0 SHL PUSH1 0x0 MSTORE PUSH1 0x41 PUSH1 0x4 MSTORE PUSH1 0x24 PUSH1 0x0 REVERT JUMPDEST PUSH1 0x20 DUP2 ADD SWAP1 DUP2 LT PUSH8 0xFFFFFFFFFFFFFFFF DUP3 GT OR PUSH2 0x113C JUMPI PUSH1 0x40 MSTORE JUMP JUMPDEST SWAP1 PUSH1 0x1F DUP1 NOT SWAP2 ADD AND DUP2 ADD SWAP1 DUP2 LT PUSH8 0xFFFFFFFFFFFFFFFF DUP3 GT OR PUSH2 0x113C JUMPI PUSH1 0x40 MSTORE JUMP JUMPDEST PUSH8 0xFFFFFFFFFFFFFFFF DUP2 GT PUSH2 0x113C JUMPI PUSH1 0x1F ADD PUSH1 0x1F NOT AND PUSH1 0x20 ADD SWAP1 JUMP JUMPDEST SWAP3 SWAP2 SWAP3 PUSH2 0x11B8 DUP3 PUSH2 0x1190 JUMP JUMPDEST SWAP2 PUSH2 0x11C6 PUSH1 0x40 MLOAD SWAP4 DUP5 PUSH2 0x116E JUMP JUMPDEST DUP3 SWAP5 DUP2 DUP5 MSTORE DUP2 DUP4 ADD GT PUSH2 0x10A1 JUMPI DUP3 DUP2 PUSH1 0x20 SWAP4 DUP5 PUSH1 0x0 SWAP7 ADD CALLDATACOPY ADD ADD MSTORE JUMP JUMPDEST PUSH1 0x7 SLOAD PUSH1 0x1 PUSH1 0x1 PUSH1 0xA0 SHL SUB AND CALLER SUB PUSH2 0x11F7 JUMPI JUMP JUMPDEST PUSH1 0x40 MLOAD PUSH4 0x118CDAA7 PUSH1 0xE0 SHL DUP2 MSTORE CALLER PUSH1 0x4 DUP3 ADD MSTORE PUSH1 0x24 SWAP1 REVERT JUMPDEST PUSH1 0x1 PUSH1 0x1 PUSH1 0xA0 SHL SUB AND DUP1 ISZERO PUSH2 0x122F JUMPI PUSH1 0x0 MSTORE PUSH1 0x3 PUSH1 0x20 MSTORE PUSH1 0x40 PUSH1 0x0 KECCAK256 SLOAD SWAP1 JUMP JUMPDEST PUSH1 0x40 MLOAD PUSH4 0x22718AD9 PUSH1 0xE2 SHL DUP2 MSTORE PUSH1 0x0 PUSH1 0x4 DUP3 ADD MSTORE PUSH1 0x24 SWAP1 REVERT JUMPDEST SWAP1 PUSH1 0x1 DUP3 DUP2 SHR SWAP3 AND DUP1 ISZERO PUSH2 0x1278 JUMPI JUMPDEST PUSH1 0x20 DUP4 LT EQ PUSH2 0x1262 JUMPI JUMP JUMPDEST PUSH4 0x4E487B71 PUSH1 0xE0 SHL PUSH1 0x0 MSTORE PUSH1 0x22 PUSH1 0x4 MSTORE PUSH1 0x24 PUSH1 0x0 REVERT JUMPDEST SWAP2 PUSH1 0x7F AND SWAP2 PUSH2 0x1257 JUMP JUMPDEST PUSH1 0x1 PUSH1 0x1 PUSH1 0xA0 SHL SUB SWAP2 DUP3 AND SWAP3 SWAP1 SWAP2 DUP4 ISZERO PUSH2 0x1408 JUMPI PUSH1 0x0 SWAP3 DUP3 DUP5 MSTORE DUP3 PUSH1 0x20 SWAP6 PUSH1 0x2 DUP8 MSTORE PUSH1 0x40 SWAP7 DUP5 DUP9 DUP9 KECCAK256 SLOAD AND SWAP7 DUP8 SWAP2 CALLER ISZERO ISZERO DUP1 PUSH2 0x1372 JUMPI JUMPDEST POP SWAP1 PUSH1 0x2 PUSH32 0xDDF252AD1BE2C89B69C2B068FC378DAA952BA7F163C4A11628F55A4DF523B3EF SWAP3 DUP5 PUSH2 0x133F JUMPI JUMPDEST DUP6 DUP4 MSTORE PUSH1 0x3 DUP2 MSTORE DUP12 DUP4 KECCAK256 DUP1 SLOAD PUSH1 0x1 ADD SWAP1 SSTORE DUP7 DUP4 MSTORE MSTORE DUP10 DUP2 KECCAK256 DUP1 SLOAD PUSH1 0x1 PUSH1 0x1 PUSH1 0xA0 SHL SUB NOT AND DUP6 OR SWAP1 SSTORE DUP1 LOG4 AND SWAP3 DUP4 DUP4 SUB PUSH2 0x131E JUMPI POP POP POP POP JUMP JUMPDEST PUSH1 0x64 SWAP5 POP MLOAD SWAP3 PUSH4 0x64283D7B PUSH1 0xE0 SHL DUP5 MSTORE PUSH1 0x4 DUP5 ADD MSTORE PUSH1 0x24 DUP4 ADD MSTORE PUSH1 0x44 DUP3 ADD MSTORE REVERT JUMPDEST PUSH1 0x0 DUP8 DUP2 MSTORE PUSH1 0x4 PUSH1 0x20 MSTORE PUSH1 0x40 SWAP1 KECCAK256 DUP1 SLOAD PUSH1 0x1 PUSH1 0x1 PUSH1 0xA0 SHL SUB NOT AND SWAP1 SSTORE DUP5 DUP4 MSTORE PUSH1 0x3 DUP2 MSTORE DUP12 DUP4 KECCAK256 DUP1 SLOAD PUSH1 0x0 NOT ADD SWAP1 SSTORE PUSH2 0x12E5 JUMP JUMPDEST SWAP2 SWAP4 SWAP5 POP SWAP2 POP DUP1 PUSH2 0x13C7 JUMPI JUMPDEST ISZERO PUSH2 0x138E JUMPI DUP6 SWAP3 SWAP2 DUP8 SWAP2 CODESIZE PUSH2 0x12B9 JUMP JUMPDEST DUP8 DUP7 DUP9 PUSH2 0x13AB JUMPI PUSH1 0x24 SWAP2 MLOAD SWAP1 PUSH4 0x7E273289 PUSH1 0xE0 SHL DUP3 MSTORE PUSH1 0x4 DUP3 ADD MSTORE REVERT JUMPDEST PUSH1 0x44 SWAP2 MLOAD SWAP1 PUSH4 0x177E802F PUSH1 0xE0 SHL DUP3 MSTORE CALLER PUSH1 0x4 DUP4 ADD MSTORE PUSH1 0x24 DUP3 ADD MSTORE REVERT JUMPDEST POP CALLER DUP8 EQ DUP1 ISZERO PUSH2 0x13EC JUMPI JUMPDEST DUP1 PUSH2 0x137E JUMPI POP DUP6 DUP3 MSTORE PUSH1 0x4 DUP2 MSTORE CALLER DUP6 DUP10 DUP5 KECCAK256 SLOAD AND EQ PUSH2 0x137E JUMP JUMPDEST POP DUP7 DUP3 MSTORE PUSH1 0x5 DUP2 MSTORE DUP8 DUP3 KECCAK256 CALLER DUP4 MSTORE DUP2 MSTORE PUSH1 0xFF DUP9 DUP4 KECCAK256 SLOAD AND PUSH2 0x13D2 JUMP JUMPDEST PUSH1 0x40 MLOAD PUSH4 0x32505749 PUSH1 0xE1 SHL DUP2 MSTORE PUSH1 0x0 PUSH1 0x4 DUP3 ADD MSTORE PUSH1 0x24 SWAP1 REVERT JUMPDEST PUSH1 0x0 DUP2 DUP2 MSTORE PUSH1 0x2 PUSH1 0x20 MSTORE PUSH1 0x40 SWAP1 KECCAK256 SLOAD PUSH1 0x1 PUSH1 0x1 PUSH1 0xA0 SHL SUB AND SWAP1 DUP2 ISZERO PUSH2 0x1444 JUMPI POP SWAP1 JUMP JUMPDEST PUSH1 0x24 SWAP1 PUSH1 0x40 MLOAD SWAP1 PUSH4 0x7E273289 PUSH1 0xE0 SHL DUP3 MSTORE PUSH1 0x4 DUP3 ADD MSTORE REVERT JUMPDEST SWAP1 SWAP4 SWAP2 SWAP3 DUP4 EXTCODESIZE PUSH2 0x146E JUMPI JUMPDEST POP POP POP POP POP JUMP JUMPDEST PUSH1 0x40 MLOAD PUSH4 0xA85BD01 PUSH1 0xE1 SHL DUP1 DUP3 MSTORE PUSH1 0x1 PUSH1 0x1 PUSH1 0xA0 SHL SUB SWAP4 DUP5 AND PUSH1 0x4 DUP4 ADD MSTORE SWAP6 DUP4 AND PUSH1 0x24 DUP3 ADD MSTORE PUSH1 0x44 DUP2 ADD SWAP2 SWAP1 SWAP2 MSTORE PUSH1 0x80 PUSH1 0x64 DUP3 ADD MSTORE SWAP5 SWAP3 AND SWAP3 PUSH1 0x20 SWAP3 SWAP2 DUP6 SWAP1 PUSH2 0x14BB SWAP1 PUSH1 0x84 DUP4 ADD SWAP1 PUSH2 0x104B JUMP JUMPDEST SUB SWAP5 DUP4 DUP2 PUSH1 0x0 SWAP8 DUP2 DUP10 DUP10 GAS CALL DUP7 SWAP2 DUP2 PUSH2 0x1566 JUMPI JUMPDEST POP PUSH2 0x1530 JUMPI POP POP POP RETURNDATASIZE PUSH1 0x0 EQ PUSH2 0x1527 JUMPI RETURNDATASIZE PUSH2 0x14E9 DUP2 PUSH2 0x1190 JUMP JUMPDEST SWAP1 PUSH2 0x14F7 PUSH1 0x40 MLOAD SWAP3 DUP4 PUSH2 0x116E JUMP JUMPDEST DUP2 MSTORE DUP1 SWAP4 DUP3 RETURNDATASIZE SWAP3 ADD RETURNDATACOPY JUMPDEST DUP3 MLOAD SWAP3 DUP4 PUSH2 0x1522 JUMPI PUSH1 0x40 MLOAD PUSH4 0x32505749 PUSH1 0xE1 SHL DUP2 MSTORE PUSH1 0x4 DUP2 ADD DUP5 SWAP1 MSTORE PUSH1 0x24 SWAP1 REVERT JUMPDEST ADD SWAP1 POP REVERT JUMPDEST PUSH1 0x60 SWAP3 POP PUSH2 0x1501 JUMP JUMPDEST SWAP2 SWAP5 POP SWAP2 POP PUSH4 0xFFFFFFFF PUSH1 0xE0 SHL AND SUB PUSH2 0x154E JUMPI POP CODESIZE DUP1 DUP1 DUP1 DUP1 PUSH2 0x1467 JUMP JUMPDEST PUSH1 0x24 SWAP1 PUSH1 0x40 MLOAD SWAP1 PUSH4 0x32505749 PUSH1 0xE1 SHL DUP3 MSTORE PUSH1 0x4 DUP3 ADD MSTORE REVERT JUMPDEST SWAP1 SWAP2 POP DUP5 DUP2 DUP2 RETURNDATASIZE DUP4 GT PUSH2 0x15A3 JUMPI JUMPDEST PUSH2 0x157E DUP2 DUP4 PUSH2 0x116E JUMP JUMPDEST DUP2 ADD SUB SLT PUSH2 0x159F JUMPI MLOAD PUSH1 0x1 PUSH1 0x1 PUSH1 0xE0 SHL SUB NOT DUP2 AND DUP2 SUB PUSH2 0x159F JUMPI SWAP1 CODESIZE PUSH2 0x14CF JUMP JUMPDEST DUP7 DUP1 REVERT JUMPDEST POP RETURNDATASIZE PUSH2 0x1574 JUMP JUMPDEST PUSH1 0x0 NOT DUP2 EQ PUSH2 0x15B9 JUMPI PUSH1 0x1 ADD SWAP1 JUMP JUMPDEST PUSH4 0x4E487B71 PUSH1 0xE0 SHL PUSH1 0x0 MSTORE PUSH1 0x11 PUSH1 0x4 MSTORE PUSH1 0x24 PUSH1 0x0 REVERT JUMPDEST PUSH8 0xFFFFFFFFFFFFFFFF DUP2 GT PUSH2 0x113C JUMPI PUSH1 0x5 SHL PUSH1 0x20 ADD SWAP1 JUMP INVALID LOG2 PUSH5 0x6970667358 0x22 SLT KECCAK256 0xD6 0x28 0xC5 CREATE 0xDE 0xE4 PUSH7 0xA589EC3968BC4F 0xCA SUB DUP12 0xA6 0x1E PUSH10 0xF2C4171CF29F368FA902 DUP5 0x4C PUSH5 0x736F6C6343 STOP ADDMOD EQ STOP CALLER "},"methodIdentifiers":{"approve(address,uint256)":"095ea7b3","authorizedMinters(address)":"aa2fe91b","balanceOf(address)":"70a08231","getApproved(uint256)":"081812fc","getNFTMetadata(uint256)":"6be9a6f1","getOwnedTokens(address)":"d9d61655","isApprovedForAll(address,address)":"e985e9c5","mintAchievement(address,uint256,uint256,uint256,string)":"b58c43ac","name()":"06fdde03","nftMetadata(uint256)":"49541015","owner()":"8da5cb5b","ownerOf(uint256)":"6352211e","renounceOwnership()":"715018a6","safeTransferFrom(address,address,uint256)":"42842e0e","safeTransferFrom(address,address,uint256,bytes)":"b88d4fde","setApprovalForAll(address,bool)":"a22cb465","setAuthorizedMinter(address,bool)":"ed58bad8","supportsInterface(bytes4)":"01ffc9a7","symbol()":"95d89b41","tokenURI(uint256)":"c87b56dd","totalMinted()":"a2309ff8","transferFrom(address,address,uint256)":"23b872dd","transferOwnership(address)":"f2fde38b"}}}}}