{"core/GinixRewardEngine.sol":{"GinixRewardEngine":{"abi":[{"inputs":[{"internalType":"address","name":"_registry","type":"address"},{"internalType":"address","name":"_guard","type":"address"},{"internalType":"address","name":"_core","type":"address"},{"internalType":"address","name":"_memory","type":"address"}],"stateMutability":"nonpayable","type":"constructor"},{"inputs":[{"internalType":"address","name":"owner","type":"address"}],"name":"OwnableInvalidOwner","type":"error"},{"inputs":[{"internalType":"address","name":"account","type":"address"}],"name":"OwnableUnauthorizedAccount","type":"error"},{"anonymous":false,"inputs":[{"indexed":false,"internalType":"address","name":"registry","type":"address"},{"indexed":false,"internalType":"address","name":"guard","type":"address"},{"indexed":false,"internalType":"address","name":"core","type":"address"},{"indexed":false,"internalType":"address","name":"gameMemory","type":"address"}],"name":"ContractsUpdated","type":"event"},{"anonymous":false,"inputs":[{"indexed":true,"internalType":"address","name":"previousOwner","type":"address"},{"indexed":true,"internalType":"address","name":"newOwner","type":"address"}],"name":"OwnershipTransferred","type":"event"},{"anonymous":false,"inputs":[{"indexed":true,"internalType":"bytes32","name":"rewardId","type":"bytes32"},{"indexed":false,"internalType":"uint64","name":"xpAmount","type":"uint64"},{"indexed":false,"internalType":"bool","name":"unlockAchievement","type":"bool"}],"name":"RewardConfigured","type":"event"},{"anonymous":false,"inputs":[{"indexed":true,"internalType":"address","name":"player","type":"address"},{"indexed":true,"internalType":"bytes32","name":"rewardId","type":"bytes32"},{"indexed":true,"internalType":"bytes32","name":"gameId","type":"bytes32"},{"indexed":false,"internalType":"uint64","name":"score","type":"uint64"},{"indexed":false,"internalType":"uint64","name":"xpAwarded","type":"uint64"}],"name":"RewardGranted","type":"event"},{"inputs":[{"internalType":"uint32[]","name":"thresholds","type":"uint32[]"},{"internalType":"uint32[]","name":"values","type":"uint32[]"}],"name":"configureMultipliers","outputs":[],"stateMutability":"nonpayable","type":"function"},{"inputs":[{"internalType":"bytes32","name":"rewardId","type":"bytes32"},{"internalType":"uint64","name":"xpAmount","type":"uint64"},{"internalType":"bool","name":"unlockAchievement","type":"bool"}],"name":"configureReward","outputs":[],"stateMutability":"nonpayable","type":"function"},{"inputs":[],"name":"core","outputs":[{"internalType":"contract IGinixCore","name":"","type":"address"}],"stateMutability":"view","type":"function"},{"inputs":[{"internalType":"bytes32","name":"rewardId","type":"bytes32"}],"name":"disableReward","outputs":[],"stateMutability":"nonpayable","type":"function"},{"inputs":[],"name":"gameMemory","outputs":[{"internalType":"contract IGinixMemory","name":"","type":"address"}],"stateMutability":"view","type":"function"},{"inputs":[{"internalType":"bytes32","name":"nonce","type":"bytes32"},{"internalType":"address","name":"player","type":"address"},{"internalType":"bytes32","name":"gameId","type":"bytes32"},{"internalType":"uint64","name":"score","type":"uint64"},{"internalType":"uint64","name":"duration","type":"uint64"},{"internalType":"bytes32","name":"rewardId","type":"bytes32"},{"internalType":"bytes","name":"backendSig","type":"bytes"}],"name":"grantReward","outputs":[],"stateMutability":"nonpayable","type":"function"},{"inputs":[],"name":"guard","outputs":[{"internalType":"contract IGinixGuard","name":"","type":"address"}],"stateMutability":"view","type":"function"},{"inputs":[],"name":"owner","outputs":[{"internalType":"address","name":"","type":"address"}],"stateMutability":"view","type":"function"},{"inputs":[],"name":"registry","outputs":[{"internalType":"contract IGinixRegistry","name":"","type":"address"}],"stateMutability":"view","type":"function"},{"inputs":[],"name":"renounceOwnership","outputs":[],"stateMutability":"nonpayable","type":"function"},{"inputs":[{"internalType":"bytes32","name":"","type":"bytes32"}],"name":"rewards","outputs":[{"internalType":"uint64","name":"xpAmount","type":"uint64"},{"internalType":"bool","name":"unlockAchievement","type":"bool"},{"internalType":"bool","name":"enabled","type":"bool"}],"stateMutability":"view","type":"function"},{"inputs":[{"internalType":"address","name":"newOwner","type":"address"}],"name":"transferOwnership","outputs":[],"stateMutability":"nonpayable","type":"function"},{"inputs":[{"internalType":"address","name":"_registry","type":"address"},{"internalType":"address","name":"_guard","type":"address"},{"internalType":"address","name":"_core","type":"address"},{"internalType":"address","name":"_memory","type":"address"}],"name":"updateContracts","outputs":[],"stateMutability":"nonpayable","type":"function"}],"evm":{"bytecode":{"linkReferences":{},"object":"60803461020557601f620010a938819003918201601f191683019291906001600160401b0384118385101761020a5781608092849260409687528339810103126102055761004c81610220565b9061005960208201610220565b90610071606061006a868401610220565b9201610220565b9033156101ed5760008054336001600160a01b03198083168217845588519790966001600160a01b03949093859391908416907f8be0079c531659141344cd1fd0a4f28419497f9722a3daafe3b4186f6b6457e09080a3169586156101b857508116918215610184578116928315610151571693841561011c57836001541617600155826002541617600255816003541617600355600454161760045551610e749081620002358239f35b855162461bcd60e51b815260206004820152600e60248201526d496e76616c6964206d656d6f727960901b6044820152606490fd5b865162461bcd60e51b815260206004820152600c60248201526b496e76616c696420636f726560a01b6044820152606490fd5b865162461bcd60e51b815260206004820152600d60248201526c125b9d985b1a590819dd585c99609a1b6044820152606490fd5b62461bcd60e51b815260206004820152601060248201526f496e76616c696420726567697374727960801b6044820152606490fd5b8451631e4fbdf760e01b815260006004820152602490fd5b600080fd5b634e487b7160e01b600052604160045260246000fd5b51906001600160a01b03821682036102055756fe6080604052600436101561001257600080fd5b6000803560e01c80630b751279146109da57806356acce3d146109b15780635a83bfb614610975578063715018a61461091b5780637a53ccf31461084b5780637b103999146108225780637ceab3b1146107f95780638da5cb5b146107d2578063938d967a14610783578063ce4474e014610249578063d7d9532d14610167578063f2f4eb261461013e5763f2fde38b146100ac57600080fd5b3461013b57602036600319011261013b576100c5610b94565b6100cd610bf0565b6001600160a01b0390811690811561012257600054826bffffffffffffffffffffffff60a01b821617600055167f8be0079c531659141344cd1fd0a4f28419497f9722a3daafe3b4186f6b6457e0600080a380f35b604051631e4fbdf760e01b815260048101849052602490fd5b80fd5b503461013b578060031936011261013b576003546040516001600160a01b039091168152602090f35b503461013b57606036600319011261013b576004356024356001600160401b038082168092036102445760443591821515809303610240577f88bfcab8b8e4425961145c24a4ed1644e627074333d1da79314c912a5d4ad8ce926040926101cc610bf0565b8351906101d882610c45565b83825260208201908382528583019060018252888a526005602052868a2093511669ff00000000000000000068ff0000000000000000855494511515891b169251151560481b169269ffffffffffffffffffff1916171717905582519182526020820152a280f35b8480fd5b600080fd5b503461013b5760e036600319011261013b57610263610baa565b606435906001600160401b0382168203610244576084356001600160401b0381168103610244576001600160401b0360c435116105db5736602360c4350112156105db576001600160401b0360c43560040135116105db5736602460c4356004013560c4350101116105db576001546040516324577e1960e11b8152604435600482015290602090829060249082906001600160a01b03165afa908115610778578591610759575b50156107205760a43584526005602052604084209060ff6040519261032f84610c45565b546001600160401b0381168452818160401c161515602085015260481c1615801560408401526106e65760018060a01b036002541660206040518092630d64429360e01b8252600435600483015260018060a01b038716602483015260443560448301526001600160401b038816606483015260a0608483015260c4356004013560a483015260c43560040135602460c4350160c48401378860c480356004013584010152818960c482601f19601f833560040135011681010301925af19081156106db5786916106ac575b50156106675760035485916001600160a01b0390911690813b1561064f576001600160401b0360848492836040519586948593632b2bd4f560e01b855260018060a01b038c1660048601526044356024860152818d1660448601521660648401525af180156105df57610653575b506001600160401b03825116806105ea575b505060208101516104de575b6001600160401b039051166001600160401b03604051931683526020830152604435917fe0f5e9e0929475523efe2d8f47294d39d6f4587d09618808035c5876c74fca82604060a4359360018060a01b031692a480f35b836104f16001600160401b038516610d1e565b604051610548604f82602081019465023b0b6b29d160d51b86526044356026830152680161029b1b7b9329d160bd1b60468301526105388151809260208686019101610c99565b810103602f810184520182610c60565b6004546001600160a01b031690813b156105db5783916105a791836084604051809781968295635347fc3360e01b84528d60018060a01b0316600485015260a43560248501526060604485015251809281606486015285850190610c99565b601f01601f191681010301925af180156105df576105c7575b5050610487565b6105d090610c1c565b6105db5783386105c0565b8380fd5b6040513d84823e3d90fd5b6003546001600160a01b031690813b1561064f576040516335b126e560e21b81526001600160a01b038616600482015260248101919091529082908290604490829084905af180156105df571561047b5761064490610c1c565b6105db57833861047b565b8280fd5b61065c90610c1c565b6105db578338610469565b60405162461bcd60e51b815260206004820152601960248201527f477561726420766572696669636174696f6e206661696c6564000000000000006044820152606490fd5b6106ce915060203d6020116106d4575b6106c68183610c60565b810190610c81565b386103fb565b503d6106bc565b6040513d88823e3d90fd5b60405162461bcd60e51b815260206004820152601260248201527114995dd85c99081b9bdd08195b98589b195960721b6044820152606490fd5b60405162461bcd60e51b815260206004820152601160248201527011d85b59481b9bdd08185c1c1c9bdd9959607a1b6044820152606490fd5b610772915060203d6020116106d4576106c68183610c60565b3861030b565b6040513d87823e3d90fd5b503461013b57602036600319011261013b57604060609160043581526005602052205460ff604051916001600160401b0381168352818160401c161515602084015260481c1615156040820152f35b503461013b578060031936011261013b57546040516001600160a01b039091168152602090f35b503461013b578060031936011261013b576002546040516001600160a01b039091168152602090f35b503461013b578060031936011261013b576001546040516001600160a01b039091168152602090f35b503461013b5760031960403682011261091757816001600160401b0360043581811161064f5761087f903690600401610bc0565b90916024359081116105db57610899903690600401610bc0565b9290946108a4610bf0565b6003546001600160a01b031692833b15610913576108f586926108e696604051998a9889978896637a53ccf360e01b8852604060048901526044880191610cbc565b92858403016024860152610cbc565b03925af180156105df57610907575080f35b61091090610c1c565b80f35b8580fd5b5080fd5b503461013b578060031936011261013b57610934610bf0565b80546001600160a01b03198116825581906001600160a01b03167f8be0079c531659141344cd1fd0a4f28419497f9722a3daafe3b4186f6b6457e08280a380f35b503461013b57602036600319011261013b5761098f610bf0565b6004358152600560205260408120805469ff0000000000000000001916905580f35b503461013b578060031936011261013b576004546040516001600160a01b039091168152602090f35b503461013b57608036600319011261013b576109f4610b94565b6109fc610baa565b6044356001600160a01b038181169392918490036102405760643592818416809403610913578190610a2c610bf0565b16918215610b5c5716918215610b27578315610af3578015610abd577f5fa24fea85a5ce115f424d206cd07e10fe6c52fd86d013949fea9654d3f62ca093608093826bffffffffffffffffffffffff60a01b8581600154161760015582816002541617600255838160035416176003556004541617600455604051938452602084015260408301526060820152a180f35b60405162461bcd60e51b815260206004820152600e60248201526d496e76616c6964206d656d6f727960901b6044820152606490fd5b60405162461bcd60e51b815260206004820152600c60248201526b496e76616c696420636f726560a01b6044820152606490fd5b60405162461bcd60e51b815260206004820152600d60248201526c125b9d985b1a590819dd585c99609a1b6044820152606490fd5b60405162461bcd60e51b815260206004820152601060248201526f496e76616c696420726567697374727960801b6044820152606490fd5b600435906001600160a01b038216820361024457565b602435906001600160a01b038216820361024457565b9181601f84011215610244578235916001600160401b038311610244576020808501948460051b01011161024457565b6000546001600160a01b03163303610c0457565b60405163118cdaa760e01b8152336004820152602490fd5b6001600160401b038111610c2f57604052565b634e487b7160e01b600052604160045260246000fd5b606081019081106001600160401b03821117610c2f57604052565b90601f801991011681019081106001600160401b03821117610c2f57604052565b90816020910312610244575180151581036102445790565b60005b838110610cac5750506000910152565b8181015183820152602001610c9c565b9190808252602080920192916000805b838210610cdb57505050505090565b9091929394853563ffffffff811680910361064f578152830194830193929160010190610ccc565b6001600160401b038111610c2f57601f01601f191660200190565b8015610e105780816000925b610df8575080610d3983610d03565b92610d476040519485610c60565b808452601f19610d5682610d03565b01366020860137905b610d6857505090565b600019810190808211610de2578192600a9283820493808502908582041485151715610de2578203918211610de25760ff809216603001918211610de25785511115610dcc5760f81b6001600160f81b03191660001a908401601f01539081610d5f565b634e487b7160e01b600052603260045260246000fd5b634e487b7160e01b600052601160045260246000fd5b916000198114610de2576001600a9101920480610d2a565b50604051604081018181106001600160401b03821117610c2f5760405260018152600360fc1b60208201529056fea26469706673582212202dfce1925ad1c540fb7bdca44c01715a170a57ea3df50916b401242021e7fc4564736f6c63430008140033","opcodes":"PUSH1 0x80 CALLVALUE PUSH2 0x205 JUMPI PUSH1 0x1F PUSH3 0x10A9 CODESIZE DUP2 SWAP1 SUB SWAP2 DUP3 ADD PUSH1 0x1F NOT AND DUP4 ADD SWAP3 SWAP2 SWAP1 PUSH1 0x1 PUSH1 0x1 PUSH1 0x40 SHL SUB DUP5 GT DUP4 DUP6 LT OR PUSH2 0x20A JUMPI DUP2 PUSH1 0x80 SWAP3 DUP5 SWAP3 PUSH1 0x40 SWAP7 DUP8 MSTORE DUP4 CODECOPY DUP2 ADD SUB SLT PUSH2 0x205 JUMPI PUSH2 0x4C DUP2 PUSH2 0x220 JUMP JUMPDEST SWAP1 PUSH2 0x59 PUSH1 0x20 DUP3 ADD PUSH2 0x220 JUMP JUMPDEST SWAP1 PUSH2 0x71 PUSH1 0x60 PUSH2 0x6A DUP7 DUP5 ADD PUSH2 0x220 JUMP JUMPDEST SWAP3 ADD PUSH2 0x220 JUMP JUMPDEST SWAP1 CALLER ISZERO PUSH2 0x1ED JUMPI PUSH1 0x0 DUP1 SLOAD CALLER PUSH1 0x1 PUSH1 0x1 PUSH1 0xA0 SHL SUB NOT DUP1 DUP4 AND DUP3 OR DUP5 SSTORE DUP9 MLOAD SWAP8 SWAP1 SWAP7 PUSH1 0x1 PUSH1 0x1 PUSH1 0xA0 SHL SUB SWAP5 SWAP1 SWAP4 DUP6 SWAP4 SWAP2 SWAP1 DUP5 AND SWAP1 PUSH32 0x8BE0079C531659141344CD1FD0A4F28419497F9722A3DAAFE3B4186F6B6457E0 SWAP1 DUP1 LOG3 AND SWAP6 DUP7 ISZERO PUSH2 0x1B8 JUMPI POP DUP2 AND SWAP2 DUP3 ISZERO PUSH2 0x184 JUMPI DUP2 AND SWAP3 DUP4 ISZERO PUSH2 0x151 JUMPI AND SWAP4 DUP5 ISZERO PUSH2 0x11C JUMPI DUP4 PUSH1 0x1 SLOAD AND OR PUSH1 0x1 SSTORE DUP3 PUSH1 0x2 SLOAD AND OR PUSH1 0x2 SSTORE DUP2 PUSH1 0x3 SLOAD AND OR PUSH1 0x3 SSTORE PUSH1 0x4 SLOAD AND OR PUSH1 0x4 SSTORE MLOAD PUSH2 0xE74 SWAP1 DUP2 PUSH3 0x235 DUP3 CODECOPY RETURN JUMPDEST DUP6 MLOAD PUSH3 0x461BCD PUSH1 0xE5 SHL DUP2 MSTORE PUSH1 0x20 PUSH1 0x4 DUP3 ADD MSTORE PUSH1 0xE PUSH1 0x24 DUP3 ADD MSTORE PUSH14 0x496E76616C6964206D656D6F7279 PUSH1 0x90 SHL PUSH1 0x44 DUP3 ADD MSTORE PUSH1 0x64 SWAP1 REVERT JUMPDEST DUP7 MLOAD PUSH3 0x461BCD PUSH1 0xE5 SHL DUP2 MSTORE PUSH1 0x20 PUSH1 0x4 DUP3 ADD MSTORE PUSH1 0xC PUSH1 0x24 DUP3 ADD MSTORE PUSH12 0x496E76616C696420636F7265 PUSH1 0xA0 SHL PUSH1 0x44 DUP3 ADD MSTORE PUSH1 0x64 SWAP1 REVERT JUMPDEST DUP7 MLOAD PUSH3 0x461BCD PUSH1 0xE5 SHL DUP2 MSTORE PUSH1 0x20 PUSH1 0x4 DUP3 ADD MSTORE PUSH1 0xD PUSH1 0x24 DUP3 ADD MSTORE PUSH13 0x125B9D985B1A590819DD585C99 PUSH1 0x9A SHL PUSH1 0x44 DUP3 ADD MSTORE PUSH1 0x64 SWAP1 REVERT JUMPDEST PUSH3 0x461BCD PUSH1 0xE5 SHL DUP2 MSTORE PUSH1 0x20 PUSH1 0x4 DUP3 ADD MSTORE PUSH1 0x10 PUSH1 0x24 DUP3 ADD MSTORE PUSH16 0x496E76616C6964207265676973747279 PUSH1 0x80 SHL PUSH1 0x44 DUP3 ADD MSTORE PUSH1 0x64 SWAP1 REVERT JUMPDEST DUP5 MLOAD PUSH4 0x1E4FBDF7 PUSH1 0xE0 SHL DUP2 MSTORE PUSH1 0x0 PUSH1 0x4 DUP3 ADD MSTORE PUSH1 0x24 SWAP1 REVERT JUMPDEST PUSH1 0x0 DUP1 REVERT JUMPDEST PUSH4 0x4E487B71 PUSH1 0xE0 SHL PUSH1 0x0 MSTORE PUSH1 0x41 PUSH1 0x4 MSTORE PUSH1 0x24 PUSH1 0x0 REVERT JUMPDEST MLOAD SWAP1 PUSH1 0x1 PUSH1 0x1 PUSH1 0xA0 SHL SUB DUP3 AND DUP3 SUB PUSH2 0x205 JUMPI JUMP INVALID PUSH1 0x80 PUSH1 0x40 MSTORE PUSH1 0x4 CALLDATASIZE LT ISZERO PUSH2 0x12 JUMPI PUSH1 0x0 DUP1 REVERT JUMPDEST PUSH1 0x0 DUP1 CALLDATALOAD PUSH1 0xE0 SHR DUP1 PUSH4 0xB751279 EQ PUSH2 0x9DA JUMPI DUP1 PUSH4 0x56ACCE3D EQ PUSH2 0x9B1 JUMPI DUP1 PUSH4 0x5A83BFB6 EQ PUSH2 0x975 JUMPI DUP1 PUSH4 0x715018A6 EQ PUSH2 0x91B JUMPI DUP1 PUSH4 0x7A53CCF3 EQ PUSH2 0x84B JUMPI DUP1 PUSH4 0x7B103999 EQ PUSH2 0x822 JUMPI DUP1 PUSH4 0x7CEAB3B1 EQ PUSH2 0x7F9 JUMPI DUP1 PUSH4 0x8DA5CB5B EQ PUSH2 0x7D2 JUMPI DUP1 PUSH4 0x938D967A EQ PUSH2 0x783 JUMPI DUP1 PUSH4 0xCE4474E0 EQ PUSH2 0x249 JUMPI DUP1 PUSH4 0xD7D9532D EQ PUSH2 0x167 JUMPI DUP1 PUSH4 0xF2F4EB26 EQ PUSH2 0x13E JUMPI PUSH4 0xF2FDE38B EQ PUSH2 0xAC JUMPI PUSH1 0x0 DUP1 REVERT JUMPDEST CALLVALUE PUSH2 0x13B JUMPI PUSH1 0x20 CALLDATASIZE PUSH1 0x3 NOT ADD SLT PUSH2 0x13B JUMPI PUSH2 0xC5 PUSH2 0xB94 JUMP JUMPDEST PUSH2 0xCD PUSH2 0xBF0 JUMP JUMPDEST PUSH1 0x1 PUSH1 0x1 PUSH1 0xA0 SHL SUB SWAP1 DUP2 AND SWAP1 DUP2 ISZERO PUSH2 0x122 JUMPI PUSH1 0x0 SLOAD DUP3 PUSH12 0xFFFFFFFFFFFFFFFFFFFFFFFF PUSH1 0xA0 SHL DUP3 AND OR PUSH1 0x0 SSTORE AND PUSH32 0x8BE0079C531659141344CD1FD0A4F28419497F9722A3DAAFE3B4186F6B6457E0 PUSH1 0x0 DUP1 LOG3 DUP1 RETURN JUMPDEST PUSH1 0x40 MLOAD PUSH4 0x1E4FBDF7 PUSH1 0xE0 SHL DUP2 MSTORE PUSH1 0x4 DUP2 ADD DUP5 SWAP1 MSTORE PUSH1 0x24 SWAP1 REVERT JUMPDEST DUP1 REVERT JUMPDEST POP CALLVALUE PUSH2 0x13B JUMPI DUP1 PUSH1 0x3 NOT CALLDATASIZE ADD SLT PUSH2 0x13B JUMPI PUSH1 0x3 SLOAD PUSH1 0x40 MLOAD PUSH1 0x1 PUSH1 0x1 PUSH1 0xA0 SHL SUB SWAP1 SWAP2 AND DUP2 MSTORE PUSH1 0x20 SWAP1 RETURN JUMPDEST POP CALLVALUE PUSH2 0x13B JUMPI PUSH1 0x60 CALLDATASIZE PUSH1 0x3 NOT ADD SLT PUSH2 0x13B JUMPI PUSH1 0x4 CALLDATALOAD PUSH1 0x24 CALLDATALOAD PUSH1 0x1 PUSH1 0x1 PUSH1 0x40 SHL SUB DUP1 DUP3 AND DUP1 SWAP3 SUB PUSH2 0x244 JUMPI PUSH1 0x44 CALLDATALOAD SWAP2 DUP3 ISZERO ISZERO DUP1 SWAP4 SUB PUSH2 0x240 JUMPI PUSH32 0x88BFCAB8B8E4425961145C24A4ED1644E627074333D1DA79314C912A5D4AD8CE SWAP3 PUSH1 0x40 SWAP3 PUSH2 0x1CC PUSH2 0xBF0 JUMP JUMPDEST DUP4 MLOAD SWAP1 PUSH2 0x1D8 DUP3 PUSH2 0xC45 JUMP JUMPDEST DUP4 DUP3 MSTORE PUSH1 0x20 DUP3 ADD SWAP1 DUP4 DUP3 MSTORE DUP6 DUP4 ADD SWAP1 PUSH1 0x1 DUP3 MSTORE DUP9 DUP11 MSTORE PUSH1 0x5 PUSH1 0x20 MSTORE DUP7 DUP11 KECCAK256 SWAP4 MLOAD AND PUSH10 0xFF000000000000000000 PUSH9 0xFF0000000000000000 DUP6 SLOAD SWAP5 MLOAD ISZERO ISZERO DUP10 SHL AND SWAP3 MLOAD ISZERO ISZERO PUSH1 0x48 SHL AND SWAP3 PUSH10 0xFFFFFFFFFFFFFFFFFFFF NOT AND OR OR OR SWAP1 SSTORE DUP3 MLOAD SWAP2 DUP3 MSTORE PUSH1 0x20 DUP3 ADD MSTORE LOG2 DUP1 RETURN JUMPDEST DUP5 DUP1 REVERT JUMPDEST PUSH1 0x0 DUP1 REVERT JUMPDEST POP CALLVALUE PUSH2 0x13B JUMPI PUSH1 0xE0 CALLDATASIZE PUSH1 0x3 NOT ADD SLT PUSH2 0x13B JUMPI PUSH2 0x263 PUSH2 0xBAA JUMP JUMPDEST PUSH1 0x64 CALLDATALOAD SWAP1 PUSH1 0x1 PUSH1 0x1 PUSH1 0x40 SHL SUB DUP3 AND DUP3 SUB PUSH2 0x244 JUMPI PUSH1 0x84 CALLDATALOAD PUSH1 0x1 PUSH1 0x1 PUSH1 0x40 SHL SUB DUP2 AND DUP2 SUB PUSH2 0x244 JUMPI PUSH1 0x1 PUSH1 0x1 PUSH1 0x40 SHL SUB PUSH1 0xC4 CALLDATALOAD GT PUSH2 0x5DB JUMPI CALLDATASIZE PUSH1 0x23 PUSH1 0xC4 CALLDATALOAD ADD SLT ISZERO PUSH2 0x5DB JUMPI PUSH1 0x1 PUSH1 0x1 PUSH1 0x40 SHL SUB PUSH1 0xC4 CALLDATALOAD PUSH1 0x4 ADD CALLDATALOAD GT PUSH2 0x5DB JUMPI CALLDATASIZE PUSH1 0x24 PUSH1 0xC4 CALLDATALOAD PUSH1 0x4 ADD CALLDATALOAD PUSH1 0xC4 CALLDATALOAD ADD ADD GT PUSH2 0x5DB JUMPI PUSH1 0x1 SLOAD PUSH1 0x40 MLOAD PUSH4 0x24577E19 PUSH1 0xE1 SHL DUP2 MSTORE PUSH1 0x44 CALLDATALOAD PUSH1 0x4 DUP3 ADD MSTORE SWAP1 PUSH1 0x20 SWAP1 DUP3 SWAP1 PUSH1 0x24 SWAP1 DUP3 SWAP1 PUSH1 0x1 PUSH1 0x1 PUSH1 0xA0 SHL SUB AND GAS STATICCALL SWAP1 DUP2 ISZERO PUSH2 0x778 JUMPI DUP6 SWAP2 PUSH2 0x759 JUMPI JUMPDEST POP ISZERO PUSH2 0x720 JUMPI PUSH1 0xA4 CALLDATALOAD DUP5 MSTORE PUSH1 0x5 PUSH1 0x20 MSTORE PUSH1 0x40 DUP5 KECCAK256 SWAP1 PUSH1 0xFF PUSH1 0x40 MLOAD SWAP3 PUSH2 0x32F DUP5 PUSH2 0xC45 JUMP JUMPDEST SLOAD PUSH1 0x1 PUSH1 0x1 PUSH1 0x40 SHL SUB DUP2 AND DUP5 MSTORE DUP2 DUP2 PUSH1 0x40 SHR AND ISZERO ISZERO PUSH1 0x20 DUP6 ADD MSTORE PUSH1 0x48 SHR AND ISZERO DUP1 ISZERO PUSH1 0x40 DUP5 ADD MSTORE PUSH2 0x6E6 JUMPI PUSH1 0x1 DUP1 PUSH1 0xA0 SHL SUB PUSH1 0x2 SLOAD AND PUSH1 0x20 PUSH1 0x40 MLOAD DUP1 SWAP3 PUSH4 0xD644293 PUSH1 0xE0 SHL DUP3 MSTORE PUSH1 0x4 CALLDATALOAD PUSH1 0x4 DUP4 ADD MSTORE PUSH1 0x1 DUP1 PUSH1 0xA0 SHL SUB DUP8 AND PUSH1 0x24 DUP4 ADD MSTORE PUSH1 0x44 CALLDATALOAD PUSH1 0x44 DUP4 ADD MSTORE PUSH1 0x1 PUSH1 0x1 PUSH1 0x40 SHL SUB DUP9 AND PUSH1 0x64 DUP4 ADD MSTORE PUSH1 0xA0 PUSH1 0x84 DUP4 ADD MSTORE PUSH1 0xC4 CALLDATALOAD PUSH1 0x4 ADD CALLDATALOAD PUSH1 0xA4 DUP4 ADD MSTORE PUSH1 0xC4 CALLDATALOAD PUSH1 0x4 ADD CALLDATALOAD PUSH1 0x24 PUSH1 0xC4 CALLDATALOAD ADD PUSH1 0xC4 DUP5 ADD CALLDATACOPY DUP9 PUSH1 0xC4 DUP1 CALLDATALOAD PUSH1 0x4 ADD CALLDATALOAD DUP5 ADD ADD MSTORE DUP2 DUP10 PUSH1 0xC4 DUP3 PUSH1 0x1F NOT PUSH1 0x1F DUP4 CALLDATALOAD PUSH1 0x4 ADD CALLDATALOAD ADD AND DUP2 ADD SUB ADD SWAP3 GAS CALL SWAP1 DUP2 ISZERO PUSH2 0x6DB JUMPI DUP7 SWAP2 PUSH2 0x6AC JUMPI JUMPDEST POP ISZERO PUSH2 0x667 JUMPI PUSH1 0x3 SLOAD DUP6 SWAP2 PUSH1 0x1 PUSH1 0x1 PUSH1 0xA0 SHL SUB SWAP1 SWAP2 AND SWAP1 DUP2 EXTCODESIZE ISZERO PUSH2 0x64F JUMPI PUSH1 0x1 PUSH1 0x1 PUSH1 0x40 SHL SUB PUSH1 0x84 DUP5 SWAP3 DUP4 PUSH1 0x40 MLOAD SWAP6 DUP7 SWAP5 DUP6 SWAP4 PUSH4 0x2B2BD4F5 PUSH1 0xE0 SHL DUP6 MSTORE PUSH1 0x1 DUP1 PUSH1 0xA0 SHL SUB DUP13 AND PUSH1 0x4 DUP7 ADD MSTORE PUSH1 0x44 CALLDATALOAD PUSH1 0x24 DUP7 ADD MSTORE DUP2 DUP14 AND PUSH1 0x44 DUP7 ADD MSTORE AND PUSH1 0x64 DUP5 ADD MSTORE GAS CALL DUP1 ISZERO PUSH2 0x5DF JUMPI PUSH2 0x653 JUMPI JUMPDEST POP PUSH1 0x1 PUSH1 0x1 PUSH1 0x40 SHL SUB DUP3 MLOAD AND DUP1 PUSH2 0x5EA JUMPI JUMPDEST POP POP PUSH1 0x20 DUP2 ADD MLOAD PUSH2 0x4DE JUMPI JUMPDEST PUSH1 0x1 PUSH1 0x1 PUSH1 0x40 SHL SUB SWAP1 MLOAD AND PUSH1 0x1 PUSH1 0x1 PUSH1 0x40 SHL SUB PUSH1 0x40 MLOAD SWAP4 AND DUP4 MSTORE PUSH1 0x20 DUP4 ADD MSTORE PUSH1 0x44 CALLDATALOAD SWAP2 PUSH32 0xE0F5E9E0929475523EFE2D8F47294D39D6F4587D09618808035C5876C74FCA82 PUSH1 0x40 PUSH1 0xA4 CALLDATALOAD SWAP4 PUSH1 0x1 DUP1 PUSH1 0xA0 SHL SUB AND SWAP3 LOG4 DUP1 RETURN JUMPDEST DUP4 PUSH2 0x4F1 PUSH1 0x1 PUSH1 0x1 PUSH1 0x40 SHL SUB DUP6 AND PUSH2 0xD1E JUMP JUMPDEST PUSH1 0x40 MLOAD PUSH2 0x548 PUSH1 0x4F DUP3 PUSH1 0x20 DUP2 ADD SWAP5 PUSH6 0x23B0B6B29D1 PUSH1 0xD5 SHL DUP7 MSTORE PUSH1 0x44 CALLDATALOAD PUSH1 0x26 DUP4 ADD MSTORE PUSH9 0x161029B1B7B9329D1 PUSH1 0xBD SHL PUSH1 0x46 DUP4 ADD MSTORE PUSH2 0x538 DUP2 MLOAD DUP1 SWAP3 PUSH1 0x20 DUP7 DUP7 ADD SWAP2 ADD PUSH2 0xC99 JUMP JUMPDEST DUP2 ADD SUB PUSH1 0x2F DUP2 ADD DUP5 MSTORE ADD DUP3 PUSH2 0xC60 JUMP JUMPDEST PUSH1 0x4 SLOAD PUSH1 0x1 PUSH1 0x1 PUSH1 0xA0 SHL SUB AND SWAP1 DUP2 EXTCODESIZE ISZERO PUSH2 0x5DB JUMPI DUP4 SWAP2 PUSH2 0x5A7 SWAP2 DUP4 PUSH1 0x84 PUSH1 0x40 MLOAD DUP1 SWAP8 DUP2 SWAP7 DUP3 SWAP6 PUSH4 0x5347FC33 PUSH1 0xE0 SHL DUP5 MSTORE DUP14 PUSH1 0x1 DUP1 PUSH1 0xA0 SHL SUB AND PUSH1 0x4 DUP6 ADD MSTORE PUSH1 0xA4 CALLDATALOAD PUSH1 0x24 DUP6 ADD MSTORE PUSH1 0x60 PUSH1 0x44 DUP6 ADD MSTORE MLOAD DUP1 SWAP3 DUP2 PUSH1 0x64 DUP7 ADD MSTORE DUP6 DUP6 ADD SWAP1 PUSH2 0xC99 JUMP JUMPDEST PUSH1 0x1F ADD PUSH1 0x1F NOT AND DUP2 ADD SUB ADD SWAP3 GAS CALL DUP1 ISZERO PUSH2 0x5DF JUMPI PUSH2 0x5C7 JUMPI JUMPDEST POP POP PUSH2 0x487 JUMP JUMPDEST PUSH2 0x5D0 SWAP1 PUSH2 0xC1C JUMP JUMPDEST PUSH2 0x5DB JUMPI DUP4 CODESIZE PUSH2 0x5C0 JUMP JUMPDEST DUP4 DUP1 REVERT JUMPDEST PUSH1 0x40 MLOAD RETURNDATASIZE DUP5 DUP3 RETURNDATACOPY RETURNDATASIZE SWAP1 REVERT JUMPDEST PUSH1 0x3 SLOAD PUSH1 0x1 PUSH1 0x1 PUSH1 0xA0 SHL SUB AND SWAP1 DUP2 EXTCODESIZE ISZERO PUSH2 0x64F JUMPI PUSH1 0x40 MLOAD PUSH4 0x35B126E5 PUSH1 0xE2 SHL DUP2 MSTORE PUSH1 0x1 PUSH1 0x1 PUSH1 0xA0 SHL SUB DUP7 AND PUSH1 0x4 DUP3 ADD MSTORE PUSH1 0x24 DUP2 ADD SWAP2 SWAP1 SWAP2 MSTORE SWAP1 DUP3 SWAP1 DUP3 SWAP1 PUSH1 0x44 SWAP1 DUP3 SWAP1 DUP5 SWAP1 GAS CALL DUP1 ISZERO PUSH2 0x5DF JUMPI ISZERO PUSH2 0x47B JUMPI PUSH2 0x644 SWAP1 PUSH2 0xC1C JUMP JUMPDEST PUSH2 0x5DB JUMPI DUP4 CODESIZE PUSH2 0x47B JUMP JUMPDEST DUP3 DUP1 REVERT JUMPDEST PUSH2 0x65C SWAP1 PUSH2 0xC1C JUMP JUMPDEST PUSH2 0x5DB JUMPI DUP4 CODESIZE PUSH2 0x469 JUMP JUMPDEST PUSH1 0x40 MLOAD PUSH3 0x461BCD PUSH1 0xE5 SHL DUP2 MSTORE PUSH1 0x20 PUSH1 0x4 DUP3 ADD MSTORE PUSH1 0x19 PUSH1 0x24 DUP3 ADD MSTORE PUSH32 0x477561726420766572696669636174696F6E206661696C656400000000000000 PUSH1 0x44 DUP3 ADD MSTORE PUSH1 0x64 SWAP1 REVERT JUMPDEST PUSH2 0x6CE SWAP2 POP PUSH1 0x20 RETURNDATASIZE PUSH1 0x20 GT PUSH2 0x6D4 JUMPI JUMPDEST PUSH2 0x6C6 DUP2 DUP4 PUSH2 0xC60 JUMP JUMPDEST DUP2 ADD SWAP1 PUSH2 0xC81 JUMP JUMPDEST CODESIZE PUSH2 0x3FB JUMP JUMPDEST POP RETURNDATASIZE PUSH2 0x6BC JUMP JUMPDEST PUSH1 0x40 MLOAD RETURNDATASIZE DUP9 DUP3 RETURNDATACOPY RETURNDATASIZE SWAP1 REVERT JUMPDEST PUSH1 0x40 MLOAD PUSH3 0x461BCD PUSH1 0xE5 SHL DUP2 MSTORE PUSH1 0x20 PUSH1 0x4 DUP3 ADD MSTORE PUSH1 0x12 PUSH1 0x24 DUP3 ADD MSTORE PUSH18 0x14995DD85C99081B9BDD08195B98589B1959 PUSH1 0x72 SHL PUSH1 0x44 DUP3 ADD MSTORE PUSH1 0x64 SWAP1 REVERT JUMPDEST PUSH1 0x40 MLOAD PUSH3 0x461BCD PUSH1 0xE5 SHL DUP2 MSTORE PUSH1 0x20 PUSH1 0x4 DUP3 ADD MSTORE PUSH1 0x11 PUSH1 0x24 DUP3 ADD MSTORE PUSH17 0x11D85B59481B9BDD08185C1C1C9BDD9959 PUSH1 0x7A SHL PUSH1 0x44 DUP3 ADD MSTORE PUSH1 0x64 SWAP1 REVERT JUMPDEST PUSH2 0x772 SWAP2 POP PUSH1 0x20 RETURNDATASIZE PUSH1 0x20 GT PUSH2 0x6D4 JUMPI PUSH2 0x6C6 DUP2 DUP4 PUSH2 0xC60 JUMP JUMPDEST CODESIZE PUSH2 0x30B JUMP JUMPDEST PUSH1 0x40 MLOAD RETURNDATASIZE DUP8 DUP3 RETURNDATACOPY RETURNDATASIZE SWAP1 REVERT JUMPDEST POP CALLVALUE PUSH2 0x13B JUMPI PUSH1 0x20 CALLDATASIZE PUSH1 0x3 NOT ADD SLT PUSH2 0x13B JUMPI PUSH1 0x40 PUSH1 0x60 SWAP2 PUSH1 0x4 CALLDATALOAD DUP2 MSTORE PUSH1 0x5 PUSH1 0x20 MSTORE KECCAK256 SLOAD PUSH1 0xFF PUSH1 0x40 MLOAD SWAP2 PUSH1 0x1 PUSH1 0x1 PUSH1 0x40 SHL SUB DUP2 AND DUP4 MSTORE DUP2 DUP2 PUSH1 0x40 SHR AND ISZERO ISZERO PUSH1 0x20 DUP5 ADD MSTORE PUSH1 0x48 SHR AND ISZERO ISZERO PUSH1 0x40 DUP3 ADD MSTORE RETURN JUMPDEST POP CALLVALUE PUSH2 0x13B JUMPI DUP1 PUSH1 0x3 NOT CALLDATASIZE ADD SLT PUSH2 0x13B JUMPI SLOAD PUSH1 0x40 MLOAD PUSH1 0x1 PUSH1 0x1 PUSH1 0xA0 SHL SUB SWAP1 SWAP2 AND DUP2 MSTORE PUSH1 0x20 SWAP1 RETURN JUMPDEST POP CALLVALUE PUSH2 0x13B JUMPI DUP1 PUSH1 0x3 NOT CALLDATASIZE ADD SLT PUSH2 0x13B JUMPI PUSH1 0x2 SLOAD PUSH1 0x40 MLOAD PUSH1 0x1 PUSH1 0x1 PUSH1 0xA0 SHL SUB SWAP1 SWAP2 AND DUP2 MSTORE PUSH1 0x20 SWAP1 RETURN JUMPDEST POP CALLVALUE PUSH2 0x13B JUMPI DUP1 PUSH1 0x3 NOT CALLDATASIZE ADD SLT PUSH2 0x13B JUMPI PUSH1 0x1 SLOAD PUSH1 0x40 MLOAD PUSH1 0x1 PUSH1 0x1 PUSH1 0xA0 SHL SUB SWAP1 SWAP2 AND DUP2 MSTORE PUSH1 0x20 SWAP1 RETURN JUMPDEST POP CALLVALUE PUSH2 0x13B JUMPI PUSH1 0x3 NOT PUSH1 0x40 CALLDATASIZE DUP3 ADD SLT PUSH2 0x917 JUMPI DUP2 PUSH1 0x1 PUSH1 0x1 PUSH1 0x40 SHL SUB PUSH1 0x4 CALLDATALOAD DUP2 DUP2 GT PUSH2 0x64F JUMPI PUSH2 0x87F SWAP1 CALLDATASIZE SWAP1 PUSH1 0x4 ADD PUSH2 0xBC0 JUMP JUMPDEST SWAP1 SWAP2 PUSH1 0x24 CALLDATALOAD SWAP1 DUP2 GT PUSH2 0x5DB JUMPI PUSH2 0x899 SWAP1 CALLDATASIZE SWAP1 PUSH1 0x4 ADD PUSH2 0xBC0 JUMP JUMPDEST SWAP3 SWAP1 SWAP5 PUSH2 0x8A4 PUSH2 0xBF0 JUMP JUMPDEST PUSH1 0x3 SLOAD PUSH1 0x1 PUSH1 0x1 PUSH1 0xA0 SHL SUB AND SWAP3 DUP4 EXTCODESIZE ISZERO PUSH2 0x913 JUMPI PUSH2 0x8F5 DUP7 SWAP3 PUSH2 0x8E6 SWAP7 PUSH1 0x40 MLOAD SWAP10 DUP11 SWAP9 DUP10 SWAP8 DUP9 SWAP7 PUSH4 0x7A53CCF3 PUSH1 0xE0 SHL DUP9 MSTORE PUSH1 0x40 PUSH1 0x4 DUP10 ADD MSTORE PUSH1 0x44 DUP9 ADD SWAP2 PUSH2 0xCBC JUMP JUMPDEST SWAP3 DUP6 DUP5 SUB ADD PUSH1 0x24 DUP7 ADD MSTORE PUSH2 0xCBC JUMP JUMPDEST SUB SWAP3 GAS CALL DUP1 ISZERO PUSH2 0x5DF JUMPI PUSH2 0x907 JUMPI POP DUP1 RETURN JUMPDEST PUSH2 0x910 SWAP1 PUSH2 0xC1C JUMP JUMPDEST DUP1 RETURN JUMPDEST DUP6 DUP1 REVERT JUMPDEST POP DUP1 REVERT JUMPDEST POP CALLVALUE PUSH2 0x13B JUMPI DUP1 PUSH1 0x3 NOT CALLDATASIZE ADD SLT PUSH2 0x13B JUMPI PUSH2 0x934 PUSH2 0xBF0 JUMP JUMPDEST DUP1 SLOAD PUSH1 0x1 PUSH1 0x1 PUSH1 0xA0 SHL SUB NOT DUP2 AND DUP3 SSTORE DUP2 SWAP1 PUSH1 0x1 PUSH1 0x1 PUSH1 0xA0 SHL SUB AND PUSH32 0x8BE0079C531659141344CD1FD0A4F28419497F9722A3DAAFE3B4186F6B6457E0 DUP3 DUP1 LOG3 DUP1 RETURN JUMPDEST POP CALLVALUE PUSH2 0x13B JUMPI PUSH1 0x20 CALLDATASIZE PUSH1 0x3 NOT ADD SLT PUSH2 0x13B JUMPI PUSH2 0x98F PUSH2 0xBF0 JUMP JUMPDEST PUSH1 0x4 CALLDATALOAD DUP2 MSTORE PUSH1 0x5 PUSH1 0x20 MSTORE PUSH1 0x40 DUP2 KECCAK256 DUP1 SLOAD PUSH10 0xFF000000000000000000 NOT AND SWAP1 SSTORE DUP1 RETURN JUMPDEST POP CALLVALUE PUSH2 0x13B JUMPI DUP1 PUSH1 0x3 NOT CALLDATASIZE ADD SLT PUSH2 0x13B JUMPI PUSH1 0x4 SLOAD PUSH1 0x40 MLOAD PUSH1 0x1 PUSH1 0x1 PUSH1 0xA0 SHL SUB SWAP1 SWAP2 AND DUP2 MSTORE PUSH1 0x20 SWAP1 RETURN JUMPDEST POP CALLVALUE PUSH2 0x13B JUMPI PUSH1 0x80 CALLDATASIZE PUSH1 0x3 NOT ADD SLT PUSH2 0x13B JUMPI PUSH2 0x9F4 PUSH2 0xB94 JUMP JUMPDEST PUSH2 0x9FC PUSH2 0xBAA JUMP JUMPDEST PUSH1 0x44 CALLDATALOAD PUSH1 0x1 PUSH1 0x1 PUSH1 0xA0 SHL SUB DUP2 DUP2 AND SWAP4 SWAP3 SWAP2 DUP5 SWAP1 SUB PUSH2 0x240 JUMPI PUSH1 0x64 CALLDATALOAD SWAP3 DUP2 DUP5 AND DUP1 SWAP5 SUB PUSH2 0x913 JUMPI DUP2 SWAP1 PUSH2 0xA2C PUSH2 0xBF0 JUMP JUMPDEST AND SWAP2 DUP3 ISZERO PUSH2 0xB5C JUMPI AND SWAP2 DUP3 ISZERO PUSH2 0xB27 JUMPI DUP4 ISZERO PUSH2 0xAF3 JUMPI DUP1 ISZERO PUSH2 0xABD JUMPI PUSH32 0x5FA24FEA85A5CE115F424D206CD07E10FE6C52FD86D013949FEA9654D3F62CA0 SWAP4 PUSH1 0x80 SWAP4 DUP3 PUSH12 0xFFFFFFFFFFFFFFFFFFFFFFFF PUSH1 0xA0 SHL DUP6 DUP2 PUSH1 0x1 SLOAD AND OR PUSH1 0x1 SSTORE DUP3 DUP2 PUSH1 0x2 SLOAD AND OR PUSH1 0x2 SSTORE DUP4 DUP2 PUSH1 0x3 SLOAD AND OR PUSH1 0x3 SSTORE PUSH1 0x4 SLOAD AND OR PUSH1 0x4 SSTORE PUSH1 0x40 MLOAD SWAP4 DUP5 MSTORE PUSH1 0x20 DUP5 ADD MSTORE PUSH1 0x40 DUP4 ADD MSTORE PUSH1 0x60 DUP3 ADD MSTORE LOG1 DUP1 RETURN JUMPDEST PUSH1 0x40 MLOAD PUSH3 0x461BCD PUSH1 0xE5 SHL DUP2 MSTORE PUSH1 0x20 PUSH1 0x4 DUP3 ADD MSTORE PUSH1 0xE PUSH1 0x24 DUP3 ADD MSTORE PUSH14 0x496E76616C6964206D656D6F7279 PUSH1 0x90 SHL PUSH1 0x44 DUP3 ADD MSTORE PUSH1 0x64 SWAP1 REVERT JUMPDEST PUSH1 0x40 MLOAD PUSH3 0x461BCD PUSH1 0xE5 SHL DUP2 MSTORE PUSH1 0x20 PUSH1 0x4 DUP3 ADD MSTORE PUSH1 0xC PUSH1 0x24 DUP3 ADD MSTORE PUSH12 0x496E76616C696420636F7265 PUSH1 0xA0 SHL PUSH1 0x44 DUP3 ADD MSTORE PUSH1 0x64 SWAP1 REVERT JUMPDEST PUSH1 0x40 MLOAD PUSH3 0x461BCD PUSH1 0xE5 SHL DUP2 MSTORE PUSH1 0x20 PUSH1 0x4 DUP3 ADD MSTORE PUSH1 0xD PUSH1 0x24 DUP3 ADD MSTORE PUSH13 0x125B9D985B1A590819DD585C99 PUSH1 0x9A SHL PUSH1 0x44 DUP3 ADD MSTORE PUSH1 0x64 SWAP1 REVERT JUMPDEST PUSH1 0x40 MLOAD PUSH3 0x461BCD PUSH1 0xE5 SHL DUP2 MSTORE PUSH1 0x20 PUSH1 0x4 DUP3 ADD MSTORE PUSH1 0x10 PUSH1 0x24 DUP3 ADD MSTORE PUSH16 0x496E76616C6964207265676973747279 PUSH1 0x80 SHL PUSH1 0x44 DUP3 ADD MSTORE PUSH1 0x64 SWAP1 REVERT JUMPDEST PUSH1 0x4 CALLDATALOAD SWAP1 PUSH1 0x1 PUSH1 0x1 PUSH1 0xA0 SHL SUB DUP3 AND DUP3 SUB PUSH2 0x244 JUMPI JUMP JUMPDEST PUSH1 0x24 CALLDATALOAD SWAP1 PUSH1 0x1 PUSH1 0x1 PUSH1 0xA0 SHL SUB DUP3 AND DUP3 SUB PUSH2 0x244 JUMPI JUMP JUMPDEST SWAP2 DUP2 PUSH1 0x1F DUP5 ADD SLT ISZERO PUSH2 0x244 JUMPI DUP3 CALLDATALOAD SWAP2 PUSH1 0x1 PUSH1 0x1 PUSH1 0x40 SHL SUB DUP4 GT PUSH2 0x244 JUMPI PUSH1 0x20 DUP1 DUP6 ADD SWAP5 DUP5 PUSH1 0x5 SHL ADD ADD GT PUSH2 0x244 JUMPI JUMP JUMPDEST PUSH1 0x0 SLOAD PUSH1 0x1 PUSH1 0x1 PUSH1 0xA0 SHL SUB AND CALLER SUB PUSH2 0xC04 JUMPI JUMP JUMPDEST PUSH1 0x40 MLOAD PUSH4 0x118CDAA7 PUSH1 0xE0 SHL DUP2 MSTORE CALLER PUSH1 0x4 DUP3 ADD MSTORE PUSH1 0x24 SWAP1 REVERT JUMPDEST PUSH1 0x1 PUSH1 0x1 PUSH1 0x40 SHL SUB DUP2 GT PUSH2 0xC2F JUMPI PUSH1 0x40 MSTORE JUMP JUMPDEST PUSH4 0x4E487B71 PUSH1 0xE0 SHL PUSH1 0x0 MSTORE PUSH1 0x41 PUSH1 0x4 MSTORE PUSH1 0x24 PUSH1 0x0 REVERT JUMPDEST PUSH1 0x60 DUP2 ADD SWAP1 DUP2 LT PUSH1 0x1 PUSH1 0x1 PUSH1 0x40 SHL SUB DUP3 GT OR PUSH2 0xC2F JUMPI PUSH1 0x40 MSTORE JUMP JUMPDEST SWAP1 PUSH1 0x1F DUP1 NOT SWAP2 ADD AND DUP2 ADD SWAP1 DUP2 LT PUSH1 0x1 PUSH1 0x1 PUSH1 0x40 SHL SUB DUP3 GT OR PUSH2 0xC2F JUMPI PUSH1 0x40 MSTORE JUMP JUMPDEST SWAP1 DUP2 PUSH1 0x20 SWAP2 SUB SLT PUSH2 0x244 JUMPI MLOAD DUP1 ISZERO ISZERO DUP2 SUB PUSH2 0x244 JUMPI SWAP1 JUMP JUMPDEST PUSH1 0x0 JUMPDEST DUP4 DUP2 LT PUSH2 0xCAC JUMPI POP POP PUSH1 0x0 SWAP2 ADD MSTORE JUMP JUMPDEST DUP2 DUP2 ADD MLOAD DUP4 DUP3 ADD MSTORE PUSH1 0x20 ADD PUSH2 0xC9C JUMP JUMPDEST SWAP2 SWAP1 DUP1 DUP3 MSTORE PUSH1 0x20 DUP1 SWAP3 ADD SWAP3 SWAP2 PUSH1 0x0 DUP1 JUMPDEST DUP4 DUP3 LT PUSH2 0xCDB JUMPI POP POP POP POP POP SWAP1 JUMP JUMPDEST SWAP1 SWAP2 SWAP3 SWAP4 SWAP5 DUP6 CALLDATALOAD PUSH4 0xFFFFFFFF DUP2 AND DUP1 SWAP2 SUB PUSH2 0x64F JUMPI DUP2 MSTORE DUP4 ADD SWAP5 DUP4 ADD SWAP4 SWAP3 SWAP2 PUSH1 0x1 ADD SWAP1 PUSH2 0xCCC JUMP JUMPDEST PUSH1 0x1 PUSH1 0x1 PUSH1 0x40 SHL SUB DUP2 GT PUSH2 0xC2F JUMPI PUSH1 0x1F ADD PUSH1 0x1F NOT AND PUSH1 0x20 ADD SWAP1 JUMP JUMPDEST DUP1 ISZERO PUSH2 0xE10 JUMPI DUP1 DUP2 PUSH1 0x0 SWAP3 JUMPDEST PUSH2 0xDF8 JUMPI POP DUP1 PUSH2 0xD39 DUP4 PUSH2 0xD03 JUMP JUMPDEST SWAP3 PUSH2 0xD47 PUSH1 0x40 MLOAD SWAP5 DUP6 PUSH2 0xC60 JUMP JUMPDEST DUP1 DUP5 MSTORE PUSH1 0x1F NOT PUSH2 0xD56 DUP3 PUSH2 0xD03 JUMP JUMPDEST ADD CALLDATASIZE PUSH1 0x20 DUP7 ADD CALLDATACOPY SWAP1 JUMPDEST PUSH2 0xD68 JUMPI POP POP SWAP1 JUMP JUMPDEST PUSH1 0x0 NOT DUP2 ADD SWAP1 DUP1 DUP3 GT PUSH2 0xDE2 JUMPI DUP2 SWAP3 PUSH1 0xA SWAP3 DUP4 DUP3 DIV SWAP4 DUP1 DUP6 MUL SWAP1 DUP6 DUP3 DIV EQ DUP6 ISZERO OR ISZERO PUSH2 0xDE2 JUMPI DUP3 SUB SWAP2 DUP3 GT PUSH2 0xDE2 JUMPI PUSH1 0xFF DUP1 SWAP3 AND PUSH1 0x30 ADD SWAP2 DUP3 GT PUSH2 0xDE2 JUMPI DUP6 MLOAD GT ISZERO PUSH2 0xDCC JUMPI PUSH1 0xF8 SHL PUSH1 0x1 PUSH1 0x1 PUSH1 0xF8 SHL SUB NOT AND PUSH1 0x0 BYTE SWAP1 DUP5 ADD PUSH1 0x1F ADD MSTORE8 SWAP1 DUP2 PUSH2 0xD5F JUMP JUMPDEST PUSH4 0x4E487B71 PUSH1 0xE0 SHL PUSH1 0x0 MSTORE PUSH1 0x32 PUSH1 0x4 MSTORE PUSH1 0x24 PUSH1 0x0 REVERT JUMPDEST PUSH4 0x4E487B71 PUSH1 0xE0 SHL PUSH1 0x0 MSTORE PUSH1 0x11 PUSH1 0x4 MSTORE PUSH1 0x24 PUSH1 0x0 REVERT JUMPDEST SWAP2 PUSH1 0x0 NOT DUP2 EQ PUSH2 0xDE2 JUMPI PUSH1 0x1 PUSH1 0xA SWAP2 ADD SWAP3 DIV DUP1 PUSH2 0xD2A JUMP JUMPDEST POP PUSH1 0x40 MLOAD PUSH1 0x40 DUP2 ADD DUP2 DUP2 LT PUSH1 0x1 PUSH1 0x1 PUSH1 0x40 SHL SUB DUP3 GT OR PUSH2 0xC2F JUMPI PUSH1 0x40 MSTORE PUSH1 0x1 DUP2 MSTORE PUSH1 0x3 PUSH1 0xFC SHL PUSH1 0x20 DUP3 ADD MSTORE SWAP1 JUMP INVALID LOG2 PUSH5 0x6970667358 0x22 SLT KECCAK256 0x2D 0xFC 0xE1 SWAP3 GAS 0xD1 0xC5 BLOCKHASH 0xFB PUSH28 0xDCA44C01715A170A57EA3DF50916B401242021E7FC4564736F6C6343 STOP ADDMOD EQ STOP CALLER "},"methodIdentifiers":{"configureMultipliers(uint32[],uint32[])":"7a53ccf3","configureReward(bytes32,uint64,bool)":"d7d9532d","core()":"f2f4eb26","disableReward(bytes32)":"5a83bfb6","gameMemory()":"56acce3d","grantReward(bytes32,address,bytes32,uint64,uint64,bytes32,bytes)":"ce4474e0","guard()":"7ceab3b1","owner()":"8da5cb5b","registry()":"7b103999","renounceOwnership()":"715018a6","rewards(bytes32)":"938d967a","transferOwnership(address)":"f2fde38b","updateContracts(address,address,address,address)":"0b751279"}}}}}