{"core/GinixGameRegistry.sol":{"GinixGameRegistry":{"abi":[{"inputs":[],"stateMutability":"nonpayable","type":"constructor"},{"inputs":[{"internalType":"address","name":"owner","type":"address"}],"name":"OwnableInvalidOwner","type":"error"},{"inputs":[{"internalType":"address","name":"account","type":"address"}],"name":"OwnableUnauthorizedAccount","type":"error"},{"anonymous":false,"inputs":[{"indexed":false,"internalType":"address","name":"newCoreContract","type":"address"}],"name":"CoreContractUpdated","type":"event"},{"anonymous":false,"inputs":[{"indexed":true,"internalType":"bytes32","name":"gameId","type":"bytes32"},{"indexed":false,"internalType":"string","name":"uri","type":"string"},{"indexed":false,"internalType":"uint32","name":"minLevel","type":"uint32"}],"name":"GameApproved","type":"event"},{"anonymous":false,"inputs":[{"indexed":true,"internalType":"bytes32","name":"gameId","type":"bytes32"},{"indexed":false,"internalType":"uint32","name":"newMinLevel","type":"uint32"}],"name":"GameMinLevelUpdated","type":"event"},{"anonymous":false,"inputs":[{"indexed":true,"internalType":"bytes32","name":"gameId","type":"bytes32"}],"name":"GameRevoked","type":"event"},{"anonymous":false,"inputs":[{"indexed":true,"internalType":"bytes32","name":"gameId","type":"bytes32"},{"indexed":false,"internalType":"string","name":"newUri","type":"string"}],"name":"GameURIUpdated","type":"event"},{"anonymous":false,"inputs":[{"indexed":true,"internalType":"address","name":"previousOwner","type":"address"},{"indexed":true,"internalType":"address","name":"newOwner","type":"address"}],"name":"OwnershipTransferred","type":"event"},{"inputs":[{"internalType":"bytes32","name":"gameId","type":"bytes32"},{"internalType":"string","name":"uri","type":"string"}],"name":"approveGame","outputs":[],"stateMutability":"nonpayable","type":"function"},{"inputs":[{"internalType":"bytes32","name":"gameId","type":"bytes32"},{"internalType":"string","name":"uri","type":"string"},{"internalType":"uint32","name":"minLevel","type":"uint32"}],"name":"approveGameWithLevel","outputs":[],"stateMutability":"nonpayable","type":"function"},{"inputs":[{"internalType":"bytes32","name":"gameId","type":"bytes32"},{"internalType":"address","name":"player","type":"address"}],"name":"canPlayerAccess","outputs":[{"internalType":"bool","name":"","type":"bool"}],"stateMutability":"view","type":"function"},{"inputs":[],"name":"coreContract","outputs":[{"internalType":"contract IGinixCoreLevel","name":"","type":"address"}],"stateMutability":"view","type":"function"},{"inputs":[{"internalType":"uint256","name":"","type":"uint256"}],"name":"gameIds","outputs":[{"internalType":"bytes32","name":"","type":"bytes32"}],"stateMutability":"view","type":"function"},{"inputs":[{"internalType":"bytes32","name":"","type":"bytes32"}],"name":"games","outputs":[{"internalType":"bool","name":"approved","type":"bool"},{"internalType":"string","name":"uri","type":"string"},{"internalType":"uint64","name":"addedAt","type":"uint64"},{"internalType":"uint32","name":"minLevel","type":"uint32"}],"stateMutability":"view","type":"function"},{"inputs":[],"name":"getGameCount","outputs":[{"internalType":"uint256","name":"","type":"uint256"}],"stateMutability":"view","type":"function"},{"inputs":[{"internalType":"bytes32","name":"gameId","type":"bytes32"}],"name":"getGameMeta","outputs":[{"components":[{"internalType":"bool","name":"approved","type":"bool"},{"internalType":"string","name":"uri","type":"string"},{"internalType":"uint64","name":"addedAt","type":"uint64"},{"internalType":"uint32","name":"minLevel","type":"uint32"}],"internalType":"struct GinixGameRegistry.GameMeta","name":"","type":"tuple"}],"stateMutability":"view","type":"function"},{"inputs":[{"internalType":"bytes32","name":"gameId","type":"bytes32"}],"name":"getMinLevel","outputs":[{"internalType":"uint32","name":"","type":"uint32"}],"stateMutability":"view","type":"function"},{"inputs":[{"internalType":"bytes32","name":"gameId","type":"bytes32"}],"name":"isApproved","outputs":[{"internalType":"bool","name":"","type":"bool"}],"stateMutability":"view","type":"function"},{"inputs":[],"name":"owner","outputs":[{"internalType":"address","name":"","type":"address"}],"stateMutability":"view","type":"function"},{"inputs":[],"name":"renounceOwnership","outputs":[],"stateMutability":"nonpayable","type":"function"},{"inputs":[{"internalType":"bytes32","name":"gameId","type":"bytes32"}],"name":"revokeGame","outputs":[],"stateMutability":"nonpayable","type":"function"},{"inputs":[{"internalType":"address","name":"_core","type":"address"}],"name":"setCoreContract","outputs":[],"stateMutability":"nonpayable","type":"function"},{"inputs":[{"internalType":"bytes32","name":"gameId","type":"bytes32"},{"internalType":"uint32","name":"minLevel","type":"uint32"}],"name":"setGameMinLevel","outputs":[],"stateMutability":"nonpayable","type":"function"},{"inputs":[{"internalType":"string","name":"slug","type":"string"}],"name":"toGameId","outputs":[{"internalType":"bytes32","name":"","type":"bytes32"}],"stateMutability":"pure","type":"function"},{"inputs":[{"internalType":"address","name":"newOwner","type":"address"}],"name":"transferOwnership","outputs":[],"stateMutability":"nonpayable","type":"function"},{"inputs":[{"internalType":"bytes32","name":"gameId","type":"bytes32"},{"internalType":"string","name":"newUri","type":"string"}],"name":"updateGameURI","outputs":[],"stateMutability":"nonpayable","type":"function"}],"evm":{"bytecode":{"linkReferences":{},"object":"6080806040523461007a5733156100645760008054336001600160a01b03198216811783556040519290916001600160a01b0316907f8be0079c531659141344cd1fd0a4f28419497f9722a3daafe3b4186f6b6457e09080a36111d690816100808239f35b631e4fbdf760e01b815260006004820152602490fd5b600080fdfe6080806040526004908136101561001557600080fd5b60003560e01c90816348aefc3214610c5d575080634953974a14610c2057806349d8ae2414610bae5780636e321c8814610984578063715018a61461092b5780638da5cb5b146109025780638e35d0cb14610838578063b2b0966b14610801578063b5ab2269146105de578063c62666931461052b578063d82c13f0146104db578063d932787714610465578063de697502146103be578063e80db5db14610395578063e87c0ee614610377578063eaed21af146101f0578063f2fde38b146101615763f579f882146100e757600080fd5b3461015c57602036600319011261015c57356000526002602052604060002060ff815416600261011960018401610e1a565b92015463ffffffff61013f60405194859415158552608060208601526080850190610cf0565b916001600160401b038116604085015260401c1660608301520390f35b600080fd5b503461015c57602036600319011261015c5761017b610c8a565b610183610ec0565b6001600160a01b039081169182156101d85750600054826bffffffffffffffffffffffff60a01b821617600055167f8be0079c531659141344cd1fd0a4f28419497f9722a3daafe3b4186f6b6457e0600080a3005b602490600060405191631e4fbdf760e01b8352820152fd5b503461015c576101ff36610d15565b91929061020a610ec0565b836000526020916002835261022660ff6040600020541661104a565b610231841515610f30565b8460005260028352600180604060002001916001600160401b0386116103625750610266856102608454610de0565b84610f72565b6000601f86116001146102d9579185807fcaac4f55f5dbeb77065c56c7b4437a39f921a8f377cb73bf14d154c1a8b0bde4979695936102c9956000936102ce575b501b906000198760031b1c19161790555b604051938385948552840191611029565b0390a2005b8501359250386102a7565b601f1986169083600052856000209160005b81811061034d57509187969593917fcaac4f55f5dbeb77065c56c7b4437a39f921a8f377cb73bf14d154c1a8b0bde4986102c9969410610333575b505085811b0190556102b8565b840135600019600389901b60f8161c191690553880610326565b868301358455928401929187019187016102eb565b604190634e487b7160e01b6000525260246000fd5b3461015c57600036600319011261015c576020600354604051908152f35b3461015c57600036600319011261015c576001546040516001600160a01b039091168152602090f35b503461015c57604036600319011261015c573560243563ffffffff81169081810361015c577fb2c8a9c7f7efb56cf93708ee08fc0737cbec25eed9a11f914c29cecb4b8d181e9161045c602092610413610ec0565b856000526002845261042c60ff6040600020541661104a565b856000526002845260026040600020019063ffffffff60401b82549160401b169063ffffffff60401b1916179055565b604051908152a2005b503461015c57602036600319011261015c5780356001600160401b03811161015c573660238201121561015c576020918160246104a793369301359101610d9a565b6040516104d08382816104c38183019687815193849201610ccd565b8101038084520182610d79565b519020604051908152f35b503461015c57602036600319011261015c573560035481101561015c5760209060036000527fc2575a0e9e593c00f959f8c92f12db2869c3395a3b0502d05e2516446f71f85b0154604051908152f35b503461015c57602036600319011261015c57610545610c8a565b61054d610ec0565b6001600160a01b03169081156105a3577fb123bcd3d6124a115bda145c514c97efa40aa64417fbf5496835ca57b7991563602083806bffffffffffffffffffffffff60a01b6001541617600155604051908152a1005b60649060206040519162461bcd60e51b83528201526014602482015273496e76616c696420636f7265206164647265737360601b6044820152fd5b503461015c576105ed36610d15565b6105f5610ec0565b82600052600260205261061060ff6040600020541615610eec565b61061b811515610f30565b60405161062781610d48565b60018152610636368385610d9a565b6020820190815260408201916001600160401b034216835260608101916000835286600052600260205261067e604060002092511515839060ff801983541691151516179055565b51968751906001600160401b03821161036257506106ac816106a36001850154610de0565b60018501610f72565b6020601f821160011461076d57600263ffffffff93836107369796946001600160401b03946000805160206111818339815191529c9d600092610762575b50508160011b916000199060031b1c19161760018201555b019351166001600160401b0319845416178355511663ffffffff60401b82549160401b169063ffffffff60401b1916179055565b61073f84610fc6565b610756604051928392604084526040840191611029565b600060208301520390a2005b0151905038806106ea565b6001830160005260206000209860005b601f19841681106107e9575063ffffffff936001846000805160206111818339815191529b9c6001600160401b03956002956107369b9a98601f198116106107d0575b505050811b016001820155610702565b015160001960f88460031b161c191690553880806107c0565b828201518b556001909a01996020928301920161077d565b503461015c57602036600319011261015c57356000526002602052602063ffffffff60026040600020015460401c16604051908152f35b503461015c576020908160031936011261015c576000606060405161085c81610d48565b82815281858201528260408201520152356000526002815260406000206040519061088682610d48565b60ff81541615158252600261089d60018301610e1a565b91848401928352015460408301916001600160401b0380831684526108ef606086019263ffffffff809560401c16845260405197889781895251151590880152516080604088015260a0870190610cf0565b9351166060850152511660808301520390f35b3461015c57600036600319011261015c576000546040516001600160a01b039091168152602090f35b3461015c57600036600319011261015c57610944610ec0565b600080546001600160a01b0319811682556001600160a01b03167f8be0079c531659141344cd1fd0a4f28419497f9722a3daafe3b4186f6b6457e08280a3005b503461015c57606036600319011261015c578035602435916001600160401b039283811161015c576109b99036908301610ca0565b909160443563ffffffff80821680920361015c576109d5610ec0565b85600052602092600284526109f260ff6040600020541615610eec565b6109fd851515610f30565b60405197610a0a89610d48565b60018952610a19368789610d9a565b98858101998a5260408101998242168b5260608201938685528a60005260028852610a58604060002093511515849060ff801983541691151516179055565b6001830191518051918583116103625750610a7d82610a778554610de0565b85610f72565b8890601f8311600114610b2d5792826002936000805160206111818339815191529e9f989693610af99a9896600092610b22575b50508160011b916000199060031b1c1916179055019351166001600160401b0319845416178355511663ffffffff60401b82549160401b169063ffffffff60401b1916179055565b610b0286610fc6565b610b19604051948594604086526040860191611029565b918301520390a2005b015190503880610ab1565b90601f19831691846000528a6000209260005b818110610b975750936000805160206111818339815191529e9f989693610af99a9896936001938360029810610b7e575b505050811b019055610702565b015160001960f88460031b161c19169055388080610b71565b92938c600181928786015181550195019301610b40565b503461015c57602036600319011261015c5735610bc9610ec0565b806000526002602052610be360ff6040600020541661104a565b806000526002602052604060002060ff1981541690557f77d0949cfd61973208226afdb935a47a8eeef2788ac74131824d0ece739011ab600080a2005b503461015c57604036600319011261015c57602435906001600160a01b038216820361015c57602091610c53913561108a565b6040519015158152f35b90503461015c57602036600319011261015c57602091356000526002825260ff6040600020541615158152f35b600435906001600160a01b038216820361015c57565b9181601f8401121561015c578235916001600160401b03831161015c576020838186019501011161015c57565b60005b838110610ce05750506000910152565b8181015183820152602001610cd0565b90602091610d0981518092818552858086019101610ccd565b601f01601f1916010190565b90604060031983011261015c5760043591602435906001600160401b03821161015c57610d4491600401610ca0565b9091565b608081019081106001600160401b03821117610d6357604052565b634e487b7160e01b600052604160045260246000fd5b90601f801991011681019081106001600160401b03821117610d6357604052565b9291926001600160401b038211610d635760405191610dc3601f8201601f191660200184610d79565b82948184528183011161015c578281602093846000960137010152565b90600182811c92168015610e10575b6020831014610dfa57565b634e487b7160e01b600052602260045260246000fd5b91607f1691610def565b9060405191826000825492610e2e84610de0565b908184526001948581169081600014610e9d5750600114610e5a575b5050610e5892500383610d79565b565b9093915060005260209081600020936000915b818310610e85575050610e5893508201013880610e4a565b85548884018501529485019487945091830191610e6d565b915050610e5894506020925060ff191682840152151560051b8201013880610e4a565b6000546001600160a01b03163303610ed457565b60405163118cdaa760e01b8152336004820152602490fd5b15610ef357565b60405162461bcd60e51b815260206004820152601560248201527411d85b5948185b1c9958591e48185c1c1c9bdd9959605a1b6044820152606490fd5b15610f3757565b60405162461bcd60e51b81526020600482015260136024820152725552492063616e6e6f7420626520656d70747960681b6044820152606490fd5b90601f8111610f8057505050565b600091825260208220906020601f850160051c83019410610fbc575b601f0160051c01915b828110610fb157505050565b818155600101610fa5565b9092508290610f9c565b60035468010000000000000000811015610d635760018101806003558110156110135760036000527fc2575a0e9e593c00f959f8c92f12db2869c3395a3b0502d05e2516446f71f85b0155565b634e487b7160e01b600052603260045260246000fd5b908060209392818452848401376000828201840152601f01601f1916010190565b1561105157565b60405162461bcd60e51b815260206004820152601160248201527011d85b59481b9bdd08185c1c1c9bdd9959607a1b6044820152606490fd5b906000828152602090600282526040918282209460ff86541615611177576002949563ffffffff9586910154851c161561116c576001546001600160a01b039081169690871561115f57602484928751998a9384926334b735a160e01b84521660048301525afa958615611155578396611119575b50928260028093879684965252200154901c169116101590565b9095508181813d831161114e575b6111318183610d79565b8101031261114a5751848116810361114a5794846110ff565b8280fd5b503d611127565b84513d85823e3d90fd5b5050505050505050600190565b505050505050600190565b5050925050509056fe0b2a33c4054977413d59f47c5ffdd8f5d5ec289f85e48259d7c06c96bd6b147ba2646970667358221220bc5b04cfa30e5e06c0378e129ed9e0c43136190bc0338f70a25ea49b7913900964736f6c63430008140033","opcodes":"PUSH1 0x80 DUP1 PUSH1 0x40 MSTORE CALLVALUE PUSH2 0x7A JUMPI CALLER ISZERO PUSH2 0x64 JUMPI PUSH1 0x0 DUP1 SLOAD CALLER PUSH1 0x1 PUSH1 0x1 PUSH1 0xA0 SHL SUB NOT DUP3 AND DUP2 OR DUP4 SSTORE PUSH1 0x40 MLOAD SWAP3 SWAP1 SWAP2 PUSH1 0x1 PUSH1 0x1 PUSH1 0xA0 SHL SUB AND SWAP1 PUSH32 0x8BE0079C531659141344CD1FD0A4F28419497F9722A3DAAFE3B4186F6B6457E0 SWAP1 DUP1 LOG3 PUSH2 0x11D6 SWAP1 DUP2 PUSH2 0x80 DUP3 CODECOPY RETURN JUMPDEST PUSH4 0x1E4FBDF7 PUSH1 0xE0 SHL DUP2 MSTORE PUSH1 0x0 PUSH1 0x4 DUP3 ADD MSTORE PUSH1 0x24 SWAP1 REVERT JUMPDEST PUSH1 0x0 DUP1 REVERT INVALID PUSH1 0x80 DUP1 PUSH1 0x40 MSTORE PUSH1 0x4 SWAP1 DUP2 CALLDATASIZE LT ISZERO PUSH2 0x15 JUMPI PUSH1 0x0 DUP1 REVERT JUMPDEST PUSH1 0x0 CALLDATALOAD PUSH1 0xE0 SHR SWAP1 DUP2 PUSH4 0x48AEFC32 EQ PUSH2 0xC5D JUMPI POP DUP1 PUSH4 0x4953974A EQ PUSH2 0xC20 JUMPI DUP1 PUSH4 0x49D8AE24 EQ PUSH2 0xBAE JUMPI DUP1 PUSH4 0x6E321C88 EQ PUSH2 0x984 JUMPI DUP1 PUSH4 0x715018A6 EQ PUSH2 0x92B JUMPI DUP1 PUSH4 0x8DA5CB5B EQ PUSH2 0x902 JUMPI DUP1 PUSH4 0x8E35D0CB EQ PUSH2 0x838 JUMPI DUP1 PUSH4 0xB2B0966B EQ PUSH2 0x801 JUMPI DUP1 PUSH4 0xB5AB2269 EQ PUSH2 0x5DE JUMPI DUP1 PUSH4 0xC6266693 EQ PUSH2 0x52B JUMPI DUP1 PUSH4 0xD82C13F0 EQ PUSH2 0x4DB JUMPI DUP1 PUSH4 0xD9327877 EQ PUSH2 0x465 JUMPI DUP1 PUSH4 0xDE697502 EQ PUSH2 0x3BE JUMPI DUP1 PUSH4 0xE80DB5DB EQ PUSH2 0x395 JUMPI DUP1 PUSH4 0xE87C0EE6 EQ PUSH2 0x377 JUMPI DUP1 PUSH4 0xEAED21AF EQ PUSH2 0x1F0 JUMPI DUP1 PUSH4 0xF2FDE38B EQ PUSH2 0x161 JUMPI PUSH4 0xF579F882 EQ PUSH2 0xE7 JUMPI PUSH1 0x0 DUP1 REVERT JUMPDEST CALLVALUE PUSH2 0x15C JUMPI PUSH1 0x20 CALLDATASIZE PUSH1 0x3 NOT ADD SLT PUSH2 0x15C JUMPI CALLDATALOAD PUSH1 0x0 MSTORE PUSH1 0x2 PUSH1 0x20 MSTORE PUSH1 0x40 PUSH1 0x0 KECCAK256 PUSH1 0xFF DUP2 SLOAD AND PUSH1 0x2 PUSH2 0x119 PUSH1 0x1 DUP5 ADD PUSH2 0xE1A JUMP JUMPDEST SWAP3 ADD SLOAD PUSH4 0xFFFFFFFF PUSH2 0x13F PUSH1 0x40 MLOAD SWAP5 DUP6 SWAP5 ISZERO ISZERO DUP6 MSTORE PUSH1 0x80 PUSH1 0x20 DUP7 ADD MSTORE PUSH1 0x80 DUP6 ADD SWAP1 PUSH2 0xCF0 JUMP JUMPDEST SWAP2 PUSH1 0x1 PUSH1 0x1 PUSH1 0x40 SHL SUB DUP2 AND PUSH1 0x40 DUP6 ADD MSTORE PUSH1 0x40 SHR AND PUSH1 0x60 DUP4 ADD MSTORE SUB SWAP1 RETURN JUMPDEST PUSH1 0x0 DUP1 REVERT JUMPDEST POP CALLVALUE PUSH2 0x15C JUMPI PUSH1 0x20 CALLDATASIZE PUSH1 0x3 NOT ADD SLT PUSH2 0x15C JUMPI PUSH2 0x17B PUSH2 0xC8A JUMP JUMPDEST PUSH2 0x183 PUSH2 0xEC0 JUMP JUMPDEST PUSH1 0x1 PUSH1 0x1 PUSH1 0xA0 SHL SUB SWAP1 DUP2 AND SWAP2 DUP3 ISZERO PUSH2 0x1D8 JUMPI POP PUSH1 0x0 SLOAD DUP3 PUSH12 0xFFFFFFFFFFFFFFFFFFFFFFFF PUSH1 0xA0 SHL DUP3 AND OR PUSH1 0x0 SSTORE AND PUSH32 0x8BE0079C531659141344CD1FD0A4F28419497F9722A3DAAFE3B4186F6B6457E0 PUSH1 0x0 DUP1 LOG3 STOP JUMPDEST PUSH1 0x24 SWAP1 PUSH1 0x0 PUSH1 0x40 MLOAD SWAP2 PUSH4 0x1E4FBDF7 PUSH1 0xE0 SHL DUP4 MSTORE DUP3 ADD MSTORE REVERT JUMPDEST POP CALLVALUE PUSH2 0x15C JUMPI PUSH2 0x1FF CALLDATASIZE PUSH2 0xD15 JUMP JUMPDEST SWAP2 SWAP3 SWAP1 PUSH2 0x20A PUSH2 0xEC0 JUMP JUMPDEST DUP4 PUSH1 0x0 MSTORE PUSH1 0x20 SWAP2 PUSH1 0x2 DUP4 MSTORE PUSH2 0x226 PUSH1 0xFF PUSH1 0x40 PUSH1 0x0 KECCAK256 SLOAD AND PUSH2 0x104A JUMP JUMPDEST PUSH2 0x231 DUP5 ISZERO ISZERO PUSH2 0xF30 JUMP JUMPDEST DUP5 PUSH1 0x0 MSTORE PUSH1 0x2 DUP4 MSTORE PUSH1 0x1 DUP1 PUSH1 0x40 PUSH1 0x0 KECCAK256 ADD SWAP2 PUSH1 0x1 PUSH1 0x1 PUSH1 0x40 SHL SUB DUP7 GT PUSH2 0x362 JUMPI POP PUSH2 0x266 DUP6 PUSH2 0x260 DUP5 SLOAD PUSH2 0xDE0 JUMP JUMPDEST DUP5 PUSH2 0xF72 JUMP JUMPDEST PUSH1 0x0 PUSH1 0x1F DUP7 GT PUSH1 0x1 EQ PUSH2 0x2D9 JUMPI SWAP2 DUP6 DUP1 PUSH32 0xCAAC4F55F5DBEB77065C56C7B4437A39F921A8F377CB73BF14D154C1A8B0BDE4 SWAP8 SWAP7 SWAP6 SWAP4 PUSH2 0x2C9 SWAP6 PUSH1 0x0 SWAP4 PUSH2 0x2CE JUMPI JUMPDEST POP SHL SWAP1 PUSH1 0x0 NOT DUP8 PUSH1 0x3 SHL SHR NOT AND OR SWAP1 SSTORE JUMPDEST PUSH1 0x40 MLOAD SWAP4 DUP4 DUP6 SWAP5 DUP6 MSTORE DUP5 ADD SWAP2 PUSH2 0x1029 JUMP JUMPDEST SUB SWAP1 LOG2 STOP JUMPDEST DUP6 ADD CALLDATALOAD SWAP3 POP CODESIZE PUSH2 0x2A7 JUMP JUMPDEST PUSH1 0x1F NOT DUP7 AND SWAP1 DUP4 PUSH1 0x0 MSTORE DUP6 PUSH1 0x0 KECCAK256 SWAP2 PUSH1 0x0 JUMPDEST DUP2 DUP2 LT PUSH2 0x34D JUMPI POP SWAP2 DUP8 SWAP7 SWAP6 SWAP4 SWAP2 PUSH32 0xCAAC4F55F5DBEB77065C56C7B4437A39F921A8F377CB73BF14D154C1A8B0BDE4 SWAP9 PUSH2 0x2C9 SWAP7 SWAP5 LT PUSH2 0x333 JUMPI JUMPDEST POP POP DUP6 DUP2 SHL ADD SWAP1 SSTORE PUSH2 0x2B8 JUMP JUMPDEST DUP5 ADD CALLDATALOAD PUSH1 0x0 NOT PUSH1 0x3 DUP10 SWAP1 SHL PUSH1 0xF8 AND SHR NOT AND SWAP1 SSTORE CODESIZE DUP1 PUSH2 0x326 JUMP JUMPDEST DUP7 DUP4 ADD CALLDATALOAD DUP5 SSTORE SWAP3 DUP5 ADD SWAP3 SWAP2 DUP8 ADD SWAP2 DUP8 ADD PUSH2 0x2EB JUMP JUMPDEST PUSH1 0x41 SWAP1 PUSH4 0x4E487B71 PUSH1 0xE0 SHL PUSH1 0x0 MSTORE MSTORE PUSH1 0x24 PUSH1 0x0 REVERT JUMPDEST CALLVALUE PUSH2 0x15C JUMPI PUSH1 0x0 CALLDATASIZE PUSH1 0x3 NOT ADD SLT PUSH2 0x15C JUMPI PUSH1 0x20 PUSH1 0x3 SLOAD PUSH1 0x40 MLOAD SWAP1 DUP2 MSTORE RETURN JUMPDEST CALLVALUE PUSH2 0x15C JUMPI PUSH1 0x0 CALLDATASIZE PUSH1 0x3 NOT ADD SLT PUSH2 0x15C JUMPI PUSH1 0x1 SLOAD PUSH1 0x40 MLOAD PUSH1 0x1 PUSH1 0x1 PUSH1 0xA0 SHL SUB SWAP1 SWAP2 AND DUP2 MSTORE PUSH1 0x20 SWAP1 RETURN JUMPDEST POP CALLVALUE PUSH2 0x15C JUMPI PUSH1 0x40 CALLDATASIZE PUSH1 0x3 NOT ADD SLT PUSH2 0x15C JUMPI CALLDATALOAD PUSH1 0x24 CALLDATALOAD PUSH4 0xFFFFFFFF DUP2 AND SWAP1 DUP2 DUP2 SUB PUSH2 0x15C JUMPI PUSH32 0xB2C8A9C7F7EFB56CF93708EE08FC0737CBEC25EED9A11F914C29CECB4B8D181E SWAP2 PUSH2 0x45C PUSH1 0x20 SWAP3 PUSH2 0x413 PUSH2 0xEC0 JUMP JUMPDEST DUP6 PUSH1 0x0 MSTORE PUSH1 0x2 DUP5 MSTORE PUSH2 0x42C PUSH1 0xFF PUSH1 0x40 PUSH1 0x0 KECCAK256 SLOAD AND PUSH2 0x104A JUMP JUMPDEST DUP6 PUSH1 0x0 MSTORE PUSH1 0x2 DUP5 MSTORE PUSH1 0x2 PUSH1 0x40 PUSH1 0x0 KECCAK256 ADD SWAP1 PUSH4 0xFFFFFFFF PUSH1 0x40 SHL DUP3 SLOAD SWAP2 PUSH1 0x40 SHL AND SWAP1 PUSH4 0xFFFFFFFF PUSH1 0x40 SHL NOT AND OR SWAP1 SSTORE JUMP JUMPDEST PUSH1 0x40 MLOAD SWAP1 DUP2 MSTORE LOG2 STOP JUMPDEST POP CALLVALUE PUSH2 0x15C JUMPI PUSH1 0x20 CALLDATASIZE PUSH1 0x3 NOT ADD SLT PUSH2 0x15C JUMPI DUP1 CALLDATALOAD PUSH1 0x1 PUSH1 0x1 PUSH1 0x40 SHL SUB DUP2 GT PUSH2 0x15C JUMPI CALLDATASIZE PUSH1 0x23 DUP3 ADD SLT ISZERO PUSH2 0x15C JUMPI PUSH1 0x20 SWAP2 DUP2 PUSH1 0x24 PUSH2 0x4A7 SWAP4 CALLDATASIZE SWAP4 ADD CALLDATALOAD SWAP2 ADD PUSH2 0xD9A JUMP JUMPDEST PUSH1 0x40 MLOAD PUSH2 0x4D0 DUP4 DUP3 DUP2 PUSH2 0x4C3 DUP2 DUP4 ADD SWAP7 DUP8 DUP2 MLOAD SWAP4 DUP5 SWAP3 ADD PUSH2 0xCCD JUMP JUMPDEST DUP2 ADD SUB DUP1 DUP5 MSTORE ADD DUP3 PUSH2 0xD79 JUMP JUMPDEST MLOAD SWAP1 KECCAK256 PUSH1 0x40 MLOAD SWAP1 DUP2 MSTORE RETURN JUMPDEST POP CALLVALUE PUSH2 0x15C JUMPI PUSH1 0x20 CALLDATASIZE PUSH1 0x3 NOT ADD SLT PUSH2 0x15C JUMPI CALLDATALOAD PUSH1 0x3 SLOAD DUP2 LT ISZERO PUSH2 0x15C JUMPI PUSH1 0x20 SWAP1 PUSH1 0x3 PUSH1 0x0 MSTORE PUSH32 0xC2575A0E9E593C00F959F8C92F12DB2869C3395A3B0502D05E2516446F71F85B ADD SLOAD PUSH1 0x40 MLOAD SWAP1 DUP2 MSTORE RETURN JUMPDEST POP CALLVALUE PUSH2 0x15C JUMPI PUSH1 0x20 CALLDATASIZE PUSH1 0x3 NOT ADD SLT PUSH2 0x15C JUMPI PUSH2 0x545 PUSH2 0xC8A JUMP JUMPDEST PUSH2 0x54D PUSH2 0xEC0 JUMP JUMPDEST PUSH1 0x1 PUSH1 0x1 PUSH1 0xA0 SHL SUB AND SWAP1 DUP2 ISZERO PUSH2 0x5A3 JUMPI PUSH32 0xB123BCD3D6124A115BDA145C514C97EFA40AA64417FBF5496835CA57B7991563 PUSH1 0x20 DUP4 DUP1 PUSH12 0xFFFFFFFFFFFFFFFFFFFFFFFF PUSH1 0xA0 SHL PUSH1 0x1 SLOAD AND OR PUSH1 0x1 SSTORE PUSH1 0x40 MLOAD SWAP1 DUP2 MSTORE LOG1 STOP JUMPDEST PUSH1 0x64 SWAP1 PUSH1 0x20 PUSH1 0x40 MLOAD SWAP2 PUSH3 0x461BCD PUSH1 0xE5 SHL DUP4 MSTORE DUP3 ADD MSTORE PUSH1 0x14 PUSH1 0x24 DUP3 ADD MSTORE PUSH20 0x496E76616C696420636F72652061646472657373 PUSH1 0x60 SHL PUSH1 0x44 DUP3 ADD MSTORE REVERT JUMPDEST POP CALLVALUE PUSH2 0x15C JUMPI PUSH2 0x5ED CALLDATASIZE PUSH2 0xD15 JUMP JUMPDEST PUSH2 0x5F5 PUSH2 0xEC0 JUMP JUMPDEST DUP3 PUSH1 0x0 MSTORE PUSH1 0x2 PUSH1 0x20 MSTORE PUSH2 0x610 PUSH1 0xFF PUSH1 0x40 PUSH1 0x0 KECCAK256 SLOAD AND ISZERO PUSH2 0xEEC JUMP JUMPDEST PUSH2 0x61B DUP2 ISZERO ISZERO PUSH2 0xF30 JUMP JUMPDEST PUSH1 0x40 MLOAD PUSH2 0x627 DUP2 PUSH2 0xD48 JUMP JUMPDEST PUSH1 0x1 DUP2 MSTORE PUSH2 0x636 CALLDATASIZE DUP4 DUP6 PUSH2 0xD9A JUMP JUMPDEST PUSH1 0x20 DUP3 ADD SWAP1 DUP2 MSTORE PUSH1 0x40 DUP3 ADD SWAP2 PUSH1 0x1 PUSH1 0x1 PUSH1 0x40 SHL SUB TIMESTAMP AND DUP4 MSTORE PUSH1 0x60 DUP2 ADD SWAP2 PUSH1 0x0 DUP4 MSTORE DUP7 PUSH1 0x0 MSTORE PUSH1 0x2 PUSH1 0x20 MSTORE PUSH2 0x67E PUSH1 0x40 PUSH1 0x0 KECCAK256 SWAP3 MLOAD ISZERO ISZERO DUP4 SWAP1 PUSH1 0xFF DUP1 NOT DUP4 SLOAD AND SWAP2 ISZERO ISZERO AND OR SWAP1 SSTORE JUMP JUMPDEST MLOAD SWAP7 DUP8 MLOAD SWAP1 PUSH1 0x1 PUSH1 0x1 PUSH1 0x40 SHL SUB DUP3 GT PUSH2 0x362 JUMPI POP PUSH2 0x6AC DUP2 PUSH2 0x6A3 PUSH1 0x1 DUP6 ADD SLOAD PUSH2 0xDE0 JUMP JUMPDEST PUSH1 0x1 DUP6 ADD PUSH2 0xF72 JUMP JUMPDEST PUSH1 0x20 PUSH1 0x1F DUP3 GT PUSH1 0x1 EQ PUSH2 0x76D JUMPI PUSH1 0x2 PUSH4 0xFFFFFFFF SWAP4 DUP4 PUSH2 0x736 SWAP8 SWAP7 SWAP5 PUSH1 0x1 PUSH1 0x1 PUSH1 0x40 SHL SUB SWAP5 PUSH1 0x0 DUP1 MLOAD PUSH1 0x20 PUSH2 0x1181 DUP4 CODECOPY DUP2 MLOAD SWAP2 MSTORE SWAP13 SWAP14 PUSH1 0x0 SWAP3 PUSH2 0x762 JUMPI JUMPDEST POP POP DUP2 PUSH1 0x1 SHL SWAP2 PUSH1 0x0 NOT SWAP1 PUSH1 0x3 SHL SHR NOT AND OR PUSH1 0x1 DUP3 ADD SSTORE JUMPDEST ADD SWAP4 MLOAD AND PUSH1 0x1 PUSH1 0x1 PUSH1 0x40 SHL SUB NOT DUP5 SLOAD AND OR DUP4 SSTORE MLOAD AND PUSH4 0xFFFFFFFF PUSH1 0x40 SHL DUP3 SLOAD SWAP2 PUSH1 0x40 SHL AND SWAP1 PUSH4 0xFFFFFFFF PUSH1 0x40 SHL NOT AND OR SWAP1 SSTORE JUMP JUMPDEST PUSH2 0x73F DUP5 PUSH2 0xFC6 JUMP JUMPDEST PUSH2 0x756 PUSH1 0x40 MLOAD SWAP3 DUP4 SWAP3 PUSH1 0x40 DUP5 MSTORE PUSH1 0x40 DUP5 ADD SWAP2 PUSH2 0x1029 JUMP JUMPDEST PUSH1 0x0 PUSH1 0x20 DUP4 ADD MSTORE SUB SWAP1 LOG2 STOP JUMPDEST ADD MLOAD SWAP1 POP CODESIZE DUP1 PUSH2 0x6EA JUMP JUMPDEST PUSH1 0x1 DUP4 ADD PUSH1 0x0 MSTORE PUSH1 0x20 PUSH1 0x0 KECCAK256 SWAP9 PUSH1 0x0 JUMPDEST PUSH1 0x1F NOT DUP5 AND DUP2 LT PUSH2 0x7E9 JUMPI POP PUSH4 0xFFFFFFFF SWAP4 PUSH1 0x1 DUP5 PUSH1 0x0 DUP1 MLOAD PUSH1 0x20 PUSH2 0x1181 DUP4 CODECOPY DUP2 MLOAD SWAP2 MSTORE SWAP12 SWAP13 PUSH1 0x1 PUSH1 0x1 PUSH1 0x40 SHL SUB SWAP6 PUSH1 0x2 SWAP6 PUSH2 0x736 SWAP12 SWAP11 SWAP9 PUSH1 0x1F NOT DUP2 AND LT PUSH2 0x7D0 JUMPI JUMPDEST POP POP POP DUP2 SHL ADD PUSH1 0x1 DUP3 ADD SSTORE PUSH2 0x702 JUMP JUMPDEST ADD MLOAD PUSH1 0x0 NOT PUSH1 0xF8 DUP5 PUSH1 0x3 SHL AND SHR NOT AND SWAP1 SSTORE CODESIZE DUP1 DUP1 PUSH2 0x7C0 JUMP JUMPDEST DUP3 DUP3 ADD MLOAD DUP12 SSTORE PUSH1 0x1 SWAP1 SWAP11 ADD SWAP10 PUSH1 0x20 SWAP3 DUP4 ADD SWAP3 ADD PUSH2 0x77D JUMP JUMPDEST POP CALLVALUE PUSH2 0x15C JUMPI PUSH1 0x20 CALLDATASIZE PUSH1 0x3 NOT ADD SLT PUSH2 0x15C JUMPI CALLDATALOAD PUSH1 0x0 MSTORE PUSH1 0x2 PUSH1 0x20 MSTORE PUSH1 0x20 PUSH4 0xFFFFFFFF PUSH1 0x2 PUSH1 0x40 PUSH1 0x0 KECCAK256 ADD SLOAD PUSH1 0x40 SHR AND PUSH1 0x40 MLOAD SWAP1 DUP2 MSTORE RETURN JUMPDEST POP CALLVALUE PUSH2 0x15C JUMPI PUSH1 0x20 SWAP1 DUP2 PUSH1 0x3 NOT CALLDATASIZE ADD SLT PUSH2 0x15C JUMPI PUSH1 0x0 PUSH1 0x60 PUSH1 0x40 MLOAD PUSH2 0x85C DUP2 PUSH2 0xD48 JUMP JUMPDEST DUP3 DUP2 MSTORE DUP2 DUP6 DUP3 ADD MSTORE DUP3 PUSH1 0x40 DUP3 ADD MSTORE ADD MSTORE CALLDATALOAD PUSH1 0x0 MSTORE PUSH1 0x2 DUP2 MSTORE PUSH1 0x40 PUSH1 0x0 KECCAK256 PUSH1 0x40 MLOAD SWAP1 PUSH2 0x886 DUP3 PUSH2 0xD48 JUMP JUMPDEST PUSH1 0xFF DUP2 SLOAD AND ISZERO ISZERO DUP3 MSTORE PUSH1 0x2 PUSH2 0x89D PUSH1 0x1 DUP4 ADD PUSH2 0xE1A JUMP JUMPDEST SWAP2 DUP5 DUP5 ADD SWAP3 DUP4 MSTORE ADD SLOAD PUSH1 0x40 DUP4 ADD SWAP2 PUSH1 0x1 PUSH1 0x1 PUSH1 0x40 SHL SUB DUP1 DUP4 AND DUP5 MSTORE PUSH2 0x8EF PUSH1 0x60 DUP7 ADD SWAP3 PUSH4 0xFFFFFFFF DUP1 SWAP6 PUSH1 0x40 SHR AND DUP5 MSTORE PUSH1 0x40 MLOAD SWAP8 DUP9 SWAP8 DUP2 DUP10 MSTORE MLOAD ISZERO ISZERO SWAP1 DUP9 ADD MSTORE MLOAD PUSH1 0x80 PUSH1 0x40 DUP9 ADD MSTORE PUSH1 0xA0 DUP8 ADD SWAP1 PUSH2 0xCF0 JUMP JUMPDEST SWAP4 MLOAD AND PUSH1 0x60 DUP6 ADD MSTORE MLOAD AND PUSH1 0x80 DUP4 ADD MSTORE SUB SWAP1 RETURN JUMPDEST CALLVALUE PUSH2 0x15C JUMPI PUSH1 0x0 CALLDATASIZE PUSH1 0x3 NOT ADD SLT PUSH2 0x15C JUMPI PUSH1 0x0 SLOAD PUSH1 0x40 MLOAD PUSH1 0x1 PUSH1 0x1 PUSH1 0xA0 SHL SUB SWAP1 SWAP2 AND DUP2 MSTORE PUSH1 0x20 SWAP1 RETURN JUMPDEST CALLVALUE PUSH2 0x15C JUMPI PUSH1 0x0 CALLDATASIZE PUSH1 0x3 NOT ADD SLT PUSH2 0x15C JUMPI PUSH2 0x944 PUSH2 0xEC0 JUMP JUMPDEST PUSH1 0x0 DUP1 SLOAD PUSH1 0x1 PUSH1 0x1 PUSH1 0xA0 SHL SUB NOT DUP2 AND DUP3 SSTORE PUSH1 0x1 PUSH1 0x1 PUSH1 0xA0 SHL SUB AND PUSH32 0x8BE0079C531659141344CD1FD0A4F28419497F9722A3DAAFE3B4186F6B6457E0 DUP3 DUP1 LOG3 STOP JUMPDEST POP CALLVALUE PUSH2 0x15C JUMPI PUSH1 0x60 CALLDATASIZE PUSH1 0x3 NOT ADD SLT PUSH2 0x15C JUMPI DUP1 CALLDATALOAD PUSH1 0x24 CALLDATALOAD SWAP2 PUSH1 0x1 PUSH1 0x1 PUSH1 0x40 SHL SUB SWAP3 DUP4 DUP2 GT PUSH2 0x15C JUMPI PUSH2 0x9B9 SWAP1 CALLDATASIZE SWAP1 DUP4 ADD PUSH2 0xCA0 JUMP JUMPDEST SWAP1 SWAP2 PUSH1 0x44 CALLDATALOAD PUSH4 0xFFFFFFFF DUP1 DUP3 AND DUP1 SWAP3 SUB PUSH2 0x15C JUMPI PUSH2 0x9D5 PUSH2 0xEC0 JUMP JUMPDEST DUP6 PUSH1 0x0 MSTORE PUSH1 0x20 SWAP3 PUSH1 0x2 DUP5 MSTORE PUSH2 0x9F2 PUSH1 0xFF PUSH1 0x40 PUSH1 0x0 KECCAK256 SLOAD AND ISZERO PUSH2 0xEEC JUMP JUMPDEST PUSH2 0x9FD DUP6 ISZERO ISZERO PUSH2 0xF30 JUMP JUMPDEST PUSH1 0x40 MLOAD SWAP8 PUSH2 0xA0A DUP10 PUSH2 0xD48 JUMP JUMPDEST PUSH1 0x1 DUP10 MSTORE PUSH2 0xA19 CALLDATASIZE DUP8 DUP10 PUSH2 0xD9A JUMP JUMPDEST SWAP9 DUP6 DUP2 ADD SWAP10 DUP11 MSTORE PUSH1 0x40 DUP2 ADD SWAP10 DUP3 TIMESTAMP AND DUP12 MSTORE PUSH1 0x60 DUP3 ADD SWAP4 DUP7 DUP6 MSTORE DUP11 PUSH1 0x0 MSTORE PUSH1 0x2 DUP9 MSTORE PUSH2 0xA58 PUSH1 0x40 PUSH1 0x0 KECCAK256 SWAP4 MLOAD ISZERO ISZERO DUP5 SWAP1 PUSH1 0xFF DUP1 NOT DUP4 SLOAD AND SWAP2 ISZERO ISZERO AND OR SWAP1 SSTORE JUMP JUMPDEST PUSH1 0x1 DUP4 ADD SWAP2 MLOAD DUP1 MLOAD SWAP2 DUP6 DUP4 GT PUSH2 0x362 JUMPI POP PUSH2 0xA7D DUP3 PUSH2 0xA77 DUP6 SLOAD PUSH2 0xDE0 JUMP JUMPDEST DUP6 PUSH2 0xF72 JUMP JUMPDEST DUP9 SWAP1 PUSH1 0x1F DUP4 GT PUSH1 0x1 EQ PUSH2 0xB2D JUMPI SWAP3 DUP3 PUSH1 0x2 SWAP4 PUSH1 0x0 DUP1 MLOAD PUSH1 0x20 PUSH2 0x1181 DUP4 CODECOPY DUP2 MLOAD SWAP2 MSTORE SWAP15 SWAP16 SWAP9 SWAP7 SWAP4 PUSH2 0xAF9 SWAP11 SWAP9 SWAP7 PUSH1 0x0 SWAP3 PUSH2 0xB22 JUMPI JUMPDEST POP POP DUP2 PUSH1 0x1 SHL SWAP2 PUSH1 0x0 NOT SWAP1 PUSH1 0x3 SHL SHR NOT AND OR SWAP1 SSTORE ADD SWAP4 MLOAD AND PUSH1 0x1 PUSH1 0x1 PUSH1 0x40 SHL SUB NOT DUP5 SLOAD AND OR DUP4 SSTORE MLOAD AND PUSH4 0xFFFFFFFF PUSH1 0x40 SHL DUP3 SLOAD SWAP2 PUSH1 0x40 SHL AND SWAP1 PUSH4 0xFFFFFFFF PUSH1 0x40 SHL NOT AND OR SWAP1 SSTORE JUMP JUMPDEST PUSH2 0xB02 DUP7 PUSH2 0xFC6 JUMP JUMPDEST PUSH2 0xB19 PUSH1 0x40 MLOAD SWAP5 DUP6 SWAP5 PUSH1 0x40 DUP7 MSTORE PUSH1 0x40 DUP7 ADD SWAP2 PUSH2 0x1029 JUMP JUMPDEST SWAP2 DUP4 ADD MSTORE SUB SWAP1 LOG2 STOP JUMPDEST ADD MLOAD SWAP1 POP CODESIZE DUP1 PUSH2 0xAB1 JUMP JUMPDEST SWAP1 PUSH1 0x1F NOT DUP4 AND SWAP2 DUP5 PUSH1 0x0 MSTORE DUP11 PUSH1 0x0 KECCAK256 SWAP3 PUSH1 0x0 JUMPDEST DUP2 DUP2 LT PUSH2 0xB97 JUMPI POP SWAP4 PUSH1 0x0 DUP1 MLOAD PUSH1 0x20 PUSH2 0x1181 DUP4 CODECOPY DUP2 MLOAD SWAP2 MSTORE SWAP15 SWAP16 SWAP9 SWAP7 SWAP4 PUSH2 0xAF9 SWAP11 SWAP9 SWAP7 SWAP4 PUSH1 0x1 SWAP4 DUP4 PUSH1 0x2 SWAP9 LT PUSH2 0xB7E JUMPI JUMPDEST POP POP POP DUP2 SHL ADD SWAP1 SSTORE PUSH2 0x702 JUMP JUMPDEST ADD MLOAD PUSH1 0x0 NOT PUSH1 0xF8 DUP5 PUSH1 0x3 SHL AND SHR NOT AND SWAP1 SSTORE CODESIZE DUP1 DUP1 PUSH2 0xB71 JUMP JUMPDEST SWAP3 SWAP4 DUP13 PUSH1 0x1 DUP2 SWAP3 DUP8 DUP7 ADD MLOAD DUP2 SSTORE ADD SWAP6 ADD SWAP4 ADD PUSH2 0xB40 JUMP JUMPDEST POP CALLVALUE PUSH2 0x15C JUMPI PUSH1 0x20 CALLDATASIZE PUSH1 0x3 NOT ADD SLT PUSH2 0x15C JUMPI CALLDATALOAD PUSH2 0xBC9 PUSH2 0xEC0 JUMP JUMPDEST DUP1 PUSH1 0x0 MSTORE PUSH1 0x2 PUSH1 0x20 MSTORE PUSH2 0xBE3 PUSH1 0xFF PUSH1 0x40 PUSH1 0x0 KECCAK256 SLOAD AND PUSH2 0x104A JUMP JUMPDEST DUP1 PUSH1 0x0 MSTORE PUSH1 0x2 PUSH1 0x20 MSTORE PUSH1 0x40 PUSH1 0x0 KECCAK256 PUSH1 0xFF NOT DUP2 SLOAD AND SWAP1 SSTORE PUSH32 0x77D0949CFD61973208226AFDB935A47A8EEEF2788AC74131824D0ECE739011AB PUSH1 0x0 DUP1 LOG2 STOP JUMPDEST POP CALLVALUE PUSH2 0x15C JUMPI PUSH1 0x40 CALLDATASIZE PUSH1 0x3 NOT ADD SLT PUSH2 0x15C JUMPI PUSH1 0x24 CALLDATALOAD SWAP1 PUSH1 0x1 PUSH1 0x1 PUSH1 0xA0 SHL SUB DUP3 AND DUP3 SUB PUSH2 0x15C JUMPI PUSH1 0x20 SWAP2 PUSH2 0xC53 SWAP2 CALLDATALOAD PUSH2 0x108A JUMP JUMPDEST PUSH1 0x40 MLOAD SWAP1 ISZERO ISZERO DUP2 MSTORE RETURN JUMPDEST SWAP1 POP CALLVALUE PUSH2 0x15C JUMPI PUSH1 0x20 CALLDATASIZE PUSH1 0x3 NOT ADD SLT PUSH2 0x15C JUMPI PUSH1 0x20 SWAP2 CALLDATALOAD PUSH1 0x0 MSTORE PUSH1 0x2 DUP3 MSTORE PUSH1 0xFF PUSH1 0x40 PUSH1 0x0 KECCAK256 SLOAD AND ISZERO ISZERO DUP2 MSTORE RETURN JUMPDEST PUSH1 0x4 CALLDATALOAD SWAP1 PUSH1 0x1 PUSH1 0x1 PUSH1 0xA0 SHL SUB DUP3 AND DUP3 SUB PUSH2 0x15C JUMPI JUMP JUMPDEST SWAP2 DUP2 PUSH1 0x1F DUP5 ADD SLT ISZERO PUSH2 0x15C JUMPI DUP3 CALLDATALOAD SWAP2 PUSH1 0x1 PUSH1 0x1 PUSH1 0x40 SHL SUB DUP4 GT PUSH2 0x15C JUMPI PUSH1 0x20 DUP4 DUP2 DUP7 ADD SWAP6 ADD ADD GT PUSH2 0x15C JUMPI JUMP JUMPDEST PUSH1 0x0 JUMPDEST DUP4 DUP2 LT PUSH2 0xCE0 JUMPI POP POP PUSH1 0x0 SWAP2 ADD MSTORE JUMP JUMPDEST DUP2 DUP2 ADD MLOAD DUP4 DUP3 ADD MSTORE PUSH1 0x20 ADD PUSH2 0xCD0 JUMP JUMPDEST SWAP1 PUSH1 0x20 SWAP2 PUSH2 0xD09 DUP2 MLOAD DUP1 SWAP3 DUP2 DUP6 MSTORE DUP6 DUP1 DUP7 ADD SWAP2 ADD PUSH2 0xCCD JUMP JUMPDEST PUSH1 0x1F ADD PUSH1 0x1F NOT AND ADD ADD SWAP1 JUMP JUMPDEST SWAP1 PUSH1 0x40 PUSH1 0x3 NOT DUP4 ADD SLT PUSH2 0x15C JUMPI PUSH1 0x4 CALLDATALOAD SWAP2 PUSH1 0x24 CALLDATALOAD SWAP1 PUSH1 0x1 PUSH1 0x1 PUSH1 0x40 SHL SUB DUP3 GT PUSH2 0x15C JUMPI PUSH2 0xD44 SWAP2 PUSH1 0x4 ADD PUSH2 0xCA0 JUMP JUMPDEST SWAP1 SWAP2 JUMP JUMPDEST PUSH1 0x80 DUP2 ADD SWAP1 DUP2 LT PUSH1 0x1 PUSH1 0x1 PUSH1 0x40 SHL SUB DUP3 GT OR PUSH2 0xD63 JUMPI PUSH1 0x40 MSTORE JUMP JUMPDEST PUSH4 0x4E487B71 PUSH1 0xE0 SHL PUSH1 0x0 MSTORE PUSH1 0x41 PUSH1 0x4 MSTORE PUSH1 0x24 PUSH1 0x0 REVERT JUMPDEST SWAP1 PUSH1 0x1F DUP1 NOT SWAP2 ADD AND DUP2 ADD SWAP1 DUP2 LT PUSH1 0x1 PUSH1 0x1 PUSH1 0x40 SHL SUB DUP3 GT OR PUSH2 0xD63 JUMPI PUSH1 0x40 MSTORE JUMP JUMPDEST SWAP3 SWAP2 SWAP3 PUSH1 0x1 PUSH1 0x1 PUSH1 0x40 SHL SUB DUP3 GT PUSH2 0xD63 JUMPI PUSH1 0x40 MLOAD SWAP2 PUSH2 0xDC3 PUSH1 0x1F DUP3 ADD PUSH1 0x1F NOT AND PUSH1 0x20 ADD DUP5 PUSH2 0xD79 JUMP JUMPDEST DUP3 SWAP5 DUP2 DUP5 MSTORE DUP2 DUP4 ADD GT PUSH2 0x15C JUMPI DUP3 DUP2 PUSH1 0x20 SWAP4 DUP5 PUSH1 0x0 SWAP7 ADD CALLDATACOPY ADD ADD MSTORE JUMP JUMPDEST SWAP1 PUSH1 0x1 DUP3 DUP2 SHR SWAP3 AND DUP1 ISZERO PUSH2 0xE10 JUMPI JUMPDEST PUSH1 0x20 DUP4 LT EQ PUSH2 0xDFA JUMPI JUMP JUMPDEST PUSH4 0x4E487B71 PUSH1 0xE0 SHL PUSH1 0x0 MSTORE PUSH1 0x22 PUSH1 0x4 MSTORE PUSH1 0x24 PUSH1 0x0 REVERT JUMPDEST SWAP2 PUSH1 0x7F AND SWAP2 PUSH2 0xDEF JUMP JUMPDEST SWAP1 PUSH1 0x40 MLOAD SWAP2 DUP3 PUSH1 0x0 DUP3 SLOAD SWAP3 PUSH2 0xE2E DUP5 PUSH2 0xDE0 JUMP JUMPDEST SWAP1 DUP2 DUP5 MSTORE PUSH1 0x1 SWAP5 DUP6 DUP2 AND SWAP1 DUP2 PUSH1 0x0 EQ PUSH2 0xE9D JUMPI POP PUSH1 0x1 EQ PUSH2 0xE5A JUMPI JUMPDEST POP POP PUSH2 0xE58 SWAP3 POP SUB DUP4 PUSH2 0xD79 JUMP JUMPDEST JUMP JUMPDEST SWAP1 SWAP4 SWAP2 POP PUSH1 0x0 MSTORE PUSH1 0x20 SWAP1 DUP2 PUSH1 0x0 KECCAK256 SWAP4 PUSH1 0x0 SWAP2 JUMPDEST DUP2 DUP4 LT PUSH2 0xE85 JUMPI POP POP PUSH2 0xE58 SWAP4 POP DUP3 ADD ADD CODESIZE DUP1 PUSH2 0xE4A JUMP JUMPDEST DUP6 SLOAD DUP9 DUP5 ADD DUP6 ADD MSTORE SWAP5 DUP6 ADD SWAP5 DUP8 SWAP5 POP SWAP2 DUP4 ADD SWAP2 PUSH2 0xE6D JUMP JUMPDEST SWAP2 POP POP PUSH2 0xE58 SWAP5 POP PUSH1 0x20 SWAP3 POP PUSH1 0xFF NOT AND DUP3 DUP5 ADD MSTORE ISZERO ISZERO PUSH1 0x5 SHL DUP3 ADD ADD CODESIZE DUP1 PUSH2 0xE4A JUMP JUMPDEST PUSH1 0x0 SLOAD PUSH1 0x1 PUSH1 0x1 PUSH1 0xA0 SHL SUB AND CALLER SUB PUSH2 0xED4 JUMPI JUMP JUMPDEST PUSH1 0x40 MLOAD PUSH4 0x118CDAA7 PUSH1 0xE0 SHL DUP2 MSTORE CALLER PUSH1 0x4 DUP3 ADD MSTORE PUSH1 0x24 SWAP1 REVERT JUMPDEST ISZERO PUSH2 0xEF3 JUMPI JUMP JUMPDEST PUSH1 0x40 MLOAD PUSH3 0x461BCD PUSH1 0xE5 SHL DUP2 MSTORE PUSH1 0x20 PUSH1 0x4 DUP3 ADD MSTORE PUSH1 0x15 PUSH1 0x24 DUP3 ADD MSTORE PUSH21 0x11D85B5948185B1C9958591E48185C1C1C9BDD9959 PUSH1 0x5A SHL PUSH1 0x44 DUP3 ADD MSTORE PUSH1 0x64 SWAP1 REVERT JUMPDEST ISZERO PUSH2 0xF37 JUMPI JUMP JUMPDEST PUSH1 0x40 MLOAD PUSH3 0x461BCD PUSH1 0xE5 SHL DUP2 MSTORE PUSH1 0x20 PUSH1 0x4 DUP3 ADD MSTORE PUSH1 0x13 PUSH1 0x24 DUP3 ADD MSTORE PUSH19 0x5552492063616E6E6F7420626520656D707479 PUSH1 0x68 SHL PUSH1 0x44 DUP3 ADD MSTORE PUSH1 0x64 SWAP1 REVERT JUMPDEST SWAP1 PUSH1 0x1F DUP2 GT PUSH2 0xF80 JUMPI POP POP POP JUMP JUMPDEST PUSH1 0x0 SWAP2 DUP3 MSTORE PUSH1 0x20 DUP3 KECCAK256 SWAP1 PUSH1 0x20 PUSH1 0x1F DUP6 ADD PUSH1 0x5 SHR DUP4 ADD SWAP5 LT PUSH2 0xFBC JUMPI JUMPDEST PUSH1 0x1F ADD PUSH1 0x5 SHR ADD SWAP2 JUMPDEST DUP3 DUP2 LT PUSH2 0xFB1 JUMPI POP POP POP JUMP JUMPDEST DUP2 DUP2 SSTORE PUSH1 0x1 ADD PUSH2 0xFA5 JUMP JUMPDEST SWAP1 SWAP3 POP DUP3 SWAP1 PUSH2 0xF9C JUMP JUMPDEST PUSH1 0x3 SLOAD PUSH9 0x10000000000000000 DUP2 LT ISZERO PUSH2 0xD63 JUMPI PUSH1 0x1 DUP2 ADD DUP1 PUSH1 0x3 SSTORE DUP2 LT ISZERO PUSH2 0x1013 JUMPI PUSH1 0x3 PUSH1 0x0 MSTORE PUSH32 0xC2575A0E9E593C00F959F8C92F12DB2869C3395A3B0502D05E2516446F71F85B ADD SSTORE JUMP JUMPDEST PUSH4 0x4E487B71 PUSH1 0xE0 SHL PUSH1 0x0 MSTORE PUSH1 0x32 PUSH1 0x4 MSTORE PUSH1 0x24 PUSH1 0x0 REVERT JUMPDEST SWAP1 DUP1 PUSH1 0x20 SWAP4 SWAP3 DUP2 DUP5 MSTORE DUP5 DUP5 ADD CALLDATACOPY PUSH1 0x0 DUP3 DUP3 ADD DUP5 ADD MSTORE PUSH1 0x1F ADD PUSH1 0x1F NOT AND ADD ADD SWAP1 JUMP JUMPDEST ISZERO PUSH2 0x1051 JUMPI JUMP JUMPDEST PUSH1 0x40 MLOAD PUSH3 0x461BCD PUSH1 0xE5 SHL DUP2 MSTORE PUSH1 0x20 PUSH1 0x4 DUP3 ADD MSTORE PUSH1 0x11 PUSH1 0x24 DUP3 ADD MSTORE PUSH17 0x11D85B59481B9BDD08185C1C1C9BDD9959 PUSH1 0x7A SHL PUSH1 0x44 DUP3 ADD MSTORE PUSH1 0x64 SWAP1 REVERT JUMPDEST SWAP1 PUSH1 0x0 DUP3 DUP2 MSTORE PUSH1 0x20 SWAP1 PUSH1 0x2 DUP3 MSTORE PUSH1 0x40 SWAP2 DUP3 DUP3 KECCAK256 SWAP5 PUSH1 0xFF DUP7 SLOAD AND ISZERO PUSH2 0x1177 JUMPI PUSH1 0x2 SWAP5 SWAP6 PUSH4 0xFFFFFFFF SWAP6 DUP7 SWAP2 ADD SLOAD DUP6 SHR AND ISZERO PUSH2 0x116C JUMPI PUSH1 0x1 SLOAD PUSH1 0x1 PUSH1 0x1 PUSH1 0xA0 SHL SUB SWAP1 DUP2 AND SWAP7 SWAP1 DUP8 ISZERO PUSH2 0x115F JUMPI PUSH1 0x24 DUP5 SWAP3 DUP8 MLOAD SWAP10 DUP11 SWAP4 DUP5 SWAP3 PUSH4 0x34B735A1 PUSH1 0xE0 SHL DUP5 MSTORE AND PUSH1 0x4 DUP4 ADD MSTORE GAS STATICCALL SWAP6 DUP7 ISZERO PUSH2 0x1155 JUMPI DUP4 SWAP7 PUSH2 0x1119 JUMPI JUMPDEST POP SWAP3 DUP3 PUSH1 0x2 DUP1 SWAP4 DUP8 SWAP7 DUP5 SWAP7 MSTORE MSTORE KECCAK256 ADD SLOAD SWAP1 SHR AND SWAP2 AND LT ISZERO SWAP1 JUMP JUMPDEST SWAP1 SWAP6 POP DUP2 DUP2 DUP2 RETURNDATASIZE DUP4 GT PUSH2 0x114E JUMPI JUMPDEST PUSH2 0x1131 DUP2 DUP4 PUSH2 0xD79 JUMP JUMPDEST DUP2 ADD SUB SLT PUSH2 0x114A JUMPI MLOAD DUP5 DUP2 AND DUP2 SUB PUSH2 0x114A JUMPI SWAP5 DUP5 PUSH2 0x10FF JUMP JUMPDEST DUP3 DUP1 REVERT JUMPDEST POP RETURNDATASIZE PUSH2 0x1127 JUMP JUMPDEST DUP5 MLOAD RETURNDATASIZE DUP6 DUP3 RETURNDATACOPY RETURNDATASIZE SWAP1 REVERT JUMPDEST POP POP POP POP POP POP POP POP PUSH1 0x1 SWAP1 JUMP JUMPDEST POP POP POP POP POP POP PUSH1 0x1 SWAP1 JUMP JUMPDEST POP POP SWAP3 POP POP POP SWAP1 JUMP INVALID SIGNEXTEND 0x2A CALLER 0xC4 SDIV 0x49 PUSH24 0x413D59F47C5FFDD8F5D5EC289F85E48259D7C06C96BD6B14 PUSH28 0xA2646970667358221220BC5B04CFA30E5E06C0378E129ED9E0C43136 NOT SIGNEXTEND 0xC0 CALLER DUP16 PUSH17 0xA25EA49B7913900964736F6C6343000814 STOP CALLER "},"methodIdentifiers":{"approveGame(bytes32,string)":"b5ab2269","approveGameWithLevel(bytes32,string,uint32)":"6e321c88","canPlayerAccess(bytes32,address)":"4953974a","coreContract()":"e80db5db","gameIds(uint256)":"d82c13f0","games(bytes32)":"f579f882","getGameCount()":"e87c0ee6","getGameMeta(bytes32)":"8e35d0cb","getMinLevel(bytes32)":"b2b0966b","isApproved(bytes32)":"48aefc32","owner()":"8da5cb5b","renounceOwnership()":"715018a6","revokeGame(bytes32)":"49d8ae24","setCoreContract(address)":"c6266693","setGameMinLevel(bytes32,uint32)":"de697502","toGameId(string)":"d9327877","transferOwnership(address)":"f2fde38b","updateGameURI(bytes32,string)":"eaed21af"}}}}}