{"core/GinixGameMemory.sol":{"GinixGameMemory":{"abi":[{"inputs":[],"stateMutability":"nonpayable","type":"constructor"},{"inputs":[{"internalType":"address","name":"owner","type":"address"}],"name":"OwnableInvalidOwner","type":"error"},{"inputs":[{"internalType":"address","name":"account","type":"address"}],"name":"OwnableUnauthorizedAccount","type":"error"},{"anonymous":false,"inputs":[{"indexed":true,"internalType":"address","name":"player","type":"address"},{"indexed":true,"internalType":"bytes32","name":"achievementId","type":"bytes32"},{"indexed":false,"internalType":"uint64","name":"timestamp","type":"uint64"},{"indexed":false,"internalType":"string","name":"metadata","type":"string"}],"name":"AchievementUnlocked","type":"event"},{"anonymous":false,"inputs":[{"indexed":true,"internalType":"address","name":"previousOwner","type":"address"},{"indexed":true,"internalType":"address","name":"newOwner","type":"address"}],"name":"OwnershipTransferred","type":"event"},{"inputs":[{"internalType":"address","name":"player","type":"address"},{"internalType":"bytes32[]","name":"achievementIds","type":"bytes32[]"},{"internalType":"string[]","name":"metadatas","type":"string[]"}],"name":"batchUnlock","outputs":[],"stateMutability":"nonpayable","type":"function"},{"inputs":[{"internalType":"address","name":"player","type":"address"}],"name":"getAchievementCount","outputs":[{"internalType":"uint256","name":"","type":"uint256"}],"stateMutability":"view","type":"function"},{"inputs":[{"internalType":"address","name":"player","type":"address"}],"name":"getPlayerAchievements","outputs":[{"components":[{"internalType":"bytes32","name":"achievementId","type":"bytes32"},{"internalType":"uint64","name":"unlockedAt","type":"uint64"},{"internalType":"string","name":"metadata","type":"string"}],"internalType":"struct GinixGameMemory.Achievement[]","name":"","type":"tuple[]"}],"stateMutability":"view","type":"function"},{"inputs":[{"internalType":"address","name":"","type":"address"},{"internalType":"bytes32","name":"","type":"bytes32"}],"name":"hasAchievement","outputs":[{"internalType":"bool","name":"","type":"bool"}],"stateMutability":"view","type":"function"},{"inputs":[{"internalType":"address","name":"player","type":"address"},{"internalType":"bytes32","name":"achievementId","type":"bytes32"}],"name":"hasUnlocked","outputs":[{"internalType":"bool","name":"","type":"bool"}],"stateMutability":"view","type":"function"},{"inputs":[],"name":"owner","outputs":[{"internalType":"address","name":"","type":"address"}],"stateMutability":"view","type":"function"},{"inputs":[],"name":"renounceOwnership","outputs":[],"stateMutability":"nonpayable","type":"function"},{"inputs":[],"name":"totalAchievements","outputs":[{"internalType":"uint256","name":"","type":"uint256"}],"stateMutability":"view","type":"function"},{"inputs":[{"internalType":"address","name":"newOwner","type":"address"}],"name":"transferOwnership","outputs":[],"stateMutability":"nonpayable","type":"function"},{"inputs":[{"internalType":"address","name":"player","type":"address"},{"internalType":"bytes32","name":"achievementId","type":"bytes32"},{"internalType":"string","name":"metadata","type":"string"}],"name":"unlock","outputs":[],"stateMutability":"nonpayable","type":"function"}],"evm":{"bytecode":{"linkReferences":{},"object":"6080806040523461007a5733156100645760008054336001600160a01b03198216811783556040519290916001600160a01b0316907f8be0079c531659141344cd1fd0a4f28419497f9722a3daafe3b4186f6b6457e09080a3610bc290816100808239f35b631e4fbdf760e01b815260006004820152602490fd5b600080fdfe6080604081815260048036101561001557600080fd5b600092833560e01c90816304e7a165146107c457508063050a6c421461077d5780634f4c8ae1146107455780635347fc33146105d6578063715018a61461057c5780638226883c146103835780638da5cb5b1461035b5780639ce67bdd1461013d578063a61f98371461011a5763f2fde38b1461009157600080fd5b34610116576020366003190112610116576100aa610808565b906100b3610854565b6001600160a01b0391821692831561010057505082546001600160a01b0319811683178455167f8be0079c531659141344cd1fd0a4f28419497f9722a3daafe3b4186f6b6457e08380a380f35b51631e4fbdf760e01b8152908101849052602490fd5b8280fd5b5050346101395781600319360112610139576020906003549051908152f35b5080fd5b50913461035857602080600319360112610139576001600160a01b03610161610808565b168252600281528282209384549067ffffffffffffffff9081831161034557509185928551926005906101988482841b01866108b2565b8085528385018096885284882088915b83831061025d575050505086519583870194848852518095528785818901931b880101959781935b8685106101dd5788880389f35b90919293949596603f1989820301855286838b518051845284838201511683850152015191606092838683015280518094830152865b84811061024857505080830160809081018790529b82019b601f909301601f19160190910197969560010194019291906101d0565b818101840151838201608001528a9301610213565b868b9a959798999b5161026f81610880565b835481526001888186015416838301528c600286018151928c8b9280546102958161091b565b808852928185169182156103215750506001146102dd575b5050509160039493916102c5826001989503836108b2565b820152815201920192019190999796959398996101a8565b8c52868c208c93509091905b8284106103015750505082018401816102c5846102ad565b8193959697929450805483878901015201930190918f928e9695946102e9565b60ff19168a89015292151590921b8601880193508492506102c591508590506102ad565b634e487b7160e01b855260419052602484fd5b80fd5b505034610139578160031936011261013957905490516001600160a01b039091168152602090f35b50346101165760603660031901126101165761039d610808565b9167ffffffffffffffff90602435828111610578576103bf9036908501610823565b9390604435848111610574576103d89036908401610823565b9590926103e3610854565b868203610539575093956001600160a01b03169387805b828110610405575080f35b8787868584868e8561044c99528a8d600193602085815282822061042a888a87610b3a565b358352815260ff838320541615610453575b5050505050505050505050610add565b88906103fa565b7f1a914300e885d43e0836f4a509ff976cad01513b3ef4e624f5738ea843520a2f986104cd886104c18e9a6105249c8f88816104f19e8c936104e89c52808b528d6104a2878787872093610b3a565b3584528b528383209060ff198254161790558152600289522099610b3a565b35974216998a93610b4a565b9190928551976104dc89610880565b885287015236916108d4565b90830152610955565b60036104fd8154610add565b90556105168661050e818b8d610b3a565b35968c610b4a565b8c9391935193849384610b02565b0390a38787868584388f8f908d8c918461043c565b606490602086519162461bcd60e51b83528201526015602482015274082e4e4c2f240d8cadccee8d040dad2e6dac2e8c6d605b1b6044820152fd5b8780fd5b8580fd5b8334610358578060031936011261035857610595610854565b80546001600160a01b03198116825581906001600160a01b03167f8be0079c531659141344cd1fd0a4f28419497f9722a3daafe3b4186f6b6457e08280a380f35b5034610116576060366003190112610116576105f0610808565b602435926044359167ffffffffffffffff918284116107415736602385011215610741578385013591838311610574576024850194602484369201011161057457610639610854565b6001600160a01b031680885260016020908152828920888a528152828920549196909160ff166107005750916106fa916106e27f1a914300e885d43e0836f4a509ff976cad01513b3ef4e624f5738ea843520a2f969594888b5260018152828b208a8c528152828b20600160ff19825416179055888b5260028152828b2095421695868451926106c884610880565b8c84528301526106d936868a6108d4565b84830152610955565b6106ed600354610add565b6003555193849384610b02565b0390a380f35b915162461bcd60e51b815291820152601c60248201527f416368696576656d656e7420616c726561647920756e6c6f636b6564000000006044820152606490fd5b8680fd5b5050346101395760203660031901126101395760209181906001600160a01b0361076d610808565b1681526002845220549051908152f35b50503461013957806003193601126101395760209160ff9082906001600160a01b036107a7610808565b168152600185528181206024358252855220541690519015158152f35b8490843461011657806003193601126101165760209260ff91906001600160a01b036107ee610808565b168152600185528181206024358252855220541615158152f35b600435906001600160a01b038216820361081e57565b600080fd5b9181601f8401121561081e5782359167ffffffffffffffff831161081e576020808501948460051b01011161081e57565b6000546001600160a01b0316330361086857565b60405163118cdaa760e01b8152336004820152602490fd5b6060810190811067ffffffffffffffff82111761089c57604052565b634e487b7160e01b600052604160045260246000fd5b90601f8019910116810190811067ffffffffffffffff82111761089c57604052565b92919267ffffffffffffffff821161089c57604051916108fe601f8201601f1916602001846108b2565b82948184528183011161081e578281602093846000960137010152565b90600182811c9216801561094b575b602083101461093557565b634e487b7160e01b600052602260045260246000fd5b91607f169161092a565b8054906801000000000000000082101561089c576001808301808355831015610ac757600091825260209260038484209102019184518355604060028385019467ffffffffffffffff9586888a01511667ffffffffffffffff19825416179055019501518051938411610ab3576109cc865461091b565b601f8111610a6d575b508491601f8511600114610a0e579394508492919083610a03575b50501b916000199060031b1c1916179055565b0151925038806109f0565b86815285812093958591601f198316915b88838310610a535750505010610a3a575b505050811b019055565b015160001960f88460031b161c19169055388080610a30565b858701518855909601959485019487935090810190610a1f565b868352858320601f860160051c810191878710610aa9575b601f0160051c019084905b828110610a9e5750506109d5565b848155018490610a90565b9091508190610a85565b634e487b7160e01b82526041600452602482fd5b634e487b7160e01b600052603260045260246000fd5b6000198114610aec5760010190565b634e487b7160e01b600052601160045260246000fd5b919260609367ffffffffffffffff829316845260406020850152816040850152848401376000828201840152601f01601f1916010190565b9190811015610ac75760051b0190565b9190811015610ac75760051b81013590601e198136030182121561081e57019081359167ffffffffffffffff831161081e57602001823603811361081e57919056fea2646970667358221220fe70434d19fedb33a0db7b1c7e23959c35e461ed8cd25e66c69b6830c746465464736f6c63430008140033","opcodes":"PUSH1 0x80 DUP1 PUSH1 0x40 MSTORE CALLVALUE PUSH2 0x7A JUMPI CALLER ISZERO PUSH2 0x64 JUMPI PUSH1 0x0 DUP1 SLOAD CALLER PUSH1 0x1 PUSH1 0x1 PUSH1 0xA0 SHL SUB NOT DUP3 AND DUP2 OR DUP4 SSTORE PUSH1 0x40 MLOAD SWAP3 SWAP1 SWAP2 PUSH1 0x1 PUSH1 0x1 PUSH1 0xA0 SHL SUB AND SWAP1 PUSH32 0x8BE0079C531659141344CD1FD0A4F28419497F9722A3DAAFE3B4186F6B6457E0 SWAP1 DUP1 LOG3 PUSH2 0xBC2 SWAP1 DUP2 PUSH2 0x80 DUP3 CODECOPY RETURN JUMPDEST PUSH4 0x1E4FBDF7 PUSH1 0xE0 SHL DUP2 MSTORE PUSH1 0x0 PUSH1 0x4 DUP3 ADD MSTORE PUSH1 0x24 SWAP1 REVERT JUMPDEST PUSH1 0x0 DUP1 REVERT INVALID PUSH1 0x80 PUSH1 0x40 DUP2 DUP2 MSTORE PUSH1 0x4 DUP1 CALLDATASIZE LT ISZERO PUSH2 0x15 JUMPI PUSH1 0x0 DUP1 REVERT JUMPDEST PUSH1 0x0 SWAP3 DUP4 CALLDATALOAD PUSH1 0xE0 SHR SWAP1 DUP2 PUSH4 0x4E7A165 EQ PUSH2 0x7C4 JUMPI POP DUP1 PUSH4 0x50A6C42 EQ PUSH2 0x77D JUMPI DUP1 PUSH4 0x4F4C8AE1 EQ PUSH2 0x745 JUMPI DUP1 PUSH4 0x5347FC33 EQ PUSH2 0x5D6 JUMPI DUP1 PUSH4 0x715018A6 EQ PUSH2 0x57C JUMPI DUP1 PUSH4 0x8226883C EQ PUSH2 0x383 JUMPI DUP1 PUSH4 0x8DA5CB5B EQ PUSH2 0x35B JUMPI DUP1 PUSH4 0x9CE67BDD EQ PUSH2 0x13D JUMPI DUP1 PUSH4 0xA61F9837 EQ PUSH2 0x11A JUMPI PUSH4 0xF2FDE38B EQ PUSH2 0x91 JUMPI PUSH1 0x0 DUP1 REVERT JUMPDEST CALLVALUE PUSH2 0x116 JUMPI PUSH1 0x20 CALLDATASIZE PUSH1 0x3 NOT ADD SLT PUSH2 0x116 JUMPI PUSH2 0xAA PUSH2 0x808 JUMP JUMPDEST SWAP1 PUSH2 0xB3 PUSH2 0x854 JUMP JUMPDEST PUSH1 0x1 PUSH1 0x1 PUSH1 0xA0 SHL SUB SWAP2 DUP3 AND SWAP3 DUP4 ISZERO PUSH2 0x100 JUMPI POP POP DUP3 SLOAD PUSH1 0x1 PUSH1 0x1 PUSH1 0xA0 SHL SUB NOT DUP2 AND DUP4 OR DUP5 SSTORE AND PUSH32 0x8BE0079C531659141344CD1FD0A4F28419497F9722A3DAAFE3B4186F6B6457E0 DUP4 DUP1 LOG3 DUP1 RETURN JUMPDEST MLOAD PUSH4 0x1E4FBDF7 PUSH1 0xE0 SHL DUP2 MSTORE SWAP1 DUP2 ADD DUP5 SWAP1 MSTORE PUSH1 0x24 SWAP1 REVERT JUMPDEST DUP3 DUP1 REVERT JUMPDEST POP POP CALLVALUE PUSH2 0x139 JUMPI DUP2 PUSH1 0x3 NOT CALLDATASIZE ADD SLT PUSH2 0x139 JUMPI PUSH1 0x20 SWAP1 PUSH1 0x3 SLOAD SWAP1 MLOAD SWAP1 DUP2 MSTORE RETURN JUMPDEST POP DUP1 REVERT JUMPDEST POP SWAP2 CALLVALUE PUSH2 0x358 JUMPI PUSH1 0x20 DUP1 PUSH1 0x3 NOT CALLDATASIZE ADD SLT PUSH2 0x139 JUMPI PUSH1 0x1 PUSH1 0x1 PUSH1 0xA0 SHL SUB PUSH2 0x161 PUSH2 0x808 JUMP JUMPDEST AND DUP3 MSTORE PUSH1 0x2 DUP2 MSTORE DUP3 DUP3 KECCAK256 SWAP4 DUP5 SLOAD SWAP1 PUSH8 0xFFFFFFFFFFFFFFFF SWAP1 DUP2 DUP4 GT PUSH2 0x345 JUMPI POP SWAP2 DUP6 SWAP3 DUP6 MLOAD SWAP3 PUSH1 0x5 SWAP1 PUSH2 0x198 DUP5 DUP3 DUP5 SHL ADD DUP7 PUSH2 0x8B2 JUMP JUMPDEST DUP1 DUP6 MSTORE DUP4 DUP6 ADD DUP1 SWAP7 DUP9 MSTORE DUP5 DUP9 KECCAK256 DUP9 SWAP2 JUMPDEST DUP4 DUP4 LT PUSH2 0x25D JUMPI POP POP POP POP DUP7 MLOAD SWAP6 DUP4 DUP8 ADD SWAP5 DUP5 DUP9 MSTORE MLOAD DUP1 SWAP6 MSTORE DUP8 DUP6 DUP2 DUP10 ADD SWAP4 SHL DUP9 ADD ADD SWAP6 SWAP8 DUP2 SWAP4 JUMPDEST DUP7 DUP6 LT PUSH2 0x1DD JUMPI DUP9 DUP9 SUB DUP10 RETURN JUMPDEST SWAP1 SWAP2 SWAP3 SWAP4 SWAP5 SWAP6 SWAP7 PUSH1 0x3F NOT DUP10 DUP3 SUB ADD DUP6 MSTORE DUP7 DUP4 DUP12 MLOAD DUP1 MLOAD DUP5 MSTORE DUP5 DUP4 DUP3 ADD MLOAD AND DUP4 DUP6 ADD MSTORE ADD MLOAD SWAP2 PUSH1 0x60 SWAP3 DUP4 DUP7 DUP4 ADD MSTORE DUP1 MLOAD DUP1 SWAP5 DUP4 ADD MSTORE DUP7 JUMPDEST DUP5 DUP2 LT PUSH2 0x248 JUMPI POP POP DUP1 DUP4 ADD PUSH1 0x80 SWAP1 DUP2 ADD DUP8 SWAP1 MSTORE SWAP12 DUP3 ADD SWAP12 PUSH1 0x1F SWAP1 SWAP4 ADD PUSH1 0x1F NOT AND ADD SWAP1 SWAP2 ADD SWAP8 SWAP7 SWAP6 PUSH1 0x1 ADD SWAP5 ADD SWAP3 SWAP2 SWAP1 PUSH2 0x1D0 JUMP JUMPDEST DUP2 DUP2 ADD DUP5 ADD MLOAD DUP4 DUP3 ADD PUSH1 0x80 ADD MSTORE DUP11 SWAP4 ADD PUSH2 0x213 JUMP JUMPDEST DUP7 DUP12 SWAP11 SWAP6 SWAP8 SWAP9 SWAP10 SWAP12 MLOAD PUSH2 0x26F DUP2 PUSH2 0x880 JUMP JUMPDEST DUP4 SLOAD DUP2 MSTORE PUSH1 0x1 DUP9 DUP2 DUP7 ADD SLOAD AND DUP4 DUP4 ADD MSTORE DUP13 PUSH1 0x2 DUP7 ADD DUP2 MLOAD SWAP3 DUP13 DUP12 SWAP3 DUP1 SLOAD PUSH2 0x295 DUP2 PUSH2 0x91B JUMP JUMPDEST DUP1 DUP9 MSTORE SWAP3 DUP2 DUP6 AND SWAP2 DUP3 ISZERO PUSH2 0x321 JUMPI POP POP PUSH1 0x1 EQ PUSH2 0x2DD JUMPI JUMPDEST POP POP POP SWAP2 PUSH1 0x3 SWAP5 SWAP4 SWAP2 PUSH2 0x2C5 DUP3 PUSH1 0x1 SWAP9 SWAP6 SUB DUP4 PUSH2 0x8B2 JUMP JUMPDEST DUP3 ADD MSTORE DUP2 MSTORE ADD SWAP3 ADD SWAP3 ADD SWAP2 SWAP1 SWAP10 SWAP8 SWAP7 SWAP6 SWAP4 SWAP9 SWAP10 PUSH2 0x1A8 JUMP JUMPDEST DUP13 MSTORE DUP7 DUP13 KECCAK256 DUP13 SWAP4 POP SWAP1 SWAP2 SWAP1 JUMPDEST DUP3 DUP5 LT PUSH2 0x301 JUMPI POP POP POP DUP3 ADD DUP5 ADD DUP2 PUSH2 0x2C5 DUP5 PUSH2 0x2AD JUMP JUMPDEST DUP2 SWAP4 SWAP6 SWAP7 SWAP8 SWAP3 SWAP5 POP DUP1 SLOAD DUP4 DUP8 DUP10 ADD ADD MSTORE ADD SWAP4 ADD SWAP1 SWAP2 DUP16 SWAP3 DUP15 SWAP7 SWAP6 SWAP5 PUSH2 0x2E9 JUMP JUMPDEST PUSH1 0xFF NOT AND DUP11 DUP10 ADD MSTORE SWAP3 ISZERO ISZERO SWAP1 SWAP3 SHL DUP7 ADD DUP9 ADD SWAP4 POP DUP5 SWAP3 POP PUSH2 0x2C5 SWAP2 POP DUP6 SWAP1 POP PUSH2 0x2AD JUMP JUMPDEST PUSH4 0x4E487B71 PUSH1 0xE0 SHL DUP6 MSTORE PUSH1 0x41 SWAP1 MSTORE PUSH1 0x24 DUP5 REVERT JUMPDEST DUP1 REVERT JUMPDEST POP POP CALLVALUE PUSH2 0x139 JUMPI DUP2 PUSH1 0x3 NOT CALLDATASIZE ADD SLT PUSH2 0x139 JUMPI SWAP1 SLOAD SWAP1 MLOAD PUSH1 0x1 PUSH1 0x1 PUSH1 0xA0 SHL SUB SWAP1 SWAP2 AND DUP2 MSTORE PUSH1 0x20 SWAP1 RETURN JUMPDEST POP CALLVALUE PUSH2 0x116 JUMPI PUSH1 0x60 CALLDATASIZE PUSH1 0x3 NOT ADD SLT PUSH2 0x116 JUMPI PUSH2 0x39D PUSH2 0x808 JUMP JUMPDEST SWAP2 PUSH8 0xFFFFFFFFFFFFFFFF SWAP1 PUSH1 0x24 CALLDATALOAD DUP3 DUP2 GT PUSH2 0x578 JUMPI PUSH2 0x3BF SWAP1 CALLDATASIZE SWAP1 DUP6 ADD PUSH2 0x823 JUMP JUMPDEST SWAP4 SWAP1 PUSH1 0x44 CALLDATALOAD DUP5 DUP2 GT PUSH2 0x574 JUMPI PUSH2 0x3D8 SWAP1 CALLDATASIZE SWAP1 DUP5 ADD PUSH2 0x823 JUMP JUMPDEST SWAP6 SWAP1 SWAP3 PUSH2 0x3E3 PUSH2 0x854 JUMP JUMPDEST DUP7 DUP3 SUB PUSH2 0x539 JUMPI POP SWAP4 SWAP6 PUSH1 0x1 PUSH1 0x1 PUSH1 0xA0 SHL SUB AND SWAP4 DUP8 DUP1 JUMPDEST DUP3 DUP2 LT PUSH2 0x405 JUMPI POP DUP1 RETURN JUMPDEST DUP8 DUP8 DUP7 DUP6 DUP5 DUP7 DUP15 DUP6 PUSH2 0x44C SWAP10 MSTORE DUP11 DUP14 PUSH1 0x1 SWAP4 PUSH1 0x20 DUP6 DUP2 MSTORE DUP3 DUP3 KECCAK256 PUSH2 0x42A DUP9 DUP11 DUP8 PUSH2 0xB3A JUMP JUMPDEST CALLDATALOAD DUP4 MSTORE DUP2 MSTORE PUSH1 0xFF DUP4 DUP4 KECCAK256 SLOAD AND ISZERO PUSH2 0x453 JUMPI JUMPDEST POP POP POP POP POP POP POP POP POP POP POP PUSH2 0xADD JUMP JUMPDEST DUP9 SWAP1 PUSH2 0x3FA JUMP JUMPDEST PUSH32 0x1A914300E885D43E0836F4A509FF976CAD01513B3EF4E624F5738EA843520A2F SWAP9 PUSH2 0x4CD DUP9 PUSH2 0x4C1 DUP15 SWAP11 PUSH2 0x524 SWAP13 DUP16 DUP9 DUP2 PUSH2 0x4F1 SWAP15 DUP13 SWAP4 PUSH2 0x4E8 SWAP13 MSTORE DUP1 DUP12 MSTORE DUP14 PUSH2 0x4A2 DUP8 DUP8 DUP8 DUP8 KECCAK256 SWAP4 PUSH2 0xB3A JUMP JUMPDEST CALLDATALOAD DUP5 MSTORE DUP12 MSTORE DUP4 DUP4 KECCAK256 SWAP1 PUSH1 0xFF NOT DUP3 SLOAD AND OR SWAP1 SSTORE DUP2 MSTORE PUSH1 0x2 DUP10 MSTORE KECCAK256 SWAP10 PUSH2 0xB3A JUMP JUMPDEST CALLDATALOAD SWAP8 TIMESTAMP AND SWAP10 DUP11 SWAP4 PUSH2 0xB4A JUMP JUMPDEST SWAP2 SWAP1 SWAP3 DUP6 MLOAD SWAP8 PUSH2 0x4DC DUP10 PUSH2 0x880 JUMP JUMPDEST DUP9 MSTORE DUP8 ADD MSTORE CALLDATASIZE SWAP2 PUSH2 0x8D4 JUMP JUMPDEST SWAP1 DUP4 ADD MSTORE PUSH2 0x955 JUMP JUMPDEST PUSH1 0x3 PUSH2 0x4FD DUP2 SLOAD PUSH2 0xADD JUMP JUMPDEST SWAP1 SSTORE PUSH2 0x516 DUP7 PUSH2 0x50E DUP2 DUP12 DUP14 PUSH2 0xB3A JUMP JUMPDEST CALLDATALOAD SWAP7 DUP13 PUSH2 0xB4A JUMP JUMPDEST DUP13 SWAP4 SWAP2 SWAP4 MLOAD SWAP4 DUP5 SWAP4 DUP5 PUSH2 0xB02 JUMP JUMPDEST SUB SWAP1 LOG3 DUP8 DUP8 DUP7 DUP6 DUP5 CODESIZE DUP16 DUP16 SWAP1 DUP14 DUP13 SWAP2 DUP5 PUSH2 0x43C JUMP JUMPDEST PUSH1 0x64 SWAP1 PUSH1 0x20 DUP7 MLOAD SWAP2 PUSH3 0x461BCD PUSH1 0xE5 SHL DUP4 MSTORE DUP3 ADD MSTORE PUSH1 0x15 PUSH1 0x24 DUP3 ADD MSTORE PUSH21 0x82E4E4C2F240D8CADCCEE8D040DAD2E6DAC2E8C6D PUSH1 0x5B SHL PUSH1 0x44 DUP3 ADD MSTORE REVERT JUMPDEST DUP8 DUP1 REVERT JUMPDEST DUP6 DUP1 REVERT JUMPDEST DUP4 CALLVALUE PUSH2 0x358 JUMPI DUP1 PUSH1 0x3 NOT CALLDATASIZE ADD SLT PUSH2 0x358 JUMPI PUSH2 0x595 PUSH2 0x854 JUMP JUMPDEST DUP1 SLOAD PUSH1 0x1 PUSH1 0x1 PUSH1 0xA0 SHL SUB NOT DUP2 AND DUP3 SSTORE DUP2 SWAP1 PUSH1 0x1 PUSH1 0x1 PUSH1 0xA0 SHL SUB AND PUSH32 0x8BE0079C531659141344CD1FD0A4F28419497F9722A3DAAFE3B4186F6B6457E0 DUP3 DUP1 LOG3 DUP1 RETURN JUMPDEST POP CALLVALUE PUSH2 0x116 JUMPI PUSH1 0x60 CALLDATASIZE PUSH1 0x3 NOT ADD SLT PUSH2 0x116 JUMPI PUSH2 0x5F0 PUSH2 0x808 JUMP JUMPDEST PUSH1 0x24 CALLDATALOAD SWAP3 PUSH1 0x44 CALLDATALOAD SWAP2 PUSH8 0xFFFFFFFFFFFFFFFF SWAP2 DUP3 DUP5 GT PUSH2 0x741 JUMPI CALLDATASIZE PUSH1 0x23 DUP6 ADD SLT ISZERO PUSH2 0x741 JUMPI DUP4 DUP6 ADD CALLDATALOAD SWAP2 DUP4 DUP4 GT PUSH2 0x574 JUMPI PUSH1 0x24 DUP6 ADD SWAP5 PUSH1 0x24 DUP5 CALLDATASIZE SWAP3 ADD ADD GT PUSH2 0x574 JUMPI PUSH2 0x639 PUSH2 0x854 JUMP JUMPDEST PUSH1 0x1 PUSH1 0x1 PUSH1 0xA0 SHL SUB AND DUP1 DUP9 MSTORE PUSH1 0x1 PUSH1 0x20 SWAP1 DUP2 MSTORE DUP3 DUP10 KECCAK256 DUP9 DUP11 MSTORE DUP2 MSTORE DUP3 DUP10 KECCAK256 SLOAD SWAP2 SWAP7 SWAP1 SWAP2 PUSH1 0xFF AND PUSH2 0x700 JUMPI POP SWAP2 PUSH2 0x6FA SWAP2 PUSH2 0x6E2 PUSH32 0x1A914300E885D43E0836F4A509FF976CAD01513B3EF4E624F5738EA843520A2F SWAP7 SWAP6 SWAP5 DUP9 DUP12 MSTORE PUSH1 0x1 DUP2 MSTORE DUP3 DUP12 KECCAK256 DUP11 DUP13 MSTORE DUP2 MSTORE DUP3 DUP12 KECCAK256 PUSH1 0x1 PUSH1 0xFF NOT DUP3 SLOAD AND OR SWAP1 SSTORE DUP9 DUP12 MSTORE PUSH1 0x2 DUP2 MSTORE DUP3 DUP12 KECCAK256 SWAP6 TIMESTAMP AND SWAP6 DUP7 DUP5 MLOAD SWAP3 PUSH2 0x6C8 DUP5 PUSH2 0x880 JUMP JUMPDEST DUP13 DUP5 MSTORE DUP4 ADD MSTORE PUSH2 0x6D9 CALLDATASIZE DUP7 DUP11 PUSH2 0x8D4 JUMP JUMPDEST DUP5 DUP4 ADD MSTORE PUSH2 0x955 JUMP JUMPDEST PUSH2 0x6ED PUSH1 0x3 SLOAD PUSH2 0xADD JUMP JUMPDEST PUSH1 0x3 SSTORE MLOAD SWAP4 DUP5 SWAP4 DUP5 PUSH2 0xB02 JUMP JUMPDEST SUB SWAP1 LOG3 DUP1 RETURN JUMPDEST SWAP2 MLOAD PUSH3 0x461BCD PUSH1 0xE5 SHL DUP2 MSTORE SWAP2 DUP3 ADD MSTORE PUSH1 0x1C PUSH1 0x24 DUP3 ADD MSTORE PUSH32 0x416368696576656D656E7420616C726561647920756E6C6F636B656400000000 PUSH1 0x44 DUP3 ADD MSTORE PUSH1 0x64 SWAP1 REVERT JUMPDEST DUP7 DUP1 REVERT JUMPDEST POP POP CALLVALUE PUSH2 0x139 JUMPI PUSH1 0x20 CALLDATASIZE PUSH1 0x3 NOT ADD SLT PUSH2 0x139 JUMPI PUSH1 0x20 SWAP2 DUP2 SWAP1 PUSH1 0x1 PUSH1 0x1 PUSH1 0xA0 SHL SUB PUSH2 0x76D PUSH2 0x808 JUMP JUMPDEST AND DUP2 MSTORE PUSH1 0x2 DUP5 MSTORE KECCAK256 SLOAD SWAP1 MLOAD SWAP1 DUP2 MSTORE RETURN JUMPDEST POP POP CALLVALUE PUSH2 0x139 JUMPI DUP1 PUSH1 0x3 NOT CALLDATASIZE ADD SLT PUSH2 0x139 JUMPI PUSH1 0x20 SWAP2 PUSH1 0xFF SWAP1 DUP3 SWAP1 PUSH1 0x1 PUSH1 0x1 PUSH1 0xA0 SHL SUB PUSH2 0x7A7 PUSH2 0x808 JUMP JUMPDEST AND DUP2 MSTORE PUSH1 0x1 DUP6 MSTORE DUP2 DUP2 KECCAK256 PUSH1 0x24 CALLDATALOAD DUP3 MSTORE DUP6 MSTORE KECCAK256 SLOAD AND SWAP1 MLOAD SWAP1 ISZERO ISZERO DUP2 MSTORE RETURN JUMPDEST DUP5 SWAP1 DUP5 CALLVALUE PUSH2 0x116 JUMPI DUP1 PUSH1 0x3 NOT CALLDATASIZE ADD SLT PUSH2 0x116 JUMPI PUSH1 0x20 SWAP3 PUSH1 0xFF SWAP2 SWAP1 PUSH1 0x1 PUSH1 0x1 PUSH1 0xA0 SHL SUB PUSH2 0x7EE PUSH2 0x808 JUMP JUMPDEST AND DUP2 MSTORE PUSH1 0x1 DUP6 MSTORE DUP2 DUP2 KECCAK256 PUSH1 0x24 CALLDATALOAD DUP3 MSTORE DUP6 MSTORE KECCAK256 SLOAD AND ISZERO ISZERO DUP2 MSTORE RETURN JUMPDEST PUSH1 0x4 CALLDATALOAD SWAP1 PUSH1 0x1 PUSH1 0x1 PUSH1 0xA0 SHL SUB DUP3 AND DUP3 SUB PUSH2 0x81E JUMPI JUMP JUMPDEST PUSH1 0x0 DUP1 REVERT JUMPDEST SWAP2 DUP2 PUSH1 0x1F DUP5 ADD SLT ISZERO PUSH2 0x81E JUMPI DUP3 CALLDATALOAD SWAP2 PUSH8 0xFFFFFFFFFFFFFFFF DUP4 GT PUSH2 0x81E JUMPI PUSH1 0x20 DUP1 DUP6 ADD SWAP5 DUP5 PUSH1 0x5 SHL ADD ADD GT PUSH2 0x81E JUMPI JUMP JUMPDEST PUSH1 0x0 SLOAD PUSH1 0x1 PUSH1 0x1 PUSH1 0xA0 SHL SUB AND CALLER SUB PUSH2 0x868 JUMPI JUMP JUMPDEST PUSH1 0x40 MLOAD PUSH4 0x118CDAA7 PUSH1 0xE0 SHL DUP2 MSTORE CALLER PUSH1 0x4 DUP3 ADD MSTORE PUSH1 0x24 SWAP1 REVERT JUMPDEST PUSH1 0x60 DUP2 ADD SWAP1 DUP2 LT PUSH8 0xFFFFFFFFFFFFFFFF DUP3 GT OR PUSH2 0x89C JUMPI PUSH1 0x40 MSTORE JUMP JUMPDEST PUSH4 0x4E487B71 PUSH1 0xE0 SHL PUSH1 0x0 MSTORE PUSH1 0x41 PUSH1 0x4 MSTORE PUSH1 0x24 PUSH1 0x0 REVERT JUMPDEST SWAP1 PUSH1 0x1F DUP1 NOT SWAP2 ADD AND DUP2 ADD SWAP1 DUP2 LT PUSH8 0xFFFFFFFFFFFFFFFF DUP3 GT OR PUSH2 0x89C JUMPI PUSH1 0x40 MSTORE JUMP JUMPDEST SWAP3 SWAP2 SWAP3 PUSH8 0xFFFFFFFFFFFFFFFF DUP3 GT PUSH2 0x89C JUMPI PUSH1 0x40 MLOAD SWAP2 PUSH2 0x8FE PUSH1 0x1F DUP3 ADD PUSH1 0x1F NOT AND PUSH1 0x20 ADD DUP5 PUSH2 0x8B2 JUMP JUMPDEST DUP3 SWAP5 DUP2 DUP5 MSTORE DUP2 DUP4 ADD GT PUSH2 0x81E JUMPI DUP3 DUP2 PUSH1 0x20 SWAP4 DUP5 PUSH1 0x0 SWAP7 ADD CALLDATACOPY ADD ADD MSTORE JUMP JUMPDEST SWAP1 PUSH1 0x1 DUP3 DUP2 SHR SWAP3 AND DUP1 ISZERO PUSH2 0x94B JUMPI JUMPDEST PUSH1 0x20 DUP4 LT EQ PUSH2 0x935 JUMPI JUMP JUMPDEST PUSH4 0x4E487B71 PUSH1 0xE0 SHL PUSH1 0x0 MSTORE PUSH1 0x22 PUSH1 0x4 MSTORE PUSH1 0x24 PUSH1 0x0 REVERT JUMPDEST SWAP2 PUSH1 0x7F AND SWAP2 PUSH2 0x92A JUMP JUMPDEST DUP1 SLOAD SWAP1 PUSH9 0x10000000000000000 DUP3 LT ISZERO PUSH2 0x89C JUMPI PUSH1 0x1 DUP1 DUP4 ADD DUP1 DUP4 SSTORE DUP4 LT ISZERO PUSH2 0xAC7 JUMPI PUSH1 0x0 SWAP2 DUP3 MSTORE PUSH1 0x20 SWAP3 PUSH1 0x3 DUP5 DUP5 KECCAK256 SWAP2 MUL ADD SWAP2 DUP5 MLOAD DUP4 SSTORE PUSH1 0x40 PUSH1 0x2 DUP4 DUP6 ADD SWAP5 PUSH8 0xFFFFFFFFFFFFFFFF SWAP6 DUP7 DUP9 DUP11 ADD MLOAD AND PUSH8 0xFFFFFFFFFFFFFFFF NOT DUP3 SLOAD AND OR SWAP1 SSTORE ADD SWAP6 ADD MLOAD DUP1 MLOAD SWAP4 DUP5 GT PUSH2 0xAB3 JUMPI PUSH2 0x9CC DUP7 SLOAD PUSH2 0x91B JUMP JUMPDEST PUSH1 0x1F DUP2 GT PUSH2 0xA6D JUMPI JUMPDEST POP DUP5 SWAP2 PUSH1 0x1F DUP6 GT PUSH1 0x1 EQ PUSH2 0xA0E JUMPI SWAP4 SWAP5 POP DUP5 SWAP3 SWAP2 SWAP1 DUP4 PUSH2 0xA03 JUMPI JUMPDEST POP POP SHL SWAP2 PUSH1 0x0 NOT SWAP1 PUSH1 0x3 SHL SHR NOT AND OR SWAP1 SSTORE JUMP JUMPDEST ADD MLOAD SWAP3 POP CODESIZE DUP1 PUSH2 0x9F0 JUMP JUMPDEST DUP7 DUP2 MSTORE DUP6 DUP2 KECCAK256 SWAP4 SWAP6 DUP6 SWAP2 PUSH1 0x1F NOT DUP4 AND SWAP2 JUMPDEST DUP9 DUP4 DUP4 LT PUSH2 0xA53 JUMPI POP POP POP LT PUSH2 0xA3A JUMPI JUMPDEST POP POP POP DUP2 SHL ADD SWAP1 SSTORE JUMP JUMPDEST ADD MLOAD PUSH1 0x0 NOT PUSH1 0xF8 DUP5 PUSH1 0x3 SHL AND SHR NOT AND SWAP1 SSTORE CODESIZE DUP1 DUP1 PUSH2 0xA30 JUMP JUMPDEST DUP6 DUP8 ADD MLOAD DUP9 SSTORE SWAP1 SWAP7 ADD SWAP6 SWAP5 DUP6 ADD SWAP5 DUP8 SWAP4 POP SWAP1 DUP2 ADD SWAP1 PUSH2 0xA1F JUMP JUMPDEST DUP7 DUP4 MSTORE DUP6 DUP4 KECCAK256 PUSH1 0x1F DUP7 ADD PUSH1 0x5 SHR DUP2 ADD SWAP2 DUP8 DUP8 LT PUSH2 0xAA9 JUMPI JUMPDEST PUSH1 0x1F ADD PUSH1 0x5 SHR ADD SWAP1 DUP5 SWAP1 JUMPDEST DUP3 DUP2 LT PUSH2 0xA9E JUMPI POP POP PUSH2 0x9D5 JUMP JUMPDEST DUP5 DUP2 SSTORE ADD DUP5 SWAP1 PUSH2 0xA90 JUMP JUMPDEST SWAP1 SWAP2 POP DUP2 SWAP1 PUSH2 0xA85 JUMP JUMPDEST PUSH4 0x4E487B71 PUSH1 0xE0 SHL DUP3 MSTORE PUSH1 0x41 PUSH1 0x4 MSTORE PUSH1 0x24 DUP3 REVERT JUMPDEST PUSH4 0x4E487B71 PUSH1 0xE0 SHL PUSH1 0x0 MSTORE PUSH1 0x32 PUSH1 0x4 MSTORE PUSH1 0x24 PUSH1 0x0 REVERT JUMPDEST PUSH1 0x0 NOT DUP2 EQ PUSH2 0xAEC JUMPI PUSH1 0x1 ADD SWAP1 JUMP JUMPDEST PUSH4 0x4E487B71 PUSH1 0xE0 SHL PUSH1 0x0 MSTORE PUSH1 0x11 PUSH1 0x4 MSTORE PUSH1 0x24 PUSH1 0x0 REVERT JUMPDEST SWAP2 SWAP3 PUSH1 0x60 SWAP4 PUSH8 0xFFFFFFFFFFFFFFFF DUP3 SWAP4 AND DUP5 MSTORE PUSH1 0x40 PUSH1 0x20 DUP6 ADD MSTORE DUP2 PUSH1 0x40 DUP6 ADD MSTORE DUP5 DUP5 ADD CALLDATACOPY PUSH1 0x0 DUP3 DUP3 ADD DUP5 ADD MSTORE PUSH1 0x1F ADD PUSH1 0x1F NOT AND ADD ADD SWAP1 JUMP JUMPDEST SWAP2 SWAP1 DUP2 LT ISZERO PUSH2 0xAC7 JUMPI PUSH1 0x5 SHL ADD SWAP1 JUMP JUMPDEST SWAP2 SWAP1 DUP2 LT ISZERO PUSH2 0xAC7 JUMPI PUSH1 0x5 SHL DUP2 ADD CALLDATALOAD SWAP1 PUSH1 0x1E NOT DUP2 CALLDATASIZE SUB ADD DUP3 SLT ISZERO PUSH2 0x81E JUMPI ADD SWAP1 DUP2 CALLDATALOAD SWAP2 PUSH8 0xFFFFFFFFFFFFFFFF DUP4 GT PUSH2 0x81E JUMPI PUSH1 0x20 ADD DUP3 CALLDATASIZE SUB DUP2 SGT PUSH2 0x81E JUMPI SWAP2 SWAP1 JUMP INVALID LOG2 PUSH5 0x6970667358 0x22 SLT KECCAK256 INVALID PUSH17 0x434D19FEDB33A0DB7B1C7E23959C35E461 0xED DUP13 0xD2 0x5E PUSH7 0xC69B6830C74646 SLOAD PUSH5 0x736F6C6343 STOP ADDMOD EQ STOP CALLER "},"methodIdentifiers":{"batchUnlock(address,bytes32[],string[])":"8226883c","getAchievementCount(address)":"4f4c8ae1","getPlayerAchievements(address)":"9ce67bdd","hasAchievement(address,bytes32)":"050a6c42","hasUnlocked(address,bytes32)":"04e7a165","owner()":"8da5cb5b","renounceOwnership()":"715018a6","totalAchievements()":"a61f9837","transferOwnership(address)":"f2fde38b","unlock(address,bytes32,string)":"5347fc33"}}}}}