{"core/GinixAntiCheatGuard.sol":{"GinixAntiCheatGuard":{"abi":[{"inputs":[{"internalType":"address","name":"_trustedSigner","type":"address"}],"stateMutability":"nonpayable","type":"constructor"},{"inputs":[],"name":"ECDSAInvalidSignature","type":"error"},{"inputs":[{"internalType":"uint256","name":"length","type":"uint256"}],"name":"ECDSAInvalidSignatureLength","type":"error"},{"inputs":[{"internalType":"bytes32","name":"s","type":"bytes32"}],"name":"ECDSAInvalidSignatureS","type":"error"},{"inputs":[{"internalType":"address","name":"owner","type":"address"}],"name":"OwnableInvalidOwner","type":"error"},{"inputs":[{"internalType":"address","name":"account","type":"address"}],"name":"OwnableUnauthorizedAccount","type":"error"},{"anonymous":false,"inputs":[{"indexed":true,"internalType":"bytes32","name":"nonce","type":"bytes32"},{"indexed":true,"internalType":"address","name":"player","type":"address"},{"indexed":true,"internalType":"bytes32","name":"gameId","type":"bytes32"}],"name":"NonceUsed","type":"event"},{"anonymous":false,"inputs":[{"indexed":true,"internalType":"address","name":"previousOwner","type":"address"},{"indexed":true,"internalType":"address","name":"newOwner","type":"address"}],"name":"OwnershipTransferred","type":"event"},{"anonymous":false,"inputs":[{"indexed":true,"internalType":"address","name":"oldSigner","type":"address"},{"indexed":true,"internalType":"address","name":"newSigner","type":"address"}],"name":"SignerUpdated","type":"event"},{"anonymous":false,"inputs":[{"indexed":true,"internalType":"bytes32","name":"nonce","type":"bytes32"},{"indexed":true,"internalType":"address","name":"player","type":"address"},{"indexed":false,"internalType":"string","name":"reason","type":"string"}],"name":"VerificationFailed","type":"event"},{"inputs":[{"internalType":"bytes32[]","name":"nonces","type":"bytes32[]"},{"internalType":"address[]","name":"players","type":"address[]"},{"internalType":"bytes32[]","name":"gameIds","type":"bytes32[]"},{"internalType":"uint64[]","name":"scores","type":"uint64[]"},{"internalType":"bytes[]","name":"signatures","type":"bytes[]"}],"name":"batchVerifyAndConsume","outputs":[{"internalType":"bool[]","name":"","type":"bool[]"}],"stateMutability":"nonpayable","type":"function"},{"inputs":[{"internalType":"bytes32","name":"nonce","type":"bytes32"}],"name":"isNonceUsed","outputs":[{"internalType":"bool","name":"","type":"bool"}],"stateMutability":"view","type":"function"},{"inputs":[],"name":"owner","outputs":[{"internalType":"address","name":"","type":"address"}],"stateMutability":"view","type":"function"},{"inputs":[],"name":"renounceOwnership","outputs":[],"stateMutability":"nonpayable","type":"function"},{"inputs":[{"internalType":"address","name":"newSigner","type":"address"}],"name":"setTrustedSigner","outputs":[],"stateMutability":"nonpayable","type":"function"},{"inputs":[{"internalType":"address","name":"newOwner","type":"address"}],"name":"transferOwnership","outputs":[],"stateMutability":"nonpayable","type":"function"},{"inputs":[],"name":"trustedSigner","outputs":[{"internalType":"address","name":"","type":"address"}],"stateMutability":"view","type":"function"},{"inputs":[{"internalType":"bytes32","name":"","type":"bytes32"}],"name":"usedNonces","outputs":[{"internalType":"bool","name":"","type":"bool"}],"stateMutability":"view","type":"function"},{"inputs":[{"internalType":"bytes32","name":"nonce","type":"bytes32"},{"internalType":"address","name":"player","type":"address"},{"internalType":"bytes32","name":"gameId","type":"bytes32"},{"internalType":"uint64","name":"score","type":"uint64"},{"internalType":"bytes","name":"signature","type":"bytes"}],"name":"verifyAndConsume","outputs":[{"internalType":"bool","name":"","type":"bool"}],"stateMutability":"nonpayable","type":"function"}],"evm":{"bytecode":{"linkReferences":{},"object":"60803461011257601f610cc838819003918201601f19168301916001600160401b038311848410176101175780849260209460405283398101031261011257516001600160a01b03808216918290036101125733156100f9576000549060018060a01b0319913383821617600055604051913391167f8be0079c531659141344cd1fd0a4f28419497f9722a3daafe3b4186f6b6457e0600080a382156100b757506001541617600155604051610b9a908161012e8239f35b62461bcd60e51b815260206004820152601660248201527f496e76616c6964207369676e65722061646472657373000000000000000000006044820152606490fd5b604051631e4fbdf760e01b815260006004820152602490fd5b600080fd5b634e487b7160e01b600052604160045260246000fdfe6080604052600436101561001257600080fd5b60003560e01c80630d644293146106835780634ec2d8d31461029757806356a1c701146101e9578063715018a6146101905780638da5cb5b14610167578063b90665e51461007f578063f2fde38b146100de578063f74d5480146100b55763feb617241461007f57600080fd5b346100b05760203660031901126100b0576004356000526002602052602060ff604060002054166040519015158152f35b600080fd5b346100b05760003660031901126100b0576001546040516001600160a01b039091168152602090f35b346100b05760203660031901126100b0576100f761070b565b6100ff610751565b6001600160a01b0390811690811561014e57600054826001600160601b0360a01b821617600055167f8be0079c531659141344cd1fd0a4f28419497f9722a3daafe3b4186f6b6457e0600080a3005b604051631e4fbdf760e01b815260006004820152602490fd5b346100b05760003660031901126100b0576000546040516001600160a01b039091168152602090f35b346100b05760003660031901126100b0576101a9610751565b600080546001600160a01b0319811682556001600160a01b03167f8be0079c531659141344cd1fd0a4f28419497f9722a3daafe3b4186f6b6457e08280a3005b346100b05760203660031901126100b05761020261070b565b61020a610751565b6001600160a01b0390811690811561025957600154826001600160601b0360a01b821617600155167f2d025324f0a785e8c12d0a0d91a9caa49df4ef20ff87e0df7213a1d4f3157beb600080a3005b60405162461bcd60e51b8152602060048201526016602482015275496e76616c6964207369676e6572206164647265737360501b6044820152606490fd5b346100b05760a03660031901126100b0576004356001600160401b0381116100b0576102c7903690600401610721565b906024356001600160401b0381116100b0576102e7903690600401610721565b90926044356001600160401b0381116100b057610308903690600401610721565b91906064356001600160401b0381116100b057610329903690600401610721565b9690956084356001600160401b0381116100b05761034b903690600401610721565b9590948781148061067a575b80610671575b80610668575b1561062b5761037181610b15565b9961037f6040519b8c6107bc565b818b52601f1961038e83610b15565b013660208d013760005b8b8382106103e75760405180916020820160208352815180915260206040840192019060005b8181106103cc575050500390f35b825115158452859450602093840193909201916001016103be565b8b878385888f898c8f986103fc878484610b2c565b35600052600260205260ff6040600020541661061557509261043d610438876104439561043182809a999761044a9c98610b2c565b359a610b2c565b610b50565b98610b2c565b3594610b2c565b35916001600160401b03831683036100b05761047661048492604051948593602085019746938961077d565b03601f1981018352826107bc565b5190207f19457468657265756d205369676e6564204d6573736167653a0a333200000000600052601c52603c600020898210156105ff578160051b89013590601e198a3603018212156100b0576001600160401b03828b0135116100b057818a013536036020838c0101136100b057828e610519610522938f95610513908f60203692808301359201016107f3565b906109c4565b90949194610a90565b8a8a60018060a01b038a8a8d60019884808b54169116146000146105e55791610588610438898b9c61058182876105bc9f9961058e9a61056484809c84610b2c565b35600052600260205260406000209060ff19825416179055610b2c565b3598610b2c565b95610b2c565b359216907f72ef40ceb27f3e9ae55599a59bc3bf789c003b8c91a7c9cc9c892a1b97ee0e78600080a4610b3c565b525b60001981146105cf57600101610398565b634e487b7160e01b600052601160045260246000fd5b505050505050600093506105f99250610b3c565b526105be565b634e487b7160e01b600052603260045260246000fd5b9596505050505050600093506105f99250610b3c565b60405162461bcd60e51b8152602060048201526015602482015274082e4e4c2f240d8cadccee8d040dad2e6dac2e8c6d605b1b6044820152606490fd5b50868a14610363565b5089821461035d565b50818814610357565b346100b05760a03660031901126100b0576024356001600160a01b03811681036100b057606435906001600160401b0380831683036100b057608435918183116100b057366023840112156100b05782600401359182116100b05736602483850101116100b057602093602461070194019160443590600435610839565b6040519015158152f35b600435906001600160a01b03821682036100b057565b9181601f840112156100b0578235916001600160401b0383116100b0576020808501948460051b0101116100b057565b6000546001600160a01b0316330361076557565b60405163118cdaa760e01b8152336004820152602490fd5b9391607c95939185526001600160601b03199060601b16602085015260348401526001600160401b0360c01b9060c01b166054830152605c8201520190565b90601f801991011681019081106001600160401b038211176107dd57604052565b634e487b7160e01b600052604160045260246000fd5b9291926001600160401b0382116107dd576040519161081c601f8201601f1916602001846107bc565b8294818452818301116100b0578281602093846000960137010152565b92909194936000948486526020916002835260409360ff858920541661096857916105136108b792878796956108828d6104768d6108c09d9c519485938c85019746938961077d565b5190207f19457468657265756d205369676e6564204d6573736167653a0a3332000000008b52601c52603c8a209236916107f3565b90959195610a90565b6001546001600160a01b03949085169085160361091657848652600290528420805460ff1916600117905516917f72ef40ceb27f3e9ae55599a59bc3bf789c003b8c91a7c9cc9c892a1b97ee0e789080a4600190565b9495509160609170496e76616c6964207369676e617475726560781b8460117f4501be829b1c48ed881df27b32711a6311db512e37e32e9d9808a8656a4d65cb965198808a528901528701521693a390565b5050509394507f4501be829b1c48ed881df27b32711a6311db512e37e32e9d9808a8656a4d65cb9171139bdb98d948185b1c9958591e481d5cd95960721b826012606094519780895288015286015260018060a01b031693a390565b81519190604183036109f5576109ee92506020820151906060604084015193015160001a90610a00565b9192909190565b505060009160029190565b91907f7fffffffffffffffffffffffffffffff5d576e7357a4501ddfe92f46681b20a08411610a8457926020929160ff608095604051948552168484015260408301526060820152600092839182805260015afa15610a785780516001600160a01b03811615610a6f57918190565b50809160019190565b604051903d90823e3d90fd5b50505060009160039190565b6004811015610aff5780610aa2575050565b60018103610abc5760405163f645eedf60e01b8152600490fd5b60028103610add5760405163fce698f760e01b815260048101839052602490fd5b600314610ae75750565b602490604051906335e2f38360e21b82526004820152fd5b634e487b7160e01b600052602160045260246000fd5b6001600160401b0381116107dd5760051b60200190565b91908110156105ff5760051b0190565b80518210156105ff5760209160051b010190565b356001600160a01b03811681036100b0579056fea264697066735822122053043be1d3927f44225f486435f269db4f5f8886e2a2725688822a9d9c1f4bfd64736f6c63430008140033","opcodes":"PUSH1 0x80 CALLVALUE PUSH2 0x112 JUMPI PUSH1 0x1F PUSH2 0xCC8 CODESIZE DUP2 SWAP1 SUB SWAP2 DUP3 ADD PUSH1 0x1F NOT AND DUP4 ADD SWAP2 PUSH1 0x1 PUSH1 0x1 PUSH1 0x40 SHL SUB DUP4 GT DUP5 DUP5 LT OR PUSH2 0x117 JUMPI DUP1 DUP5 SWAP3 PUSH1 0x20 SWAP5 PUSH1 0x40 MSTORE DUP4 CODECOPY DUP2 ADD SUB SLT PUSH2 0x112 JUMPI MLOAD PUSH1 0x1 PUSH1 0x1 PUSH1 0xA0 SHL SUB DUP1 DUP3 AND SWAP2 DUP3 SWAP1 SUB PUSH2 0x112 JUMPI CALLER ISZERO PUSH2 0xF9 JUMPI PUSH1 0x0 SLOAD SWAP1 PUSH1 0x1 DUP1 PUSH1 0xA0 SHL SUB NOT SWAP2 CALLER DUP4 DUP3 AND OR PUSH1 0x0 SSTORE PUSH1 0x40 MLOAD SWAP2 CALLER SWAP2 AND PUSH32 0x8BE0079C531659141344CD1FD0A4F28419497F9722A3DAAFE3B4186F6B6457E0 PUSH1 0x0 DUP1 LOG3 DUP3 ISZERO PUSH2 0xB7 JUMPI POP PUSH1 0x1 SLOAD AND OR PUSH1 0x1 SSTORE PUSH1 0x40 MLOAD PUSH2 0xB9A SWAP1 DUP2 PUSH2 0x12E DUP3 CODECOPY RETURN JUMPDEST PUSH3 0x461BCD PUSH1 0xE5 SHL DUP2 MSTORE PUSH1 0x20 PUSH1 0x4 DUP3 ADD MSTORE PUSH1 0x16 PUSH1 0x24 DUP3 ADD MSTORE PUSH32 0x496E76616C6964207369676E6572206164647265737300000000000000000000 PUSH1 0x44 DUP3 ADD MSTORE PUSH1 0x64 SWAP1 REVERT JUMPDEST PUSH1 0x40 MLOAD PUSH4 0x1E4FBDF7 PUSH1 0xE0 SHL DUP2 MSTORE PUSH1 0x0 PUSH1 0x4 DUP3 ADD MSTORE PUSH1 0x24 SWAP1 REVERT JUMPDEST PUSH1 0x0 DUP1 REVERT JUMPDEST PUSH4 0x4E487B71 PUSH1 0xE0 SHL PUSH1 0x0 MSTORE PUSH1 0x41 PUSH1 0x4 MSTORE PUSH1 0x24 PUSH1 0x0 REVERT INVALID PUSH1 0x80 PUSH1 0x40 MSTORE PUSH1 0x4 CALLDATASIZE LT ISZERO PUSH2 0x12 JUMPI PUSH1 0x0 DUP1 REVERT JUMPDEST PUSH1 0x0 CALLDATALOAD PUSH1 0xE0 SHR DUP1 PUSH4 0xD644293 EQ PUSH2 0x683 JUMPI DUP1 PUSH4 0x4EC2D8D3 EQ PUSH2 0x297 JUMPI DUP1 PUSH4 0x56A1C701 EQ PUSH2 0x1E9 JUMPI DUP1 PUSH4 0x715018A6 EQ PUSH2 0x190 JUMPI DUP1 PUSH4 0x8DA5CB5B EQ PUSH2 0x167 JUMPI DUP1 PUSH4 0xB90665E5 EQ PUSH2 0x7F JUMPI DUP1 PUSH4 0xF2FDE38B EQ PUSH2 0xDE JUMPI DUP1 PUSH4 0xF74D5480 EQ PUSH2 0xB5 JUMPI PUSH4 0xFEB61724 EQ PUSH2 0x7F JUMPI PUSH1 0x0 DUP1 REVERT JUMPDEST CALLVALUE PUSH2 0xB0 JUMPI PUSH1 0x20 CALLDATASIZE PUSH1 0x3 NOT ADD SLT PUSH2 0xB0 JUMPI PUSH1 0x4 CALLDATALOAD PUSH1 0x0 MSTORE PUSH1 0x2 PUSH1 0x20 MSTORE PUSH1 0x20 PUSH1 0xFF PUSH1 0x40 PUSH1 0x0 KECCAK256 SLOAD AND PUSH1 0x40 MLOAD SWAP1 ISZERO ISZERO DUP2 MSTORE RETURN JUMPDEST PUSH1 0x0 DUP1 REVERT JUMPDEST CALLVALUE PUSH2 0xB0 JUMPI PUSH1 0x0 CALLDATASIZE PUSH1 0x3 NOT ADD SLT PUSH2 0xB0 JUMPI PUSH1 0x1 SLOAD PUSH1 0x40 MLOAD PUSH1 0x1 PUSH1 0x1 PUSH1 0xA0 SHL SUB SWAP1 SWAP2 AND DUP2 MSTORE PUSH1 0x20 SWAP1 RETURN JUMPDEST CALLVALUE PUSH2 0xB0 JUMPI PUSH1 0x20 CALLDATASIZE PUSH1 0x3 NOT ADD SLT PUSH2 0xB0 JUMPI PUSH2 0xF7 PUSH2 0x70B JUMP JUMPDEST PUSH2 0xFF PUSH2 0x751 JUMP JUMPDEST PUSH1 0x1 PUSH1 0x1 PUSH1 0xA0 SHL SUB SWAP1 DUP2 AND SWAP1 DUP2 ISZERO PUSH2 0x14E JUMPI PUSH1 0x0 SLOAD DUP3 PUSH1 0x1 PUSH1 0x1 PUSH1 0x60 SHL SUB PUSH1 0xA0 SHL DUP3 AND OR PUSH1 0x0 SSTORE AND PUSH32 0x8BE0079C531659141344CD1FD0A4F28419497F9722A3DAAFE3B4186F6B6457E0 PUSH1 0x0 DUP1 LOG3 STOP JUMPDEST PUSH1 0x40 MLOAD PUSH4 0x1E4FBDF7 PUSH1 0xE0 SHL DUP2 MSTORE PUSH1 0x0 PUSH1 0x4 DUP3 ADD MSTORE PUSH1 0x24 SWAP1 REVERT JUMPDEST CALLVALUE PUSH2 0xB0 JUMPI PUSH1 0x0 CALLDATASIZE PUSH1 0x3 NOT ADD SLT PUSH2 0xB0 JUMPI PUSH1 0x0 SLOAD PUSH1 0x40 MLOAD PUSH1 0x1 PUSH1 0x1 PUSH1 0xA0 SHL SUB SWAP1 SWAP2 AND DUP2 MSTORE PUSH1 0x20 SWAP1 RETURN JUMPDEST CALLVALUE PUSH2 0xB0 JUMPI PUSH1 0x0 CALLDATASIZE PUSH1 0x3 NOT ADD SLT PUSH2 0xB0 JUMPI PUSH2 0x1A9 PUSH2 0x751 JUMP JUMPDEST PUSH1 0x0 DUP1 SLOAD PUSH1 0x1 PUSH1 0x1 PUSH1 0xA0 SHL SUB NOT DUP2 AND DUP3 SSTORE PUSH1 0x1 PUSH1 0x1 PUSH1 0xA0 SHL SUB AND PUSH32 0x8BE0079C531659141344CD1FD0A4F28419497F9722A3DAAFE3B4186F6B6457E0 DUP3 DUP1 LOG3 STOP JUMPDEST CALLVALUE PUSH2 0xB0 JUMPI PUSH1 0x20 CALLDATASIZE PUSH1 0x3 NOT ADD SLT PUSH2 0xB0 JUMPI PUSH2 0x202 PUSH2 0x70B JUMP JUMPDEST PUSH2 0x20A PUSH2 0x751 JUMP JUMPDEST PUSH1 0x1 PUSH1 0x1 PUSH1 0xA0 SHL SUB SWAP1 DUP2 AND SWAP1 DUP2 ISZERO PUSH2 0x259 JUMPI PUSH1 0x1 SLOAD DUP3 PUSH1 0x1 PUSH1 0x1 PUSH1 0x60 SHL SUB PUSH1 0xA0 SHL DUP3 AND OR PUSH1 0x1 SSTORE AND PUSH32 0x2D025324F0A785E8C12D0A0D91A9CAA49DF4EF20FF87E0DF7213A1D4F3157BEB PUSH1 0x0 DUP1 LOG3 STOP JUMPDEST PUSH1 0x40 MLOAD PUSH3 0x461BCD PUSH1 0xE5 SHL DUP2 MSTORE PUSH1 0x20 PUSH1 0x4 DUP3 ADD MSTORE PUSH1 0x16 PUSH1 0x24 DUP3 ADD MSTORE PUSH22 0x496E76616C6964207369676E65722061646472657373 PUSH1 0x50 SHL PUSH1 0x44 DUP3 ADD MSTORE PUSH1 0x64 SWAP1 REVERT JUMPDEST CALLVALUE PUSH2 0xB0 JUMPI PUSH1 0xA0 CALLDATASIZE PUSH1 0x3 NOT ADD SLT PUSH2 0xB0 JUMPI PUSH1 0x4 CALLDATALOAD PUSH1 0x1 PUSH1 0x1 PUSH1 0x40 SHL SUB DUP2 GT PUSH2 0xB0 JUMPI PUSH2 0x2C7 SWAP1 CALLDATASIZE SWAP1 PUSH1 0x4 ADD PUSH2 0x721 JUMP JUMPDEST SWAP1 PUSH1 0x24 CALLDATALOAD PUSH1 0x1 PUSH1 0x1 PUSH1 0x40 SHL SUB DUP2 GT PUSH2 0xB0 JUMPI PUSH2 0x2E7 SWAP1 CALLDATASIZE SWAP1 PUSH1 0x4 ADD PUSH2 0x721 JUMP JUMPDEST SWAP1 SWAP3 PUSH1 0x44 CALLDATALOAD PUSH1 0x1 PUSH1 0x1 PUSH1 0x40 SHL SUB DUP2 GT PUSH2 0xB0 JUMPI PUSH2 0x308 SWAP1 CALLDATASIZE SWAP1 PUSH1 0x4 ADD PUSH2 0x721 JUMP JUMPDEST SWAP2 SWAP1 PUSH1 0x64 CALLDATALOAD PUSH1 0x1 PUSH1 0x1 PUSH1 0x40 SHL SUB DUP2 GT PUSH2 0xB0 JUMPI PUSH2 0x329 SWAP1 CALLDATASIZE SWAP1 PUSH1 0x4 ADD PUSH2 0x721 JUMP JUMPDEST SWAP7 SWAP1 SWAP6 PUSH1 0x84 CALLDATALOAD PUSH1 0x1 PUSH1 0x1 PUSH1 0x40 SHL SUB DUP2 GT PUSH2 0xB0 JUMPI PUSH2 0x34B SWAP1 CALLDATASIZE SWAP1 PUSH1 0x4 ADD PUSH2 0x721 JUMP JUMPDEST SWAP6 SWAP1 SWAP5 DUP8 DUP2 EQ DUP1 PUSH2 0x67A JUMPI JUMPDEST DUP1 PUSH2 0x671 JUMPI JUMPDEST DUP1 PUSH2 0x668 JUMPI JUMPDEST ISZERO PUSH2 0x62B JUMPI PUSH2 0x371 DUP2 PUSH2 0xB15 JUMP JUMPDEST SWAP10 PUSH2 0x37F PUSH1 0x40 MLOAD SWAP12 DUP13 PUSH2 0x7BC JUMP JUMPDEST DUP2 DUP12 MSTORE PUSH1 0x1F NOT PUSH2 0x38E DUP4 PUSH2 0xB15 JUMP JUMPDEST ADD CALLDATASIZE PUSH1 0x20 DUP14 ADD CALLDATACOPY PUSH1 0x0 JUMPDEST DUP12 DUP4 DUP3 LT PUSH2 0x3E7 JUMPI PUSH1 0x40 MLOAD DUP1 SWAP2 PUSH1 0x20 DUP3 ADD PUSH1 0x20 DUP4 MSTORE DUP2 MLOAD DUP1 SWAP2 MSTORE PUSH1 0x20 PUSH1 0x40 DUP5 ADD SWAP3 ADD SWAP1 PUSH1 0x0 JUMPDEST DUP2 DUP2 LT PUSH2 0x3CC JUMPI POP POP POP SUB SWAP1 RETURN JUMPDEST DUP3 MLOAD ISZERO ISZERO DUP5 MSTORE DUP6 SWAP5 POP PUSH1 0x20 SWAP4 DUP5 ADD SWAP4 SWAP1 SWAP3 ADD SWAP2 PUSH1 0x1 ADD PUSH2 0x3BE JUMP JUMPDEST DUP12 DUP8 DUP4 DUP6 DUP9 DUP16 DUP10 DUP13 DUP16 SWAP9 PUSH2 0x3FC DUP8 DUP5 DUP5 PUSH2 0xB2C JUMP JUMPDEST CALLDATALOAD PUSH1 0x0 MSTORE PUSH1 0x2 PUSH1 0x20 MSTORE PUSH1 0xFF PUSH1 0x40 PUSH1 0x0 KECCAK256 SLOAD AND PUSH2 0x615 JUMPI POP SWAP3 PUSH2 0x43D PUSH2 0x438 DUP8 PUSH2 0x443 SWAP6 PUSH2 0x431 DUP3 DUP1 SWAP11 SWAP10 SWAP8 PUSH2 0x44A SWAP13 SWAP9 PUSH2 0xB2C JUMP JUMPDEST CALLDATALOAD SWAP11 PUSH2 0xB2C JUMP JUMPDEST PUSH2 0xB50 JUMP JUMPDEST SWAP9 PUSH2 0xB2C JUMP JUMPDEST CALLDATALOAD SWAP5 PUSH2 0xB2C JUMP JUMPDEST CALLDATALOAD SWAP2 PUSH1 0x1 PUSH1 0x1 PUSH1 0x40 SHL SUB DUP4 AND DUP4 SUB PUSH2 0xB0 JUMPI PUSH2 0x476 PUSH2 0x484 SWAP3 PUSH1 0x40 MLOAD SWAP5 DUP6 SWAP4 PUSH1 0x20 DUP6 ADD SWAP8 CHAINID SWAP4 DUP10 PUSH2 0x77D JUMP JUMPDEST SUB PUSH1 0x1F NOT DUP2 ADD DUP4 MSTORE DUP3 PUSH2 0x7BC JUMP JUMPDEST MLOAD SWAP1 KECCAK256 PUSH32 0x19457468657265756D205369676E6564204D6573736167653A0A333200000000 PUSH1 0x0 MSTORE PUSH1 0x1C MSTORE PUSH1 0x3C PUSH1 0x0 KECCAK256 DUP10 DUP3 LT ISZERO PUSH2 0x5FF JUMPI DUP2 PUSH1 0x5 SHL DUP10 ADD CALLDATALOAD SWAP1 PUSH1 0x1E NOT DUP11 CALLDATASIZE SUB ADD DUP3 SLT ISZERO PUSH2 0xB0 JUMPI PUSH1 0x1 PUSH1 0x1 PUSH1 0x40 SHL SUB DUP3 DUP12 ADD CALLDATALOAD GT PUSH2 0xB0 JUMPI DUP2 DUP11 ADD CALLDATALOAD CALLDATASIZE SUB PUSH1 0x20 DUP4 DUP13 ADD ADD SGT PUSH2 0xB0 JUMPI DUP3 DUP15 PUSH2 0x519 PUSH2 0x522 SWAP4 DUP16 SWAP6 PUSH2 0x513 SWAP1 DUP16 PUSH1 0x20 CALLDATASIZE SWAP3 DUP1 DUP4 ADD CALLDATALOAD SWAP3 ADD ADD PUSH2 0x7F3 JUMP JUMPDEST SWAP1 PUSH2 0x9C4 JUMP JUMPDEST SWAP1 SWAP5 SWAP2 SWAP5 PUSH2 0xA90 JUMP JUMPDEST DUP11 DUP11 PUSH1 0x1 DUP1 PUSH1 0xA0 SHL SUB DUP11 DUP11 DUP14 PUSH1 0x1 SWAP9 DUP5 DUP1 DUP12 SLOAD AND SWAP2 AND EQ PUSH1 0x0 EQ PUSH2 0x5E5 JUMPI SWAP2 PUSH2 0x588 PUSH2 0x438 DUP10 DUP12 SWAP13 PUSH2 0x581 DUP3 DUP8 PUSH2 0x5BC SWAP16 SWAP10 PUSH2 0x58E SWAP11 PUSH2 0x564 DUP5 DUP1 SWAP13 DUP5 PUSH2 0xB2C JUMP JUMPDEST CALLDATALOAD PUSH1 0x0 MSTORE PUSH1 0x2 PUSH1 0x20 MSTORE PUSH1 0x40 PUSH1 0x0 KECCAK256 SWAP1 PUSH1 0xFF NOT DUP3 SLOAD AND OR SWAP1 SSTORE PUSH2 0xB2C JUMP JUMPDEST CALLDATALOAD SWAP9 PUSH2 0xB2C JUMP JUMPDEST SWAP6 PUSH2 0xB2C JUMP JUMPDEST CALLDATALOAD SWAP3 AND SWAP1 PUSH32 0x72EF40CEB27F3E9AE55599A59BC3BF789C003B8C91A7C9CC9C892A1B97EE0E78 PUSH1 0x0 DUP1 LOG4 PUSH2 0xB3C JUMP JUMPDEST MSTORE JUMPDEST PUSH1 0x0 NOT DUP2 EQ PUSH2 0x5CF JUMPI PUSH1 0x1 ADD PUSH2 0x398 JUMP JUMPDEST PUSH4 0x4E487B71 PUSH1 0xE0 SHL PUSH1 0x0 MSTORE PUSH1 0x11 PUSH1 0x4 MSTORE PUSH1 0x24 PUSH1 0x0 REVERT JUMPDEST POP POP POP POP POP POP PUSH1 0x0 SWAP4 POP PUSH2 0x5F9 SWAP3 POP PUSH2 0xB3C JUMP JUMPDEST MSTORE PUSH2 0x5BE JUMP JUMPDEST PUSH4 0x4E487B71 PUSH1 0xE0 SHL PUSH1 0x0 MSTORE PUSH1 0x32 PUSH1 0x4 MSTORE PUSH1 0x24 PUSH1 0x0 REVERT JUMPDEST SWAP6 SWAP7 POP POP POP POP POP POP PUSH1 0x0 SWAP4 POP PUSH2 0x5F9 SWAP3 POP PUSH2 0xB3C JUMP JUMPDEST PUSH1 0x40 MLOAD PUSH3 0x461BCD PUSH1 0xE5 SHL DUP2 MSTORE PUSH1 0x20 PUSH1 0x4 DUP3 ADD MSTORE PUSH1 0x15 PUSH1 0x24 DUP3 ADD MSTORE PUSH21 0x82E4E4C2F240D8CADCCEE8D040DAD2E6DAC2E8C6D PUSH1 0x5B SHL PUSH1 0x44 DUP3 ADD MSTORE PUSH1 0x64 SWAP1 REVERT JUMPDEST POP DUP7 DUP11 EQ PUSH2 0x363 JUMP JUMPDEST POP DUP10 DUP3 EQ PUSH2 0x35D JUMP JUMPDEST POP DUP2 DUP9 EQ PUSH2 0x357 JUMP JUMPDEST CALLVALUE PUSH2 0xB0 JUMPI PUSH1 0xA0 CALLDATASIZE PUSH1 0x3 NOT ADD SLT PUSH2 0xB0 JUMPI PUSH1 0x24 CALLDATALOAD PUSH1 0x1 PUSH1 0x1 PUSH1 0xA0 SHL SUB DUP2 AND DUP2 SUB PUSH2 0xB0 JUMPI PUSH1 0x64 CALLDATALOAD SWAP1 PUSH1 0x1 PUSH1 0x1 PUSH1 0x40 SHL SUB DUP1 DUP4 AND DUP4 SUB PUSH2 0xB0 JUMPI PUSH1 0x84 CALLDATALOAD SWAP2 DUP2 DUP4 GT PUSH2 0xB0 JUMPI CALLDATASIZE PUSH1 0x23 DUP5 ADD SLT ISZERO PUSH2 0xB0 JUMPI DUP3 PUSH1 0x4 ADD CALLDATALOAD SWAP2 DUP3 GT PUSH2 0xB0 JUMPI CALLDATASIZE PUSH1 0x24 DUP4 DUP6 ADD ADD GT PUSH2 0xB0 JUMPI PUSH1 0x20 SWAP4 PUSH1 0x24 PUSH2 0x701 SWAP5 ADD SWAP2 PUSH1 0x44 CALLDATALOAD SWAP1 PUSH1 0x4 CALLDATALOAD PUSH2 0x839 JUMP JUMPDEST PUSH1 0x40 MLOAD SWAP1 ISZERO ISZERO DUP2 MSTORE RETURN JUMPDEST PUSH1 0x4 CALLDATALOAD SWAP1 PUSH1 0x1 PUSH1 0x1 PUSH1 0xA0 SHL SUB DUP3 AND DUP3 SUB PUSH2 0xB0 JUMPI JUMP JUMPDEST SWAP2 DUP2 PUSH1 0x1F DUP5 ADD SLT ISZERO PUSH2 0xB0 JUMPI DUP3 CALLDATALOAD SWAP2 PUSH1 0x1 PUSH1 0x1 PUSH1 0x40 SHL SUB DUP4 GT PUSH2 0xB0 JUMPI PUSH1 0x20 DUP1 DUP6 ADD SWAP5 DUP5 PUSH1 0x5 SHL ADD ADD GT PUSH2 0xB0 JUMPI JUMP JUMPDEST PUSH1 0x0 SLOAD PUSH1 0x1 PUSH1 0x1 PUSH1 0xA0 SHL SUB AND CALLER SUB PUSH2 0x765 JUMPI JUMP JUMPDEST PUSH1 0x40 MLOAD PUSH4 0x118CDAA7 PUSH1 0xE0 SHL DUP2 MSTORE CALLER PUSH1 0x4 DUP3 ADD MSTORE PUSH1 0x24 SWAP1 REVERT JUMPDEST SWAP4 SWAP2 PUSH1 0x7C SWAP6 SWAP4 SWAP2 DUP6 MSTORE PUSH1 0x1 PUSH1 0x1 PUSH1 0x60 SHL SUB NOT SWAP1 PUSH1 0x60 SHL AND PUSH1 0x20 DUP6 ADD MSTORE PUSH1 0x34 DUP5 ADD MSTORE PUSH1 0x1 PUSH1 0x1 PUSH1 0x40 SHL SUB PUSH1 0xC0 SHL SWAP1 PUSH1 0xC0 SHL AND PUSH1 0x54 DUP4 ADD MSTORE PUSH1 0x5C DUP3 ADD MSTORE ADD SWAP1 JUMP JUMPDEST SWAP1 PUSH1 0x1F DUP1 NOT SWAP2 ADD AND DUP2 ADD SWAP1 DUP2 LT PUSH1 0x1 PUSH1 0x1 PUSH1 0x40 SHL SUB DUP3 GT OR PUSH2 0x7DD JUMPI PUSH1 0x40 MSTORE JUMP JUMPDEST PUSH4 0x4E487B71 PUSH1 0xE0 SHL PUSH1 0x0 MSTORE PUSH1 0x41 PUSH1 0x4 MSTORE PUSH1 0x24 PUSH1 0x0 REVERT JUMPDEST SWAP3 SWAP2 SWAP3 PUSH1 0x1 PUSH1 0x1 PUSH1 0x40 SHL SUB DUP3 GT PUSH2 0x7DD JUMPI PUSH1 0x40 MLOAD SWAP2 PUSH2 0x81C PUSH1 0x1F DUP3 ADD PUSH1 0x1F NOT AND PUSH1 0x20 ADD DUP5 PUSH2 0x7BC JUMP JUMPDEST DUP3 SWAP5 DUP2 DUP5 MSTORE DUP2 DUP4 ADD GT PUSH2 0xB0 JUMPI DUP3 DUP2 PUSH1 0x20 SWAP4 DUP5 PUSH1 0x0 SWAP7 ADD CALLDATACOPY ADD ADD MSTORE JUMP JUMPDEST SWAP3 SWAP1 SWAP2 SWAP5 SWAP4 PUSH1 0x0 SWAP5 DUP5 DUP7 MSTORE PUSH1 0x20 SWAP2 PUSH1 0x2 DUP4 MSTORE PUSH1 0x40 SWAP4 PUSH1 0xFF DUP6 DUP10 KECCAK256 SLOAD AND PUSH2 0x968 JUMPI SWAP2 PUSH2 0x513 PUSH2 0x8B7 SWAP3 DUP8 DUP8 SWAP7 SWAP6 PUSH2 0x882 DUP14 PUSH2 0x476 DUP14 PUSH2 0x8C0 SWAP14 SWAP13 MLOAD SWAP5 DUP6 SWAP4 DUP13 DUP6 ADD SWAP8 CHAINID SWAP4 DUP10 PUSH2 0x77D JUMP JUMPDEST MLOAD SWAP1 KECCAK256 PUSH32 0x19457468657265756D205369676E6564204D6573736167653A0A333200000000 DUP12 MSTORE PUSH1 0x1C MSTORE PUSH1 0x3C DUP11 KECCAK256 SWAP3 CALLDATASIZE SWAP2 PUSH2 0x7F3 JUMP JUMPDEST SWAP1 SWAP6 SWAP2 SWAP6 PUSH2 0xA90 JUMP JUMPDEST PUSH1 0x1 SLOAD PUSH1 0x1 PUSH1 0x1 PUSH1 0xA0 SHL SUB SWAP5 SWAP1 DUP6 AND SWAP1 DUP6 AND SUB PUSH2 0x916 JUMPI DUP5 DUP7 MSTORE PUSH1 0x2 SWAP1 MSTORE DUP5 KECCAK256 DUP1 SLOAD PUSH1 0xFF NOT AND PUSH1 0x1 OR SWAP1 SSTORE AND SWAP2 PUSH32 0x72EF40CEB27F3E9AE55599A59BC3BF789C003B8C91A7C9CC9C892A1B97EE0E78 SWAP1 DUP1 LOG4 PUSH1 0x1 SWAP1 JUMP JUMPDEST SWAP5 SWAP6 POP SWAP2 PUSH1 0x60 SWAP2 PUSH17 0x496E76616C6964207369676E6174757265 PUSH1 0x78 SHL DUP5 PUSH1 0x11 PUSH32 0x4501BE829B1C48ED881DF27B32711A6311DB512E37E32E9D9808A8656A4D65CB SWAP7 MLOAD SWAP9 DUP1 DUP11 MSTORE DUP10 ADD MSTORE DUP8 ADD MSTORE AND SWAP4 LOG3 SWAP1 JUMP JUMPDEST POP POP POP SWAP4 SWAP5 POP PUSH32 0x4501BE829B1C48ED881DF27B32711A6311DB512E37E32E9D9808A8656A4D65CB SWAP2 PUSH18 0x139BDB98D948185B1C9958591E481D5CD959 PUSH1 0x72 SHL DUP3 PUSH1 0x12 PUSH1 0x60 SWAP5 MLOAD SWAP8 DUP1 DUP10 MSTORE DUP9 ADD MSTORE DUP7 ADD MSTORE PUSH1 0x1 DUP1 PUSH1 0xA0 SHL SUB AND SWAP4 LOG3 SWAP1 JUMP JUMPDEST DUP2 MLOAD SWAP2 SWAP1 PUSH1 0x41 DUP4 SUB PUSH2 0x9F5 JUMPI PUSH2 0x9EE SWAP3 POP PUSH1 0x20 DUP3 ADD MLOAD SWAP1 PUSH1 0x60 PUSH1 0x40 DUP5 ADD MLOAD SWAP4 ADD MLOAD PUSH1 0x0 BYTE SWAP1 PUSH2 0xA00 JUMP JUMPDEST SWAP2 SWAP3 SWAP1 SWAP2 SWAP1 JUMP JUMPDEST POP POP PUSH1 0x0 SWAP2 PUSH1 0x2 SWAP2 SWAP1 JUMP JUMPDEST SWAP2 SWAP1 PUSH32 0x7FFFFFFFFFFFFFFFFFFFFFFFFFFFFFFF5D576E7357A4501DDFE92F46681B20A0 DUP5 GT PUSH2 0xA84 JUMPI SWAP3 PUSH1 0x20 SWAP3 SWAP2 PUSH1 0xFF PUSH1 0x80 SWAP6 PUSH1 0x40 MLOAD SWAP5 DUP6 MSTORE AND DUP5 DUP5 ADD MSTORE PUSH1 0x40 DUP4 ADD MSTORE PUSH1 0x60 DUP3 ADD MSTORE PUSH1 0x0 SWAP3 DUP4 SWAP2 DUP3 DUP1 MSTORE PUSH1 0x1 GAS STATICCALL ISZERO PUSH2 0xA78 JUMPI DUP1 MLOAD PUSH1 0x1 PUSH1 0x1 PUSH1 0xA0 SHL SUB DUP2 AND ISZERO PUSH2 0xA6F JUMPI SWAP2 DUP2 SWAP1 JUMP JUMPDEST POP DUP1 SWAP2 PUSH1 0x1 SWAP2 SWAP1 JUMP JUMPDEST PUSH1 0x40 MLOAD SWAP1 RETURNDATASIZE SWAP1 DUP3 RETURNDATACOPY RETURNDATASIZE SWAP1 REVERT JUMPDEST POP POP POP PUSH1 0x0 SWAP2 PUSH1 0x3 SWAP2 SWAP1 JUMP JUMPDEST PUSH1 0x4 DUP2 LT ISZERO PUSH2 0xAFF JUMPI DUP1 PUSH2 0xAA2 JUMPI POP POP JUMP JUMPDEST PUSH1 0x1 DUP2 SUB PUSH2 0xABC JUMPI PUSH1 0x40 MLOAD PUSH4 0xF645EEDF PUSH1 0xE0 SHL DUP2 MSTORE PUSH1 0x4 SWAP1 REVERT JUMPDEST PUSH1 0x2 DUP2 SUB PUSH2 0xADD JUMPI PUSH1 0x40 MLOAD PUSH4 0xFCE698F7 PUSH1 0xE0 SHL DUP2 MSTORE PUSH1 0x4 DUP2 ADD DUP4 SWAP1 MSTORE PUSH1 0x24 SWAP1 REVERT JUMPDEST PUSH1 0x3 EQ PUSH2 0xAE7 JUMPI POP JUMP JUMPDEST PUSH1 0x24 SWAP1 PUSH1 0x40 MLOAD SWAP1 PUSH4 0x35E2F383 PUSH1 0xE2 SHL DUP3 MSTORE PUSH1 0x4 DUP3 ADD MSTORE REVERT JUMPDEST PUSH4 0x4E487B71 PUSH1 0xE0 SHL PUSH1 0x0 MSTORE PUSH1 0x21 PUSH1 0x4 MSTORE PUSH1 0x24 PUSH1 0x0 REVERT JUMPDEST PUSH1 0x1 PUSH1 0x1 PUSH1 0x40 SHL SUB DUP2 GT PUSH2 0x7DD JUMPI PUSH1 0x5 SHL PUSH1 0x20 ADD SWAP1 JUMP JUMPDEST SWAP2 SWAP1 DUP2 LT ISZERO PUSH2 0x5FF JUMPI PUSH1 0x5 SHL ADD SWAP1 JUMP JUMPDEST DUP1 MLOAD DUP3 LT ISZERO PUSH2 0x5FF JUMPI PUSH1 0x20 SWAP2 PUSH1 0x5 SHL ADD ADD SWAP1 JUMP JUMPDEST CALLDATALOAD PUSH1 0x1 PUSH1 0x1 PUSH1 0xA0 SHL SUB DUP2 AND DUP2 SUB PUSH2 0xB0 JUMPI SWAP1 JUMP INVALID LOG2 PUSH5 0x6970667358 0x22 SLT KECCAK256 MSTORE8 DIV EXTCODESIZE 0xE1 0xD3 SWAP3 PUSH32 0x44225F486435F269DB4F5F8886E2A2725688822A9D9C1F4BFD64736F6C634300 ADDMOD EQ STOP CALLER "},"methodIdentifiers":{"batchVerifyAndConsume(bytes32[],address[],bytes32[],uint64[],bytes[])":"4ec2d8d3","isNonceUsed(bytes32)":"b90665e5","owner()":"8da5cb5b","renounceOwnership()":"715018a6","setTrustedSigner(address)":"56a1c701","transferOwnership(address)":"f2fde38b","trustedSigner()":"f74d5480","usedNonces(bytes32)":"feb61724","verifyAndConsume(bytes32,address,bytes32,uint64,bytes)":"0d644293"}}}}}