{"core/GinixGameCore.sol":{"GinixGameCore":{"abi":[{"inputs":[],"stateMutability":"nonpayable","type":"constructor"},{"inputs":[{"internalType":"address","name":"owner","type":"address"}],"name":"OwnableInvalidOwner","type":"error"},{"inputs":[{"internalType":"address","name":"account","type":"address"}],"name":"OwnableUnauthorizedAccount","type":"error"},{"anonymous":false,"inputs":[{"indexed":true,"internalType":"address","name":"player","type":"address"},{"indexed":true,"internalType":"bytes32","name":"gameId","type":"bytes32"},{"indexed":false,"internalType":"uint64","name":"newScore","type":"uint64"}],"name":"HighScoreUpdated","type":"event"},{"anonymous":false,"inputs":[{"indexed":false,"internalType":"uint32[]","name":"thresholds","type":"uint32[]"},{"indexed":false,"internalType":"uint32[]","name":"values","type":"uint32[]"}],"name":"MultiplierConfigured","type":"event"},{"anonymous":false,"inputs":[{"indexed":true,"internalType":"address","name":"previousOwner","type":"address"},{"indexed":true,"internalType":"address","name":"newOwner","type":"address"}],"name":"OwnershipTransferred","type":"event"},{"anonymous":false,"inputs":[{"indexed":true,"internalType":"address","name":"player","type":"address"},{"indexed":false,"internalType":"uint64","name":"timestamp","type":"uint64"}],"name":"PlayerRegistered","type":"event"},{"anonymous":false,"inputs":[{"indexed":true,"internalType":"address","name":"player","type":"address"},{"indexed":true,"internalType":"bytes32","name":"gameId","type":"bytes32"},{"indexed":false,"internalType":"uint64","name":"score","type":"uint64"},{"indexed":false,"internalType":"uint64","name":"duration","type":"uint64"}],"name":"SessionRecorded","type":"event"},{"anonymous":false,"inputs":[{"indexed":true,"internalType":"address","name":"player","type":"address"},{"indexed":false,"internalType":"uint64","name":"amount","type":"uint64"},{"indexed":false,"internalType":"uint64","name":"newTotal","type":"uint64"}],"name":"XPAdded","type":"event"},{"inputs":[{"internalType":"address","name":"player","type":"address"},{"internalType":"uint64","name":"amount","type":"uint64"}],"name":"addXP","outputs":[],"stateMutability":"nonpayable","type":"function"},{"inputs":[{"internalType":"address","name":"player","type":"address"},{"internalType":"uint64","name":"baseAmount","type":"uint64"}],"name":"applyMultiplier","outputs":[{"internalType":"uint64","name":"","type":"uint64"}],"stateMutability":"view","type":"function"},{"inputs":[{"internalType":"uint32[]","name":"thresholds","type":"uint32[]"},{"internalType":"uint32[]","name":"values","type":"uint32[]"}],"name":"configureMultipliers","outputs":[],"stateMutability":"nonpayable","type":"function"},{"inputs":[],"name":"defaultMultiplier","outputs":[{"internalType":"uint32","name":"","type":"uint32"}],"stateMutability":"view","type":"function"},{"inputs":[{"internalType":"address","name":"","type":"address"},{"internalType":"bytes32","name":"","type":"bytes32"}],"name":"gameScores","outputs":[{"internalType":"uint64","name":"","type":"uint64"}],"stateMutability":"view","type":"function"},{"inputs":[{"internalType":"address","name":"player","type":"address"},{"internalType":"bytes32","name":"gameId","type":"bytes32"}],"name":"getHighScore","outputs":[{"internalType":"uint64","name":"","type":"uint64"}],"stateMutability":"view","type":"function"},{"inputs":[{"internalType":"address","name":"player","type":"address"}],"name":"getPlayer","outputs":[{"components":[{"internalType":"uint64","name":"xp","type":"uint64"},{"internalType":"uint64","name":"sessionsPlayed","type":"uint64"},{"internalType":"uint64","name":"joinedAt","type":"uint64"},{"internalType":"uint32","name":"level","type":"uint32"}],"internalType":"struct GinixGameCore.Player","name":"","type":"tuple"}],"stateMutability":"view","type":"function"},{"inputs":[{"internalType":"address","name":"player","type":"address"}],"name":"getPlayerLevel","outputs":[{"internalType":"uint32","name":"","type":"uint32"}],"stateMutability":"view","type":"function"},{"inputs":[{"internalType":"address","name":"player","type":"address"}],"name":"getPlayerMultiplier","outputs":[{"internalType":"uint32","name":"","type":"uint32"}],"stateMutability":"view","type":"function"},{"inputs":[{"internalType":"uint256","name":"","type":"uint256"}],"name":"multiplierThresholds","outputs":[{"internalType":"uint32","name":"","type":"uint32"}],"stateMutability":"view","type":"function"},{"inputs":[{"internalType":"uint256","name":"","type":"uint256"}],"name":"multiplierValues","outputs":[{"internalType":"uint32","name":"","type":"uint32"}],"stateMutability":"view","type":"function"},{"inputs":[],"name":"owner","outputs":[{"internalType":"address","name":"","type":"address"}],"stateMutability":"view","type":"function"},{"inputs":[{"internalType":"address","name":"","type":"address"}],"name":"players","outputs":[{"internalType":"uint64","name":"xp","type":"uint64"},{"internalType":"uint64","name":"sessionsPlayed","type":"uint64"},{"internalType":"uint64","name":"joinedAt","type":"uint64"},{"internalType":"uint32","name":"level","type":"uint32"}],"stateMutability":"view","type":"function"},{"inputs":[{"internalType":"address","name":"player","type":"address"},{"internalType":"bytes32","name":"gameId","type":"bytes32"},{"internalType":"uint64","name":"score","type":"uint64"},{"internalType":"uint64","name":"duration","type":"uint64"}],"name":"recordSession","outputs":[],"stateMutability":"nonpayable","type":"function"},{"inputs":[],"name":"renounceOwnership","outputs":[],"stateMutability":"nonpayable","type":"function"},{"inputs":[],"name":"totalPlayers","outputs":[{"internalType":"uint256","name":"","type":"uint256"}],"stateMutability":"view","type":"function"},{"inputs":[],"name":"totalSessions","outputs":[{"internalType":"uint256","name":"","type":"uint256"}],"stateMutability":"view","type":"function"},{"inputs":[{"internalType":"address","name":"newOwner","type":"address"}],"name":"transferOwnership","outputs":[],"stateMutability":"nonpayable","type":"function"}],"evm":{"bytecode":{"linkReferences":{},"object":"6080806040523461008b5733156100755760008054336001600160a01b03198216811783556040519290916001600160a01b0316907f8be0079c531659141344cd1fd0a4f28419497f9722a3daafe3b4186f6b6457e09080a361271063ffffffff1960075416176007556110db90816100918239f35b631e4fbdf760e01b815260006004820152602490fd5b600080fdfe6040608081526004908136101561001557600080fd5b600091823560e01c9081630729ab5d14610cb75781632b2bd4f514610b2357816333faaed5146109f557816334b735a114610ae15781633f84b4e914610a4057816359c4e08a146109f55781635c12cd4b1461094c5781636f5db0b51461092e578163715018a6146108d45781637a53ccf31461040c5781638da5cb5b146103e45781639c2167cf146103a2578163d6c49b941461025d578163e2eb41ff146101f8578163e3cad43c146101ba578163e489182514610195578163f2fde38b1461010a575063f60cdcf6146100e957600080fd5b346101065781600319360112610106576020906003549051908152f35b5080fd5b90503461019157602036600319011261019157610125610d55565b9061012e610db6565b6001600160a01b0391821692831561017b57505082546001600160a01b0319811683178455167f8be0079c531659141344cd1fd0a4f28419497f9722a3daafe3b4186f6b6457e08380a380f35b51631e4fbdf760e01b8152908101849052602490fd5b8280fd5b50503461010657816003193601126101065760209063ffffffff600754169051908152f35b5050346101065780600319360112610106576020906001600160401b036101f06101e2610d55565b6101ea610d70565b90610f61565b915191168152f35b5050346101065760203660031901126101065760809163ffffffff9082906001600160a01b03610226610d55565b168152600160205220548251926001600160401b0380831685528083831c16602086015282861c169084015260c01c166060820152f35b838334610106578060031936011261010657610277610d55565b9061029a610283610d70565b61028b610db6565b61029484610e3c565b83610f61565b6001600160a01b03909216808452600160205281842080549193916001600160401b0391908281168385160183811161038f578316906001600160401b031916179055838552600160205263ffffffff600181606484878a20541604160190811161037c578486526001602052838620805463ffffffff60c01b191660c09290921b63ffffffff60c01b169190911781557f26ad6644c4da54fbabde5ddae2b97235fb13980a3c42bf7b95c2194f613382fc939291610376915493516001600160401b0393841681529316909116602083015281906040820190565b0390a280f35b634e487b7160e01b865260118752602486fd5b634e487b7160e01b885260118952602488fd5b9050346101915760203660031901126101915735916006548310156103e1575063ffffffff6103d2602093610d27565b92905490519260031b1c168152f35b80fd5b505034610106578160031936011261010657905490516001600160a01b039091168152602090f35b839150346101065782600319360112610106576001600160401b039281358481116108d05761043e9036908401610d86565b929060249081358781116108cc576104599036908501610d86565b929093610464610db6565b8387036108935760015b8781106107e7575088871161069e57680100000000000000008088116106af5760055488600555808910610764575b50839960058a528860031c9a8a5b8c811061070757506007199b8a8d168b03806106c1575b50505085116106af57841161069e5750506006548260065580831061061b575b508296600687528260031c90875b8281106105be57508316830380610552575b855186815288907fbba0e07af16af3a8ba217f7db115f03cb51f1c23ad8afbea44cce18a5dde0396908061054c898961053e848e018f8c61101e565b91848303602086015261101e565b0390a180f35b978798885b818110610585575050506000805160206110868339815191520196909655939485949061053e61054c610502565b90919960206105b46001926105998e61100d565b908560021b60031b9163ffffffff809116831b921b19161790565b9b01929101610557565b88895b600881106105e457506000805160206110868339815191528201556001016104f0565b9a9060206106128d6001936105f88661100d565b9160021b60031b9163ffffffff809116831b921b19161790565b92019b016105c1565b6007830160031c6007600080516020611086833981519152920160031c820191601c8560021b1680610663575b50015b81811061065857506104e2565b87815560010161064b565b7ff652222313e28459528d920b65115c16c04f3efc82aaedc97be59f3f377c0d3e8301908154906000199060200360031b1c1690558a610648565b634e487b7160e01b88526041905286fd5b50634e487b7160e01b88526041905286fd5b918c928d5b8181106106e95750505060008051602061106683398151915201558b80806104c2565b90919360206106fd6001926105998861100d565b95019291016106c6565b8b8c5b6008811061072d57506000805160206110668339815191528201556001016104ab565b9290602061075b6001926107408561100d565b908760021b60031b9163ffffffff809116831b921b19161790565b9201930161070a565b6007890160031c6007600080516020611066833981519152920160031c820191601c8b60021b16806107ac575b50015b8181106107a1575061049d565b8a8155600101610794565b7f036b6384b5eca791c62761152d0c79bb0604c104a5fb6f4eb0703f3154bb3daf8301908154906000199060200360031b1c1690558d610791565b6107fa6107f5828a87610ffd565b61100d565b6000198201828111610881576107f59061081c63ffffffff9283928d8a610ffd565b16911611156108335761082e90610e17565b61046e565b506023608492602088519362461bcd60e51b85528401528201527f5468726573686f6c6473206d75737420626520736f7274656420617363656e64604482015262696e6760e81b6064820152fd5b634e487b7160e01b8b5260118452848bfd5b6015606492602088519362461bcd60e51b855284015282015274082e4e4c2f240d8cadccee8d040dad2e6dac2e8c6d605b1b6044820152fd5b8680fd5b8380fd5b83346103e157806003193601126103e1576108ed610db6565b80546001600160a01b03198116825581906001600160a01b03167f8be0079c531659141344cd1fd0a4f28419497f9722a3daafe3b4186f6b6457e08280a380f35b90503461019157826003193601126101915760209250549051908152f35b505034610106576020366003190112610106578060809261096b610d55565b816060610976610de2565b8281528260208201528286820152015260018060a01b0316815260016020522061099e610de2565b9054906001600160401b03928383169384835260208301928185841c1684528160608483019282888b1c168452019463ffffffff809760c01c16865284519788525116602087015251169084015251166060820152f35b5050346101065780600319360112610106576020916001600160401b039082906001600160a01b03610a25610d55565b16815260028552818120602435825285522054169051908152f35b8284346103e15760203660031901126103e1576001600160a01b03610a63610d55565b168152600160205263ffffffff808383205460c01c1681600754169290600554905b818310610a9a575b5050506020925191168152f35b9091938390610aa886610ce3565b905460039391841b1c168310610ada575083610ad391610ac787610d27565b9054911b1c1694610e17565b9190610a85565b9450610a8d565b5050346101065760203660031901126101065760209163ffffffff9082906001600160a01b03610b0f610d55565b16815260018552205460c01c169051908152f35b83833461010657608036600319011261010657610b3e610d55565b90602435916044356001600160401b03928382168083036108cc57606435938585168503610cb357610b6e610db6565b610b7781610e3c565b6001600160a01b031680885260016020908152838920805492979192851c8216808314610ca057937f3763b7bf728f1fe6299325dc073989cc229f60856ff7c4ed0da2ac7267d5b942979695938a938d610bfa8c956001610c469a0167ffffffffffffffff60401b82549160401b169067ffffffffffffffff60401b1916179055565b610c048154610e17565b9055838d5260028252858d20858e528252858d2054168211610c4c575b505091516001600160401b039485168152949093166020850152508291506040820190565b0390a380f35b828c5260028152848c20848d528152848c20805467ffffffffffffffff19168317905584519182527f9f8cb80fe1a25466c66e59c049fecb615ced062a7b54d94e548e81bdb909866e91a386868a80610c21565b634e487b7160e01b8b5260118c5260248bfd5b8780fd5b9050346101915760203660031901126101915735916005548310156103e1575063ffffffff6103d26020935b90600554821015610d11576005600052601c8260031c600080516020611066833981519152019260021b1690565b634e487b7160e01b600052603260045260246000fd5b90600654821015610d11576006600052601c8260031c600080516020611086833981519152019260021b1690565b600435906001600160a01b0382168203610d6b57565b600080fd5b602435906001600160401b0382168203610d6b57565b9181601f84011215610d6b578235916001600160401b038311610d6b576020808501948460051b010111610d6b57565b6000546001600160a01b03163303610dca57565b60405163118cdaa760e01b8152336004820152602490fd5b60405190608082018281106001600160401b03821117610e0157604052565b634e487b7160e01b600052604160045260246000fd5b6000198114610e265760010190565b634e487b7160e01b600052601160045260246000fd5b6001600160a01b03166000818152600160205260408120546001600160401b039060801c811615610e6c57505050565b7fbfa0f09dc9c74d4dd4141f6a0415db1ccea289a74ac79e166c4b3f51b5afae5c91610f4a8263ffffffff86602095421694610f0a610ea9610de2565b94828652888601838152816040808901958b875260608a019760018952815260018d52209751166001600160401b03198854161787555116859067ffffffffffffffff60401b82549160401b169067ffffffffffffffff60401b1916179055565b51835491516bffffffffffffffffffffffff60801b1990921660809190911b67ffffffffffffffff60801b1617911660c01b63ffffffff60c01b16179055565b610f55600354610e17565b600355604051908152a2565b6001600160a01b031660009081526001602052604081205460075460055463ffffffff91821693919260c01c83165b818310610fc2575b5050506001600160401b03809316911690818102918183041490151715610e265761271090041690565b9091938390610fd086610ce3565b905460039391841b1c168310610ff6575083610fef91610ac787610d27565b9190610f90565b9450610f98565b9190811015610d115760051b0190565b3563ffffffff81168103610d6b5790565b9190808252602080920192916000805b83821061103d57505050505090565b9091929394853563ffffffff811680910361019157815283019483019392916001019061102e56fe036b6384b5eca791c62761152d0c79bb0604c104a5fb6f4eb0703f3154bb3db0f652222313e28459528d920b65115c16c04f3efc82aaedc97be59f3f377c0d3fa2646970667358221220042d7b11462b438ea6bcaefb0d73a6211fc89dd912a4393ce242a355a65aba6364736f6c63430008140033","opcodes":"PUSH1 0x80 DUP1 PUSH1 0x40 MSTORE CALLVALUE PUSH2 0x8B JUMPI CALLER ISZERO PUSH2 0x75 JUMPI PUSH1 0x0 DUP1 SLOAD CALLER PUSH1 0x1 PUSH1 0x1 PUSH1 0xA0 SHL SUB NOT DUP3 AND DUP2 OR DUP4 SSTORE PUSH1 0x40 MLOAD SWAP3 SWAP1 SWAP2 PUSH1 0x1 PUSH1 0x1 PUSH1 0xA0 SHL SUB AND SWAP1 PUSH32 0x8BE0079C531659141344CD1FD0A4F28419497F9722A3DAAFE3B4186F6B6457E0 SWAP1 DUP1 LOG3 PUSH2 0x2710 PUSH4 0xFFFFFFFF NOT PUSH1 0x7 SLOAD AND OR PUSH1 0x7 SSTORE PUSH2 0x10DB SWAP1 DUP2 PUSH2 0x91 DUP3 CODECOPY RETURN JUMPDEST PUSH4 0x1E4FBDF7 PUSH1 0xE0 SHL DUP2 MSTORE PUSH1 0x0 PUSH1 0x4 DUP3 ADD MSTORE PUSH1 0x24 SWAP1 REVERT JUMPDEST PUSH1 0x0 DUP1 REVERT INVALID PUSH1 0x40 PUSH1 0x80 DUP2 MSTORE PUSH1 0x4 SWAP1 DUP2 CALLDATASIZE LT ISZERO PUSH2 0x15 JUMPI PUSH1 0x0 DUP1 REVERT JUMPDEST PUSH1 0x0 SWAP2 DUP3 CALLDATALOAD PUSH1 0xE0 SHR SWAP1 DUP2 PUSH4 0x729AB5D EQ PUSH2 0xCB7 JUMPI DUP2 PUSH4 0x2B2BD4F5 EQ PUSH2 0xB23 JUMPI DUP2 PUSH4 0x33FAAED5 EQ PUSH2 0x9F5 JUMPI DUP2 PUSH4 0x34B735A1 EQ PUSH2 0xAE1 JUMPI DUP2 PUSH4 0x3F84B4E9 EQ PUSH2 0xA40 JUMPI DUP2 PUSH4 0x59C4E08A EQ PUSH2 0x9F5 JUMPI DUP2 PUSH4 0x5C12CD4B EQ PUSH2 0x94C JUMPI DUP2 PUSH4 0x6F5DB0B5 EQ PUSH2 0x92E JUMPI DUP2 PUSH4 0x715018A6 EQ PUSH2 0x8D4 JUMPI DUP2 PUSH4 0x7A53CCF3 EQ PUSH2 0x40C JUMPI DUP2 PUSH4 0x8DA5CB5B EQ PUSH2 0x3E4 JUMPI DUP2 PUSH4 0x9C2167CF EQ PUSH2 0x3A2 JUMPI DUP2 PUSH4 0xD6C49B94 EQ PUSH2 0x25D JUMPI DUP2 PUSH4 0xE2EB41FF EQ PUSH2 0x1F8 JUMPI DUP2 PUSH4 0xE3CAD43C EQ PUSH2 0x1BA JUMPI DUP2 PUSH4 0xE4891825 EQ PUSH2 0x195 JUMPI DUP2 PUSH4 0xF2FDE38B EQ PUSH2 0x10A JUMPI POP PUSH4 0xF60CDCF6 EQ PUSH2 0xE9 JUMPI PUSH1 0x0 DUP1 REVERT JUMPDEST CALLVALUE PUSH2 0x106 JUMPI DUP2 PUSH1 0x3 NOT CALLDATASIZE ADD SLT PUSH2 0x106 JUMPI PUSH1 0x20 SWAP1 PUSH1 0x3 SLOAD SWAP1 MLOAD SWAP1 DUP2 MSTORE RETURN JUMPDEST POP DUP1 REVERT JUMPDEST SWAP1 POP CALLVALUE PUSH2 0x191 JUMPI PUSH1 0x20 CALLDATASIZE PUSH1 0x3 NOT ADD SLT PUSH2 0x191 JUMPI PUSH2 0x125 PUSH2 0xD55 JUMP JUMPDEST SWAP1 PUSH2 0x12E PUSH2 0xDB6 JUMP JUMPDEST PUSH1 0x1 PUSH1 0x1 PUSH1 0xA0 SHL SUB SWAP2 DUP3 AND SWAP3 DUP4 ISZERO PUSH2 0x17B JUMPI POP POP DUP3 SLOAD PUSH1 0x1 PUSH1 0x1 PUSH1 0xA0 SHL SUB NOT DUP2 AND DUP4 OR DUP5 SSTORE AND PUSH32 0x8BE0079C531659141344CD1FD0A4F28419497F9722A3DAAFE3B4186F6B6457E0 DUP4 DUP1 LOG3 DUP1 RETURN JUMPDEST MLOAD PUSH4 0x1E4FBDF7 PUSH1 0xE0 SHL DUP2 MSTORE SWAP1 DUP2 ADD DUP5 SWAP1 MSTORE PUSH1 0x24 SWAP1 REVERT JUMPDEST DUP3 DUP1 REVERT JUMPDEST POP POP CALLVALUE PUSH2 0x106 JUMPI DUP2 PUSH1 0x3 NOT CALLDATASIZE ADD SLT PUSH2 0x106 JUMPI PUSH1 0x20 SWAP1 PUSH4 0xFFFFFFFF PUSH1 0x7 SLOAD AND SWAP1 MLOAD SWAP1 DUP2 MSTORE RETURN JUMPDEST POP POP CALLVALUE PUSH2 0x106 JUMPI DUP1 PUSH1 0x3 NOT CALLDATASIZE ADD SLT PUSH2 0x106 JUMPI PUSH1 0x20 SWAP1 PUSH1 0x1 PUSH1 0x1 PUSH1 0x40 SHL SUB PUSH2 0x1F0 PUSH2 0x1E2 PUSH2 0xD55 JUMP JUMPDEST PUSH2 0x1EA PUSH2 0xD70 JUMP JUMPDEST SWAP1 PUSH2 0xF61 JUMP JUMPDEST SWAP2 MLOAD SWAP2 AND DUP2 MSTORE RETURN JUMPDEST POP POP CALLVALUE PUSH2 0x106 JUMPI PUSH1 0x20 CALLDATASIZE PUSH1 0x3 NOT ADD SLT PUSH2 0x106 JUMPI PUSH1 0x80 SWAP2 PUSH4 0xFFFFFFFF SWAP1 DUP3 SWAP1 PUSH1 0x1 PUSH1 0x1 PUSH1 0xA0 SHL SUB PUSH2 0x226 PUSH2 0xD55 JUMP JUMPDEST AND DUP2 MSTORE PUSH1 0x1 PUSH1 0x20 MSTORE KECCAK256 SLOAD DUP3 MLOAD SWAP3 PUSH1 0x1 PUSH1 0x1 PUSH1 0x40 SHL SUB DUP1 DUP4 AND DUP6 MSTORE DUP1 DUP4 DUP4 SHR AND PUSH1 0x20 DUP7 ADD MSTORE DUP3 DUP7 SHR AND SWAP1 DUP5 ADD MSTORE PUSH1 0xC0 SHR AND PUSH1 0x60 DUP3 ADD MSTORE RETURN JUMPDEST DUP4 DUP4 CALLVALUE PUSH2 0x106 JUMPI DUP1 PUSH1 0x3 NOT CALLDATASIZE ADD SLT PUSH2 0x106 JUMPI PUSH2 0x277 PUSH2 0xD55 JUMP JUMPDEST SWAP1 PUSH2 0x29A PUSH2 0x283 PUSH2 0xD70 JUMP JUMPDEST PUSH2 0x28B PUSH2 0xDB6 JUMP JUMPDEST PUSH2 0x294 DUP5 PUSH2 0xE3C JUMP JUMPDEST DUP4 PUSH2 0xF61 JUMP JUMPDEST PUSH1 0x1 PUSH1 0x1 PUSH1 0xA0 SHL SUB SWAP1 SWAP3 AND DUP1 DUP5 MSTORE PUSH1 0x1 PUSH1 0x20 MSTORE DUP2 DUP5 KECCAK256 DUP1 SLOAD SWAP2 SWAP4 SWAP2 PUSH1 0x1 PUSH1 0x1 PUSH1 0x40 SHL SUB SWAP2 SWAP1 DUP3 DUP2 AND DUP4 DUP6 AND ADD DUP4 DUP2 GT PUSH2 0x38F JUMPI DUP4 AND SWAP1 PUSH1 0x1 PUSH1 0x1 PUSH1 0x40 SHL SUB NOT AND OR SWAP1 SSTORE DUP4 DUP6 MSTORE PUSH1 0x1 PUSH1 0x20 MSTORE PUSH4 0xFFFFFFFF PUSH1 0x1 DUP2 PUSH1 0x64 DUP5 DUP8 DUP11 KECCAK256 SLOAD AND DIV AND ADD SWAP1 DUP2 GT PUSH2 0x37C JUMPI DUP5 DUP7 MSTORE PUSH1 0x1 PUSH1 0x20 MSTORE DUP4 DUP7 KECCAK256 DUP1 SLOAD PUSH4 0xFFFFFFFF PUSH1 0xC0 SHL NOT AND PUSH1 0xC0 SWAP3 SWAP1 SWAP3 SHL PUSH4 0xFFFFFFFF PUSH1 0xC0 SHL AND SWAP2 SWAP1 SWAP2 OR DUP2 SSTORE PUSH32 0x26AD6644C4DA54FBABDE5DDAE2B97235FB13980A3C42BF7B95C2194F613382FC SWAP4 SWAP3 SWAP2 PUSH2 0x376 SWAP2 SLOAD SWAP4 MLOAD PUSH1 0x1 PUSH1 0x1 PUSH1 0x40 SHL SUB SWAP4 DUP5 AND DUP2 MSTORE SWAP4 AND SWAP1 SWAP2 AND PUSH1 0x20 DUP4 ADD MSTORE DUP2 SWAP1 PUSH1 0x40 DUP3 ADD SWAP1 JUMP JUMPDEST SUB SWAP1 LOG2 DUP1 RETURN JUMPDEST PUSH4 0x4E487B71 PUSH1 0xE0 SHL DUP7 MSTORE PUSH1 0x11 DUP8 MSTORE PUSH1 0x24 DUP7 REVERT JUMPDEST PUSH4 0x4E487B71 PUSH1 0xE0 SHL DUP9 MSTORE PUSH1 0x11 DUP10 MSTORE PUSH1 0x24 DUP9 REVERT JUMPDEST SWAP1 POP CALLVALUE PUSH2 0x191 JUMPI PUSH1 0x20 CALLDATASIZE PUSH1 0x3 NOT ADD SLT PUSH2 0x191 JUMPI CALLDATALOAD SWAP2 PUSH1 0x6 SLOAD DUP4 LT ISZERO PUSH2 0x3E1 JUMPI POP PUSH4 0xFFFFFFFF PUSH2 0x3D2 PUSH1 0x20 SWAP4 PUSH2 0xD27 JUMP JUMPDEST SWAP3 SWAP1 SLOAD SWAP1 MLOAD SWAP3 PUSH1 0x3 SHL SHR AND DUP2 MSTORE RETURN JUMPDEST DUP1 REVERT JUMPDEST POP POP CALLVALUE PUSH2 0x106 JUMPI DUP2 PUSH1 0x3 NOT CALLDATASIZE ADD SLT PUSH2 0x106 JUMPI SWAP1 SLOAD SWAP1 MLOAD PUSH1 0x1 PUSH1 0x1 PUSH1 0xA0 SHL SUB SWAP1 SWAP2 AND DUP2 MSTORE PUSH1 0x20 SWAP1 RETURN JUMPDEST DUP4 SWAP2 POP CALLVALUE PUSH2 0x106 JUMPI DUP3 PUSH1 0x3 NOT CALLDATASIZE ADD SLT PUSH2 0x106 JUMPI PUSH1 0x1 PUSH1 0x1 PUSH1 0x40 SHL SUB SWAP3 DUP2 CALLDATALOAD DUP5 DUP2 GT PUSH2 0x8D0 JUMPI PUSH2 0x43E SWAP1 CALLDATASIZE SWAP1 DUP5 ADD PUSH2 0xD86 JUMP JUMPDEST SWAP3 SWAP1 PUSH1 0x24 SWAP1 DUP2 CALLDATALOAD DUP8 DUP2 GT PUSH2 0x8CC JUMPI PUSH2 0x459 SWAP1 CALLDATASIZE SWAP1 DUP6 ADD PUSH2 0xD86 JUMP JUMPDEST SWAP3 SWAP1 SWAP4 PUSH2 0x464 PUSH2 0xDB6 JUMP JUMPDEST DUP4 DUP8 SUB PUSH2 0x893 JUMPI PUSH1 0x1 JUMPDEST DUP8 DUP2 LT PUSH2 0x7E7 JUMPI POP DUP9 DUP8 GT PUSH2 0x69E JUMPI PUSH9 0x10000000000000000 DUP1 DUP9 GT PUSH2 0x6AF JUMPI PUSH1 0x5 SLOAD DUP9 PUSH1 0x5 SSTORE DUP1 DUP10 LT PUSH2 0x764 JUMPI JUMPDEST POP DUP4 SWAP10 PUSH1 0x5 DUP11 MSTORE DUP9 PUSH1 0x3 SHR SWAP11 DUP11 JUMPDEST DUP13 DUP2 LT PUSH2 0x707 JUMPI POP PUSH1 0x7 NOT SWAP12 DUP11 DUP14 AND DUP12 SUB DUP1 PUSH2 0x6C1 JUMPI JUMPDEST POP POP POP DUP6 GT PUSH2 0x6AF JUMPI DUP5 GT PUSH2 0x69E JUMPI POP POP PUSH1 0x6 SLOAD DUP3 PUSH1 0x6 SSTORE DUP1 DUP4 LT PUSH2 0x61B JUMPI JUMPDEST POP DUP3 SWAP7 PUSH1 0x6 DUP8 MSTORE DUP3 PUSH1 0x3 SHR SWAP1 DUP8 JUMPDEST DUP3 DUP2 LT PUSH2 0x5BE JUMPI POP DUP4 AND DUP4 SUB DUP1 PUSH2 0x552 JUMPI JUMPDEST DUP6 MLOAD DUP7 DUP2 MSTORE DUP9 SWAP1 PUSH32 0xBBA0E07AF16AF3A8BA217F7DB115F03CB51F1C23AD8AFBEA44CCE18A5DDE0396 SWAP1 DUP1 PUSH2 0x54C DUP10 DUP10 PUSH2 0x53E DUP5 DUP15 ADD DUP16 DUP13 PUSH2 0x101E JUMP JUMPDEST SWAP2 DUP5 DUP4 SUB PUSH1 0x20 DUP7 ADD MSTORE PUSH2 0x101E JUMP JUMPDEST SUB SWAP1 LOG1 DUP1 RETURN JUMPDEST SWAP8 DUP8 SWAP9 DUP9 JUMPDEST DUP2 DUP2 LT PUSH2 0x585 JUMPI POP POP POP PUSH1 0x0 DUP1 MLOAD PUSH1 0x20 PUSH2 0x1086 DUP4 CODECOPY DUP2 MLOAD SWAP2 MSTORE ADD SWAP7 SWAP1 SWAP7 SSTORE SWAP4 SWAP5 DUP6 SWAP5 SWAP1 PUSH2 0x53E PUSH2 0x54C PUSH2 0x502 JUMP JUMPDEST SWAP1 SWAP2 SWAP10 PUSH1 0x20 PUSH2 0x5B4 PUSH1 0x1 SWAP3 PUSH2 0x599 DUP15 PUSH2 0x100D JUMP JUMPDEST SWAP1 DUP6 PUSH1 0x2 SHL PUSH1 0x3 SHL SWAP2 PUSH4 0xFFFFFFFF DUP1 SWAP2 AND DUP4 SHL SWAP3 SHL NOT AND OR SWAP1 JUMP JUMPDEST SWAP12 ADD SWAP3 SWAP2 ADD PUSH2 0x557 JUMP JUMPDEST DUP9 DUP10 JUMPDEST PUSH1 0x8 DUP2 LT PUSH2 0x5E4 JUMPI POP PUSH1 0x0 DUP1 MLOAD PUSH1 0x20 PUSH2 0x1086 DUP4 CODECOPY DUP2 MLOAD SWAP2 MSTORE DUP3 ADD SSTORE PUSH1 0x1 ADD PUSH2 0x4F0 JUMP JUMPDEST SWAP11 SWAP1 PUSH1 0x20 PUSH2 0x612 DUP14 PUSH1 0x1 SWAP4 PUSH2 0x5F8 DUP7 PUSH2 0x100D JUMP JUMPDEST SWAP2 PUSH1 0x2 SHL PUSH1 0x3 SHL SWAP2 PUSH4 0xFFFFFFFF DUP1 SWAP2 AND DUP4 SHL SWAP3 SHL NOT AND OR SWAP1 JUMP JUMPDEST SWAP3 ADD SWAP12 ADD PUSH2 0x5C1 JUMP JUMPDEST PUSH1 0x7 DUP4 ADD PUSH1 0x3 SHR PUSH1 0x7 PUSH1 0x0 DUP1 MLOAD PUSH1 0x20 PUSH2 0x1086 DUP4 CODECOPY DUP2 MLOAD SWAP2 MSTORE SWAP3 ADD PUSH1 0x3 SHR DUP3 ADD SWAP2 PUSH1 0x1C DUP6 PUSH1 0x2 SHL AND DUP1 PUSH2 0x663 JUMPI JUMPDEST POP ADD JUMPDEST DUP2 DUP2 LT PUSH2 0x658 JUMPI POP PUSH2 0x4E2 JUMP JUMPDEST DUP8 DUP2 SSTORE PUSH1 0x1 ADD PUSH2 0x64B JUMP JUMPDEST PUSH32 0xF652222313E28459528D920B65115C16C04F3EFC82AAEDC97BE59F3F377C0D3E DUP4 ADD SWAP1 DUP2 SLOAD SWAP1 PUSH1 0x0 NOT SWAP1 PUSH1 0x20 SUB PUSH1 0x3 SHL SHR AND SWAP1 SSTORE DUP11 PUSH2 0x648 JUMP JUMPDEST PUSH4 0x4E487B71 PUSH1 0xE0 SHL DUP9 MSTORE PUSH1 0x41 SWAP1 MSTORE DUP7 REVERT JUMPDEST POP PUSH4 0x4E487B71 PUSH1 0xE0 SHL DUP9 MSTORE PUSH1 0x41 SWAP1 MSTORE DUP7 REVERT JUMPDEST SWAP2 DUP13 SWAP3 DUP14 JUMPDEST DUP2 DUP2 LT PUSH2 0x6E9 JUMPI POP POP POP PUSH1 0x0 DUP1 MLOAD PUSH1 0x20 PUSH2 0x1066 DUP4 CODECOPY DUP2 MLOAD SWAP2 MSTORE ADD SSTORE DUP12 DUP1 DUP1 PUSH2 0x4C2 JUMP JUMPDEST SWAP1 SWAP2 SWAP4 PUSH1 0x20 PUSH2 0x6FD PUSH1 0x1 SWAP3 PUSH2 0x599 DUP9 PUSH2 0x100D JUMP JUMPDEST SWAP6 ADD SWAP3 SWAP2 ADD PUSH2 0x6C6 JUMP JUMPDEST DUP12 DUP13 JUMPDEST PUSH1 0x8 DUP2 LT PUSH2 0x72D JUMPI POP PUSH1 0x0 DUP1 MLOAD PUSH1 0x20 PUSH2 0x1066 DUP4 CODECOPY DUP2 MLOAD SWAP2 MSTORE DUP3 ADD SSTORE PUSH1 0x1 ADD PUSH2 0x4AB JUMP JUMPDEST SWAP3 SWAP1 PUSH1 0x20 PUSH2 0x75B PUSH1 0x1 SWAP3 PUSH2 0x740 DUP6 PUSH2 0x100D JUMP JUMPDEST SWAP1 DUP8 PUSH1 0x2 SHL PUSH1 0x3 SHL SWAP2 PUSH4 0xFFFFFFFF DUP1 SWAP2 AND DUP4 SHL SWAP3 SHL NOT AND OR SWAP1 JUMP JUMPDEST SWAP3 ADD SWAP4 ADD PUSH2 0x70A JUMP JUMPDEST PUSH1 0x7 DUP10 ADD PUSH1 0x3 SHR PUSH1 0x7 PUSH1 0x0 DUP1 MLOAD PUSH1 0x20 PUSH2 0x1066 DUP4 CODECOPY DUP2 MLOAD SWAP2 MSTORE SWAP3 ADD PUSH1 0x3 SHR DUP3 ADD SWAP2 PUSH1 0x1C DUP12 PUSH1 0x2 SHL AND DUP1 PUSH2 0x7AC JUMPI JUMPDEST POP ADD JUMPDEST DUP2 DUP2 LT PUSH2 0x7A1 JUMPI POP PUSH2 0x49D JUMP JUMPDEST DUP11 DUP2 SSTORE PUSH1 0x1 ADD PUSH2 0x794 JUMP JUMPDEST PUSH32 0x36B6384B5ECA791C62761152D0C79BB0604C104A5FB6F4EB0703F3154BB3DAF DUP4 ADD SWAP1 DUP2 SLOAD SWAP1 PUSH1 0x0 NOT SWAP1 PUSH1 0x20 SUB PUSH1 0x3 SHL SHR AND SWAP1 SSTORE DUP14 PUSH2 0x791 JUMP JUMPDEST PUSH2 0x7FA PUSH2 0x7F5 DUP3 DUP11 DUP8 PUSH2 0xFFD JUMP JUMPDEST PUSH2 0x100D JUMP JUMPDEST PUSH1 0x0 NOT DUP3 ADD DUP3 DUP2 GT PUSH2 0x881 JUMPI PUSH2 0x7F5 SWAP1 PUSH2 0x81C PUSH4 0xFFFFFFFF SWAP3 DUP4 SWAP3 DUP14 DUP11 PUSH2 0xFFD JUMP JUMPDEST AND SWAP2 AND GT ISZERO PUSH2 0x833 JUMPI PUSH2 0x82E SWAP1 PUSH2 0xE17 JUMP JUMPDEST PUSH2 0x46E JUMP JUMPDEST POP PUSH1 0x23 PUSH1 0x84 SWAP3 PUSH1 0x20 DUP9 MLOAD SWAP4 PUSH3 0x461BCD PUSH1 0xE5 SHL DUP6 MSTORE DUP5 ADD MSTORE DUP3 ADD MSTORE PUSH32 0x5468726573686F6C6473206D75737420626520736F7274656420617363656E64 PUSH1 0x44 DUP3 ADD MSTORE PUSH3 0x696E67 PUSH1 0xE8 SHL PUSH1 0x64 DUP3 ADD MSTORE REVERT JUMPDEST PUSH4 0x4E487B71 PUSH1 0xE0 SHL DUP12 MSTORE PUSH1 0x11 DUP5 MSTORE DUP5 DUP12 REVERT JUMPDEST PUSH1 0x15 PUSH1 0x64 SWAP3 PUSH1 0x20 DUP9 MLOAD SWAP4 PUSH3 0x461BCD PUSH1 0xE5 SHL DUP6 MSTORE DUP5 ADD MSTORE DUP3 ADD MSTORE PUSH21 0x82E4E4C2F240D8CADCCEE8D040DAD2E6DAC2E8C6D PUSH1 0x5B SHL PUSH1 0x44 DUP3 ADD MSTORE REVERT JUMPDEST DUP7 DUP1 REVERT JUMPDEST DUP4 DUP1 REVERT JUMPDEST DUP4 CALLVALUE PUSH2 0x3E1 JUMPI DUP1 PUSH1 0x3 NOT CALLDATASIZE ADD SLT PUSH2 0x3E1 JUMPI PUSH2 0x8ED PUSH2 0xDB6 JUMP JUMPDEST DUP1 SLOAD PUSH1 0x1 PUSH1 0x1 PUSH1 0xA0 SHL SUB NOT DUP2 AND DUP3 SSTORE DUP2 SWAP1 PUSH1 0x1 PUSH1 0x1 PUSH1 0xA0 SHL SUB AND PUSH32 0x8BE0079C531659141344CD1FD0A4F28419497F9722A3DAAFE3B4186F6B6457E0 DUP3 DUP1 LOG3 DUP1 RETURN JUMPDEST SWAP1 POP CALLVALUE PUSH2 0x191 JUMPI DUP3 PUSH1 0x3 NOT CALLDATASIZE ADD SLT PUSH2 0x191 JUMPI PUSH1 0x20 SWAP3 POP SLOAD SWAP1 MLOAD SWAP1 DUP2 MSTORE RETURN JUMPDEST POP POP CALLVALUE PUSH2 0x106 JUMPI PUSH1 0x20 CALLDATASIZE PUSH1 0x3 NOT ADD SLT PUSH2 0x106 JUMPI DUP1 PUSH1 0x80 SWAP3 PUSH2 0x96B PUSH2 0xD55 JUMP JUMPDEST DUP2 PUSH1 0x60 PUSH2 0x976 PUSH2 0xDE2 JUMP JUMPDEST DUP3 DUP2 MSTORE DUP3 PUSH1 0x20 DUP3 ADD MSTORE DUP3 DUP7 DUP3 ADD MSTORE ADD MSTORE PUSH1 0x1 DUP1 PUSH1 0xA0 SHL SUB AND DUP2 MSTORE PUSH1 0x1 PUSH1 0x20 MSTORE KECCAK256 PUSH2 0x99E PUSH2 0xDE2 JUMP JUMPDEST SWAP1 SLOAD SWAP1 PUSH1 0x1 PUSH1 0x1 PUSH1 0x40 SHL SUB SWAP3 DUP4 DUP4 AND SWAP4 DUP5 DUP4 MSTORE PUSH1 0x20 DUP4 ADD SWAP3 DUP2 DUP6 DUP5 SHR AND DUP5 MSTORE DUP2 PUSH1 0x60 DUP5 DUP4 ADD SWAP3 DUP3 DUP9 DUP12 SHR AND DUP5 MSTORE ADD SWAP5 PUSH4 0xFFFFFFFF DUP1 SWAP8 PUSH1 0xC0 SHR AND DUP7 MSTORE DUP5 MLOAD SWAP8 DUP9 MSTORE MLOAD AND PUSH1 0x20 DUP8 ADD MSTORE MLOAD AND SWAP1 DUP5 ADD MSTORE MLOAD AND PUSH1 0x60 DUP3 ADD MSTORE RETURN JUMPDEST POP POP CALLVALUE PUSH2 0x106 JUMPI DUP1 PUSH1 0x3 NOT CALLDATASIZE ADD SLT PUSH2 0x106 JUMPI PUSH1 0x20 SWAP2 PUSH1 0x1 PUSH1 0x1 PUSH1 0x40 SHL SUB SWAP1 DUP3 SWAP1 PUSH1 0x1 PUSH1 0x1 PUSH1 0xA0 SHL SUB PUSH2 0xA25 PUSH2 0xD55 JUMP JUMPDEST AND DUP2 MSTORE PUSH1 0x2 DUP6 MSTORE DUP2 DUP2 KECCAK256 PUSH1 0x24 CALLDATALOAD DUP3 MSTORE DUP6 MSTORE KECCAK256 SLOAD AND SWAP1 MLOAD SWAP1 DUP2 MSTORE RETURN JUMPDEST DUP3 DUP5 CALLVALUE PUSH2 0x3E1 JUMPI PUSH1 0x20 CALLDATASIZE PUSH1 0x3 NOT ADD SLT PUSH2 0x3E1 JUMPI PUSH1 0x1 PUSH1 0x1 PUSH1 0xA0 SHL SUB PUSH2 0xA63 PUSH2 0xD55 JUMP JUMPDEST AND DUP2 MSTORE PUSH1 0x1 PUSH1 0x20 MSTORE PUSH4 0xFFFFFFFF DUP1 DUP4 DUP4 KECCAK256 SLOAD PUSH1 0xC0 SHR AND DUP2 PUSH1 0x7 SLOAD AND SWAP3 SWAP1 PUSH1 0x5 SLOAD SWAP1 JUMPDEST DUP2 DUP4 LT PUSH2 0xA9A JUMPI JUMPDEST POP POP POP PUSH1 0x20 SWAP3 MLOAD SWAP2 AND DUP2 MSTORE RETURN JUMPDEST SWAP1 SWAP2 SWAP4 DUP4 SWAP1 PUSH2 0xAA8 DUP7 PUSH2 0xCE3 JUMP JUMPDEST SWAP1 SLOAD PUSH1 0x3 SWAP4 SWAP2 DUP5 SHL SHR AND DUP4 LT PUSH2 0xADA JUMPI POP DUP4 PUSH2 0xAD3 SWAP2 PUSH2 0xAC7 DUP8 PUSH2 0xD27 JUMP JUMPDEST SWAP1 SLOAD SWAP2 SHL SHR AND SWAP5 PUSH2 0xE17 JUMP JUMPDEST SWAP2 SWAP1 PUSH2 0xA85 JUMP JUMPDEST SWAP5 POP PUSH2 0xA8D JUMP JUMPDEST POP POP CALLVALUE PUSH2 0x106 JUMPI PUSH1 0x20 CALLDATASIZE PUSH1 0x3 NOT ADD SLT PUSH2 0x106 JUMPI PUSH1 0x20 SWAP2 PUSH4 0xFFFFFFFF SWAP1 DUP3 SWAP1 PUSH1 0x1 PUSH1 0x1 PUSH1 0xA0 SHL SUB PUSH2 0xB0F PUSH2 0xD55 JUMP JUMPDEST AND DUP2 MSTORE PUSH1 0x1 DUP6 MSTORE KECCAK256 SLOAD PUSH1 0xC0 SHR AND SWAP1 MLOAD SWAP1 DUP2 MSTORE RETURN JUMPDEST DUP4 DUP4 CALLVALUE PUSH2 0x106 JUMPI PUSH1 0x80 CALLDATASIZE PUSH1 0x3 NOT ADD SLT PUSH2 0x106 JUMPI PUSH2 0xB3E PUSH2 0xD55 JUMP JUMPDEST SWAP1 PUSH1 0x24 CALLDATALOAD SWAP2 PUSH1 0x44 CALLDATALOAD PUSH1 0x1 PUSH1 0x1 PUSH1 0x40 SHL SUB SWAP3 DUP4 DUP3 AND DUP1 DUP4 SUB PUSH2 0x8CC JUMPI PUSH1 0x64 CALLDATALOAD SWAP4 DUP6 DUP6 AND DUP6 SUB PUSH2 0xCB3 JUMPI PUSH2 0xB6E PUSH2 0xDB6 JUMP JUMPDEST PUSH2 0xB77 DUP2 PUSH2 0xE3C JUMP JUMPDEST PUSH1 0x1 PUSH1 0x1 PUSH1 0xA0 SHL SUB AND DUP1 DUP9 MSTORE PUSH1 0x1 PUSH1 0x20 SWAP1 DUP2 MSTORE DUP4 DUP10 KECCAK256 DUP1 SLOAD SWAP3 SWAP8 SWAP2 SWAP3 DUP6 SHR DUP3 AND DUP1 DUP4 EQ PUSH2 0xCA0 JUMPI SWAP4 PUSH32 0x3763B7BF728F1FE6299325DC073989CC229F60856FF7C4ED0DA2AC7267D5B942 SWAP8 SWAP7 SWAP6 SWAP4 DUP11 SWAP4 DUP14 PUSH2 0xBFA DUP13 SWAP6 PUSH1 0x1 PUSH2 0xC46 SWAP11 ADD PUSH8 0xFFFFFFFFFFFFFFFF PUSH1 0x40 SHL DUP3 SLOAD SWAP2 PUSH1 0x40 SHL AND SWAP1 PUSH8 0xFFFFFFFFFFFFFFFF PUSH1 0x40 SHL NOT AND OR SWAP1 SSTORE JUMP JUMPDEST PUSH2 0xC04 DUP2 SLOAD PUSH2 0xE17 JUMP JUMPDEST SWAP1 SSTORE DUP4 DUP14 MSTORE PUSH1 0x2 DUP3 MSTORE DUP6 DUP14 KECCAK256 DUP6 DUP15 MSTORE DUP3 MSTORE DUP6 DUP14 KECCAK256 SLOAD AND DUP3 GT PUSH2 0xC4C JUMPI JUMPDEST POP POP SWAP2 MLOAD PUSH1 0x1 PUSH1 0x1 PUSH1 0x40 SHL SUB SWAP5 DUP6 AND DUP2 MSTORE SWAP5 SWAP1 SWAP4 AND PUSH1 0x20 DUP6 ADD MSTORE POP DUP3 SWAP2 POP PUSH1 0x40 DUP3 ADD SWAP1 JUMP JUMPDEST SUB SWAP1 LOG3 DUP1 RETURN JUMPDEST DUP3 DUP13 MSTORE PUSH1 0x2 DUP2 MSTORE DUP5 DUP13 KECCAK256 DUP5 DUP14 MSTORE DUP2 MSTORE DUP5 DUP13 KECCAK256 DUP1 SLOAD PUSH8 0xFFFFFFFFFFFFFFFF NOT AND DUP4 OR SWAP1 SSTORE DUP5 MLOAD SWAP2 DUP3 MSTORE PUSH32 0x9F8CB80FE1A25466C66E59C049FECB615CED062A7B54D94E548E81BDB909866E SWAP2 LOG3 DUP7 DUP7 DUP11 DUP1 PUSH2 0xC21 JUMP JUMPDEST PUSH4 0x4E487B71 PUSH1 0xE0 SHL DUP12 MSTORE PUSH1 0x11 DUP13 MSTORE PUSH1 0x24 DUP12 REVERT JUMPDEST DUP8 DUP1 REVERT JUMPDEST SWAP1 POP CALLVALUE PUSH2 0x191 JUMPI PUSH1 0x20 CALLDATASIZE PUSH1 0x3 NOT ADD SLT PUSH2 0x191 JUMPI CALLDATALOAD SWAP2 PUSH1 0x5 SLOAD DUP4 LT ISZERO PUSH2 0x3E1 JUMPI POP PUSH4 0xFFFFFFFF PUSH2 0x3D2 PUSH1 0x20 SWAP4 JUMPDEST SWAP1 PUSH1 0x5 SLOAD DUP3 LT ISZERO PUSH2 0xD11 JUMPI PUSH1 0x5 PUSH1 0x0 MSTORE PUSH1 0x1C DUP3 PUSH1 0x3 SHR PUSH1 0x0 DUP1 MLOAD PUSH1 0x20 PUSH2 0x1066 DUP4 CODECOPY DUP2 MLOAD SWAP2 MSTORE ADD SWAP3 PUSH1 0x2 SHL AND SWAP1 JUMP JUMPDEST PUSH4 0x4E487B71 PUSH1 0xE0 SHL PUSH1 0x0 MSTORE PUSH1 0x32 PUSH1 0x4 MSTORE PUSH1 0x24 PUSH1 0x0 REVERT JUMPDEST SWAP1 PUSH1 0x6 SLOAD DUP3 LT ISZERO PUSH2 0xD11 JUMPI PUSH1 0x6 PUSH1 0x0 MSTORE PUSH1 0x1C DUP3 PUSH1 0x3 SHR PUSH1 0x0 DUP1 MLOAD PUSH1 0x20 PUSH2 0x1086 DUP4 CODECOPY DUP2 MLOAD SWAP2 MSTORE ADD SWAP3 PUSH1 0x2 SHL AND SWAP1 JUMP JUMPDEST PUSH1 0x4 CALLDATALOAD SWAP1 PUSH1 0x1 PUSH1 0x1 PUSH1 0xA0 SHL SUB DUP3 AND DUP3 SUB PUSH2 0xD6B JUMPI JUMP JUMPDEST PUSH1 0x0 DUP1 REVERT JUMPDEST PUSH1 0x24 CALLDATALOAD SWAP1 PUSH1 0x1 PUSH1 0x1 PUSH1 0x40 SHL SUB DUP3 AND DUP3 SUB PUSH2 0xD6B JUMPI JUMP JUMPDEST SWAP2 DUP2 PUSH1 0x1F DUP5 ADD SLT ISZERO PUSH2 0xD6B JUMPI DUP3 CALLDATALOAD SWAP2 PUSH1 0x1 PUSH1 0x1 PUSH1 0x40 SHL SUB DUP4 GT PUSH2 0xD6B JUMPI PUSH1 0x20 DUP1 DUP6 ADD SWAP5 DUP5 PUSH1 0x5 SHL ADD ADD GT PUSH2 0xD6B JUMPI JUMP JUMPDEST PUSH1 0x0 SLOAD PUSH1 0x1 PUSH1 0x1 PUSH1 0xA0 SHL SUB AND CALLER SUB PUSH2 0xDCA JUMPI JUMP JUMPDEST PUSH1 0x40 MLOAD PUSH4 0x118CDAA7 PUSH1 0xE0 SHL DUP2 MSTORE CALLER PUSH1 0x4 DUP3 ADD MSTORE PUSH1 0x24 SWAP1 REVERT JUMPDEST PUSH1 0x40 MLOAD SWAP1 PUSH1 0x80 DUP3 ADD DUP3 DUP2 LT PUSH1 0x1 PUSH1 0x1 PUSH1 0x40 SHL SUB DUP3 GT OR PUSH2 0xE01 JUMPI PUSH1 0x40 MSTORE JUMP JUMPDEST PUSH4 0x4E487B71 PUSH1 0xE0 SHL PUSH1 0x0 MSTORE PUSH1 0x41 PUSH1 0x4 MSTORE PUSH1 0x24 PUSH1 0x0 REVERT JUMPDEST PUSH1 0x0 NOT DUP2 EQ PUSH2 0xE26 JUMPI PUSH1 0x1 ADD SWAP1 JUMP JUMPDEST PUSH4 0x4E487B71 PUSH1 0xE0 SHL PUSH1 0x0 MSTORE PUSH1 0x11 PUSH1 0x4 MSTORE PUSH1 0x24 PUSH1 0x0 REVERT JUMPDEST PUSH1 0x1 PUSH1 0x1 PUSH1 0xA0 SHL SUB AND PUSH1 0x0 DUP2 DUP2 MSTORE PUSH1 0x1 PUSH1 0x20 MSTORE PUSH1 0x40 DUP2 KECCAK256 SLOAD PUSH1 0x1 PUSH1 0x1 PUSH1 0x40 SHL SUB SWAP1 PUSH1 0x80 SHR DUP2 AND ISZERO PUSH2 0xE6C JUMPI POP POP POP JUMP JUMPDEST PUSH32 0xBFA0F09DC9C74D4DD4141F6A0415DB1CCEA289A74AC79E166C4B3F51B5AFAE5C SWAP2 PUSH2 0xF4A DUP3 PUSH4 0xFFFFFFFF DUP7 PUSH1 0x20 SWAP6 TIMESTAMP AND SWAP5 PUSH2 0xF0A PUSH2 0xEA9 PUSH2 0xDE2 JUMP JUMPDEST SWAP5 DUP3 DUP7 MSTORE DUP9 DUP7 ADD DUP4 DUP2 MSTORE DUP2 PUSH1 0x40 DUP1 DUP10 ADD SWAP6 DUP12 DUP8 MSTORE PUSH1 0x60 DUP11 ADD SWAP8 PUSH1 0x1 DUP10 MSTORE DUP2 MSTORE PUSH1 0x1 DUP14 MSTORE KECCAK256 SWAP8 MLOAD AND PUSH1 0x1 PUSH1 0x1 PUSH1 0x40 SHL SUB NOT DUP9 SLOAD AND OR DUP8 SSTORE MLOAD AND DUP6 SWAP1 PUSH8 0xFFFFFFFFFFFFFFFF PUSH1 0x40 SHL DUP3 SLOAD SWAP2 PUSH1 0x40 SHL AND SWAP1 PUSH8 0xFFFFFFFFFFFFFFFF PUSH1 0x40 SHL NOT AND OR SWAP1 SSTORE JUMP JUMPDEST MLOAD DUP4 SLOAD SWAP2 MLOAD PUSH12 0xFFFFFFFFFFFFFFFFFFFFFFFF PUSH1 0x80 SHL NOT SWAP1 SWAP3 AND PUSH1 0x80 SWAP2 SWAP1 SWAP2 SHL PUSH8 0xFFFFFFFFFFFFFFFF PUSH1 0x80 SHL AND OR SWAP2 AND PUSH1 0xC0 SHL PUSH4 0xFFFFFFFF PUSH1 0xC0 SHL AND OR SWAP1 SSTORE JUMP JUMPDEST PUSH2 0xF55 PUSH1 0x3 SLOAD PUSH2 0xE17 JUMP JUMPDEST PUSH1 0x3 SSTORE PUSH1 0x40 MLOAD SWAP1 DUP2 MSTORE LOG2 JUMP JUMPDEST PUSH1 0x1 PUSH1 0x1 PUSH1 0xA0 SHL SUB AND PUSH1 0x0 SWAP1 DUP2 MSTORE PUSH1 0x1 PUSH1 0x20 MSTORE PUSH1 0x40 DUP2 KECCAK256 SLOAD PUSH1 0x7 SLOAD PUSH1 0x5 SLOAD PUSH4 0xFFFFFFFF SWAP2 DUP3 AND SWAP4 SWAP2 SWAP3 PUSH1 0xC0 SHR DUP4 AND JUMPDEST DUP2 DUP4 LT PUSH2 0xFC2 JUMPI JUMPDEST POP POP POP PUSH1 0x1 PUSH1 0x1 PUSH1 0x40 SHL SUB DUP1 SWAP4 AND SWAP2 AND SWAP1 DUP2 DUP2 MUL SWAP2 DUP2 DUP4 DIV EQ SWAP1 ISZERO OR ISZERO PUSH2 0xE26 JUMPI PUSH2 0x2710 SWAP1 DIV AND SWAP1 JUMP JUMPDEST SWAP1 SWAP2 SWAP4 DUP4 SWAP1 PUSH2 0xFD0 DUP7 PUSH2 0xCE3 JUMP JUMPDEST SWAP1 SLOAD PUSH1 0x3 SWAP4 SWAP2 DUP5 SHL SHR AND DUP4 LT PUSH2 0xFF6 JUMPI POP DUP4 PUSH2 0xFEF SWAP2 PUSH2 0xAC7 DUP8 PUSH2 0xD27 JUMP JUMPDEST SWAP2 SWAP1 PUSH2 0xF90 JUMP JUMPDEST SWAP5 POP PUSH2 0xF98 JUMP JUMPDEST SWAP2 SWAP1 DUP2 LT ISZERO PUSH2 0xD11 JUMPI PUSH1 0x5 SHL ADD SWAP1 JUMP JUMPDEST CALLDATALOAD PUSH4 0xFFFFFFFF DUP2 AND DUP2 SUB PUSH2 0xD6B JUMPI SWAP1 JUMP JUMPDEST SWAP2 SWAP1 DUP1 DUP3 MSTORE PUSH1 0x20 DUP1 SWAP3 ADD SWAP3 SWAP2 PUSH1 0x0 DUP1 JUMPDEST DUP4 DUP3 LT PUSH2 0x103D JUMPI POP POP POP POP POP SWAP1 JUMP JUMPDEST SWAP1 SWAP2 SWAP3 SWAP4 SWAP5 DUP6 CALLDATALOAD PUSH4 0xFFFFFFFF DUP2 AND DUP1 SWAP2 SUB PUSH2 0x191 JUMPI DUP2 MSTORE DUP4 ADD SWAP5 DUP4 ADD SWAP4 SWAP3 SWAP2 PUSH1 0x1 ADD SWAP1 PUSH2 0x102E JUMP INVALID SUB PUSH12 0x6384B5ECA791C62761152D0C PUSH26 0xBB0604C104A5FB6F4EB0703F3154BB3DB0F652222313E2845952 DUP14 SWAP3 SIGNEXTEND PUSH6 0x115C16C04F3E 0xFC DUP3 0xAA 0xED 0xC9 PUSH28 0xE59F3F377C0D3FA2646970667358221220042D7B11462B438EA6BCAE 0xFB 0xD PUSH20 0xA6211FC89DD912A4393CE242A355A65ABA636473 PUSH16 0x6C634300081400330000000000000000 "},"methodIdentifiers":{"addXP(address,uint64)":"d6c49b94","applyMultiplier(address,uint64)":"e3cad43c","configureMultipliers(uint32[],uint32[])":"7a53ccf3","defaultMultiplier()":"e4891825","gameScores(address,bytes32)":"59c4e08a","getHighScore(address,bytes32)":"33faaed5","getPlayer(address)":"5c12cd4b","getPlayerLevel(address)":"34b735a1","getPlayerMultiplier(address)":"3f84b4e9","multiplierThresholds(uint256)":"0729ab5d","multiplierValues(uint256)":"9c2167cf","owner()":"8da5cb5b","players(address)":"e2eb41ff","recordSession(address,bytes32,uint64,uint64)":"2b2bd4f5","renounceOwnership()":"715018a6","totalPlayers()":"f60cdcf6","totalSessions()":"6f5db0b5","transferOwnership(address)":"f2fde38b"}}}}}