{"games/FlappyBird.sol":{"FlappyBird":{"abi":[{"anonymous":false,"inputs":[{"indexed":false,"internalType":"uint256","name":"score","type":"uint256"},{"indexed":false,"internalType":"bool","name":"isValid","type":"bool"}],"name":"ScoreValidated","type":"event"},{"inputs":[],"name":"GAME_NAME","outputs":[{"internalType":"string","name":"","type":"string"}],"stateMutability":"view","type":"function"},{"inputs":[],"name":"GAME_VERSION","outputs":[{"internalType":"string","name":"","type":"string"}],"stateMutability":"view","type":"function"},{"inputs":[],"name":"MAX_PIPES","outputs":[{"internalType":"uint256","name":"","type":"uint256"}],"stateMutability":"view","type":"function"},{"inputs":[],"name":"MIN_SCORE","outputs":[{"internalType":"uint256","name":"","type":"uint256"}],"stateMutability":"view","type":"function"},{"inputs":[{"internalType":"uint256","name":"score","type":"uint256"}],"name":"checkScore","outputs":[{"internalType":"bool","name":"isValid","type":"bool"},{"internalType":"string","name":"reason","type":"string"}],"stateMutability":"pure","type":"function"},{"inputs":[{"internalType":"uint256","name":"score","type":"uint256"}],"name":"getDifficultyRating","outputs":[{"internalType":"uint256","name":"difficulty","type":"uint256"}],"stateMutability":"pure","type":"function"},{"inputs":[],"name":"getGameMetadata","outputs":[{"internalType":"string","name":"name","type":"string"},{"internalType":"string","name":"version","type":"string"},{"internalType":"uint256","name":"maxScore","type":"uint256"}],"stateMutability":"pure","type":"function"},{"inputs":[],"name":"getMaxScore","outputs":[{"internalType":"uint256","name":"","type":"uint256"}],"stateMutability":"pure","type":"function"},{"inputs":[{"internalType":"uint256","name":"score","type":"uint256"}],"name":"validateScore","outputs":[{"internalType":"bool","name":"isValid","type":"bool"}],"stateMutability":"pure","type":"function"}],"evm":{"bytecode":{"linkReferences":{},"object":"60808060405234610016576103ed908161001c8239f35b600080fdfe604060808152600436101561001357600080fd5b600090813560e01c8063086bdbb1146102095780630f68a03c146100ae578063105427d2146101ca5780633bcd5c82146101a35780634021f3c61461012c57806340b89270146101125780635aed7802146100ca578063dc248b99146100ae5763e865bc251461008257600080fd5b346100aa5760203660031901126100aa576020906100a16004356102e5565b90519015158152f35b5080fd5b50346100aa57816003193601126100aa57602090516101f48152f35b50346100aa57816003193601126100aa5761010e906100e7610281565b906a119b185c1c1e48109a5c9960aa1b6020830152519182916020835260208301906102a5565b0390f35b50346100aa57816003193601126100aa5751908152602090f35b50346100aa57816003193601126100aa5761018d90610149610281565b906a119b185c1c1e48109a5c9960aa1b60208301526101f461019b61016c610247565b640312e302e360dc1b602082015283519586956060875260608701906102a5565b9085820360208701526102a5565b918301520390f35b50346100aa5760203660031901126100aa576020906101c360043561036e565b9051908152f35b509034610206576020366003190112610206575061010e6101ec6004356102f7565b8392919251938493151584528060208501528301906102a5565b80fd5b50346100aa57816003193601126100aa5761010e90610226610247565b90640312e302e360dc1b6020830152519182916020835260208301906102a5565b604051906040820182811067ffffffffffffffff82111761026b5760405260058252565b634e487b7160e01b600052604160045260246000fd5b604051906040820182811067ffffffffffffffff82111761026b57604052600b8252565b919082519283825260005b8481106102d1575050826000602080949584010152601f8019910116010190565b6020818301810151848301820152016102b0565b6101f4106102f257600190565b600090565b6101f4106103215760019061030a610281565b6a56616c69642073636f726560a81b602082015290565b6000906040516040810181811067ffffffffffffffff82111761026b57604052601b81527f53636f72652065786365656473206d6178696d756d2070697065730000000000602082015290565b600a81106103b157601981106103ab57603281106103a5576064811061039f5760fa1161039a57606490565b605a90565b50604b90565b50603290565b50601990565b50600a9056fea2646970667358221220ccad2d795f64465edeeb2f16aa4acd4549403517364826b1804df67a3868319164736f6c63430008140033","opcodes":"PUSH1 0x80 DUP1 PUSH1 0x40 MSTORE CALLVALUE PUSH2 0x16 JUMPI PUSH2 0x3ED SWAP1 DUP2 PUSH2 0x1C DUP3 CODECOPY RETURN JUMPDEST PUSH1 0x0 DUP1 REVERT INVALID PUSH1 0x40 PUSH1 0x80 DUP2 MSTORE PUSH1 0x4 CALLDATASIZE LT ISZERO PUSH2 0x13 JUMPI PUSH1 0x0 DUP1 REVERT JUMPDEST PUSH1 0x0 SWAP1 DUP2 CALLDATALOAD PUSH1 0xE0 SHR DUP1 PUSH4 0x86BDBB1 EQ PUSH2 0x209 JUMPI DUP1 PUSH4 0xF68A03C EQ PUSH2 0xAE JUMPI DUP1 PUSH4 0x105427D2 EQ PUSH2 0x1CA JUMPI DUP1 PUSH4 0x3BCD5C82 EQ PUSH2 0x1A3 JUMPI DUP1 PUSH4 0x4021F3C6 EQ PUSH2 0x12C JUMPI DUP1 PUSH4 0x40B89270 EQ PUSH2 0x112 JUMPI DUP1 PUSH4 0x5AED7802 EQ PUSH2 0xCA JUMPI DUP1 PUSH4 0xDC248B99 EQ PUSH2 0xAE JUMPI PUSH4 0xE865BC25 EQ PUSH2 0x82 JUMPI PUSH1 0x0 DUP1 REVERT JUMPDEST CALLVALUE PUSH2 0xAA JUMPI PUSH1 0x20 CALLDATASIZE PUSH1 0x3 NOT ADD SLT PUSH2 0xAA JUMPI PUSH1 0x20 SWAP1 PUSH2 0xA1 PUSH1 0x4 CALLDATALOAD PUSH2 0x2E5 JUMP JUMPDEST SWAP1 MLOAD SWAP1 ISZERO ISZERO DUP2 MSTORE RETURN JUMPDEST POP DUP1 REVERT JUMPDEST POP CALLVALUE PUSH2 0xAA JUMPI DUP2 PUSH1 0x3 NOT CALLDATASIZE ADD SLT PUSH2 0xAA JUMPI PUSH1 0x20 SWAP1 MLOAD PUSH2 0x1F4 DUP2 MSTORE RETURN JUMPDEST POP CALLVALUE PUSH2 0xAA JUMPI DUP2 PUSH1 0x3 NOT CALLDATASIZE ADD SLT PUSH2 0xAA JUMPI PUSH2 0x10E SWAP1 PUSH2 0xE7 PUSH2 0x281 JUMP JUMPDEST SWAP1 PUSH11 0x119B185C1C1E48109A5C99 PUSH1 0xAA SHL PUSH1 0x20 DUP4 ADD MSTORE MLOAD SWAP2 DUP3 SWAP2 PUSH1 0x20 DUP4 MSTORE PUSH1 0x20 DUP4 ADD SWAP1 PUSH2 0x2A5 JUMP JUMPDEST SUB SWAP1 RETURN JUMPDEST POP CALLVALUE PUSH2 0xAA JUMPI DUP2 PUSH1 0x3 NOT CALLDATASIZE ADD SLT PUSH2 0xAA JUMPI MLOAD SWAP1 DUP2 MSTORE PUSH1 0x20 SWAP1 RETURN JUMPDEST POP CALLVALUE PUSH2 0xAA JUMPI DUP2 PUSH1 0x3 NOT CALLDATASIZE ADD SLT PUSH2 0xAA JUMPI PUSH2 0x18D SWAP1 PUSH2 0x149 PUSH2 0x281 JUMP JUMPDEST SWAP1 PUSH11 0x119B185C1C1E48109A5C99 PUSH1 0xAA SHL PUSH1 0x20 DUP4 ADD MSTORE PUSH2 0x1F4 PUSH2 0x19B PUSH2 0x16C PUSH2 0x247 JUMP JUMPDEST PUSH5 0x312E302E3 PUSH1 0xDC SHL PUSH1 0x20 DUP3 ADD MSTORE DUP4 MLOAD SWAP6 DUP7 SWAP6 PUSH1 0x60 DUP8 MSTORE PUSH1 0x60 DUP8 ADD SWAP1 PUSH2 0x2A5 JUMP JUMPDEST SWAP1 DUP6 DUP3 SUB PUSH1 0x20 DUP8 ADD MSTORE PUSH2 0x2A5 JUMP JUMPDEST SWAP2 DUP4 ADD MSTORE SUB SWAP1 RETURN JUMPDEST POP CALLVALUE PUSH2 0xAA JUMPI PUSH1 0x20 CALLDATASIZE PUSH1 0x3 NOT ADD SLT PUSH2 0xAA JUMPI PUSH1 0x20 SWAP1 PUSH2 0x1C3 PUSH1 0x4 CALLDATALOAD PUSH2 0x36E JUMP JUMPDEST SWAP1 MLOAD SWAP1 DUP2 MSTORE RETURN JUMPDEST POP SWAP1 CALLVALUE PUSH2 0x206 JUMPI PUSH1 0x20 CALLDATASIZE PUSH1 0x3 NOT ADD SLT PUSH2 0x206 JUMPI POP PUSH2 0x10E PUSH2 0x1EC PUSH1 0x4 CALLDATALOAD PUSH2 0x2F7 JUMP JUMPDEST DUP4 SWAP3 SWAP2 SWAP3 MLOAD SWAP4 DUP5 SWAP4 ISZERO ISZERO DUP5 MSTORE DUP1 PUSH1 0x20 DUP6 ADD MSTORE DUP4 ADD SWAP1 PUSH2 0x2A5 JUMP JUMPDEST DUP1 REVERT JUMPDEST POP CALLVALUE PUSH2 0xAA JUMPI DUP2 PUSH1 0x3 NOT CALLDATASIZE ADD SLT PUSH2 0xAA JUMPI PUSH2 0x10E SWAP1 PUSH2 0x226 PUSH2 0x247 JUMP JUMPDEST SWAP1 PUSH5 0x312E302E3 PUSH1 0xDC SHL PUSH1 0x20 DUP4 ADD MSTORE MLOAD SWAP2 DUP3 SWAP2 PUSH1 0x20 DUP4 MSTORE PUSH1 0x20 DUP4 ADD SWAP1 PUSH2 0x2A5 JUMP JUMPDEST PUSH1 0x40 MLOAD SWAP1 PUSH1 0x40 DUP3 ADD DUP3 DUP2 LT PUSH8 0xFFFFFFFFFFFFFFFF DUP3 GT OR PUSH2 0x26B JUMPI PUSH1 0x40 MSTORE PUSH1 0x5 DUP3 MSTORE JUMP JUMPDEST PUSH4 0x4E487B71 PUSH1 0xE0 SHL PUSH1 0x0 MSTORE PUSH1 0x41 PUSH1 0x4 MSTORE PUSH1 0x24 PUSH1 0x0 REVERT JUMPDEST PUSH1 0x40 MLOAD SWAP1 PUSH1 0x40 DUP3 ADD DUP3 DUP2 LT PUSH8 0xFFFFFFFFFFFFFFFF DUP3 GT OR PUSH2 0x26B JUMPI PUSH1 0x40 MSTORE PUSH1 0xB DUP3 MSTORE JUMP JUMPDEST SWAP2 SWAP1 DUP3 MLOAD SWAP3 DUP4 DUP3 MSTORE PUSH1 0x0 JUMPDEST DUP5 DUP2 LT PUSH2 0x2D1 JUMPI POP POP DUP3 PUSH1 0x0 PUSH1 0x20 DUP1 SWAP5 SWAP6 DUP5 ADD ADD MSTORE PUSH1 0x1F DUP1 NOT SWAP2 ADD AND ADD ADD SWAP1 JUMP JUMPDEST PUSH1 0x20 DUP2 DUP4 ADD DUP2 ADD MLOAD DUP5 DUP4 ADD DUP3 ADD MSTORE ADD PUSH2 0x2B0 JUMP JUMPDEST PUSH2 0x1F4 LT PUSH2 0x2F2 JUMPI PUSH1 0x1 SWAP1 JUMP JUMPDEST PUSH1 0x0 SWAP1 JUMP JUMPDEST PUSH2 0x1F4 LT PUSH2 0x321 JUMPI PUSH1 0x1 SWAP1 PUSH2 0x30A PUSH2 0x281 JUMP JUMPDEST PUSH11 0x56616C69642073636F7265 PUSH1 0xA8 SHL PUSH1 0x20 DUP3 ADD MSTORE SWAP1 JUMP JUMPDEST PUSH1 0x0 SWAP1 PUSH1 0x40 MLOAD PUSH1 0x40 DUP2 ADD DUP2 DUP2 LT PUSH8 0xFFFFFFFFFFFFFFFF DUP3 GT OR PUSH2 0x26B JUMPI PUSH1 0x40 MSTORE PUSH1 0x1B DUP2 MSTORE PUSH32 0x53636F72652065786365656473206D6178696D756D2070697065730000000000 PUSH1 0x20 DUP3 ADD MSTORE SWAP1 JUMP JUMPDEST PUSH1 0xA DUP2 LT PUSH2 0x3B1 JUMPI PUSH1 0x19 DUP2 LT PUSH2 0x3AB JUMPI PUSH1 0x32 DUP2 LT PUSH2 0x3A5 JUMPI PUSH1 0x64 DUP2 LT PUSH2 0x39F JUMPI PUSH1 0xFA GT PUSH2 0x39A JUMPI PUSH1 0x64 SWAP1 JUMP JUMPDEST PUSH1 0x5A SWAP1 JUMP JUMPDEST POP PUSH1 0x4B SWAP1 JUMP JUMPDEST POP PUSH1 0x32 SWAP1 JUMP JUMPDEST POP PUSH1 0x19 SWAP1 JUMP JUMPDEST POP PUSH1 0xA SWAP1 JUMP INVALID LOG2 PUSH5 0x6970667358 0x22 SLT KECCAK256 0xCC 0xAD 0x2D PUSH26 0x5F64465EDEEB2F16AA4ACD4549403517364826B1804DF67A3868 BALANCE SWAP2 PUSH5 0x736F6C6343 STOP ADDMOD EQ STOP CALLER "},"methodIdentifiers":{"GAME_NAME()":"5aed7802","GAME_VERSION()":"086bdbb1","MAX_PIPES()":"0f68a03c","MIN_SCORE()":"40b89270","checkScore(uint256)":"105427d2","getDifficultyRating(uint256)":"3bcd5c82","getGameMetadata()":"4021f3c6","getMaxScore()":"dc248b99","validateScore(uint256)":"e865bc25"}}}}}