{
  "_format": "hh-sol-artifact-1",
  "contractName": "ArcadeToken",
  "sourceName": "tokens/ArcadeToken.sol",
  "abi": [
    {
      "inputs": [],
      "stateMutability": "nonpayable",
      "type": "constructor"
    },
    {
      "inputs": [
        {
          "internalType": "address",
          "name": "spender",
          "type": "address"
        },
        {
          "internalType": "uint256",
          "name": "allowance",
          "type": "uint256"
        },
        {
          "internalType": "uint256",
          "name": "needed",
          "type": "uint256"
        }
      ],
      "name": "ERC20InsufficientAllowance",
      "type": "error"
    },
    {
      "inputs": [
        {
          "internalType": "address",
          "name": "sender",
          "type": "address"
        },
        {
          "internalType": "uint256",
          "name": "balance",
          "type": "uint256"
        },
        {
          "internalType": "uint256",
          "name": "needed",
          "type": "uint256"
        }
      ],
      "name": "ERC20InsufficientBalance",
      "type": "error"
    },
    {
      "inputs": [
        {
          "internalType": "address",
          "name": "approver",
          "type": "address"
        }
      ],
      "name": "ERC20InvalidApprover",
      "type": "error"
    },
    {
      "inputs": [
        {
          "internalType": "address",
          "name": "receiver",
          "type": "address"
        }
      ],
      "name": "ERC20InvalidReceiver",
      "type": "error"
    },
    {
      "inputs": [
        {
          "internalType": "address",
          "name": "sender",
          "type": "address"
        }
      ],
      "name": "ERC20InvalidSender",
      "type": "error"
    },
    {
      "inputs": [
        {
          "internalType": "address",
          "name": "spender",
          "type": "address"
        }
      ],
      "name": "ERC20InvalidSpender",
      "type": "error"
    },
    {
      "inputs": [
        {
          "internalType": "address",
          "name": "owner",
          "type": "address"
        }
      ],
      "name": "OwnableInvalidOwner",
      "type": "error"
    },
    {
      "inputs": [
        {
          "internalType": "address",
          "name": "account",
          "type": "address"
        }
      ],
      "name": "OwnableUnauthorizedAccount",
      "type": "error"
    },
    {
      "anonymous": false,
      "inputs": [
        {
          "indexed": true,
          "internalType": "address",
          "name": "owner",
          "type": "address"
        },
        {
          "indexed": true,
          "internalType": "address",
          "name": "spender",
          "type": "address"
        },
        {
          "indexed": false,
          "internalType": "uint256",
          "name": "value",
          "type": "uint256"
        }
      ],
      "name": "Approval",
      "type": "event"
    },
    {
      "anonymous": false,
      "inputs": [
        {
          "indexed": true,
          "internalType": "address",
          "name": "minter",
          "type": "address"
        },
        {
          "indexed": false,
          "internalType": "bool",
          "name": "status",
          "type": "bool"
        }
      ],
      "name": "MinterAuthorized",
      "type": "event"
    },
    {
      "anonymous": false,
      "inputs": [
        {
          "indexed": true,
          "internalType": "address",
          "name": "previousOwner",
          "type": "address"
        },
        {
          "indexed": true,
          "internalType": "address",
          "name": "newOwner",
          "type": "address"
        }
      ],
      "name": "OwnershipTransferred",
      "type": "event"
    },
    {
      "anonymous": false,
      "inputs": [
        {
          "indexed": true,
          "internalType": "address",
          "name": "to",
          "type": "address"
        },
        {
          "indexed": false,
          "internalType": "uint256",
          "name": "amount",
          "type": "uint256"
        }
      ],
      "name": "TokensMinted",
      "type": "event"
    },
    {
      "anonymous": false,
      "inputs": [
        {
          "indexed": true,
          "internalType": "address",
          "name": "from",
          "type": "address"
        },
        {
          "indexed": true,
          "internalType": "address",
          "name": "to",
          "type": "address"
        },
        {
          "indexed": false,
          "internalType": "uint256",
          "name": "value",
          "type": "uint256"
        }
      ],
      "name": "Transfer",
      "type": "event"
    },
    {
      "inputs": [],
      "name": "MAX_SUPPLY",
      "outputs": [
        {
          "internalType": "uint256",
          "name": "",
          "type": "uint256"
        }
      ],
      "stateMutability": "view",
      "type": "function"
    },
    {
      "inputs": [
        {
          "internalType": "address",
          "name": "owner",
          "type": "address"
        },
        {
          "internalType": "address",
          "name": "spender",
          "type": "address"
        }
      ],
      "name": "allowance",
      "outputs": [
        {
          "internalType": "uint256",
          "name": "",
          "type": "uint256"
        }
      ],
      "stateMutability": "view",
      "type": "function"
    },
    {
      "inputs": [
        {
          "internalType": "address",
          "name": "spender",
          "type": "address"
        },
        {
          "internalType": "uint256",
          "name": "value",
          "type": "uint256"
        }
      ],
      "name": "approve",
      "outputs": [
        {
          "internalType": "bool",
          "name": "",
          "type": "bool"
        }
      ],
      "stateMutability": "nonpayable",
      "type": "function"
    },
    {
      "inputs": [
        {
          "internalType": "address",
          "name": "",
          "type": "address"
        }
      ],
      "name": "authorizedMinters",
      "outputs": [
        {
          "internalType": "bool",
          "name": "",
          "type": "bool"
        }
      ],
      "stateMutability": "view",
      "type": "function"
    },
    {
      "inputs": [
        {
          "internalType": "address",
          "name": "account",
          "type": "address"
        }
      ],
      "name": "balanceOf",
      "outputs": [
        {
          "internalType": "uint256",
          "name": "",
          "type": "uint256"
        }
      ],
      "stateMutability": "view",
      "type": "function"
    },
    {
      "inputs": [],
      "name": "decimals",
      "outputs": [
        {
          "internalType": "uint8",
          "name": "",
          "type": "uint8"
        }
      ],
      "stateMutability": "view",
      "type": "function"
    },
    {
      "inputs": [],
      "name": "getRemainingSupply",
      "outputs": [
        {
          "internalType": "uint256",
          "name": "",
          "type": "uint256"
        }
      ],
      "stateMutability": "view",
      "type": "function"
    },
    {
      "inputs": [
        {
          "internalType": "address",
          "name": "to",
          "type": "address"
        },
        {
          "internalType": "uint256",
          "name": "amount",
          "type": "uint256"
        }
      ],
      "name": "mint",
      "outputs": [],
      "stateMutability": "nonpayable",
      "type": "function"
    },
    {
      "inputs": [],
      "name": "name",
      "outputs": [
        {
          "internalType": "string",
          "name": "",
          "type": "string"
        }
      ],
      "stateMutability": "view",
      "type": "function"
    },
    {
      "inputs": [],
      "name": "owner",
      "outputs": [
        {
          "internalType": "address",
          "name": "",
          "type": "address"
        }
      ],
      "stateMutability": "view",
      "type": "function"
    },
    {
      "inputs": [],
      "name": "renounceOwnership",
      "outputs": [],
      "stateMutability": "nonpayable",
      "type": "function"
    },
    {
      "inputs": [
        {
          "internalType": "address",
          "name": "minter",
          "type": "address"
        },
        {
          "internalType": "bool",
          "name": "status",
          "type": "bool"
        }
      ],
      "name": "setAuthorizedMinter",
      "outputs": [],
      "stateMutability": "nonpayable",
      "type": "function"
    },
    {
      "inputs": [],
      "name": "symbol",
      "outputs": [
        {
          "internalType": "string",
          "name": "",
          "type": "string"
        }
      ],
      "stateMutability": "view",
      "type": "function"
    },
    {
      "inputs": [],
      "name": "totalSupply",
      "outputs": [
        {
          "internalType": "uint256",
          "name": "",
          "type": "uint256"
        }
      ],
      "stateMutability": "view",
      "type": "function"
    },
    {
      "inputs": [
        {
          "internalType": "address",
          "name": "to",
          "type": "address"
        },
        {
          "internalType": "uint256",
          "name": "value",
          "type": "uint256"
        }
      ],
      "name": "transfer",
      "outputs": [
        {
          "internalType": "bool",
          "name": "",
          "type": "bool"
        }
      ],
      "stateMutability": "nonpayable",
      "type": "function"
    },
    {
      "inputs": [
        {
          "internalType": "address",
          "name": "from",
          "type": "address"
        },
        {
          "internalType": "address",
          "name": "to",
          "type": "address"
        },
        {
          "internalType": "uint256",
          "name": "value",
          "type": "uint256"
        }
      ],
      "name": "transferFrom",
      "outputs": [
        {
          "internalType": "bool",
          "name": "",
          "type": "bool"
        }
      ],
      "stateMutability": "nonpayable",
      "type": "function"
    },
    {
      "inputs": [
        {
          "internalType": "address",
          "name": "newOwner",
          "type": "address"
        }
      ],
      "name": "transferOwnership",
      "outputs": [],
      "stateMutability": "nonpayable",
      "type": "function"
    }
  ],
  "bytecode": "0x6080346200039a576001600160401b03906040818101838111838210176200029a578152600c82526020926b20b931b0b232902a37b5b2b760a11b84840152815190828201828110828211176200029a578352600682526541524341444560d01b8583015283518181116200029a576003908154906001968783811c931680156200038f575b8984101462000379578190601f9384811162000323575b508990848311600114620002bc57600092620002b0575b505060001982851b1c191690871b1782555b83519283116200029a5760049384548781811c911680156200028f575b898210146200027a57908183869594931162000220575b5088918411600114620001b557600093620001a9575b505082861b92600019911b1c19161781555b331562000193575060058054336001600160a01b03198216811790925582519460069290916001600160a01b03167f8be0079c531659141344cd1fd0a4f28419497f9722a3daafe3b4186f6b6457e0600080a333600052526000209060ff19825416179055610b089081620003a08239f35b60006024925191631e4fbdf760e01b8352820152fd5b0151915038806200010f565b9190879450601f1984169286600052896000209360005b8b828210620002095750508511620001ee575b50505050811b01815562000121565b01519060f884600019921b161c1916905538808080620001df565b8385015187558b98909601959384019301620001cc565b909192935085600052886000208380870160051c8201928b881062000270575b918a918897969594930160051c01915b82811062000260575050620000f9565b600081558796508a910162000250565b9250819262000240565b602286634e487b7160e01b6000525260246000fd5b90607f1690620000e2565b634e487b7160e01b600052604160045260246000fd5b015190503880620000b3565b90899350601f19831691866000528b6000209260005b8d8282106200030c5750508411620002f3575b505050811b018255620000c5565b015160001983871b60f8161c19169055388080620002e5565b8385015186558d97909501949384019301620002d2565b90915084600052896000208480850160051c8201928c86106200036f575b918b91869594930160051c01915b8281106200035f5750506200009c565b600081558594508b91016200034f565b9250819262000341565b634e487b7160e01b600052602260045260246000fd5b92607f169262000085565b600080fdfe6080604081815260048036101561001557600080fd5b600092833560e01c90816306fdde031461083657508063095ea7b31461078d57806318160ddd1461076e57806323b872dd1461067b578063313ce5671461065f57806332cb6b0c1461063957806340c10f19146104d857806370a08231146104a1578063715018a6146104415780638da5cb5b1461041857806395d89b41146102f8578063a9059cbb146102c7578063aa2fe91b14610289578063dd62ed3e14610240578063e4b7fb73146101f6578063ed58bad8146101705763f2fde38b146100de57600080fd5b3461016c57602036600319011261016c576100f7610974565b906101006109a5565b6001600160a01b03918216928315610156575050600554826bffffffffffffffffffffffff60a01b821617600555167f8be0079c531659141344cd1fd0a4f28419497f9722a3daafe3b4186f6b6457e08380a380f35b51631e4fbdf760e01b8152908101849052602490fd5b8280fd5b5050346101f257806003193601126101f25761018a610974565b602435908115158092036101ee577f9041c22ed79d1c19c69cc22fd9e38c93da4f2dd8cd32580594e232a8a18541cb916020916101c56109a5565b6001600160a01b031680865260068352848620805460ff191660ff84161790559351908152a280f35b8380fd5b5080fd5b509190346101f257816003193601126101f257600254916a084595161401484a00000092830392831161022d576020838351908152f35b634e487b7160e01b815260118452602490fd5b5050346101f257806003193601126101f2578060209261025e610974565b61026661098f565b6001600160a01b0391821683526001865283832091168252845220549051908152f35b5050346101f25760203660031901126101f25760209160ff9082906001600160a01b036102b4610974565b1681526006855220541690519015158152f35b5050346101f257806003193601126101f2576020906102f16102e7610974565b60243590336109d1565b5160018152f35b509190346101f257816003193601126101f257805190828454600181811c9080831692831561040e575b60209384841081146103fb578388529081156103df575060011461038a575b505050829003601f01601f191682019267ffffffffffffffff841183851017610377575082918261037392528261092b565b0390f35b634e487b7160e01b815260418552602490fd5b8787529192508591837f8a35acfbc15ff81a39ae7d344fd709f28e8600b4aa8c65c6b64bfe7fe36bd19b5b8385106103cb5750505050830101388080610341565b8054888601830152930192849082016103b5565b60ff1916878501525050151560051b8401019050388080610341565b634e487b7160e01b895260228a52602489fd5b91607f1691610322565b5050346101f257816003193601126101f25760055490516001600160a01b039091168152602090f35b833461049e578060031936011261049e5761045a6109a5565b600580546001600160a01b0319811690915581906001600160a01b03167f8be0079c531659141344cd1fd0a4f28419497f9722a3daafe3b4186f6b6457e08280a380f35b80fd5b5050346101f25760203660031901126101f25760209181906001600160a01b036104c9610974565b16815280845220549051908152f35b508290346101f257826003193601126101f2576104f3610974565b6024353384526020916006835260ff8686205416156105fe57600254906a084595161401484a0000006105268484610aaf565b116105c5576001600160a01b03169384156105ae57509461056a827f3f2c9d57c068687834f0de942a9babb9e5acab57d516d3480a3c16ee165a4273959697610aaf565b60025584865285835280862082815401905584867fddf252ad1be2c89b69c2b068fc378daa952ba7f163c4a11628f55a4df523b3ef858451868152a351908152a280f35b865163ec442f0560e01b8152908101869052602490fd5b865162461bcd60e51b8152808601859052601360248201527213585e081cdd5c1c1b1e48195e18d959591959606a1b6044820152606490fd5b855162461bcd60e51b815280850184905260156024820152742737ba1030baba3437b934bd32b21036b4b73a32b960591b6044820152606490fd5b5050346101f257816003193601126101f257602090516a084595161401484a0000008152f35b5050346101f257816003193601126101f2576020905160128152f35b50823461049e57606036600319011261049e57610696610974565b61069e61098f565b916044359360018060a01b0383168083526001602052868320338452602052868320549160001983106106da575b6020886102f18989896109d1565b86831061074257811561072b573315610714575082526001602090815286832033845281529186902090859003905582906102f1876106cc565b8751634a1406b160e11b8152908101849052602490fd5b875163e602df0560e01b8152908101849052602490fd5b8751637dc7a0d960e11b8152339181019182526020820193909352604081018790528291506060010390fd5b5050346101f257816003193601126101f2576020906002549051908152f35b503461016c578160031936011261016c576107a6610974565b60243590331561081f576001600160a01b031691821561080857508083602095338152600187528181208582528752205582519081527f8c5be1e5ebec7d5bd14f71427d1e84f3dd0314c0f7b2291e5b200ac8c7c3b925843392a35160018152f35b8351634a1406b160e11b8152908101859052602490fd5b835163e602df0560e01b8152808401869052602490fd5b849150833461016c578260031936011261016c5782600354600181811c90808316928315610921575b60209384841081146103fb5783885290811561090557506001146108af57505050829003601f01601f191682019267ffffffffffffffff841183851017610377575082918261037392528261092b565b600387529192508591837fc2575a0e9e593c00f959f8c92f12db2869c3395a3b0502d05e2516446f71f85b5b8385106108f15750505050830101858080610341565b8054888601830152930192849082016108db565b60ff1916878501525050151560051b8401019050858080610341565b91607f169161085f565b6020808252825181830181905290939260005b82811061096057505060409293506000838284010152601f8019910116010190565b81810186015184820160400152850161093e565b600435906001600160a01b038216820361098a57565b600080fd5b602435906001600160a01b038216820361098a57565b6005546001600160a01b031633036109b957565b60405163118cdaa760e01b8152336004820152602490fd5b916001600160a01b03808416928315610a965716928315610a7d5760009083825281602052604082205490838210610a4b575091604082827fddf252ad1be2c89b69c2b068fc378daa952ba7f163c4a11628f55a4df523b3ef958760209652828652038282205586815220818154019055604051908152a3565b60405163391434e360e21b81526001600160a01b03919091166004820152602481019190915260448101839052606490fd5b60405163ec442f0560e01b815260006004820152602490fd5b604051634b637e8f60e11b815260006004820152602490fd5b91908201809211610abc57565b634e487b7160e01b600052601160045260246000fdfea2646970667358221220fdeb883cfac5e34a0abddc7b5f5e0ec8d5dfe9744f11bfba39053211327c7e5d64736f6c63430008140033",
  "linkReferences": {},
  "deployedLinkReferences": {}
}