{
  "_format": "hh-sol-artifact-1",
  "contractName": "GinixAntiCheatGuard",
  "sourceName": "core/GinixAntiCheatGuard.sol",
  "abi": [
    {
      "inputs": [
        {
          "internalType": "address",
          "name": "_trustedSigner",
          "type": "address"
        }
      ],
      "stateMutability": "nonpayable",
      "type": "constructor"
    },
    {
      "inputs": [],
      "name": "ECDSAInvalidSignature",
      "type": "error"
    },
    {
      "inputs": [
        {
          "internalType": "uint256",
          "name": "length",
          "type": "uint256"
        }
      ],
      "name": "ECDSAInvalidSignatureLength",
      "type": "error"
    },
    {
      "inputs": [
        {
          "internalType": "bytes32",
          "name": "s",
          "type": "bytes32"
        }
      ],
      "name": "ECDSAInvalidSignatureS",
      "type": "error"
    },
    {
      "inputs": [
        {
          "internalType": "address",
          "name": "owner",
          "type": "address"
        }
      ],
      "name": "OwnableInvalidOwner",
      "type": "error"
    },
    {
      "inputs": [
        {
          "internalType": "address",
          "name": "account",
          "type": "address"
        }
      ],
      "name": "OwnableUnauthorizedAccount",
      "type": "error"
    },
    {
      "anonymous": false,
      "inputs": [
        {
          "indexed": true,
          "internalType": "bytes32",
          "name": "nonce",
          "type": "bytes32"
        },
        {
          "indexed": true,
          "internalType": "address",
          "name": "player",
          "type": "address"
        },
        {
          "indexed": true,
          "internalType": "bytes32",
          "name": "gameId",
          "type": "bytes32"
        }
      ],
      "name": "NonceUsed",
      "type": "event"
    },
    {
      "anonymous": false,
      "inputs": [
        {
          "indexed": true,
          "internalType": "address",
          "name": "previousOwner",
          "type": "address"
        },
        {
          "indexed": true,
          "internalType": "address",
          "name": "newOwner",
          "type": "address"
        }
      ],
      "name": "OwnershipTransferred",
      "type": "event"
    },
    {
      "anonymous": false,
      "inputs": [
        {
          "indexed": true,
          "internalType": "address",
          "name": "oldSigner",
          "type": "address"
        },
        {
          "indexed": true,
          "internalType": "address",
          "name": "newSigner",
          "type": "address"
        }
      ],
      "name": "SignerUpdated",
      "type": "event"
    },
    {
      "anonymous": false,
      "inputs": [
        {
          "indexed": true,
          "internalType": "bytes32",
          "name": "nonce",
          "type": "bytes32"
        },
        {
          "indexed": true,
          "internalType": "address",
          "name": "player",
          "type": "address"
        },
        {
          "indexed": false,
          "internalType": "string",
          "name": "reason",
          "type": "string"
        }
      ],
      "name": "VerificationFailed",
      "type": "event"
    },
    {
      "inputs": [
        {
          "internalType": "bytes32[]",
          "name": "nonces",
          "type": "bytes32[]"
        },
        {
          "internalType": "address[]",
          "name": "players",
          "type": "address[]"
        },
        {
          "internalType": "bytes32[]",
          "name": "gameIds",
          "type": "bytes32[]"
        },
        {
          "internalType": "uint64[]",
          "name": "scores",
          "type": "uint64[]"
        },
        {
          "internalType": "bytes[]",
          "name": "signatures",
          "type": "bytes[]"
        }
      ],
      "name": "batchVerifyAndConsume",
      "outputs": [
        {
          "internalType": "bool[]",
          "name": "",
          "type": "bool[]"
        }
      ],
      "stateMutability": "nonpayable",
      "type": "function"
    },
    {
      "inputs": [
        {
          "internalType": "bytes32",
          "name": "nonce",
          "type": "bytes32"
        }
      ],
      "name": "isNonceUsed",
      "outputs": [
        {
          "internalType": "bool",
          "name": "",
          "type": "bool"
        }
      ],
      "stateMutability": "view",
      "type": "function"
    },
    {
      "inputs": [],
      "name": "owner",
      "outputs": [
        {
          "internalType": "address",
          "name": "",
          "type": "address"
        }
      ],
      "stateMutability": "view",
      "type": "function"
    },
    {
      "inputs": [],
      "name": "renounceOwnership",
      "outputs": [],
      "stateMutability": "nonpayable",
      "type": "function"
    },
    {
      "inputs": [
        {
          "internalType": "address",
          "name": "newSigner",
          "type": "address"
        }
      ],
      "name": "setTrustedSigner",
      "outputs": [],
      "stateMutability": "nonpayable",
      "type": "function"
    },
    {
      "inputs": [
        {
          "internalType": "address",
          "name": "newOwner",
          "type": "address"
        }
      ],
      "name": "transferOwnership",
      "outputs": [],
      "stateMutability": "nonpayable",
      "type": "function"
    },
    {
      "inputs": [],
      "name": "trustedSigner",
      "outputs": [
        {
          "internalType": "address",
          "name": "",
          "type": "address"
        }
      ],
      "stateMutability": "view",
      "type": "function"
    },
    {
      "inputs": [
        {
          "internalType": "bytes32",
          "name": "",
          "type": "bytes32"
        }
      ],
      "name": "usedNonces",
      "outputs": [
        {
          "internalType": "bool",
          "name": "",
          "type": "bool"
        }
      ],
      "stateMutability": "view",
      "type": "function"
    },
    {
      "inputs": [
        {
          "internalType": "bytes32",
          "name": "nonce",
          "type": "bytes32"
        },
        {
          "internalType": "address",
          "name": "player",
          "type": "address"
        },
        {
          "internalType": "bytes32",
          "name": "gameId",
          "type": "bytes32"
        },
        {
          "internalType": "uint64",
          "name": "score",
          "type": "uint64"
        },
        {
          "internalType": "bytes",
          "name": "signature",
          "type": "bytes"
        }
      ],
      "name": "verifyAndConsume",
      "outputs": [
        {
          "internalType": "bool",
          "name": "",
          "type": "bool"
        }
      ],
      "stateMutability": "nonpayable",
      "type": "function"
    }
  ],
  "bytecode": "0x60803461011257601f610cc838819003918201601f19168301916001600160401b038311848410176101175780849260209460405283398101031261011257516001600160a01b03808216918290036101125733156100f9576000549060018060a01b0319913383821617600055604051913391167f8be0079c531659141344cd1fd0a4f28419497f9722a3daafe3b4186f6b6457e0600080a382156100b757506001541617600155604051610b9a908161012e8239f35b62461bcd60e51b815260206004820152601660248201527f496e76616c6964207369676e65722061646472657373000000000000000000006044820152606490fd5b604051631e4fbdf760e01b815260006004820152602490fd5b600080fd5b634e487b7160e01b600052604160045260246000fdfe6080604052600436101561001257600080fd5b60003560e01c80630d644293146106835780634ec2d8d31461029757806356a1c701146101e9578063715018a6146101905780638da5cb5b14610167578063b90665e51461007f578063f2fde38b146100de578063f74d5480146100b55763feb617241461007f57600080fd5b346100b05760203660031901126100b0576004356000526002602052602060ff604060002054166040519015158152f35b600080fd5b346100b05760003660031901126100b0576001546040516001600160a01b039091168152602090f35b346100b05760203660031901126100b0576100f761070b565b6100ff610751565b6001600160a01b0390811690811561014e57600054826001600160601b0360a01b821617600055167f8be0079c531659141344cd1fd0a4f28419497f9722a3daafe3b4186f6b6457e0600080a3005b604051631e4fbdf760e01b815260006004820152602490fd5b346100b05760003660031901126100b0576000546040516001600160a01b039091168152602090f35b346100b05760003660031901126100b0576101a9610751565b600080546001600160a01b0319811682556001600160a01b03167f8be0079c531659141344cd1fd0a4f28419497f9722a3daafe3b4186f6b6457e08280a3005b346100b05760203660031901126100b05761020261070b565b61020a610751565b6001600160a01b0390811690811561025957600154826001600160601b0360a01b821617600155167f2d025324f0a785e8c12d0a0d91a9caa49df4ef20ff87e0df7213a1d4f3157beb600080a3005b60405162461bcd60e51b8152602060048201526016602482015275496e76616c6964207369676e6572206164647265737360501b6044820152606490fd5b346100b05760a03660031901126100b0576004356001600160401b0381116100b0576102c7903690600401610721565b906024356001600160401b0381116100b0576102e7903690600401610721565b90926044356001600160401b0381116100b057610308903690600401610721565b91906064356001600160401b0381116100b057610329903690600401610721565b9690956084356001600160401b0381116100b05761034b903690600401610721565b9590948781148061067a575b80610671575b80610668575b1561062b5761037181610b15565b9961037f6040519b8c6107bc565b818b52601f1961038e83610b15565b013660208d013760005b8b8382106103e75760405180916020820160208352815180915260206040840192019060005b8181106103cc575050500390f35b825115158452859450602093840193909201916001016103be565b8b878385888f898c8f986103fc878484610b2c565b35600052600260205260ff6040600020541661061557509261043d610438876104439561043182809a999761044a9c98610b2c565b359a610b2c565b610b50565b98610b2c565b3594610b2c565b35916001600160401b03831683036100b05761047661048492604051948593602085019746938961077d565b03601f1981018352826107bc565b5190207f19457468657265756d205369676e6564204d6573736167653a0a333200000000600052601c52603c600020898210156105ff578160051b89013590601e198a3603018212156100b0576001600160401b03828b0135116100b057818a013536036020838c0101136100b057828e610519610522938f95610513908f60203692808301359201016107f3565b906109c4565b90949194610a90565b8a8a60018060a01b038a8a8d60019884808b54169116146000146105e55791610588610438898b9c61058182876105bc9f9961058e9a61056484809c84610b2c565b35600052600260205260406000209060ff19825416179055610b2c565b3598610b2c565b95610b2c565b359216907f72ef40ceb27f3e9ae55599a59bc3bf789c003b8c91a7c9cc9c892a1b97ee0e78600080a4610b3c565b525b60001981146105cf57600101610398565b634e487b7160e01b600052601160045260246000fd5b505050505050600093506105f99250610b3c565b526105be565b634e487b7160e01b600052603260045260246000fd5b9596505050505050600093506105f99250610b3c565b60405162461bcd60e51b8152602060048201526015602482015274082e4e4c2f240d8cadccee8d040dad2e6dac2e8c6d605b1b6044820152606490fd5b50868a14610363565b5089821461035d565b50818814610357565b346100b05760a03660031901126100b0576024356001600160a01b03811681036100b057606435906001600160401b0380831683036100b057608435918183116100b057366023840112156100b05782600401359182116100b05736602483850101116100b057602093602461070194019160443590600435610839565b6040519015158152f35b600435906001600160a01b03821682036100b057565b9181601f840112156100b0578235916001600160401b0383116100b0576020808501948460051b0101116100b057565b6000546001600160a01b0316330361076557565b60405163118cdaa760e01b8152336004820152602490fd5b9391607c95939185526001600160601b03199060601b16602085015260348401526001600160401b0360c01b9060c01b166054830152605c8201520190565b90601f801991011681019081106001600160401b038211176107dd57604052565b634e487b7160e01b600052604160045260246000fd5b9291926001600160401b0382116107dd576040519161081c601f8201601f1916602001846107bc565b8294818452818301116100b0578281602093846000960137010152565b92909194936000948486526020916002835260409360ff858920541661096857916105136108b792878796956108828d6104768d6108c09d9c519485938c85019746938961077d565b5190207f19457468657265756d205369676e6564204d6573736167653a0a3332000000008b52601c52603c8a209236916107f3565b90959195610a90565b6001546001600160a01b03949085169085160361091657848652600290528420805460ff1916600117905516917f72ef40ceb27f3e9ae55599a59bc3bf789c003b8c91a7c9cc9c892a1b97ee0e789080a4600190565b9495509160609170496e76616c6964207369676e617475726560781b8460117f4501be829b1c48ed881df27b32711a6311db512e37e32e9d9808a8656a4d65cb965198808a528901528701521693a390565b5050509394507f4501be829b1c48ed881df27b32711a6311db512e37e32e9d9808a8656a4d65cb9171139bdb98d948185b1c9958591e481d5cd95960721b826012606094519780895288015286015260018060a01b031693a390565b81519190604183036109f5576109ee92506020820151906060604084015193015160001a90610a00565b9192909190565b505060009160029190565b91907f7fffffffffffffffffffffffffffffff5d576e7357a4501ddfe92f46681b20a08411610a8457926020929160ff608095604051948552168484015260408301526060820152600092839182805260015afa15610a785780516001600160a01b03811615610a6f57918190565b50809160019190565b604051903d90823e3d90fd5b50505060009160039190565b6004811015610aff5780610aa2575050565b60018103610abc5760405163f645eedf60e01b8152600490fd5b60028103610add5760405163fce698f760e01b815260048101839052602490fd5b600314610ae75750565b602490604051906335e2f38360e21b82526004820152fd5b634e487b7160e01b600052602160045260246000fd5b6001600160401b0381116107dd5760051b60200190565b91908110156105ff5760051b0190565b80518210156105ff5760209160051b010190565b356001600160a01b03811681036100b0579056fea264697066735822122053043be1d3927f44225f486435f269db4f5f8886e2a2725688822a9d9c1f4bfd64736f6c63430008140033",
  "linkReferences": {},
  "deployedLinkReferences": {}
}