{
  "_format": "hh-sol-artifact-1",
  "contractName": "GinixRewardEngine",
  "sourceName": "core/GinixRewardEngine.sol",
  "abi": [
    {
      "inputs": [
        {
          "internalType": "address",
          "name": "_registry",
          "type": "address"
        },
        {
          "internalType": "address",
          "name": "_guard",
          "type": "address"
        },
        {
          "internalType": "address",
          "name": "_core",
          "type": "address"
        },
        {
          "internalType": "address",
          "name": "_memory",
          "type": "address"
        }
      ],
      "stateMutability": "nonpayable",
      "type": "constructor"
    },
    {
      "inputs": [
        {
          "internalType": "address",
          "name": "owner",
          "type": "address"
        }
      ],
      "name": "OwnableInvalidOwner",
      "type": "error"
    },
    {
      "inputs": [
        {
          "internalType": "address",
          "name": "account",
          "type": "address"
        }
      ],
      "name": "OwnableUnauthorizedAccount",
      "type": "error"
    },
    {
      "anonymous": false,
      "inputs": [
        {
          "indexed": false,
          "internalType": "address",
          "name": "registry",
          "type": "address"
        },
        {
          "indexed": false,
          "internalType": "address",
          "name": "guard",
          "type": "address"
        },
        {
          "indexed": false,
          "internalType": "address",
          "name": "core",
          "type": "address"
        },
        {
          "indexed": false,
          "internalType": "address",
          "name": "gameMemory",
          "type": "address"
        }
      ],
      "name": "ContractsUpdated",
      "type": "event"
    },
    {
      "anonymous": false,
      "inputs": [
        {
          "indexed": true,
          "internalType": "address",
          "name": "previousOwner",
          "type": "address"
        },
        {
          "indexed": true,
          "internalType": "address",
          "name": "newOwner",
          "type": "address"
        }
      ],
      "name": "OwnershipTransferred",
      "type": "event"
    },
    {
      "anonymous": false,
      "inputs": [
        {
          "indexed": true,
          "internalType": "bytes32",
          "name": "rewardId",
          "type": "bytes32"
        },
        {
          "indexed": false,
          "internalType": "uint64",
          "name": "xpAmount",
          "type": "uint64"
        },
        {
          "indexed": false,
          "internalType": "bool",
          "name": "unlockAchievement",
          "type": "bool"
        }
      ],
      "name": "RewardConfigured",
      "type": "event"
    },
    {
      "anonymous": false,
      "inputs": [
        {
          "indexed": true,
          "internalType": "address",
          "name": "player",
          "type": "address"
        },
        {
          "indexed": true,
          "internalType": "bytes32",
          "name": "rewardId",
          "type": "bytes32"
        },
        {
          "indexed": true,
          "internalType": "bytes32",
          "name": "gameId",
          "type": "bytes32"
        },
        {
          "indexed": false,
          "internalType": "uint64",
          "name": "score",
          "type": "uint64"
        },
        {
          "indexed": false,
          "internalType": "uint64",
          "name": "xpAwarded",
          "type": "uint64"
        }
      ],
      "name": "RewardGranted",
      "type": "event"
    },
    {
      "inputs": [
        {
          "internalType": "uint32[]",
          "name": "thresholds",
          "type": "uint32[]"
        },
        {
          "internalType": "uint32[]",
          "name": "values",
          "type": "uint32[]"
        }
      ],
      "name": "configureMultipliers",
      "outputs": [],
      "stateMutability": "nonpayable",
      "type": "function"
    },
    {
      "inputs": [
        {
          "internalType": "bytes32",
          "name": "rewardId",
          "type": "bytes32"
        },
        {
          "internalType": "uint64",
          "name": "xpAmount",
          "type": "uint64"
        },
        {
          "internalType": "bool",
          "name": "unlockAchievement",
          "type": "bool"
        }
      ],
      "name": "configureReward",
      "outputs": [],
      "stateMutability": "nonpayable",
      "type": "function"
    },
    {
      "inputs": [],
      "name": "core",
      "outputs": [
        {
          "internalType": "contract IGinixCore",
          "name": "",
          "type": "address"
        }
      ],
      "stateMutability": "view",
      "type": "function"
    },
    {
      "inputs": [
        {
          "internalType": "bytes32",
          "name": "rewardId",
          "type": "bytes32"
        }
      ],
      "name": "disableReward",
      "outputs": [],
      "stateMutability": "nonpayable",
      "type": "function"
    },
    {
      "inputs": [],
      "name": "gameMemory",
      "outputs": [
        {
          "internalType": "contract IGinixMemory",
          "name": "",
          "type": "address"
        }
      ],
      "stateMutability": "view",
      "type": "function"
    },
    {
      "inputs": [
        {
          "internalType": "bytes32",
          "name": "nonce",
          "type": "bytes32"
        },
        {
          "internalType": "address",
          "name": "player",
          "type": "address"
        },
        {
          "internalType": "bytes32",
          "name": "gameId",
          "type": "bytes32"
        },
        {
          "internalType": "uint64",
          "name": "score",
          "type": "uint64"
        },
        {
          "internalType": "uint64",
          "name": "duration",
          "type": "uint64"
        },
        {
          "internalType": "bytes32",
          "name": "rewardId",
          "type": "bytes32"
        },
        {
          "internalType": "bytes",
          "name": "backendSig",
          "type": "bytes"
        }
      ],
      "name": "grantReward",
      "outputs": [],
      "stateMutability": "nonpayable",
      "type": "function"
    },
    {
      "inputs": [],
      "name": "guard",
      "outputs": [
        {
          "internalType": "contract IGinixGuard",
          "name": "",
          "type": "address"
        }
      ],
      "stateMutability": "view",
      "type": "function"
    },
    {
      "inputs": [],
      "name": "owner",
      "outputs": [
        {
          "internalType": "address",
          "name": "",
          "type": "address"
        }
      ],
      "stateMutability": "view",
      "type": "function"
    },
    {
      "inputs": [],
      "name": "registry",
      "outputs": [
        {
          "internalType": "contract IGinixRegistry",
          "name": "",
          "type": "address"
        }
      ],
      "stateMutability": "view",
      "type": "function"
    },
    {
      "inputs": [],
      "name": "renounceOwnership",
      "outputs": [],
      "stateMutability": "nonpayable",
      "type": "function"
    },
    {
      "inputs": [
        {
          "internalType": "bytes32",
          "name": "",
          "type": "bytes32"
        }
      ],
      "name": "rewards",
      "outputs": [
        {
          "internalType": "uint64",
          "name": "xpAmount",
          "type": "uint64"
        },
        {
          "internalType": "bool",
          "name": "unlockAchievement",
          "type": "bool"
        },
        {
          "internalType": "bool",
          "name": "enabled",
          "type": "bool"
        }
      ],
      "stateMutability": "view",
      "type": "function"
    },
    {
      "inputs": [
        {
          "internalType": "address",
          "name": "newOwner",
          "type": "address"
        }
      ],
      "name": "transferOwnership",
      "outputs": [],
      "stateMutability": "nonpayable",
      "type": "function"
    },
    {
      "inputs": [
        {
          "internalType": "address",
          "name": "_registry",
          "type": "address"
        },
        {
          "internalType": "address",
          "name": "_guard",
          "type": "address"
        },
        {
          "internalType": "address",
          "name": "_core",
          "type": "address"
        },
        {
          "internalType": "address",
          "name": "_memory",
          "type": "address"
        }
      ],
      "name": "updateContracts",
      "outputs": [],
      "stateMutability": "nonpayable",
      "type": "function"
    }
  ],
  "bytecode": "0x60803461020557601f620010a938819003918201601f191683019291906001600160401b0384118385101761020a5781608092849260409687528339810103126102055761004c81610220565b9061005960208201610220565b90610071606061006a868401610220565b9201610220565b9033156101ed5760008054336001600160a01b03198083168217845588519790966001600160a01b03949093859391908416907f8be0079c531659141344cd1fd0a4f28419497f9722a3daafe3b4186f6b6457e09080a3169586156101b857508116918215610184578116928315610151571693841561011c57836001541617600155826002541617600255816003541617600355600454161760045551610e749081620002358239f35b855162461bcd60e51b815260206004820152600e60248201526d496e76616c6964206d656d6f727960901b6044820152606490fd5b865162461bcd60e51b815260206004820152600c60248201526b496e76616c696420636f726560a01b6044820152606490fd5b865162461bcd60e51b815260206004820152600d60248201526c125b9d985b1a590819dd585c99609a1b6044820152606490fd5b62461bcd60e51b815260206004820152601060248201526f496e76616c696420726567697374727960801b6044820152606490fd5b8451631e4fbdf760e01b815260006004820152602490fd5b600080fd5b634e487b7160e01b600052604160045260246000fd5b51906001600160a01b03821682036102055756fe6080604052600436101561001257600080fd5b6000803560e01c80630b751279146109da57806356acce3d146109b15780635a83bfb614610975578063715018a61461091b5780637a53ccf31461084b5780637b103999146108225780637ceab3b1146107f95780638da5cb5b146107d2578063938d967a14610783578063ce4474e014610249578063d7d9532d14610167578063f2f4eb261461013e5763f2fde38b146100ac57600080fd5b3461013b57602036600319011261013b576100c5610b94565b6100cd610bf0565b6001600160a01b0390811690811561012257600054826bffffffffffffffffffffffff60a01b821617600055167f8be0079c531659141344cd1fd0a4f28419497f9722a3daafe3b4186f6b6457e0600080a380f35b604051631e4fbdf760e01b815260048101849052602490fd5b80fd5b503461013b578060031936011261013b576003546040516001600160a01b039091168152602090f35b503461013b57606036600319011261013b576004356024356001600160401b038082168092036102445760443591821515809303610240577f88bfcab8b8e4425961145c24a4ed1644e627074333d1da79314c912a5d4ad8ce926040926101cc610bf0565b8351906101d882610c45565b83825260208201908382528583019060018252888a526005602052868a2093511669ff00000000000000000068ff0000000000000000855494511515891b169251151560481b169269ffffffffffffffffffff1916171717905582519182526020820152a280f35b8480fd5b600080fd5b503461013b5760e036600319011261013b57610263610baa565b606435906001600160401b0382168203610244576084356001600160401b0381168103610244576001600160401b0360c435116105db5736602360c4350112156105db576001600160401b0360c43560040135116105db5736602460c4356004013560c4350101116105db576001546040516324577e1960e11b8152604435600482015290602090829060249082906001600160a01b03165afa908115610778578591610759575b50156107205760a43584526005602052604084209060ff6040519261032f84610c45565b546001600160401b0381168452818160401c161515602085015260481c1615801560408401526106e65760018060a01b036002541660206040518092630d64429360e01b8252600435600483015260018060a01b038716602483015260443560448301526001600160401b038816606483015260a0608483015260c4356004013560a483015260c43560040135602460c4350160c48401378860c480356004013584010152818960c482601f19601f833560040135011681010301925af19081156106db5786916106ac575b50156106675760035485916001600160a01b0390911690813b1561064f576001600160401b0360848492836040519586948593632b2bd4f560e01b855260018060a01b038c1660048601526044356024860152818d1660448601521660648401525af180156105df57610653575b506001600160401b03825116806105ea575b505060208101516104de575b6001600160401b039051166001600160401b03604051931683526020830152604435917fe0f5e9e0929475523efe2d8f47294d39d6f4587d09618808035c5876c74fca82604060a4359360018060a01b031692a480f35b836104f16001600160401b038516610d1e565b604051610548604f82602081019465023b0b6b29d160d51b86526044356026830152680161029b1b7b9329d160bd1b60468301526105388151809260208686019101610c99565b810103602f810184520182610c60565b6004546001600160a01b031690813b156105db5783916105a791836084604051809781968295635347fc3360e01b84528d60018060a01b0316600485015260a43560248501526060604485015251809281606486015285850190610c99565b601f01601f191681010301925af180156105df576105c7575b5050610487565b6105d090610c1c565b6105db5783386105c0565b8380fd5b6040513d84823e3d90fd5b6003546001600160a01b031690813b1561064f576040516335b126e560e21b81526001600160a01b038616600482015260248101919091529082908290604490829084905af180156105df571561047b5761064490610c1c565b6105db57833861047b565b8280fd5b61065c90610c1c565b6105db578338610469565b60405162461bcd60e51b815260206004820152601960248201527f477561726420766572696669636174696f6e206661696c6564000000000000006044820152606490fd5b6106ce915060203d6020116106d4575b6106c68183610c60565b810190610c81565b386103fb565b503d6106bc565b6040513d88823e3d90fd5b60405162461bcd60e51b815260206004820152601260248201527114995dd85c99081b9bdd08195b98589b195960721b6044820152606490fd5b60405162461bcd60e51b815260206004820152601160248201527011d85b59481b9bdd08185c1c1c9bdd9959607a1b6044820152606490fd5b610772915060203d6020116106d4576106c68183610c60565b3861030b565b6040513d87823e3d90fd5b503461013b57602036600319011261013b57604060609160043581526005602052205460ff604051916001600160401b0381168352818160401c161515602084015260481c1615156040820152f35b503461013b578060031936011261013b57546040516001600160a01b039091168152602090f35b503461013b578060031936011261013b576002546040516001600160a01b039091168152602090f35b503461013b578060031936011261013b576001546040516001600160a01b039091168152602090f35b503461013b5760031960403682011261091757816001600160401b0360043581811161064f5761087f903690600401610bc0565b90916024359081116105db57610899903690600401610bc0565b9290946108a4610bf0565b6003546001600160a01b031692833b15610913576108f586926108e696604051998a9889978896637a53ccf360e01b8852604060048901526044880191610cbc565b92858403016024860152610cbc565b03925af180156105df57610907575080f35b61091090610c1c565b80f35b8580fd5b5080fd5b503461013b578060031936011261013b57610934610bf0565b80546001600160a01b03198116825581906001600160a01b03167f8be0079c531659141344cd1fd0a4f28419497f9722a3daafe3b4186f6b6457e08280a380f35b503461013b57602036600319011261013b5761098f610bf0565b6004358152600560205260408120805469ff0000000000000000001916905580f35b503461013b578060031936011261013b576004546040516001600160a01b039091168152602090f35b503461013b57608036600319011261013b576109f4610b94565b6109fc610baa565b6044356001600160a01b038181169392918490036102405760643592818416809403610913578190610a2c610bf0565b16918215610b5c5716918215610b27578315610af3578015610abd577f5fa24fea85a5ce115f424d206cd07e10fe6c52fd86d013949fea9654d3f62ca093608093826bffffffffffffffffffffffff60a01b8581600154161760015582816002541617600255838160035416176003556004541617600455604051938452602084015260408301526060820152a180f35b60405162461bcd60e51b815260206004820152600e60248201526d496e76616c6964206d656d6f727960901b6044820152606490fd5b60405162461bcd60e51b815260206004820152600c60248201526b496e76616c696420636f726560a01b6044820152606490fd5b60405162461bcd60e51b815260206004820152600d60248201526c125b9d985b1a590819dd585c99609a1b6044820152606490fd5b60405162461bcd60e51b815260206004820152601060248201526f496e76616c696420726567697374727960801b6044820152606490fd5b600435906001600160a01b038216820361024457565b602435906001600160a01b038216820361024457565b9181601f84011215610244578235916001600160401b038311610244576020808501948460051b01011161024457565b6000546001600160a01b03163303610c0457565b60405163118cdaa760e01b8152336004820152602490fd5b6001600160401b038111610c2f57604052565b634e487b7160e01b600052604160045260246000fd5b606081019081106001600160401b03821117610c2f57604052565b90601f801991011681019081106001600160401b03821117610c2f57604052565b90816020910312610244575180151581036102445790565b60005b838110610cac5750506000910152565b8181015183820152602001610c9c565b9190808252602080920192916000805b838210610cdb57505050505090565b9091929394853563ffffffff811680910361064f578152830194830193929160010190610ccc565b6001600160401b038111610c2f57601f01601f191660200190565b8015610e105780816000925b610df8575080610d3983610d03565b92610d476040519485610c60565b808452601f19610d5682610d03565b01366020860137905b610d6857505090565b600019810190808211610de2578192600a9283820493808502908582041485151715610de2578203918211610de25760ff809216603001918211610de25785511115610dcc5760f81b6001600160f81b03191660001a908401601f01539081610d5f565b634e487b7160e01b600052603260045260246000fd5b634e487b7160e01b600052601160045260246000fd5b916000198114610de2576001600a9101920480610d2a565b50604051604081018181106001600160401b03821117610c2f5760405260018152600360fc1b60208201529056fea26469706673582212202dfce1925ad1c540fb7bdca44c01715a170a57ea3df50916b401242021e7fc4564736f6c63430008140033",
  "linkReferences": {},
  "deployedLinkReferences": {}
}