{
  "_format": "hh-sol-artifact-1",
  "contractName": "GameNFT",
  "sourceName": "tokens/GameNFT.sol",
  "abi": [
    {
      "inputs": [],
      "stateMutability": "nonpayable",
      "type": "constructor"
    },
    {
      "inputs": [
        {
          "internalType": "address",
          "name": "sender",
          "type": "address"
        },
        {
          "internalType": "uint256",
          "name": "tokenId",
          "type": "uint256"
        },
        {
          "internalType": "address",
          "name": "owner",
          "type": "address"
        }
      ],
      "name": "ERC721IncorrectOwner",
      "type": "error"
    },
    {
      "inputs": [
        {
          "internalType": "address",
          "name": "operator",
          "type": "address"
        },
        {
          "internalType": "uint256",
          "name": "tokenId",
          "type": "uint256"
        }
      ],
      "name": "ERC721InsufficientApproval",
      "type": "error"
    },
    {
      "inputs": [
        {
          "internalType": "address",
          "name": "approver",
          "type": "address"
        }
      ],
      "name": "ERC721InvalidApprover",
      "type": "error"
    },
    {
      "inputs": [
        {
          "internalType": "address",
          "name": "operator",
          "type": "address"
        }
      ],
      "name": "ERC721InvalidOperator",
      "type": "error"
    },
    {
      "inputs": [
        {
          "internalType": "address",
          "name": "owner",
          "type": "address"
        }
      ],
      "name": "ERC721InvalidOwner",
      "type": "error"
    },
    {
      "inputs": [
        {
          "internalType": "address",
          "name": "receiver",
          "type": "address"
        }
      ],
      "name": "ERC721InvalidReceiver",
      "type": "error"
    },
    {
      "inputs": [
        {
          "internalType": "address",
          "name": "sender",
          "type": "address"
        }
      ],
      "name": "ERC721InvalidSender",
      "type": "error"
    },
    {
      "inputs": [
        {
          "internalType": "uint256",
          "name": "tokenId",
          "type": "uint256"
        }
      ],
      "name": "ERC721NonexistentToken",
      "type": "error"
    },
    {
      "inputs": [
        {
          "internalType": "address",
          "name": "owner",
          "type": "address"
        }
      ],
      "name": "OwnableInvalidOwner",
      "type": "error"
    },
    {
      "inputs": [
        {
          "internalType": "address",
          "name": "account",
          "type": "address"
        }
      ],
      "name": "OwnableUnauthorizedAccount",
      "type": "error"
    },
    {
      "anonymous": false,
      "inputs": [
        {
          "indexed": true,
          "internalType": "address",
          "name": "owner",
          "type": "address"
        },
        {
          "indexed": true,
          "internalType": "address",
          "name": "approved",
          "type": "address"
        },
        {
          "indexed": true,
          "internalType": "uint256",
          "name": "tokenId",
          "type": "uint256"
        }
      ],
      "name": "Approval",
      "type": "event"
    },
    {
      "anonymous": false,
      "inputs": [
        {
          "indexed": true,
          "internalType": "address",
          "name": "owner",
          "type": "address"
        },
        {
          "indexed": true,
          "internalType": "address",
          "name": "operator",
          "type": "address"
        },
        {
          "indexed": false,
          "internalType": "bool",
          "name": "approved",
          "type": "bool"
        }
      ],
      "name": "ApprovalForAll",
      "type": "event"
    },
    {
      "anonymous": false,
      "inputs": [
        {
          "indexed": false,
          "internalType": "uint256",
          "name": "_fromTokenId",
          "type": "uint256"
        },
        {
          "indexed": false,
          "internalType": "uint256",
          "name": "_toTokenId",
          "type": "uint256"
        }
      ],
      "name": "BatchMetadataUpdate",
      "type": "event"
    },
    {
      "anonymous": false,
      "inputs": [
        {
          "indexed": false,
          "internalType": "uint256",
          "name": "_tokenId",
          "type": "uint256"
        }
      ],
      "name": "MetadataUpdate",
      "type": "event"
    },
    {
      "anonymous": false,
      "inputs": [
        {
          "indexed": true,
          "internalType": "address",
          "name": "minter",
          "type": "address"
        },
        {
          "indexed": false,
          "internalType": "bool",
          "name": "status",
          "type": "bool"
        }
      ],
      "name": "MinterAuthorized",
      "type": "event"
    },
    {
      "anonymous": false,
      "inputs": [
        {
          "indexed": true,
          "internalType": "address",
          "name": "to",
          "type": "address"
        },
        {
          "indexed": true,
          "internalType": "uint256",
          "name": "tokenId",
          "type": "uint256"
        },
        {
          "indexed": false,
          "internalType": "uint256",
          "name": "achievementType",
          "type": "uint256"
        },
        {
          "indexed": false,
          "internalType": "uint256",
          "name": "gameId",
          "type": "uint256"
        },
        {
          "indexed": false,
          "internalType": "uint256",
          "name": "value",
          "type": "uint256"
        }
      ],
      "name": "NFTMinted",
      "type": "event"
    },
    {
      "anonymous": false,
      "inputs": [
        {
          "indexed": true,
          "internalType": "address",
          "name": "previousOwner",
          "type": "address"
        },
        {
          "indexed": true,
          "internalType": "address",
          "name": "newOwner",
          "type": "address"
        }
      ],
      "name": "OwnershipTransferred",
      "type": "event"
    },
    {
      "anonymous": false,
      "inputs": [
        {
          "indexed": true,
          "internalType": "address",
          "name": "from",
          "type": "address"
        },
        {
          "indexed": true,
          "internalType": "address",
          "name": "to",
          "type": "address"
        },
        {
          "indexed": true,
          "internalType": "uint256",
          "name": "tokenId",
          "type": "uint256"
        }
      ],
      "name": "Transfer",
      "type": "event"
    },
    {
      "inputs": [
        {
          "internalType": "address",
          "name": "to",
          "type": "address"
        },
        {
          "internalType": "uint256",
          "name": "tokenId",
          "type": "uint256"
        }
      ],
      "name": "approve",
      "outputs": [],
      "stateMutability": "nonpayable",
      "type": "function"
    },
    {
      "inputs": [
        {
          "internalType": "address",
          "name": "",
          "type": "address"
        }
      ],
      "name": "authorizedMinters",
      "outputs": [
        {
          "internalType": "bool",
          "name": "",
          "type": "bool"
        }
      ],
      "stateMutability": "view",
      "type": "function"
    },
    {
      "inputs": [
        {
          "internalType": "address",
          "name": "owner",
          "type": "address"
        }
      ],
      "name": "balanceOf",
      "outputs": [
        {
          "internalType": "uint256",
          "name": "",
          "type": "uint256"
        }
      ],
      "stateMutability": "view",
      "type": "function"
    },
    {
      "inputs": [
        {
          "internalType": "uint256",
          "name": "tokenId",
          "type": "uint256"
        }
      ],
      "name": "getApproved",
      "outputs": [
        {
          "internalType": "address",
          "name": "",
          "type": "address"
        }
      ],
      "stateMutability": "view",
      "type": "function"
    },
    {
      "inputs": [
        {
          "internalType": "uint256",
          "name": "tokenId",
          "type": "uint256"
        }
      ],
      "name": "getNFTMetadata",
      "outputs": [
        {
          "components": [
            {
              "internalType": "uint256",
              "name": "achievementType",
              "type": "uint256"
            },
            {
              "internalType": "uint256",
              "name": "gameId",
              "type": "uint256"
            },
            {
              "internalType": "uint256",
              "name": "value",
              "type": "uint256"
            },
            {
              "internalType": "uint256",
              "name": "mintedAt",
              "type": "uint256"
            }
          ],
          "internalType": "struct GameNFT.NFTMetadata",
          "name": "",
          "type": "tuple"
        }
      ],
      "stateMutability": "view",
      "type": "function"
    },
    {
      "inputs": [
        {
          "internalType": "address",
          "name": "owner",
          "type": "address"
        }
      ],
      "name": "getOwnedTokens",
      "outputs": [
        {
          "internalType": "uint256[]",
          "name": "",
          "type": "uint256[]"
        }
      ],
      "stateMutability": "view",
      "type": "function"
    },
    {
      "inputs": [
        {
          "internalType": "address",
          "name": "owner",
          "type": "address"
        },
        {
          "internalType": "address",
          "name": "operator",
          "type": "address"
        }
      ],
      "name": "isApprovedForAll",
      "outputs": [
        {
          "internalType": "bool",
          "name": "",
          "type": "bool"
        }
      ],
      "stateMutability": "view",
      "type": "function"
    },
    {
      "inputs": [
        {
          "internalType": "address",
          "name": "to",
          "type": "address"
        },
        {
          "internalType": "uint256",
          "name": "achievementType",
          "type": "uint256"
        },
        {
          "internalType": "uint256",
          "name": "gameId",
          "type": "uint256"
        },
        {
          "internalType": "uint256",
          "name": "value",
          "type": "uint256"
        },
        {
          "internalType": "string",
          "name": "tokenURI",
          "type": "string"
        }
      ],
      "name": "mintAchievement",
      "outputs": [
        {
          "internalType": "uint256",
          "name": "",
          "type": "uint256"
        }
      ],
      "stateMutability": "nonpayable",
      "type": "function"
    },
    {
      "inputs": [],
      "name": "name",
      "outputs": [
        {
          "internalType": "string",
          "name": "",
          "type": "string"
        }
      ],
      "stateMutability": "view",
      "type": "function"
    },
    {
      "inputs": [
        {
          "internalType": "uint256",
          "name": "",
          "type": "uint256"
        }
      ],
      "name": "nftMetadata",
      "outputs": [
        {
          "internalType": "uint256",
          "name": "achievementType",
          "type": "uint256"
        },
        {
          "internalType": "uint256",
          "name": "gameId",
          "type": "uint256"
        },
        {
          "internalType": "uint256",
          "name": "value",
          "type": "uint256"
        },
        {
          "internalType": "uint256",
          "name": "mintedAt",
          "type": "uint256"
        }
      ],
      "stateMutability": "view",
      "type": "function"
    },
    {
      "inputs": [],
      "name": "owner",
      "outputs": [
        {
          "internalType": "address",
          "name": "",
          "type": "address"
        }
      ],
      "stateMutability": "view",
      "type": "function"
    },
    {
      "inputs": [
        {
          "internalType": "uint256",
          "name": "tokenId",
          "type": "uint256"
        }
      ],
      "name": "ownerOf",
      "outputs": [
        {
          "internalType": "address",
          "name": "",
          "type": "address"
        }
      ],
      "stateMutability": "view",
      "type": "function"
    },
    {
      "inputs": [],
      "name": "renounceOwnership",
      "outputs": [],
      "stateMutability": "nonpayable",
      "type": "function"
    },
    {
      "inputs": [
        {
          "internalType": "address",
          "name": "from",
          "type": "address"
        },
        {
          "internalType": "address",
          "name": "to",
          "type": "address"
        },
        {
          "internalType": "uint256",
          "name": "tokenId",
          "type": "uint256"
        }
      ],
      "name": "safeTransferFrom",
      "outputs": [],
      "stateMutability": "nonpayable",
      "type": "function"
    },
    {
      "inputs": [
        {
          "internalType": "address",
          "name": "from",
          "type": "address"
        },
        {
          "internalType": "address",
          "name": "to",
          "type": "address"
        },
        {
          "internalType": "uint256",
          "name": "tokenId",
          "type": "uint256"
        },
        {
          "internalType": "bytes",
          "name": "data",
          "type": "bytes"
        }
      ],
      "name": "safeTransferFrom",
      "outputs": [],
      "stateMutability": "nonpayable",
      "type": "function"
    },
    {
      "inputs": [
        {
          "internalType": "address",
          "name": "operator",
          "type": "address"
        },
        {
          "internalType": "bool",
          "name": "approved",
          "type": "bool"
        }
      ],
      "name": "setApprovalForAll",
      "outputs": [],
      "stateMutability": "nonpayable",
      "type": "function"
    },
    {
      "inputs": [
        {
          "internalType": "address",
          "name": "minter",
          "type": "address"
        },
        {
          "internalType": "bool",
          "name": "status",
          "type": "bool"
        }
      ],
      "name": "setAuthorizedMinter",
      "outputs": [],
      "stateMutability": "nonpayable",
      "type": "function"
    },
    {
      "inputs": [
        {
          "internalType": "bytes4",
          "name": "interfaceId",
          "type": "bytes4"
        }
      ],
      "name": "supportsInterface",
      "outputs": [
        {
          "internalType": "bool",
          "name": "",
          "type": "bool"
        }
      ],
      "stateMutability": "view",
      "type": "function"
    },
    {
      "inputs": [],
      "name": "symbol",
      "outputs": [
        {
          "internalType": "string",
          "name": "",
          "type": "string"
        }
      ],
      "stateMutability": "view",
      "type": "function"
    },
    {
      "inputs": [
        {
          "internalType": "uint256",
          "name": "tokenId",
          "type": "uint256"
        }
      ],
      "name": "tokenURI",
      "outputs": [
        {
          "internalType": "string",
          "name": "",
          "type": "string"
        }
      ],
      "stateMutability": "view",
      "type": "function"
    },
    {
      "inputs": [],
      "name": "totalMinted",
      "outputs": [
        {
          "internalType": "uint256",
          "name": "",
          "type": "uint256"
        }
      ],
      "stateMutability": "view",
      "type": "function"
    },
    {
      "inputs": [
        {
          "internalType": "address",
          "name": "from",
          "type": "address"
        },
        {
          "internalType": "address",
          "name": "to",
          "type": "address"
        },
        {
          "internalType": "uint256",
          "name": "tokenId",
          "type": "uint256"
        }
      ],
      "name": "transferFrom",
      "outputs": [],
      "stateMutability": "nonpayable",
      "type": "function"
    },
    {
      "inputs": [
        {
          "internalType": "address",
          "name": "newOwner",
          "type": "address"
        }
      ],
      "name": "transferOwnership",
      "outputs": [],
      "stateMutability": "nonpayable",
      "type": "function"
    }
  ],
  "bytecode": "0x608034620003b6576001600160401b0390604081810183811183821017620003a0578152601782526020927f576562332041726361646520416368696576656d656e740000000000000000008484015281519082820182811082821117620003a0578352600490818352635733414160e01b8684015284518181116200038b576000938454916001978884811c9416801562000380575b8a8510146200036d578190601f948581116200031a575b508a90858311600114620002b5578892620002a9575b5050600019600383901b1c191690881b1785555b8051928311620002965786548781811c911680156200028b575b8982101462000278579081838594931162000223575b5088918311600114620001bf578592620001b3575b5050600019600383901b1c191690851b1784555b33156200019e575060078054336001600160a01b03198216811790925583519560099290916001600160a01b03167f8be0079c531659141344cd1fd0a4f28419497f9722a3daafe3b4186f6b6457e08580a333835252209060ff1982541617905561161d9081620003bc8239f35b9151631e4fbdf760e01b815291820152602490fd5b0151905038806200011c565b8786528886208894509190601f198416875b8b8282106200020c5750508411620001f2575b505050811b01845562000130565b015160001960f88460031b161c19169055388080620001e4565b8385015186558b97909501949384019301620001d1565b909192508786528886208380860160051c8201928b87106200026e575b9186958b929594930160051c01915b8281106200025f57505062000107565b8881558695508a91016200024f565b9250819262000240565b634e487b7160e01b865260228552602486fd5b90607f1690620000f1565b634e487b7160e01b855260418452602485fd5b015190503880620000c3565b8880528b89208b94509190601f1984168a8e5b828210620003025750508411620002e8575b505050811b018555620000d7565b015160001960f88460031b161c19169055388080620002da565b8385015186558e979095019493840193018e620002c8565b9091508780528a88208580850160051c8201928d861062000363575b918c91869594930160051c01915b82811062000354575050620000ad565b8a81558594508c910162000344565b9250819262000336565b634e487b7160e01b875260228652602487fd5b93607f169362000096565b604183634e487b7160e01b6000525260246000fd5b634e487b7160e01b600052604160045260246000fd5b600080fdfe6080604081815260048036101561001557600080fd5b600092833560e01c90816301ffc9a714610fc55750806306fdde0314610f1d578063081812fc14610ee2578063095ea7b314610e0657806323b872dd14610dee57806342842e0e14610dbf5780634954101514610d765780636352211e14610d455780636be9a6f114610c6257806370a0823114610c35578063715018a614610bd85780638da5cb5b14610baf57806395d89b4114610acc578063a22cb46514610a39578063a2309ff814610a1a578063aa2fe91b146109dc578063b58c43ac146104f5578063b88d4fde14610482578063c87b56dd1461038d578063d9d616551461026d578063e985e9c51461021f578063ed58bad8146101b25763f2fde38b1461012057600080fd5b346101ae5760203660031901126101ae5761013961108b565b906101426111e3565b6001600160a01b03918216928315610198575050600754826bffffffffffffffffffffffff60a01b821617600755167f8be0079c531659141344cd1fd0a4f28419497f9722a3daafe3b4186f6b6457e08380a380f35b51631e4fbdf760e01b8152908101849052602490fd5b8280fd5b50503461021b577f9041c22ed79d1c19c69cc22fd9e38c93da4f2dd8cd32580594e232a8a18541cb60206101e5366110f1565b906101ee6111e3565b6001600160a01b031680865260098352848620805460ff191660ff8415151617905593519015158152a280f35b5080fd5b50503461021b578060031936011261021b5760ff8160209361023f61108b565b6102476110a6565b6001600160a01b0391821683526005875283832091168252855220549151911615158152f35b5091903461021b576020806003193601126101ae5761028a61108b565b6102938161120f565b9361029d856115cf565b916102aa8551938461116e565b8583526102b6866115cf565b8385019190601f190136833760085496929586936001600160a01b039283169390855b8a811080610384575b1561034457808752600289528585858920541614610309575b610304906115aa565b6102d9565b98875181101561033157610329818b8b6103049460051b8c0101526115aa565b9990506102fb565b634e487b7160e01b875260328c52602487fd5b505081518781528651818901819052909283929083019189885b82811061036d57505050500390f35b83518552869550938101939281019260010161035e565b50818a106102e2565b5090346101ae576020918260031936011261047e57356103ac81611421565b508352600682528083209281518094829080546103c881611248565b91828552600191888382169182600014610457575050600114610419575b5050506104159392916103fa91038661116e565b815161040581611152565b525192828493845283019061104b565b0390f35b8552868520879350859291905b82841061043f57505050820101816103fa6104156103e6565b8054848b018601528995508894909301928101610426565b60ff19168782015293151560051b860190930193508492506103fa915061041590506103e6565b8380fd5b83823461021b57608036600319011261021b5761049d61108b565b6104a56110a6565b6044359060643567ffffffffffffffff81116104f157366023820112156104f1576104ee948160246104dc933693013591016111ac565b926104e8838383611282565b3361145c565b80f35b8580fd5b5082346109d95760a03660031901126109d95761051061108b565b926084359367ffffffffffffffff928386116109d957366023870112156109d9576105456024963690888189013591016111ac565b953382526020956009875260ff8584205416156109a15760085495610569876115aa565b6008558551986105788a611152565b848a526001600160a01b0399868b1696871561098b57868a898b8e9f839f859d9e9f6002928188528383528488205416938415159788610958575b8681526003845220805460019081019091559d52528d8c2080546001600160a01b031916831790557fddf252ad1be2c89b69c2b068fc378daa952ba7f163c4a11628f55a4df523b3ef8c80a4610942573b61081d575b5088865260068a5287862092815192831161080b57509189939189979695936106328354611248565b601f81116107ad575b508590601f83116001146107225791808896949260609896947f877890defa05b14f86d9eb216d69148da70a2de2bb0205b4156fcd4f60bd76d89a92610717575b5050600019600383901b1c191690841b1790555b7ff8e1a15aba9398e019f0b49df1a4fde98ee17ae345cb5f6b5e2c27f5033e8ce7838a518a8152a16003888a51926106c784611120565b359586845285840194604435958681528d80870193600a6064359a8b87528d8a0197428952835252209551865551908501555160028401555191015587519283528983015286820152a351908152f35b015190508e8061067c565b8388528688209190601f198416895b81811061079557509287959392859260609a98967f877890defa05b14f86d9eb216d69148da70a2de2bb0205b4156fcd4f60bd76d89c9a951061077c575b505050811b019055610690565b015160001960f88460031b161c191690558e808061076f565b8284015185558e9c5093880193928901928901610731565b919395509186819597989950528a8720601f840160051c8101918c8510610801575b918b999897959391601f8e9896940160051c01905b8181106107f1575061063b565b8881558c9a508d975086016107e4565b90915081906107cf565b634e487b7160e01b8752604190528386fd5b926108628b869c97958a8a80869f9a8f9e9f5196879586948593630a85bd0160e11b9b8c865233908601528401528d604484015260806064840152608483019061104b565b03925af18891816108fe575b506108ca575050505050503d6000146108c1573d61088b81611190565b906108988551928361116e565b81528092823d92013e5b815191826108be575050505191633250574960e11b8352820152fd5b01fd5b606091506108a2565b959a949997989793956001600160e01b031916036108e8578a610609565b50508551633250574960e11b8152908101859052fd5b9091508781813d831161093b575b610916818361116e565b8101031261093757516001600160e01b03198116810361093757908d61086e565b8880fd5b503d61090c565b89516339e3563760e11b81528086018990528690fd5b600083815260046020526040902080546001600160a01b03191690558581526003845281812080546000190190556105b3565b8851633250574960e11b81528086018890528690fd5b60156064928887519362461bcd60e51b8552840152820152742737ba1030baba3437b934bd32b21036b4b73a32b960591b6044820152fd5b80fd5b50503461021b57602036600319011261021b5760209160ff9082906001600160a01b03610a0761108b565b1681526009855220541690519015158152f35b50503461021b578160031936011261021b576020906008549051908152f35b5090346101ae57610a49366110f1565b6001600160a01b03909116929091908315610ab757503384526005602052808420838552602052610a88828286209060ff801983541691151516179055565b5190151581527f17307eab39ab6107e8899845ad3d59bd9653f200f220920489ca2b5937696c3160203392a380f35b836024925191630b61174360e31b8352820152fd5b50503461021b578160031936011261021b57805190826001805491610af083611248565b80865292828116908115610b875750600114610b2b575b505050610b198261041594038361116e565b5191829160208352602083019061104b565b94508085527fb10e2d527612073b26eecdfd717e6a320cf44b4afac2b0732d9fcbe2b7fa0cf65b828610610b6f57505050610b198260206104159582010194610b07565b80546020878701810191909152909501948101610b52565b610415975086935060209250610b1994915060ff191682840152151560051b82010194610b07565b50503461021b578160031936011261021b5760075490516001600160a01b039091168152602090f35b83346109d957806003193601126109d957610bf16111e3565b600780546001600160a01b0319811690915581906001600160a01b03167f8be0079c531659141344cd1fd0a4f28419497f9722a3daafe3b4186f6b6457e08280a380f35b50503461021b57602036600319011261021b57602090610c5b610c5661108b565b61120f565b9051908152f35b5082346109d9576020918260031936011261021b578035908260608651610c8881611120565b828152868101839052878101839052015281835260028452848320546001600160a01b031615610d0b57508152600a825282902082516080939091610ccc83611120565b80549384845260018201548185019081526060600360028501549486880195865201549501948552835195865251908501525190830152516060820152f35b845162461bcd60e51b81529081018490526014602482015273151bdad95b88191bd95cc81b9bdd08195e1a5cdd60621b6044820152606490fd5b5091346109d95760203660031901126109d95750610d6560209235611421565b90516001600160a01b039091168152f35b50346101ae5760203660031901126101ae576080928291358152600a60205220908154916001810154916003600283015492015492815194855260208501528301526060820152f35b50503461021b576104ee90610dd3366110bc565b91925192610de084611152565b8584526104e8838383611282565b83346109d9576104ee610e00366110bc565b91611282565b5090346101ae57806003193601126101ae57610e2061108b565b91602435610e2d81611421565b33151580610ecf575b80610ea6575b610e90576001600160a01b039485169482918691167f8c5be1e5ebec7d5bd14f71427d1e84f3dd0314c0f7b2291e5b200ac8c7c3b9258880a48452602052822080546001600160a01b031916909117905580f35b835163a9fbf51f60e01b81523381850152602490fd5b506001600160a01b03811686526005602090815284872033885290528386205460ff1615610e3c565b506001600160a01b038116331415610e36565b50346101ae5760203660031901126101ae57918260209335610f0381611421565b50825283528190205490516001600160a01b039091168152f35b50503461021b578160031936011261021b57805190828054610f3e81611248565b80855291600191808316908115610b875750600114610f6957505050610b198261041594038361116e565b80809650527f290decd9548b62a8d60345a988386fc84ba6bc95484008f6362f93160ef3e5635b828610610fad57505050610b198260206104159582010194610b07565b80546020878701810191909152909501948101610f90565b925050346101ae5760203660031901126101ae573563ffffffff60e01b81168091036101ae5760209250632483248360e11b8114908115611008575b5015158152f35b6380ac58cd60e01b81149150811561103a575b8115611029575b5038611001565b6301ffc9a760e01b14905038611022565b635b5e139f60e01b8114915061101b565b919082519283825260005b848110611077575050826000602080949584010152601f8019910116010190565b602081830181015184830182015201611056565b600435906001600160a01b03821682036110a157565b600080fd5b602435906001600160a01b03821682036110a157565b60609060031901126110a1576001600160a01b039060043582811681036110a1579160243590811681036110a1579060443590565b60409060031901126110a1576004356001600160a01b03811681036110a1579060243580151581036110a15790565b6080810190811067ffffffffffffffff82111761113c57604052565b634e487b7160e01b600052604160045260246000fd5b6020810190811067ffffffffffffffff82111761113c57604052565b90601f8019910116810190811067ffffffffffffffff82111761113c57604052565b67ffffffffffffffff811161113c57601f01601f191660200190565b9291926111b882611190565b916111c6604051938461116e565b8294818452818301116110a1578281602093846000960137010152565b6007546001600160a01b031633036111f757565b60405163118cdaa760e01b8152336004820152602490fd5b6001600160a01b0316801561122f57600052600360205260406000205490565b6040516322718ad960e21b815260006004820152602490fd5b90600182811c92168015611278575b602083101461126257565b634e487b7160e01b600052602260045260246000fd5b91607f1691611257565b6001600160a01b03918216929091831561140857600092828452826020956002875260409684888820541696879133151580611372575b509060027fddf252ad1be2c89b69c2b068fc378daa952ba7f163c4a11628f55a4df523b3ef928461133f575b858352600381528b8320805460010190558683525289812080546001600160a01b0319168517905580a4169283830361131e5750505050565b6064945051926364283d7b60e01b8452600484015260248301526044820152fd5b600087815260046020526040902080546001600160a01b0319169055848352600381528b832080546000190190556112e5565b919394509150806113c7575b1561138e578592918791386112b9565b8786886113ab576024915190637e27328960e01b82526004820152fd5b604491519063177e802f60e01b82523360048301526024820152fd5b5033871480156113ec575b8061137e575085825260048152338589842054161461137e565b5086825260058152878220338352815260ff88832054166113d2565b604051633250574960e11b815260006004820152602490fd5b6000818152600260205260409020546001600160a01b0316908115611444575090565b60249060405190637e27328960e01b82526004820152fd5b90939192833b61146e575b5050505050565b604051630a85bd0160e11b8082526001600160a01b0393841660048301529583166024820152604481019190915260806064820152949216926020929185906114bb90608483019061104b565b039483816000978189895af1869181611566575b50611530575050503d600014611527573d6114e981611190565b906114f7604051928361116e565b81528093823d92013e5b8251928361152257604051633250574960e11b815260048101849052602490fd5b019050fd5b60609250611501565b919450915063ffffffff60e01b160361154e57503880808080611467565b60249060405190633250574960e11b82526004820152fd5b9091508481813d83116115a3575b61157e818361116e565b8101031261159f57516001600160e01b03198116810361159f5790386114cf565b8680fd5b503d611574565b60001981146115b95760010190565b634e487b7160e01b600052601160045260246000fd5b67ffffffffffffffff811161113c5760051b6020019056fea2646970667358221220d628c5f0dee466a589ec3968bc4fca038ba61e69f2c4171cf29f368fa902844c64736f6c63430008140033",
  "linkReferences": {},
  "deployedLinkReferences": {}
}