{
  "_format": "hh-sol-artifact-1",
  "contractName": "GinixGameCore",
  "sourceName": "core/GinixGameCore.sol",
  "abi": [
    {
      "inputs": [],
      "stateMutability": "nonpayable",
      "type": "constructor"
    },
    {
      "inputs": [
        {
          "internalType": "address",
          "name": "owner",
          "type": "address"
        }
      ],
      "name": "OwnableInvalidOwner",
      "type": "error"
    },
    {
      "inputs": [
        {
          "internalType": "address",
          "name": "account",
          "type": "address"
        }
      ],
      "name": "OwnableUnauthorizedAccount",
      "type": "error"
    },
    {
      "anonymous": false,
      "inputs": [
        {
          "indexed": true,
          "internalType": "address",
          "name": "player",
          "type": "address"
        },
        {
          "indexed": true,
          "internalType": "bytes32",
          "name": "gameId",
          "type": "bytes32"
        },
        {
          "indexed": false,
          "internalType": "uint64",
          "name": "newScore",
          "type": "uint64"
        }
      ],
      "name": "HighScoreUpdated",
      "type": "event"
    },
    {
      "anonymous": false,
      "inputs": [
        {
          "indexed": false,
          "internalType": "uint32[]",
          "name": "thresholds",
          "type": "uint32[]"
        },
        {
          "indexed": false,
          "internalType": "uint32[]",
          "name": "values",
          "type": "uint32[]"
        }
      ],
      "name": "MultiplierConfigured",
      "type": "event"
    },
    {
      "anonymous": false,
      "inputs": [
        {
          "indexed": true,
          "internalType": "address",
          "name": "previousOwner",
          "type": "address"
        },
        {
          "indexed": true,
          "internalType": "address",
          "name": "newOwner",
          "type": "address"
        }
      ],
      "name": "OwnershipTransferred",
      "type": "event"
    },
    {
      "anonymous": false,
      "inputs": [
        {
          "indexed": true,
          "internalType": "address",
          "name": "player",
          "type": "address"
        },
        {
          "indexed": false,
          "internalType": "uint64",
          "name": "timestamp",
          "type": "uint64"
        }
      ],
      "name": "PlayerRegistered",
      "type": "event"
    },
    {
      "anonymous": false,
      "inputs": [
        {
          "indexed": true,
          "internalType": "address",
          "name": "player",
          "type": "address"
        },
        {
          "indexed": true,
          "internalType": "bytes32",
          "name": "gameId",
          "type": "bytes32"
        },
        {
          "indexed": false,
          "internalType": "uint64",
          "name": "score",
          "type": "uint64"
        },
        {
          "indexed": false,
          "internalType": "uint64",
          "name": "duration",
          "type": "uint64"
        }
      ],
      "name": "SessionRecorded",
      "type": "event"
    },
    {
      "anonymous": false,
      "inputs": [
        {
          "indexed": true,
          "internalType": "address",
          "name": "player",
          "type": "address"
        },
        {
          "indexed": false,
          "internalType": "uint64",
          "name": "amount",
          "type": "uint64"
        },
        {
          "indexed": false,
          "internalType": "uint64",
          "name": "newTotal",
          "type": "uint64"
        }
      ],
      "name": "XPAdded",
      "type": "event"
    },
    {
      "inputs": [
        {
          "internalType": "address",
          "name": "player",
          "type": "address"
        },
        {
          "internalType": "uint64",
          "name": "amount",
          "type": "uint64"
        }
      ],
      "name": "addXP",
      "outputs": [],
      "stateMutability": "nonpayable",
      "type": "function"
    },
    {
      "inputs": [
        {
          "internalType": "address",
          "name": "player",
          "type": "address"
        },
        {
          "internalType": "uint64",
          "name": "baseAmount",
          "type": "uint64"
        }
      ],
      "name": "applyMultiplier",
      "outputs": [
        {
          "internalType": "uint64",
          "name": "",
          "type": "uint64"
        }
      ],
      "stateMutability": "view",
      "type": "function"
    },
    {
      "inputs": [
        {
          "internalType": "uint32[]",
          "name": "thresholds",
          "type": "uint32[]"
        },
        {
          "internalType": "uint32[]",
          "name": "values",
          "type": "uint32[]"
        }
      ],
      "name": "configureMultipliers",
      "outputs": [],
      "stateMutability": "nonpayable",
      "type": "function"
    },
    {
      "inputs": [],
      "name": "defaultMultiplier",
      "outputs": [
        {
          "internalType": "uint32",
          "name": "",
          "type": "uint32"
        }
      ],
      "stateMutability": "view",
      "type": "function"
    },
    {
      "inputs": [
        {
          "internalType": "address",
          "name": "",
          "type": "address"
        },
        {
          "internalType": "bytes32",
          "name": "",
          "type": "bytes32"
        }
      ],
      "name": "gameScores",
      "outputs": [
        {
          "internalType": "uint64",
          "name": "",
          "type": "uint64"
        }
      ],
      "stateMutability": "view",
      "type": "function"
    },
    {
      "inputs": [
        {
          "internalType": "address",
          "name": "player",
          "type": "address"
        },
        {
          "internalType": "bytes32",
          "name": "gameId",
          "type": "bytes32"
        }
      ],
      "name": "getHighScore",
      "outputs": [
        {
          "internalType": "uint64",
          "name": "",
          "type": "uint64"
        }
      ],
      "stateMutability": "view",
      "type": "function"
    },
    {
      "inputs": [
        {
          "internalType": "address",
          "name": "player",
          "type": "address"
        }
      ],
      "name": "getPlayer",
      "outputs": [
        {
          "components": [
            {
              "internalType": "uint64",
              "name": "xp",
              "type": "uint64"
            },
            {
              "internalType": "uint64",
              "name": "sessionsPlayed",
              "type": "uint64"
            },
            {
              "internalType": "uint64",
              "name": "joinedAt",
              "type": "uint64"
            },
            {
              "internalType": "uint32",
              "name": "level",
              "type": "uint32"
            }
          ],
          "internalType": "struct GinixGameCore.Player",
          "name": "",
          "type": "tuple"
        }
      ],
      "stateMutability": "view",
      "type": "function"
    },
    {
      "inputs": [
        {
          "internalType": "address",
          "name": "player",
          "type": "address"
        }
      ],
      "name": "getPlayerLevel",
      "outputs": [
        {
          "internalType": "uint32",
          "name": "",
          "type": "uint32"
        }
      ],
      "stateMutability": "view",
      "type": "function"
    },
    {
      "inputs": [
        {
          "internalType": "address",
          "name": "player",
          "type": "address"
        }
      ],
      "name": "getPlayerMultiplier",
      "outputs": [
        {
          "internalType": "uint32",
          "name": "",
          "type": "uint32"
        }
      ],
      "stateMutability": "view",
      "type": "function"
    },
    {
      "inputs": [
        {
          "internalType": "uint256",
          "name": "",
          "type": "uint256"
        }
      ],
      "name": "multiplierThresholds",
      "outputs": [
        {
          "internalType": "uint32",
          "name": "",
          "type": "uint32"
        }
      ],
      "stateMutability": "view",
      "type": "function"
    },
    {
      "inputs": [
        {
          "internalType": "uint256",
          "name": "",
          "type": "uint256"
        }
      ],
      "name": "multiplierValues",
      "outputs": [
        {
          "internalType": "uint32",
          "name": "",
          "type": "uint32"
        }
      ],
      "stateMutability": "view",
      "type": "function"
    },
    {
      "inputs": [],
      "name": "owner",
      "outputs": [
        {
          "internalType": "address",
          "name": "",
          "type": "address"
        }
      ],
      "stateMutability": "view",
      "type": "function"
    },
    {
      "inputs": [
        {
          "internalType": "address",
          "name": "",
          "type": "address"
        }
      ],
      "name": "players",
      "outputs": [
        {
          "internalType": "uint64",
          "name": "xp",
          "type": "uint64"
        },
        {
          "internalType": "uint64",
          "name": "sessionsPlayed",
          "type": "uint64"
        },
        {
          "internalType": "uint64",
          "name": "joinedAt",
          "type": "uint64"
        },
        {
          "internalType": "uint32",
          "name": "level",
          "type": "uint32"
        }
      ],
      "stateMutability": "view",
      "type": "function"
    },
    {
      "inputs": [
        {
          "internalType": "address",
          "name": "player",
          "type": "address"
        },
        {
          "internalType": "bytes32",
          "name": "gameId",
          "type": "bytes32"
        },
        {
          "internalType": "uint64",
          "name": "score",
          "type": "uint64"
        },
        {
          "internalType": "uint64",
          "name": "duration",
          "type": "uint64"
        }
      ],
      "name": "recordSession",
      "outputs": [],
      "stateMutability": "nonpayable",
      "type": "function"
    },
    {
      "inputs": [],
      "name": "renounceOwnership",
      "outputs": [],
      "stateMutability": "nonpayable",
      "type": "function"
    },
    {
      "inputs": [],
      "name": "totalPlayers",
      "outputs": [
        {
          "internalType": "uint256",
          "name": "",
          "type": "uint256"
        }
      ],
      "stateMutability": "view",
      "type": "function"
    },
    {
      "inputs": [],
      "name": "totalSessions",
      "outputs": [
        {
          "internalType": "uint256",
          "name": "",
          "type": "uint256"
        }
      ],
      "stateMutability": "view",
      "type": "function"
    },
    {
      "inputs": [
        {
          "internalType": "address",
          "name": "newOwner",
          "type": "address"
        }
      ],
      "name": "transferOwnership",
      "outputs": [],
      "stateMutability": "nonpayable",
      "type": "function"
    }
  ],
  "bytecode": "0x6080806040523461008b5733156100755760008054336001600160a01b03198216811783556040519290916001600160a01b0316907f8be0079c531659141344cd1fd0a4f28419497f9722a3daafe3b4186f6b6457e09080a361271063ffffffff1960075416176007556110db90816100918239f35b631e4fbdf760e01b815260006004820152602490fd5b600080fdfe6040608081526004908136101561001557600080fd5b600091823560e01c9081630729ab5d14610cb75781632b2bd4f514610b2357816333faaed5146109f557816334b735a114610ae15781633f84b4e914610a4057816359c4e08a146109f55781635c12cd4b1461094c5781636f5db0b51461092e578163715018a6146108d45781637a53ccf31461040c5781638da5cb5b146103e45781639c2167cf146103a2578163d6c49b941461025d578163e2eb41ff146101f8578163e3cad43c146101ba578163e489182514610195578163f2fde38b1461010a575063f60cdcf6146100e957600080fd5b346101065781600319360112610106576020906003549051908152f35b5080fd5b90503461019157602036600319011261019157610125610d55565b9061012e610db6565b6001600160a01b0391821692831561017b57505082546001600160a01b0319811683178455167f8be0079c531659141344cd1fd0a4f28419497f9722a3daafe3b4186f6b6457e08380a380f35b51631e4fbdf760e01b8152908101849052602490fd5b8280fd5b50503461010657816003193601126101065760209063ffffffff600754169051908152f35b5050346101065780600319360112610106576020906001600160401b036101f06101e2610d55565b6101ea610d70565b90610f61565b915191168152f35b5050346101065760203660031901126101065760809163ffffffff9082906001600160a01b03610226610d55565b168152600160205220548251926001600160401b0380831685528083831c16602086015282861c169084015260c01c166060820152f35b838334610106578060031936011261010657610277610d55565b9061029a610283610d70565b61028b610db6565b61029484610e3c565b83610f61565b6001600160a01b03909216808452600160205281842080549193916001600160401b0391908281168385160183811161038f578316906001600160401b031916179055838552600160205263ffffffff600181606484878a20541604160190811161037c578486526001602052838620805463ffffffff60c01b191660c09290921b63ffffffff60c01b169190911781557f26ad6644c4da54fbabde5ddae2b97235fb13980a3c42bf7b95c2194f613382fc939291610376915493516001600160401b0393841681529316909116602083015281906040820190565b0390a280f35b634e487b7160e01b865260118752602486fd5b634e487b7160e01b885260118952602488fd5b9050346101915760203660031901126101915735916006548310156103e1575063ffffffff6103d2602093610d27565b92905490519260031b1c168152f35b80fd5b505034610106578160031936011261010657905490516001600160a01b039091168152602090f35b839150346101065782600319360112610106576001600160401b039281358481116108d05761043e9036908401610d86565b929060249081358781116108cc576104599036908501610d86565b929093610464610db6565b8387036108935760015b8781106107e7575088871161069e57680100000000000000008088116106af5760055488600555808910610764575b50839960058a528860031c9a8a5b8c811061070757506007199b8a8d168b03806106c1575b50505085116106af57841161069e5750506006548260065580831061061b575b508296600687528260031c90875b8281106105be57508316830380610552575b855186815288907fbba0e07af16af3a8ba217f7db115f03cb51f1c23ad8afbea44cce18a5dde0396908061054c898961053e848e018f8c61101e565b91848303602086015261101e565b0390a180f35b978798885b818110610585575050506000805160206110868339815191520196909655939485949061053e61054c610502565b90919960206105b46001926105998e61100d565b908560021b60031b9163ffffffff809116831b921b19161790565b9b01929101610557565b88895b600881106105e457506000805160206110868339815191528201556001016104f0565b9a9060206106128d6001936105f88661100d565b9160021b60031b9163ffffffff809116831b921b19161790565b92019b016105c1565b6007830160031c6007600080516020611086833981519152920160031c820191601c8560021b1680610663575b50015b81811061065857506104e2565b87815560010161064b565b7ff652222313e28459528d920b65115c16c04f3efc82aaedc97be59f3f377c0d3e8301908154906000199060200360031b1c1690558a610648565b634e487b7160e01b88526041905286fd5b50634e487b7160e01b88526041905286fd5b918c928d5b8181106106e95750505060008051602061106683398151915201558b80806104c2565b90919360206106fd6001926105998861100d565b95019291016106c6565b8b8c5b6008811061072d57506000805160206110668339815191528201556001016104ab565b9290602061075b6001926107408561100d565b908760021b60031b9163ffffffff809116831b921b19161790565b9201930161070a565b6007890160031c6007600080516020611066833981519152920160031c820191601c8b60021b16806107ac575b50015b8181106107a1575061049d565b8a8155600101610794565b7f036b6384b5eca791c62761152d0c79bb0604c104a5fb6f4eb0703f3154bb3daf8301908154906000199060200360031b1c1690558d610791565b6107fa6107f5828a87610ffd565b61100d565b6000198201828111610881576107f59061081c63ffffffff9283928d8a610ffd565b16911611156108335761082e90610e17565b61046e565b506023608492602088519362461bcd60e51b85528401528201527f5468726573686f6c6473206d75737420626520736f7274656420617363656e64604482015262696e6760e81b6064820152fd5b634e487b7160e01b8b5260118452848bfd5b6015606492602088519362461bcd60e51b855284015282015274082e4e4c2f240d8cadccee8d040dad2e6dac2e8c6d605b1b6044820152fd5b8680fd5b8380fd5b83346103e157806003193601126103e1576108ed610db6565b80546001600160a01b03198116825581906001600160a01b03167f8be0079c531659141344cd1fd0a4f28419497f9722a3daafe3b4186f6b6457e08280a380f35b90503461019157826003193601126101915760209250549051908152f35b505034610106576020366003190112610106578060809261096b610d55565b816060610976610de2565b8281528260208201528286820152015260018060a01b0316815260016020522061099e610de2565b9054906001600160401b03928383169384835260208301928185841c1684528160608483019282888b1c168452019463ffffffff809760c01c16865284519788525116602087015251169084015251166060820152f35b5050346101065780600319360112610106576020916001600160401b039082906001600160a01b03610a25610d55565b16815260028552818120602435825285522054169051908152f35b8284346103e15760203660031901126103e1576001600160a01b03610a63610d55565b168152600160205263ffffffff808383205460c01c1681600754169290600554905b818310610a9a575b5050506020925191168152f35b9091938390610aa886610ce3565b905460039391841b1c168310610ada575083610ad391610ac787610d27565b9054911b1c1694610e17565b9190610a85565b9450610a8d565b5050346101065760203660031901126101065760209163ffffffff9082906001600160a01b03610b0f610d55565b16815260018552205460c01c169051908152f35b83833461010657608036600319011261010657610b3e610d55565b90602435916044356001600160401b03928382168083036108cc57606435938585168503610cb357610b6e610db6565b610b7781610e3c565b6001600160a01b031680885260016020908152838920805492979192851c8216808314610ca057937f3763b7bf728f1fe6299325dc073989cc229f60856ff7c4ed0da2ac7267d5b942979695938a938d610bfa8c956001610c469a0167ffffffffffffffff60401b82549160401b169067ffffffffffffffff60401b1916179055565b610c048154610e17565b9055838d5260028252858d20858e528252858d2054168211610c4c575b505091516001600160401b039485168152949093166020850152508291506040820190565b0390a380f35b828c5260028152848c20848d528152848c20805467ffffffffffffffff19168317905584519182527f9f8cb80fe1a25466c66e59c049fecb615ced062a7b54d94e548e81bdb909866e91a386868a80610c21565b634e487b7160e01b8b5260118c5260248bfd5b8780fd5b9050346101915760203660031901126101915735916005548310156103e1575063ffffffff6103d26020935b90600554821015610d11576005600052601c8260031c600080516020611066833981519152019260021b1690565b634e487b7160e01b600052603260045260246000fd5b90600654821015610d11576006600052601c8260031c600080516020611086833981519152019260021b1690565b600435906001600160a01b0382168203610d6b57565b600080fd5b602435906001600160401b0382168203610d6b57565b9181601f84011215610d6b578235916001600160401b038311610d6b576020808501948460051b010111610d6b57565b6000546001600160a01b03163303610dca57565b60405163118cdaa760e01b8152336004820152602490fd5b60405190608082018281106001600160401b03821117610e0157604052565b634e487b7160e01b600052604160045260246000fd5b6000198114610e265760010190565b634e487b7160e01b600052601160045260246000fd5b6001600160a01b03166000818152600160205260408120546001600160401b039060801c811615610e6c57505050565b7fbfa0f09dc9c74d4dd4141f6a0415db1ccea289a74ac79e166c4b3f51b5afae5c91610f4a8263ffffffff86602095421694610f0a610ea9610de2565b94828652888601838152816040808901958b875260608a019760018952815260018d52209751166001600160401b03198854161787555116859067ffffffffffffffff60401b82549160401b169067ffffffffffffffff60401b1916179055565b51835491516bffffffffffffffffffffffff60801b1990921660809190911b67ffffffffffffffff60801b1617911660c01b63ffffffff60c01b16179055565b610f55600354610e17565b600355604051908152a2565b6001600160a01b031660009081526001602052604081205460075460055463ffffffff91821693919260c01c83165b818310610fc2575b5050506001600160401b03809316911690818102918183041490151715610e265761271090041690565b9091938390610fd086610ce3565b905460039391841b1c168310610ff6575083610fef91610ac787610d27565b9190610f90565b9450610f98565b9190811015610d115760051b0190565b3563ffffffff81168103610d6b5790565b9190808252602080920192916000805b83821061103d57505050505090565b9091929394853563ffffffff811680910361019157815283019483019392916001019061102e56fe036b6384b5eca791c62761152d0c79bb0604c104a5fb6f4eb0703f3154bb3db0f652222313e28459528d920b65115c16c04f3efc82aaedc97be59f3f377c0d3fa2646970667358221220042d7b11462b438ea6bcaefb0d73a6211fc89dd912a4393ce242a355a65aba6364736f6c63430008140033",
  "linkReferences": {},
  "deployedLinkReferences": {}
}