{
  "_format": "hh-sol-artifact-1",
  "contractName": "GinixGameRegistry",
  "sourceName": "core/GinixGameRegistry.sol",
  "abi": [
    {
      "inputs": [],
      "stateMutability": "nonpayable",
      "type": "constructor"
    },
    {
      "inputs": [
        {
          "internalType": "address",
          "name": "owner",
          "type": "address"
        }
      ],
      "name": "OwnableInvalidOwner",
      "type": "error"
    },
    {
      "inputs": [
        {
          "internalType": "address",
          "name": "account",
          "type": "address"
        }
      ],
      "name": "OwnableUnauthorizedAccount",
      "type": "error"
    },
    {
      "anonymous": false,
      "inputs": [
        {
          "indexed": false,
          "internalType": "address",
          "name": "newCoreContract",
          "type": "address"
        }
      ],
      "name": "CoreContractUpdated",
      "type": "event"
    },
    {
      "anonymous": false,
      "inputs": [
        {
          "indexed": true,
          "internalType": "bytes32",
          "name": "gameId",
          "type": "bytes32"
        },
        {
          "indexed": false,
          "internalType": "string",
          "name": "uri",
          "type": "string"
        },
        {
          "indexed": false,
          "internalType": "uint32",
          "name": "minLevel",
          "type": "uint32"
        }
      ],
      "name": "GameApproved",
      "type": "event"
    },
    {
      "anonymous": false,
      "inputs": [
        {
          "indexed": true,
          "internalType": "bytes32",
          "name": "gameId",
          "type": "bytes32"
        },
        {
          "indexed": false,
          "internalType": "uint32",
          "name": "newMinLevel",
          "type": "uint32"
        }
      ],
      "name": "GameMinLevelUpdated",
      "type": "event"
    },
    {
      "anonymous": false,
      "inputs": [
        {
          "indexed": true,
          "internalType": "bytes32",
          "name": "gameId",
          "type": "bytes32"
        }
      ],
      "name": "GameRevoked",
      "type": "event"
    },
    {
      "anonymous": false,
      "inputs": [
        {
          "indexed": true,
          "internalType": "bytes32",
          "name": "gameId",
          "type": "bytes32"
        },
        {
          "indexed": false,
          "internalType": "string",
          "name": "newUri",
          "type": "string"
        }
      ],
      "name": "GameURIUpdated",
      "type": "event"
    },
    {
      "anonymous": false,
      "inputs": [
        {
          "indexed": true,
          "internalType": "address",
          "name": "previousOwner",
          "type": "address"
        },
        {
          "indexed": true,
          "internalType": "address",
          "name": "newOwner",
          "type": "address"
        }
      ],
      "name": "OwnershipTransferred",
      "type": "event"
    },
    {
      "inputs": [
        {
          "internalType": "bytes32",
          "name": "gameId",
          "type": "bytes32"
        },
        {
          "internalType": "string",
          "name": "uri",
          "type": "string"
        }
      ],
      "name": "approveGame",
      "outputs": [],
      "stateMutability": "nonpayable",
      "type": "function"
    },
    {
      "inputs": [
        {
          "internalType": "bytes32",
          "name": "gameId",
          "type": "bytes32"
        },
        {
          "internalType": "string",
          "name": "uri",
          "type": "string"
        },
        {
          "internalType": "uint32",
          "name": "minLevel",
          "type": "uint32"
        }
      ],
      "name": "approveGameWithLevel",
      "outputs": [],
      "stateMutability": "nonpayable",
      "type": "function"
    },
    {
      "inputs": [
        {
          "internalType": "bytes32",
          "name": "gameId",
          "type": "bytes32"
        },
        {
          "internalType": "address",
          "name": "player",
          "type": "address"
        }
      ],
      "name": "canPlayerAccess",
      "outputs": [
        {
          "internalType": "bool",
          "name": "",
          "type": "bool"
        }
      ],
      "stateMutability": "view",
      "type": "function"
    },
    {
      "inputs": [],
      "name": "coreContract",
      "outputs": [
        {
          "internalType": "contract IGinixCoreLevel",
          "name": "",
          "type": "address"
        }
      ],
      "stateMutability": "view",
      "type": "function"
    },
    {
      "inputs": [
        {
          "internalType": "uint256",
          "name": "",
          "type": "uint256"
        }
      ],
      "name": "gameIds",
      "outputs": [
        {
          "internalType": "bytes32",
          "name": "",
          "type": "bytes32"
        }
      ],
      "stateMutability": "view",
      "type": "function"
    },
    {
      "inputs": [
        {
          "internalType": "bytes32",
          "name": "",
          "type": "bytes32"
        }
      ],
      "name": "games",
      "outputs": [
        {
          "internalType": "bool",
          "name": "approved",
          "type": "bool"
        },
        {
          "internalType": "string",
          "name": "uri",
          "type": "string"
        },
        {
          "internalType": "uint64",
          "name": "addedAt",
          "type": "uint64"
        },
        {
          "internalType": "uint32",
          "name": "minLevel",
          "type": "uint32"
        }
      ],
      "stateMutability": "view",
      "type": "function"
    },
    {
      "inputs": [],
      "name": "getGameCount",
      "outputs": [
        {
          "internalType": "uint256",
          "name": "",
          "type": "uint256"
        }
      ],
      "stateMutability": "view",
      "type": "function"
    },
    {
      "inputs": [
        {
          "internalType": "bytes32",
          "name": "gameId",
          "type": "bytes32"
        }
      ],
      "name": "getGameMeta",
      "outputs": [
        {
          "components": [
            {
              "internalType": "bool",
              "name": "approved",
              "type": "bool"
            },
            {
              "internalType": "string",
              "name": "uri",
              "type": "string"
            },
            {
              "internalType": "uint64",
              "name": "addedAt",
              "type": "uint64"
            },
            {
              "internalType": "uint32",
              "name": "minLevel",
              "type": "uint32"
            }
          ],
          "internalType": "struct GinixGameRegistry.GameMeta",
          "name": "",
          "type": "tuple"
        }
      ],
      "stateMutability": "view",
      "type": "function"
    },
    {
      "inputs": [
        {
          "internalType": "bytes32",
          "name": "gameId",
          "type": "bytes32"
        }
      ],
      "name": "getMinLevel",
      "outputs": [
        {
          "internalType": "uint32",
          "name": "",
          "type": "uint32"
        }
      ],
      "stateMutability": "view",
      "type": "function"
    },
    {
      "inputs": [
        {
          "internalType": "bytes32",
          "name": "gameId",
          "type": "bytes32"
        }
      ],
      "name": "isApproved",
      "outputs": [
        {
          "internalType": "bool",
          "name": "",
          "type": "bool"
        }
      ],
      "stateMutability": "view",
      "type": "function"
    },
    {
      "inputs": [],
      "name": "owner",
      "outputs": [
        {
          "internalType": "address",
          "name": "",
          "type": "address"
        }
      ],
      "stateMutability": "view",
      "type": "function"
    },
    {
      "inputs": [],
      "name": "renounceOwnership",
      "outputs": [],
      "stateMutability": "nonpayable",
      "type": "function"
    },
    {
      "inputs": [
        {
          "internalType": "bytes32",
          "name": "gameId",
          "type": "bytes32"
        }
      ],
      "name": "revokeGame",
      "outputs": [],
      "stateMutability": "nonpayable",
      "type": "function"
    },
    {
      "inputs": [
        {
          "internalType": "address",
          "name": "_core",
          "type": "address"
        }
      ],
      "name": "setCoreContract",
      "outputs": [],
      "stateMutability": "nonpayable",
      "type": "function"
    },
    {
      "inputs": [
        {
          "internalType": "bytes32",
          "name": "gameId",
          "type": "bytes32"
        },
        {
          "internalType": "uint32",
          "name": "minLevel",
          "type": "uint32"
        }
      ],
      "name": "setGameMinLevel",
      "outputs": [],
      "stateMutability": "nonpayable",
      "type": "function"
    },
    {
      "inputs": [
        {
          "internalType": "string",
          "name": "slug",
          "type": "string"
        }
      ],
      "name": "toGameId",
      "outputs": [
        {
          "internalType": "bytes32",
          "name": "",
          "type": "bytes32"
        }
      ],
      "stateMutability": "pure",
      "type": "function"
    },
    {
      "inputs": [
        {
          "internalType": "address",
          "name": "newOwner",
          "type": "address"
        }
      ],
      "name": "transferOwnership",
      "outputs": [],
      "stateMutability": "nonpayable",
      "type": "function"
    },
    {
      "inputs": [
        {
          "internalType": "bytes32",
          "name": "gameId",
          "type": "bytes32"
        },
        {
          "internalType": "string",
          "name": "newUri",
          "type": "string"
        }
      ],
      "name": "updateGameURI",
      "outputs": [],
      "stateMutability": "nonpayable",
      "type": "function"
    }
  ],
  "bytecode": "0x6080806040523461007a5733156100645760008054336001600160a01b03198216811783556040519290916001600160a01b0316907f8be0079c531659141344cd1fd0a4f28419497f9722a3daafe3b4186f6b6457e09080a36111d690816100808239f35b631e4fbdf760e01b815260006004820152602490fd5b600080fdfe6080806040526004908136101561001557600080fd5b60003560e01c90816348aefc3214610c5d575080634953974a14610c2057806349d8ae2414610bae5780636e321c8814610984578063715018a61461092b5780638da5cb5b146109025780638e35d0cb14610838578063b2b0966b14610801578063b5ab2269146105de578063c62666931461052b578063d82c13f0146104db578063d932787714610465578063de697502146103be578063e80db5db14610395578063e87c0ee614610377578063eaed21af146101f0578063f2fde38b146101615763f579f882146100e757600080fd5b3461015c57602036600319011261015c57356000526002602052604060002060ff815416600261011960018401610e1a565b92015463ffffffff61013f60405194859415158552608060208601526080850190610cf0565b916001600160401b038116604085015260401c1660608301520390f35b600080fd5b503461015c57602036600319011261015c5761017b610c8a565b610183610ec0565b6001600160a01b039081169182156101d85750600054826bffffffffffffffffffffffff60a01b821617600055167f8be0079c531659141344cd1fd0a4f28419497f9722a3daafe3b4186f6b6457e0600080a3005b602490600060405191631e4fbdf760e01b8352820152fd5b503461015c576101ff36610d15565b91929061020a610ec0565b836000526020916002835261022660ff6040600020541661104a565b610231841515610f30565b8460005260028352600180604060002001916001600160401b0386116103625750610266856102608454610de0565b84610f72565b6000601f86116001146102d9579185807fcaac4f55f5dbeb77065c56c7b4437a39f921a8f377cb73bf14d154c1a8b0bde4979695936102c9956000936102ce575b501b906000198760031b1c19161790555b604051938385948552840191611029565b0390a2005b8501359250386102a7565b601f1986169083600052856000209160005b81811061034d57509187969593917fcaac4f55f5dbeb77065c56c7b4437a39f921a8f377cb73bf14d154c1a8b0bde4986102c9969410610333575b505085811b0190556102b8565b840135600019600389901b60f8161c191690553880610326565b868301358455928401929187019187016102eb565b604190634e487b7160e01b6000525260246000fd5b3461015c57600036600319011261015c576020600354604051908152f35b3461015c57600036600319011261015c576001546040516001600160a01b039091168152602090f35b503461015c57604036600319011261015c573560243563ffffffff81169081810361015c577fb2c8a9c7f7efb56cf93708ee08fc0737cbec25eed9a11f914c29cecb4b8d181e9161045c602092610413610ec0565b856000526002845261042c60ff6040600020541661104a565b856000526002845260026040600020019063ffffffff60401b82549160401b169063ffffffff60401b1916179055565b604051908152a2005b503461015c57602036600319011261015c5780356001600160401b03811161015c573660238201121561015c576020918160246104a793369301359101610d9a565b6040516104d08382816104c38183019687815193849201610ccd565b8101038084520182610d79565b519020604051908152f35b503461015c57602036600319011261015c573560035481101561015c5760209060036000527fc2575a0e9e593c00f959f8c92f12db2869c3395a3b0502d05e2516446f71f85b0154604051908152f35b503461015c57602036600319011261015c57610545610c8a565b61054d610ec0565b6001600160a01b03169081156105a3577fb123bcd3d6124a115bda145c514c97efa40aa64417fbf5496835ca57b7991563602083806bffffffffffffffffffffffff60a01b6001541617600155604051908152a1005b60649060206040519162461bcd60e51b83528201526014602482015273496e76616c696420636f7265206164647265737360601b6044820152fd5b503461015c576105ed36610d15565b6105f5610ec0565b82600052600260205261061060ff6040600020541615610eec565b61061b811515610f30565b60405161062781610d48565b60018152610636368385610d9a565b6020820190815260408201916001600160401b034216835260608101916000835286600052600260205261067e604060002092511515839060ff801983541691151516179055565b51968751906001600160401b03821161036257506106ac816106a36001850154610de0565b60018501610f72565b6020601f821160011461076d57600263ffffffff93836107369796946001600160401b03946000805160206111818339815191529c9d600092610762575b50508160011b916000199060031b1c19161760018201555b019351166001600160401b0319845416178355511663ffffffff60401b82549160401b169063ffffffff60401b1916179055565b61073f84610fc6565b610756604051928392604084526040840191611029565b600060208301520390a2005b0151905038806106ea565b6001830160005260206000209860005b601f19841681106107e9575063ffffffff936001846000805160206111818339815191529b9c6001600160401b03956002956107369b9a98601f198116106107d0575b505050811b016001820155610702565b015160001960f88460031b161c191690553880806107c0565b828201518b556001909a01996020928301920161077d565b503461015c57602036600319011261015c57356000526002602052602063ffffffff60026040600020015460401c16604051908152f35b503461015c576020908160031936011261015c576000606060405161085c81610d48565b82815281858201528260408201520152356000526002815260406000206040519061088682610d48565b60ff81541615158252600261089d60018301610e1a565b91848401928352015460408301916001600160401b0380831684526108ef606086019263ffffffff809560401c16845260405197889781895251151590880152516080604088015260a0870190610cf0565b9351166060850152511660808301520390f35b3461015c57600036600319011261015c576000546040516001600160a01b039091168152602090f35b3461015c57600036600319011261015c57610944610ec0565b600080546001600160a01b0319811682556001600160a01b03167f8be0079c531659141344cd1fd0a4f28419497f9722a3daafe3b4186f6b6457e08280a3005b503461015c57606036600319011261015c578035602435916001600160401b039283811161015c576109b99036908301610ca0565b909160443563ffffffff80821680920361015c576109d5610ec0565b85600052602092600284526109f260ff6040600020541615610eec565b6109fd851515610f30565b60405197610a0a89610d48565b60018952610a19368789610d9a565b98858101998a5260408101998242168b5260608201938685528a60005260028852610a58604060002093511515849060ff801983541691151516179055565b6001830191518051918583116103625750610a7d82610a778554610de0565b85610f72565b8890601f8311600114610b2d5792826002936000805160206111818339815191529e9f989693610af99a9896600092610b22575b50508160011b916000199060031b1c1916179055019351166001600160401b0319845416178355511663ffffffff60401b82549160401b169063ffffffff60401b1916179055565b610b0286610fc6565b610b19604051948594604086526040860191611029565b918301520390a2005b015190503880610ab1565b90601f19831691846000528a6000209260005b818110610b975750936000805160206111818339815191529e9f989693610af99a9896936001938360029810610b7e575b505050811b019055610702565b015160001960f88460031b161c19169055388080610b71565b92938c600181928786015181550195019301610b40565b503461015c57602036600319011261015c5735610bc9610ec0565b806000526002602052610be360ff6040600020541661104a565b806000526002602052604060002060ff1981541690557f77d0949cfd61973208226afdb935a47a8eeef2788ac74131824d0ece739011ab600080a2005b503461015c57604036600319011261015c57602435906001600160a01b038216820361015c57602091610c53913561108a565b6040519015158152f35b90503461015c57602036600319011261015c57602091356000526002825260ff6040600020541615158152f35b600435906001600160a01b038216820361015c57565b9181601f8401121561015c578235916001600160401b03831161015c576020838186019501011161015c57565b60005b838110610ce05750506000910152565b8181015183820152602001610cd0565b90602091610d0981518092818552858086019101610ccd565b601f01601f1916010190565b90604060031983011261015c5760043591602435906001600160401b03821161015c57610d4491600401610ca0565b9091565b608081019081106001600160401b03821117610d6357604052565b634e487b7160e01b600052604160045260246000fd5b90601f801991011681019081106001600160401b03821117610d6357604052565b9291926001600160401b038211610d635760405191610dc3601f8201601f191660200184610d79565b82948184528183011161015c578281602093846000960137010152565b90600182811c92168015610e10575b6020831014610dfa57565b634e487b7160e01b600052602260045260246000fd5b91607f1691610def565b9060405191826000825492610e2e84610de0565b908184526001948581169081600014610e9d5750600114610e5a575b5050610e5892500383610d79565b565b9093915060005260209081600020936000915b818310610e85575050610e5893508201013880610e4a565b85548884018501529485019487945091830191610e6d565b915050610e5894506020925060ff191682840152151560051b8201013880610e4a565b6000546001600160a01b03163303610ed457565b60405163118cdaa760e01b8152336004820152602490fd5b15610ef357565b60405162461bcd60e51b815260206004820152601560248201527411d85b5948185b1c9958591e48185c1c1c9bdd9959605a1b6044820152606490fd5b15610f3757565b60405162461bcd60e51b81526020600482015260136024820152725552492063616e6e6f7420626520656d70747960681b6044820152606490fd5b90601f8111610f8057505050565b600091825260208220906020601f850160051c83019410610fbc575b601f0160051c01915b828110610fb157505050565b818155600101610fa5565b9092508290610f9c565b60035468010000000000000000811015610d635760018101806003558110156110135760036000527fc2575a0e9e593c00f959f8c92f12db2869c3395a3b0502d05e2516446f71f85b0155565b634e487b7160e01b600052603260045260246000fd5b908060209392818452848401376000828201840152601f01601f1916010190565b1561105157565b60405162461bcd60e51b815260206004820152601160248201527011d85b59481b9bdd08185c1c1c9bdd9959607a1b6044820152606490fd5b906000828152602090600282526040918282209460ff86541615611177576002949563ffffffff9586910154851c161561116c576001546001600160a01b039081169690871561115f57602484928751998a9384926334b735a160e01b84521660048301525afa958615611155578396611119575b50928260028093879684965252200154901c169116101590565b9095508181813d831161114e575b6111318183610d79565b8101031261114a5751848116810361114a5794846110ff565b8280fd5b503d611127565b84513d85823e3d90fd5b5050505050505050600190565b505050505050600190565b5050925050509056fe0b2a33c4054977413d59f47c5ffdd8f5d5ec289f85e48259d7c06c96bd6b147ba2646970667358221220bc5b04cfa30e5e06c0378e129ed9e0c43136190bc0338f70a25ea49b7913900964736f6c63430008140033",
  "linkReferences": {},
  "deployedLinkReferences": {}
}