{
  "_format": "hh-sol-artifact-1",
  "contractName": "GinixGameMemory",
  "sourceName": "core/GinixGameMemory.sol",
  "abi": [
    {
      "inputs": [],
      "stateMutability": "nonpayable",
      "type": "constructor"
    },
    {
      "inputs": [
        {
          "internalType": "address",
          "name": "owner",
          "type": "address"
        }
      ],
      "name": "OwnableInvalidOwner",
      "type": "error"
    },
    {
      "inputs": [
        {
          "internalType": "address",
          "name": "account",
          "type": "address"
        }
      ],
      "name": "OwnableUnauthorizedAccount",
      "type": "error"
    },
    {
      "anonymous": false,
      "inputs": [
        {
          "indexed": true,
          "internalType": "address",
          "name": "player",
          "type": "address"
        },
        {
          "indexed": true,
          "internalType": "bytes32",
          "name": "achievementId",
          "type": "bytes32"
        },
        {
          "indexed": false,
          "internalType": "uint64",
          "name": "timestamp",
          "type": "uint64"
        },
        {
          "indexed": false,
          "internalType": "string",
          "name": "metadata",
          "type": "string"
        }
      ],
      "name": "AchievementUnlocked",
      "type": "event"
    },
    {
      "anonymous": false,
      "inputs": [
        {
          "indexed": true,
          "internalType": "address",
          "name": "previousOwner",
          "type": "address"
        },
        {
          "indexed": true,
          "internalType": "address",
          "name": "newOwner",
          "type": "address"
        }
      ],
      "name": "OwnershipTransferred",
      "type": "event"
    },
    {
      "inputs": [
        {
          "internalType": "address",
          "name": "player",
          "type": "address"
        },
        {
          "internalType": "bytes32[]",
          "name": "achievementIds",
          "type": "bytes32[]"
        },
        {
          "internalType": "string[]",
          "name": "metadatas",
          "type": "string[]"
        }
      ],
      "name": "batchUnlock",
      "outputs": [],
      "stateMutability": "nonpayable",
      "type": "function"
    },
    {
      "inputs": [
        {
          "internalType": "address",
          "name": "player",
          "type": "address"
        }
      ],
      "name": "getAchievementCount",
      "outputs": [
        {
          "internalType": "uint256",
          "name": "",
          "type": "uint256"
        }
      ],
      "stateMutability": "view",
      "type": "function"
    },
    {
      "inputs": [
        {
          "internalType": "address",
          "name": "player",
          "type": "address"
        }
      ],
      "name": "getPlayerAchievements",
      "outputs": [
        {
          "components": [
            {
              "internalType": "bytes32",
              "name": "achievementId",
              "type": "bytes32"
            },
            {
              "internalType": "uint64",
              "name": "unlockedAt",
              "type": "uint64"
            },
            {
              "internalType": "string",
              "name": "metadata",
              "type": "string"
            }
          ],
          "internalType": "struct GinixGameMemory.Achievement[]",
          "name": "",
          "type": "tuple[]"
        }
      ],
      "stateMutability": "view",
      "type": "function"
    },
    {
      "inputs": [
        {
          "internalType": "address",
          "name": "",
          "type": "address"
        },
        {
          "internalType": "bytes32",
          "name": "",
          "type": "bytes32"
        }
      ],
      "name": "hasAchievement",
      "outputs": [
        {
          "internalType": "bool",
          "name": "",
          "type": "bool"
        }
      ],
      "stateMutability": "view",
      "type": "function"
    },
    {
      "inputs": [
        {
          "internalType": "address",
          "name": "player",
          "type": "address"
        },
        {
          "internalType": "bytes32",
          "name": "achievementId",
          "type": "bytes32"
        }
      ],
      "name": "hasUnlocked",
      "outputs": [
        {
          "internalType": "bool",
          "name": "",
          "type": "bool"
        }
      ],
      "stateMutability": "view",
      "type": "function"
    },
    {
      "inputs": [],
      "name": "owner",
      "outputs": [
        {
          "internalType": "address",
          "name": "",
          "type": "address"
        }
      ],
      "stateMutability": "view",
      "type": "function"
    },
    {
      "inputs": [],
      "name": "renounceOwnership",
      "outputs": [],
      "stateMutability": "nonpayable",
      "type": "function"
    },
    {
      "inputs": [],
      "name": "totalAchievements",
      "outputs": [
        {
          "internalType": "uint256",
          "name": "",
          "type": "uint256"
        }
      ],
      "stateMutability": "view",
      "type": "function"
    },
    {
      "inputs": [
        {
          "internalType": "address",
          "name": "newOwner",
          "type": "address"
        }
      ],
      "name": "transferOwnership",
      "outputs": [],
      "stateMutability": "nonpayable",
      "type": "function"
    },
    {
      "inputs": [
        {
          "internalType": "address",
          "name": "player",
          "type": "address"
        },
        {
          "internalType": "bytes32",
          "name": "achievementId",
          "type": "bytes32"
        },
        {
          "internalType": "string",
          "name": "metadata",
          "type": "string"
        }
      ],
      "name": "unlock",
      "outputs": [],
      "stateMutability": "nonpayable",
      "type": "function"
    }
  ],
  "bytecode": "0x6080806040523461007a5733156100645760008054336001600160a01b03198216811783556040519290916001600160a01b0316907f8be0079c531659141344cd1fd0a4f28419497f9722a3daafe3b4186f6b6457e09080a3610bc290816100808239f35b631e4fbdf760e01b815260006004820152602490fd5b600080fdfe6080604081815260048036101561001557600080fd5b600092833560e01c90816304e7a165146107c457508063050a6c421461077d5780634f4c8ae1146107455780635347fc33146105d6578063715018a61461057c5780638226883c146103835780638da5cb5b1461035b5780639ce67bdd1461013d578063a61f98371461011a5763f2fde38b1461009157600080fd5b34610116576020366003190112610116576100aa610808565b906100b3610854565b6001600160a01b0391821692831561010057505082546001600160a01b0319811683178455167f8be0079c531659141344cd1fd0a4f28419497f9722a3daafe3b4186f6b6457e08380a380f35b51631e4fbdf760e01b8152908101849052602490fd5b8280fd5b5050346101395781600319360112610139576020906003549051908152f35b5080fd5b50913461035857602080600319360112610139576001600160a01b03610161610808565b168252600281528282209384549067ffffffffffffffff9081831161034557509185928551926005906101988482841b01866108b2565b8085528385018096885284882088915b83831061025d575050505086519583870194848852518095528785818901931b880101959781935b8685106101dd5788880389f35b90919293949596603f1989820301855286838b518051845284838201511683850152015191606092838683015280518094830152865b84811061024857505080830160809081018790529b82019b601f909301601f19160190910197969560010194019291906101d0565b818101840151838201608001528a9301610213565b868b9a959798999b5161026f81610880565b835481526001888186015416838301528c600286018151928c8b9280546102958161091b565b808852928185169182156103215750506001146102dd575b5050509160039493916102c5826001989503836108b2565b820152815201920192019190999796959398996101a8565b8c52868c208c93509091905b8284106103015750505082018401816102c5846102ad565b8193959697929450805483878901015201930190918f928e9695946102e9565b60ff19168a89015292151590921b8601880193508492506102c591508590506102ad565b634e487b7160e01b855260419052602484fd5b80fd5b505034610139578160031936011261013957905490516001600160a01b039091168152602090f35b50346101165760603660031901126101165761039d610808565b9167ffffffffffffffff90602435828111610578576103bf9036908501610823565b9390604435848111610574576103d89036908401610823565b9590926103e3610854565b868203610539575093956001600160a01b03169387805b828110610405575080f35b8787868584868e8561044c99528a8d600193602085815282822061042a888a87610b3a565b358352815260ff838320541615610453575b5050505050505050505050610add565b88906103fa565b7f1a914300e885d43e0836f4a509ff976cad01513b3ef4e624f5738ea843520a2f986104cd886104c18e9a6105249c8f88816104f19e8c936104e89c52808b528d6104a2878787872093610b3a565b3584528b528383209060ff198254161790558152600289522099610b3a565b35974216998a93610b4a565b9190928551976104dc89610880565b885287015236916108d4565b90830152610955565b60036104fd8154610add565b90556105168661050e818b8d610b3a565b35968c610b4a565b8c9391935193849384610b02565b0390a38787868584388f8f908d8c918461043c565b606490602086519162461bcd60e51b83528201526015602482015274082e4e4c2f240d8cadccee8d040dad2e6dac2e8c6d605b1b6044820152fd5b8780fd5b8580fd5b8334610358578060031936011261035857610595610854565b80546001600160a01b03198116825581906001600160a01b03167f8be0079c531659141344cd1fd0a4f28419497f9722a3daafe3b4186f6b6457e08280a380f35b5034610116576060366003190112610116576105f0610808565b602435926044359167ffffffffffffffff918284116107415736602385011215610741578385013591838311610574576024850194602484369201011161057457610639610854565b6001600160a01b031680885260016020908152828920888a528152828920549196909160ff166107005750916106fa916106e27f1a914300e885d43e0836f4a509ff976cad01513b3ef4e624f5738ea843520a2f969594888b5260018152828b208a8c528152828b20600160ff19825416179055888b5260028152828b2095421695868451926106c884610880565b8c84528301526106d936868a6108d4565b84830152610955565b6106ed600354610add565b6003555193849384610b02565b0390a380f35b915162461bcd60e51b815291820152601c60248201527f416368696576656d656e7420616c726561647920756e6c6f636b6564000000006044820152606490fd5b8680fd5b5050346101395760203660031901126101395760209181906001600160a01b0361076d610808565b1681526002845220549051908152f35b50503461013957806003193601126101395760209160ff9082906001600160a01b036107a7610808565b168152600185528181206024358252855220541690519015158152f35b8490843461011657806003193601126101165760209260ff91906001600160a01b036107ee610808565b168152600185528181206024358252855220541615158152f35b600435906001600160a01b038216820361081e57565b600080fd5b9181601f8401121561081e5782359167ffffffffffffffff831161081e576020808501948460051b01011161081e57565b6000546001600160a01b0316330361086857565b60405163118cdaa760e01b8152336004820152602490fd5b6060810190811067ffffffffffffffff82111761089c57604052565b634e487b7160e01b600052604160045260246000fd5b90601f8019910116810190811067ffffffffffffffff82111761089c57604052565b92919267ffffffffffffffff821161089c57604051916108fe601f8201601f1916602001846108b2565b82948184528183011161081e578281602093846000960137010152565b90600182811c9216801561094b575b602083101461093557565b634e487b7160e01b600052602260045260246000fd5b91607f169161092a565b8054906801000000000000000082101561089c576001808301808355831015610ac757600091825260209260038484209102019184518355604060028385019467ffffffffffffffff9586888a01511667ffffffffffffffff19825416179055019501518051938411610ab3576109cc865461091b565b601f8111610a6d575b508491601f8511600114610a0e579394508492919083610a03575b50501b916000199060031b1c1916179055565b0151925038806109f0565b86815285812093958591601f198316915b88838310610a535750505010610a3a575b505050811b019055565b015160001960f88460031b161c19169055388080610a30565b858701518855909601959485019487935090810190610a1f565b868352858320601f860160051c810191878710610aa9575b601f0160051c019084905b828110610a9e5750506109d5565b848155018490610a90565b9091508190610a85565b634e487b7160e01b82526041600452602482fd5b634e487b7160e01b600052603260045260246000fd5b6000198114610aec5760010190565b634e487b7160e01b600052601160045260246000fd5b919260609367ffffffffffffffff829316845260406020850152816040850152848401376000828201840152601f01601f1916010190565b9190811015610ac75760051b0190565b9190811015610ac75760051b81013590601e198136030182121561081e57019081359167ffffffffffffffff831161081e57602001823603811361081e57919056fea2646970667358221220fe70434d19fedb33a0db7b1c7e23959c35e461ed8cd25e66c69b6830c746465464736f6c63430008140033",
  "linkReferences": {},
  "deployedLinkReferences": {}
}